{"contracts/mocks/MentoBrokerMock.sol":{"MentoBrokerMock":{"abi":[{"inputs":[{"internalType":"address","name":"","type":"address"},{"internalType":"bytes32","name":"","type":"bytes32"},{"internalType":"address","name":"","type":"address"},{"internalType":"address","name":"","type":"address"},{"internalType":"uint256","name":"amountIn","type":"uint256"}],"name":"getAmountOut","outputs":[{"internalType":"uint256","name":"","type":"uint256"}],"stateMutability":"view","type":"function"},{"inputs":[{"internalType":"uint256","name":"_multiplier","type":"uint256"}],"name":"setSwapMultiplier","outputs":[],"stateMutability":"nonpayable","type":"function"},{"inputs":[{"internalType":"address","name":"","type":"address"},{"internalType":"bytes32","name":"","type":"bytes32"},{"internalType":"address","name":"tokenIn","type":"address"},{"internalType":"address","name":"tokenOut","type":"address"},{"internalType":"uint256","name":"amountIn","type":"uint256"},{"internalType":"uint256","name":"","type":"uint256"}],"name":"swapIn","outputs":[{"internalType":"uint256","name":"","type":"uint256"}],"stateMutability":"nonpayable","type":"function"},{"inputs":[],"name":"swapMultiplier","outputs":[{"internalType":"uint256","name":"","type":"uint256"}],"stateMutability":"view","type":"function"}],"evm":{"bytecode":{"linkReferences":{},"object":"6080604052606460005534801561001557600080fd5b50610658806100256000396000f3fe608060405234801561001057600080fd5b506004361061004c5760003560e01c806345dc16e0146100515780639858b4881461006d578063a20f23051461008b578063ddbbe850146100bb575b600080fd5b61006b6004803603810190610066919061028a565b6100eb565b005b6100756100f5565b60405161008291906102c6565b60405180910390f35b6100a560048036038101906100a09190610375565b6100fb565b6040516100b291906102c6565b60405180910390f35b6100d560048036038101906100d091906103f0565b610122565b6040516100e291906102c6565b60405180910390f35b8060008190555050565b60005481565b600060646000548361010d91906104ac565b610117919061051d565b905095945050505050565b60008060646000548561013591906104ac565b61013f919061051d565b90508573ffffffffffffffffffffffffffffffffffffffff166323b872dd3330876040518463ffffffff1660e01b815260040161017e9392919061055d565b6020604051808303816000875af115801561019d573d6000803e3d6000fd5b505050506040513d601f19601f820116820180604052508101906101c191906105cc565b508473ffffffffffffffffffffffffffffffffffffffff1663a9059cbb33836040518363ffffffff1660e01b81526004016101fd9291906105f9565b6020604051808303816000875af115801561021c573d6000803e3d6000fd5b505050506040513d601f19601f8201168201806040525081019061024091906105cc565b50809150509695505050505050565b600080fd5b6000819050919050565b61026781610254565b811461027257600080fd5b50565b6000813590506102848161025e565b92915050565b6000602082840312156102a05761029f61024f565b5b60006102ae84828501610275565b91505092915050565b6102c081610254565b82525050565b60006020820190506102db60008301846102b7565b92915050565b600073ffffffffffffffffffffffffffffffffffffffff82169050919050565b600061030c826102e1565b9050919050565b61031c81610301565b811461032757600080fd5b50565b60008135905061033981610313565b92915050565b6000819050919050565b6103528161033f565b811461035d57600080fd5b50565b60008135905061036f81610349565b92915050565b600080600080600060a086880312156103915761039061024f565b5b600061039f8882890161032a565b95505060206103b088828901610360565b94505060406103c18882890161032a565b93505060606103d28882890161032a565b92505060806103e388828901610275565b9150509295509295909350565b60008060008060008060c0878903121561040d5761040c61024f565b5b600061041b89828a0161032a565b965050602061042c89828a01610360565b955050604061043d89828a0161032a565b945050606061044e89828a0161032a565b935050608061045f89828a01610275565b92505060a061047089828a01610275565b9150509295509295509295565b7f4e487b7100000000000000000000000000000000000000000000000000000000600052601160045260246000fd5b60006104b782610254565b91506104c283610254565b92508282026104d081610254565b915082820484148315176104e7576104e661047d565b5b5092915050565b7f4e487b7100000000000000000000000000000000000000000000000000000000600052601260045260246000fd5b600061052882610254565b915061053383610254565b925082610543576105426104ee565b5b828204905092915050565b61055781610301565b82525050565b6000606082019050610572600083018661054e565b61057f602083018561054e565b61058c60408301846102b7565b949350505050565b60008115159050919050565b6105a981610594565b81146105b457600080fd5b50565b6000815190506105c6816105a0565b92915050565b6000602082840312156105e2576105e161024f565b5b60006105f0848285016105b7565b91505092915050565b600060408201905061060e600083018561054e565b61061b60208301846102b7565b939250505056fea26469706673582212201ae07fe402d1c8c0dafed779a11211fdb42ffe5d24f143f8be57d009402e0cdd64736f6c63430008140033","opcodes":"PUSH1 0x80 PUSH1 0x40 MSTORE PUSH1 0x64 PUSH1 0x0 SSTORE CALLVALUE DUP1 ISZERO PUSH2 0x15 JUMPI PUSH1 0x0 DUP1 REVERT JUMPDEST POP PUSH2 0x658 DUP1 PUSH2 0x25 PUSH1 0x0 CODECOPY PUSH1 0x0 RETURN INVALID PUSH1 0x80 PUSH1 0x40 MSTORE CALLVALUE DUP1 ISZERO PUSH2 0x10 JUMPI PUSH1 0x0 DUP1 REVERT JUMPDEST POP PUSH1 0x4 CALLDATASIZE LT PUSH2 0x4C JUMPI PUSH1 0x0 CALLDATALOAD PUSH1 0xE0 SHR DUP1 PUSH4 0x45DC16E0 EQ PUSH2 0x51 JUMPI DUP1 PUSH4 0x9858B488 EQ PUSH2 0x6D JUMPI DUP1 PUSH4 0xA20F2305 EQ PUSH2 0x8B JUMPI DUP1 PUSH4 0xDDBBE850 EQ PUSH2 0xBB JUMPI JUMPDEST PUSH1 0x0 DUP1 REVERT JUMPDEST PUSH2 0x6B PUSH1 0x4 DUP1 CALLDATASIZE SUB DUP2 ADD SWAP1 PUSH2 0x66 SWAP2 SWAP1 PUSH2 0x28A JUMP JUMPDEST PUSH2 0xEB JUMP JUMPDEST STOP JUMPDEST PUSH2 0x75 PUSH2 0xF5 JUMP JUMPDEST PUSH1 0x40 MLOAD PUSH2 0x82 SWAP2 SWAP1 PUSH2 0x2C6 JUMP JUMPDEST PUSH1 0x40 MLOAD DUP1 SWAP2 SUB SWAP1 RETURN JUMPDEST PUSH2 0xA5 PUSH1 0x4 DUP1 CALLDATASIZE SUB DUP2 ADD SWAP1 PUSH2 0xA0 SWAP2 SWAP1 PUSH2 0x375 JUMP JUMPDEST PUSH2 0xFB JUMP JUMPDEST PUSH1 0x40 MLOAD PUSH2 0xB2 SWAP2 SWAP1 PUSH2 0x2C6 JUMP JUMPDEST PUSH1 0x40 MLOAD DUP1 SWAP2 SUB SWAP1 RETURN JUMPDEST PUSH2 0xD5 PUSH1 0x4 DUP1 CALLDATASIZE SUB DUP2 ADD SWAP1 PUSH2 0xD0 SWAP2 SWAP1 PUSH2 0x3F0 JUMP JUMPDEST PUSH2 0x122 JUMP JUMPDEST PUSH1 0x40 MLOAD PUSH2 0xE2 SWAP2 SWAP1 PUSH2 0x2C6 JUMP JUMPDEST PUSH1 0x40 MLOAD DUP1 SWAP2 SUB SWAP1 RETURN JUMPDEST DUP1 PUSH1 0x0 DUP2 SWAP1 SSTORE POP POP JUMP JUMPDEST PUSH1 0x0 SLOAD DUP2 JUMP JUMPDEST PUSH1 0x0 PUSH1 0x64 PUSH1 0x0 SLOAD DUP4 PUSH2 0x10D SWAP2 SWAP1 PUSH2 0x4AC JUMP JUMPDEST PUSH2 0x117 SWAP2 SWAP1 PUSH2 0x51D JUMP JUMPDEST SWAP1 POP SWAP6 SWAP5 POP POP POP POP POP JUMP JUMPDEST PUSH1 0x0 DUP1 PUSH1 0x64 PUSH1 0x0 SLOAD DUP6 PUSH2 0x135 SWAP2 SWAP1 PUSH2 0x4AC JUMP JUMPDEST PUSH2 0x13F SWAP2 SWAP1 PUSH2 0x51D JUMP JUMPDEST SWAP1 POP DUP6 PUSH20 0xFFFFFFFFFFFFFFFFFFFFFFFFFFFFFFFFFFFFFFFF AND PUSH4 0x23B872DD CALLER ADDRESS DUP8 PUSH1 0x40 MLOAD DUP5 PUSH4 0xFFFFFFFF AND PUSH1 0xE0 SHL DUP2 MSTORE PUSH1 0x4 ADD PUSH2 0x17E SWAP4 SWAP3 SWAP2 SWAP1 PUSH2 0x55D JUMP JUMPDEST PUSH1 0x20 PUSH1 0x40 MLOAD DUP1 DUP4 SUB DUP2 PUSH1 0x0 DUP8 GAS CALL ISZERO DUP1 ISZERO PUSH2 0x19D JUMPI RETURNDATASIZE PUSH1 0x0 DUP1 RETURNDATACOPY RETURNDATASIZE PUSH1 0x0 REVERT JUMPDEST POP POP POP POP PUSH1 0x40 MLOAD RETURNDATASIZE PUSH1 0x1F NOT PUSH1 0x1F DUP3 ADD AND DUP3 ADD DUP1 PUSH1 0x40 MSTORE POP DUP2 ADD SWAP1 PUSH2 0x1C1 SWAP2 SWAP1 PUSH2 0x5CC JUMP JUMPDEST POP DUP5 PUSH20 0xFFFFFFFFFFFFFFFFFFFFFFFFFFFFFFFFFFFFFFFF AND PUSH4 0xA9059CBB CALLER DUP4 PUSH1 0x40 MLOAD DUP4 PUSH4 0xFFFFFFFF AND PUSH1 0xE0 SHL DUP2 MSTORE PUSH1 0x4 ADD PUSH2 0x1FD SWAP3 SWAP2 SWAP1 PUSH2 0x5F9 JUMP JUMPDEST PUSH1 0x20 PUSH1 0x40 MLOAD DUP1 DUP4 SUB DUP2 PUSH1 0x0 DUP8 GAS CALL ISZERO DUP1 ISZERO PUSH2 0x21C JUMPI RETURNDATASIZE PUSH1 0x0 DUP1 RETURNDATACOPY RETURNDATASIZE PUSH1 0x0 REVERT JUMPDEST POP POP POP POP PUSH1 0x40 MLOAD RETURNDATASIZE PUSH1 0x1F NOT PUSH1 0x1F DUP3 ADD AND DUP3 ADD DUP1 PUSH1 0x40 MSTORE POP DUP2 ADD SWAP1 PUSH2 0x240 SWAP2 SWAP1 PUSH2 0x5CC JUMP JUMPDEST POP DUP1 SWAP2 POP POP SWAP7 SWAP6 POP POP POP POP POP POP JUMP JUMPDEST PUSH1 0x0 DUP1 REVERT JUMPDEST PUSH1 0x0 DUP2 SWAP1 POP SWAP2 SWAP1 POP JUMP JUMPDEST PUSH2 0x267 DUP2 PUSH2 0x254 JUMP JUMPDEST DUP2 EQ PUSH2 0x272 JUMPI PUSH1 0x0 DUP1 REVERT JUMPDEST POP JUMP JUMPDEST PUSH1 0x0 DUP2 CALLDATALOAD SWAP1 POP PUSH2 0x284 DUP2 PUSH2 0x25E JUMP JUMPDEST SWAP3 SWAP2 POP POP JUMP JUMPDEST PUSH1 0x0 PUSH1 0x20 DUP3 DUP5 SUB SLT ISZERO PUSH2 0x2A0 JUMPI PUSH2 0x29F PUSH2 0x24F JUMP JUMPDEST JUMPDEST PUSH1 0x0 PUSH2 0x2AE DUP5 DUP3 DUP6 ADD PUSH2 0x275 JUMP JUMPDEST SWAP2 POP POP SWAP3 SWAP2 POP POP JUMP JUMPDEST PUSH2 0x2C0 DUP2 PUSH2 0x254 JUMP JUMPDEST DUP3 MSTORE POP POP JUMP JUMPDEST PUSH1 0x0 PUSH1 0x20 DUP3 ADD SWAP1 POP PUSH2 0x2DB PUSH1 0x0 DUP4 ADD DUP5 PUSH2 0x2B7 JUMP JUMPDEST SWAP3 SWAP2 POP POP JUMP JUMPDEST PUSH1 0x0 PUSH20 0xFFFFFFFFFFFFFFFFFFFFFFFFFFFFFFFFFFFFFFFF DUP3 AND SWAP1 POP SWAP2 SWAP1 POP JUMP JUMPDEST PUSH1 0x0 PUSH2 0x30C DUP3 PUSH2 0x2E1 JUMP JUMPDEST SWAP1 POP SWAP2 SWAP1 POP JUMP JUMPDEST PUSH2 0x31C DUP2 PUSH2 0x301 JUMP JUMPDEST DUP2 EQ PUSH2 0x327 JUMPI PUSH1 0x0 DUP1 REVERT JUMPDEST POP JUMP JUMPDEST PUSH1 0x0 DUP2 CALLDATALOAD SWAP1 POP PUSH2 0x339 DUP2 PUSH2 0x313 JUMP JUMPDEST SWAP3 SWAP2 POP POP JUMP JUMPDEST PUSH1 0x0 DUP2 SWAP1 POP SWAP2 SWAP1 POP JUMP JUMPDEST PUSH2 0x352 DUP2 PUSH2 0x33F JUMP JUMPDEST DUP2 EQ PUSH2 0x35D JUMPI PUSH1 0x0 DUP1 REVERT JUMPDEST POP JUMP JUMPDEST PUSH1 0x0 DUP2 CALLDATALOAD SWAP1 POP PUSH2 0x36F DUP2 PUSH2 0x349 JUMP JUMPDEST SWAP3 SWAP2 POP POP JUMP JUMPDEST PUSH1 0x0 DUP1 PUSH1 0x0 DUP1 PUSH1 0x0 PUSH1 0xA0 DUP7 DUP9 SUB SLT ISZERO PUSH2 0x391 JUMPI PUSH2 0x390 PUSH2 0x24F JUMP JUMPDEST JUMPDEST PUSH1 0x0 PUSH2 0x39F DUP9 DUP3 DUP10 ADD PUSH2 0x32A JUMP JUMPDEST SWAP6 POP POP PUSH1 0x20 PUSH2 0x3B0 DUP9 DUP3 DUP10 ADD PUSH2 0x360 JUMP JUMPDEST SWAP5 POP POP PUSH1 0x40 PUSH2 0x3C1 DUP9 DUP3 DUP10 ADD PUSH2 0x32A JUMP JUMPDEST SWAP4 POP POP PUSH1 0x60 PUSH2 0x3D2 DUP9 DUP3 DUP10 ADD PUSH2 0x32A JUMP JUMPDEST SWAP3 POP POP PUSH1 0x80 PUSH2 0x3E3 DUP9 DUP3 DUP10 ADD PUSH2 0x275 JUMP JUMPDEST SWAP2 POP POP SWAP3 SWAP6 POP SWAP3 SWAP6 SWAP1 SWAP4 POP JUMP JUMPDEST PUSH1 0x0 DUP1 PUSH1 0x0 DUP1 PUSH1 0x0 DUP1 PUSH1 0xC0 DUP8 DUP10 SUB SLT ISZERO PUSH2 0x40D JUMPI PUSH2 0x40C PUSH2 0x24F JUMP JUMPDEST JUMPDEST PUSH1 0x0 PUSH2 0x41B DUP10 DUP3 DUP11 ADD PUSH2 0x32A JUMP JUMPDEST SWAP7 POP POP PUSH1 0x20 PUSH2 0x42C DUP10 DUP3 DUP11 ADD PUSH2 0x360 JUMP JUMPDEST SWAP6 POP POP PUSH1 0x40 PUSH2 0x43D DUP10 DUP3 DUP11 ADD PUSH2 0x32A JUMP JUMPDEST SWAP5 POP POP PUSH1 0x60 PUSH2 0x44E DUP10 DUP3 DUP11 ADD PUSH2 0x32A JUMP JUMPDEST SWAP4 POP POP PUSH1 0x80 PUSH2 0x45F DUP10 DUP3 DUP11 ADD PUSH2 0x275 JUMP JUMPDEST SWAP3 POP POP PUSH1 0xA0 PUSH2 0x470 DUP10 DUP3 DUP11 ADD PUSH2 0x275 JUMP JUMPDEST SWAP2 POP POP SWAP3 SWAP6 POP SWAP3 SWAP6 POP SWAP3 SWAP6 JUMP JUMPDEST PUSH32 0x4E487B7100000000000000000000000000000000000000000000000000000000 PUSH1 0x0 MSTORE PUSH1 0x11 PUSH1 0x4 MSTORE PUSH1 0x24 PUSH1 0x0 REVERT JUMPDEST PUSH1 0x0 PUSH2 0x4B7 DUP3 PUSH2 0x254 JUMP JUMPDEST SWAP2 POP PUSH2 0x4C2 DUP4 PUSH2 0x254 JUMP JUMPDEST SWAP3 POP DUP3 DUP3 MUL PUSH2 0x4D0 DUP2 PUSH2 0x254 JUMP JUMPDEST SWAP2 POP DUP3 DUP3 DIV DUP5 EQ DUP4 ISZERO OR PUSH2 0x4E7 JUMPI PUSH2 0x4E6 PUSH2 0x47D JUMP JUMPDEST JUMPDEST POP SWAP3 SWAP2 POP POP JUMP JUMPDEST PUSH32 0x4E487B7100000000000000000000000000000000000000000000000000000000 PUSH1 0x0 MSTORE PUSH1 0x12 PUSH1 0x4 MSTORE PUSH1 0x24 PUSH1 0x0 REVERT JUMPDEST PUSH1 0x0 PUSH2 0x528 DUP3 PUSH2 0x254 JUMP JUMPDEST SWAP2 POP PUSH2 0x533 DUP4 PUSH2 0x254 JUMP JUMPDEST SWAP3 POP DUP3 PUSH2 0x543 JUMPI PUSH2 0x542 PUSH2 0x4EE JUMP JUMPDEST JUMPDEST DUP3 DUP3 DIV SWAP1 POP SWAP3 SWAP2 POP POP JUMP JUMPDEST PUSH2 0x557 DUP2 PUSH2 0x301 JUMP JUMPDEST DUP3 MSTORE POP POP JUMP JUMPDEST PUSH1 0x0 PUSH1 0x60 DUP3 ADD SWAP1 POP PUSH2 0x572 PUSH1 0x0 DUP4 ADD DUP7 PUSH2 0x54E JUMP JUMPDEST PUSH2 0x57F PUSH1 0x20 DUP4 ADD DUP6 PUSH2 0x54E JUMP JUMPDEST PUSH2 0x58C PUSH1 0x40 DUP4 ADD DUP5 PUSH2 0x2B7 JUMP JUMPDEST SWAP5 SWAP4 POP POP POP POP JUMP JUMPDEST PUSH1 0x0 DUP2 ISZERO ISZERO SWAP1 POP SWAP2 SWAP1 POP JUMP JUMPDEST PUSH2 0x5A9 DUP2 PUSH2 0x594 JUMP JUMPDEST DUP2 EQ PUSH2 0x5B4 JUMPI PUSH1 0x0 DUP1 REVERT JUMPDEST POP JUMP JUMPDEST PUSH1 0x0 DUP2 MLOAD SWAP1 POP PUSH2 0x5C6 DUP2 PUSH2 0x5A0 JUMP JUMPDEST SWAP3 SWAP2 POP POP JUMP JUMPDEST PUSH1 0x0 PUSH1 0x20 DUP3 DUP5 SUB SLT ISZERO PUSH2 0x5E2 JUMPI PUSH2 0x5E1 PUSH2 0x24F JUMP JUMPDEST JUMPDEST PUSH1 0x0 PUSH2 0x5F0 DUP5 DUP3 DUP6 ADD PUSH2 0x5B7 JUMP JUMPDEST SWAP2 POP POP SWAP3 SWAP2 POP POP JUMP JUMPDEST PUSH1 0x0 PUSH1 0x40 DUP3 ADD SWAP1 POP PUSH2 0x60E PUSH1 0x0 DUP4 ADD DUP6 PUSH2 0x54E JUMP JUMPDEST PUSH2 0x61B PUSH1 0x20 DUP4 ADD DUP5 PUSH2 0x2B7 JUMP JUMPDEST SWAP4 SWAP3 POP POP POP JUMP INVALID LOG2 PUSH5 0x6970667358 0x22 SLT KECCAK256 BYTE 0xE0 PUSH32 0xE402D1C8C0DAFED779A11211FDB42FFE5D24F143F8BE57D009402E0CDD64736F PUSH13 0x63430008140033000000000000 "},"methodIdentifiers":{"getAmountOut(address,bytes32,address,address,uint256)":"a20f2305","setSwapMultiplier(uint256)":"45dc16e0","swapIn(address,bytes32,address,address,uint256,uint256)":"ddbbe850","swapMultiplier()":"9858b488"}}}}}