{"contracts/cPiggyBank.sol":{"PiggyBank":{"abi":[{"inputs":[{"internalType":"address","name":"_iMentoBroker","type":"address"},{"internalType":"address","name":"_mentoOracle","type":"address"},{"internalType":"address","name":"_exchangeProvider","type":"address"},{"internalType":"address","name":"_cCOP","type":"address"},{"internalType":"address","name":"_cUSD","type":"address"},{"internalType":"address","name":"_cEUR","type":"address"},{"internalType":"address","name":"_cGBP","type":"address"},{"internalType":"bytes32","name":"_exchangeId_cCOP_cUSD","type":"bytes32"},{"internalType":"bytes32","name":"_exchangeId_cUSD_cEUR","type":"bytes32"},{"internalType":"bytes32","name":"_exchangeId_cUSD_cGBP","type":"bytes32"},{"internalType":"address","name":"_developer","type":"address"}],"stateMutability":"nonpayable","type":"constructor"},{"inputs":[{"internalType":"address","name":"owner","type":"address"}],"name":"OwnableInvalidOwner","type":"error"},{"inputs":[{"internalType":"address","name":"account","type":"address"}],"name":"OwnableUnauthorizedAccount","type":"error"},{"anonymous":false,"inputs":[{"indexed":true,"internalType":"address","name":"previousOwner","type":"address"},{"indexed":true,"internalType":"address","name":"newOwner","type":"address"}],"name":"OwnershipTransferred","type":"event"},{"anonymous":false,"inputs":[{"indexed":true,"internalType":"address","name":"user","type":"address"},{"indexed":false,"internalType":"uint256","name":"index","type":"uint256"},{"indexed":false,"internalType":"uint256","name":"userReturnAmount","type":"uint256"},{"indexed":false,"internalType":"uint256","name":"developerFee","type":"uint256"}],"name":"PiggyClaimed","type":"event"},{"anonymous":false,"inputs":[{"indexed":true,"internalType":"address","name":"user","type":"address"},{"indexed":false,"internalType":"uint256","name":"totalAmount","type":"uint256"},{"indexed":false,"internalType":"uint256","name":"duration","type":"uint256"},{"indexed":false,"internalType":"bool","name":"safeMode","type":"bool"},{"indexed":false,"internalType":"uint256","name":"cCOPAmount","type":"uint256"},{"indexed":false,"internalType":"uint256","name":"cUSDAmountReceived","type":"uint256"},{"indexed":false,"internalType":"uint256","name":"cEURAmountReceived","type":"uint256"},{"indexed":false,"internalType":"uint256","name":"cGBPAmountReceived","type":"uint256"}],"name":"PiggyCreated","type":"event"},{"anonymous":false,"inputs":[{"indexed":true,"internalType":"address","name":"funder","type":"address"},{"indexed":false,"internalType":"uint256","name":"totalAmount","type":"uint256"}],"name":"RewardsFunded","type":"event"},{"anonymous":false,"inputs":[{"indexed":true,"internalType":"address","name":"user","type":"address"},{"indexed":false,"internalType":"uint256","name":"index","type":"uint256"},{"indexed":false,"internalType":"uint256","name":"principal","type":"uint256"},{"indexed":false,"internalType":"uint256","name":"reward","type":"uint256"},{"indexed":false,"internalType":"uint256","name":"developerFee","type":"uint256"}],"name":"StakeClaimed","type":"event"},{"anonymous":false,"inputs":[{"indexed":true,"internalType":"address","name":"user","type":"address"},{"indexed":false,"internalType":"uint256","name":"amount","type":"uint256"},{"indexed":false,"internalType":"uint256","name":"duration","type":"uint256"},{"indexed":false,"internalType":"uint256","name":"reward","type":"uint256"}],"name":"StakeCreated","type":"event"},{"inputs":[],"name":"MAX_DEPOSIT_PER_WALLET","outputs":[{"internalType":"uint256","name":"","type":"uint256"}],"stateMutability":"view","type":"function"},{"inputs":[],"name":"STAKING_DEV_FEE_PERCENTAGE","outputs":[{"internalType":"uint256","name":"","type":"uint256"}],"stateMutability":"view","type":"function"},{"inputs":[],"name":"cCOP","outputs":[{"internalType":"address","name":"","type":"address"}],"stateMutability":"view","type":"function"},{"inputs":[],"name":"cEUR","outputs":[{"internalType":"address","name":"","type":"address"}],"stateMutability":"view","type":"function"},{"inputs":[],"name":"cGBP","outputs":[{"internalType":"address","name":"","type":"address"}],"stateMutability":"view","type":"function"},{"inputs":[],"name":"cUSD","outputs":[{"internalType":"address","name":"","type":"address"}],"stateMutability":"view","type":"function"},{"inputs":[{"internalType":"uint256","name":"_index","type":"uint256"}],"name":"claim","outputs":[],"stateMutability":"nonpayable","type":"function"},{"inputs":[{"internalType":"uint256","name":"amount","type":"uint256"},{"internalType":"uint256","name":"lockDays","type":"uint256"},{"internalType":"bool","name":"safeMode","type":"bool"}],"name":"deposit","outputs":[],"stateMutability":"nonpayable","type":"function"},{"inputs":[],"name":"developer","outputs":[{"internalType":"address","name":"","type":"address"}],"stateMutability":"view","type":"function"},{"inputs":[],"name":"exchangeId_cCOP_cUSD","outputs":[{"internalType":"bytes32","name":"","type":"bytes32"}],"stateMutability":"view","type":"function"},{"inputs":[],"name":"exchangeId_cUSD_cEUR","outputs":[{"internalType":"bytes32","name":"","type":"bytes32"}],"stateMutability":"view","type":"function"},{"inputs":[],"name":"exchangeId_cUSD_cGBP","outputs":[{"internalType":"bytes32","name":"","type":"bytes32"}],"stateMutability":"view","type":"function"},{"inputs":[],"name":"exchangeProvider","outputs":[{"internalType":"address","name":"","type":"address"}],"stateMutability":"view","type":"function"},{"inputs":[{"internalType":"uint256","name":"_amount","type":"uint256"}],"name":"fundRewards","outputs":[],"stateMutability":"nonpayable","type":"function"},{"inputs":[{"internalType":"address","name":"_user","type":"address"},{"internalType":"uint256","name":"_index","type":"uint256"}],"name":"getPiggyValue","outputs":[{"internalType":"uint256","name":"","type":"uint256"}],"stateMutability":"view","type":"function"},{"inputs":[{"internalType":"uint256","name":"_duration","type":"uint256"}],"name":"getPoolInfo","outputs":[{"components":[{"internalType":"uint256","name":"totalStaked","type":"uint256"},{"internalType":"uint256","name":"maxTotalStake","type":"uint256"},{"internalType":"uint256","name":"totalRewardsFunded","type":"uint256"},{"internalType":"uint256","name":"totalRewardsPromised","type":"uint256"},{"internalType":"uint256","name":"duration","type":"uint256"}],"internalType":"struct PiggyBank.StakingPool","name":"","type":"tuple"}],"stateMutability":"view","type":"function"},{"inputs":[],"name":"getRewardsOut","outputs":[],"stateMutability":"nonpayable","type":"function"},{"inputs":[{"internalType":"address","name":"_user","type":"address"}],"name":"getUserPiggies","outputs":[{"components":[{"internalType":"address","name":"owner","type":"address"},{"internalType":"uint256","name":"initialAmount","type":"uint256"},{"internalType":"uint256","name":"cCOPAmount","type":"uint256"},{"internalType":"uint256","name":"cUSDAmount","type":"uint256"},{"internalType":"uint256","name":"cEURAmount","type":"uint256"},{"internalType":"uint256","name":"cGBPAmount","type":"uint256"},{"internalType":"uint256","name":"startTime","type":"uint256"},{"internalType":"uint256","name":"duration","type":"uint256"},{"internalType":"bool","name":"safeMode","type":"bool"},{"internalType":"bool","name":"claimed","type":"bool"}],"internalType":"struct PiggyBank.Piggy[]","name":"","type":"tuple[]"}],"stateMutability":"view","type":"function"},{"inputs":[{"internalType":"address","name":"_user","type":"address"}],"name":"getUserStakes","outputs":[{"components":[{"internalType":"uint256","name":"amount","type":"uint256"},{"internalType":"uint256","name":"startTime","type":"uint256"},{"internalType":"uint256","name":"duration","type":"uint256"},{"internalType":"uint256","name":"reward","type":"uint256"},{"internalType":"bool","name":"claimed","type":"bool"}],"internalType":"struct PiggyBank.StakingPosition[]","name":"","type":"tuple[]"}],"stateMutability":"view","type":"function"},{"inputs":[],"name":"iMentoBroker","outputs":[{"internalType":"contract IMentoBroker","name":"","type":"address"}],"stateMutability":"view","type":"function"},{"inputs":[],"name":"mentoOracle","outputs":[{"internalType":"contract MentoOracleHandler","name":"","type":"address"}],"stateMutability":"view","type":"function"},{"inputs":[],"name":"owner","outputs":[{"internalType":"address","name":"","type":"address"}],"stateMutability":"view","type":"function"},{"inputs":[{"internalType":"address","name":"","type":"address"},{"internalType":"uint256","name":"","type":"uint256"}],"name":"piggies","outputs":[{"internalType":"address","name":"owner","type":"address"},{"internalType":"uint256","name":"initialAmount","type":"uint256"},{"internalType":"uint256","name":"cCOPAmount","type":"uint256"},{"internalType":"uint256","name":"cUSDAmount","type":"uint256"},{"internalType":"uint256","name":"cEURAmount","type":"uint256"},{"internalType":"uint256","name":"cGBPAmount","type":"uint256"},{"internalType":"uint256","name":"startTime","type":"uint256"},{"internalType":"uint256","name":"duration","type":"uint256"},{"internalType":"bool","name":"safeMode","type":"bool"},{"internalType":"bool","name":"claimed","type":"bool"}],"stateMutability":"view","type":"function"},{"inputs":[],"name":"renounceOwnership","outputs":[],"stateMutability":"nonpayable","type":"function"},{"inputs":[{"internalType":"uint256","name":"_amount","type":"uint256"},{"internalType":"uint256","name":"_duration","type":"uint256"}],"name":"stake","outputs":[],"stateMutability":"nonpayable","type":"function"},{"inputs":[{"internalType":"uint256","name":"","type":"uint256"}],"name":"stakingPools","outputs":[{"internalType":"uint256","name":"totalStaked","type":"uint256"},{"internalType":"uint256","name":"maxTotalStake","type":"uint256"},{"internalType":"uint256","name":"totalRewardsFunded","type":"uint256"},{"internalType":"uint256","name":"totalRewardsPromised","type":"uint256"},{"internalType":"uint256","name":"duration","type":"uint256"}],"stateMutability":"view","type":"function"},{"inputs":[{"internalType":"address","name":"","type":"address"}],"name":"totalStakedAmountByUser","outputs":[{"internalType":"uint256","name":"","type":"uint256"}],"stateMutability":"view","type":"function"},{"inputs":[{"internalType":"address","name":"newOwner","type":"address"}],"name":"transferOwnership","outputs":[],"stateMutability":"nonpayable","type":"function"},{"inputs":[{"internalType":"uint256","name":"_index","type":"uint256"}],"name":"unstake","outputs":[],"stateMutability":"nonpayable","type":"function"},{"inputs":[{"internalType":"address","name":"","type":"address"},{"internalType":"uint256","name":"","type":"uint256"}],"name":"userStakes","outputs":[{"internalType":"uint256","name":"amount","type":"uint256"},{"internalType":"uint256","name":"startTime","type":"uint256"},{"internalType":"uint256","name":"duration","type":"uint256"},{"internalType":"uint256","name":"reward","type":"uint256"},{"internalType":"bool","name":"claimed","type":"bool"}],"stateMutability":"view","type":"function"}],"evm":{"bytecode":{"linkReferences":{},"object":"6101806040523480156200001257600080fd5b50604051620049003803806200490083398181016040528101906200003891906200059d565b33600073ffffffffffffffffffffffffffffffffffffffff168173ffffffffffffffffffffffffffffffffffffffff1603620000ae5760006040517f1e4fbdf7000000000000000000000000000000000000000000000000000000008152600401620000a59190620006bb565b60405180910390fd5b620000bf816200043460201b60201c565b508a600260006101000a81548173ffffffffffffffffffffffffffffffffffffffff021916908373ffffffffffffffffffffffffffffffffffffffff16021790555089600160006101000a81548173ffffffffffffffffffffffffffffffffffffffff021916908373ffffffffffffffffffffffffffffffffffffffff1602179055508873ffffffffffffffffffffffffffffffffffffffff166101008173ffffffffffffffffffffffffffffffffffffffff16815250508773ffffffffffffffffffffffffffffffffffffffff1660808173ffffffffffffffffffffffffffffffffffffffff16815250508673ffffffffffffffffffffffffffffffffffffffff1660a08173ffffffffffffffffffffffffffffffffffffffff16815250508573ffffffffffffffffffffffffffffffffffffffff1660c08173ffffffffffffffffffffffffffffffffffffffff16815250508473ffffffffffffffffffffffffffffffffffffffff1660e08173ffffffffffffffffffffffffffffffffffffffff168152505083610120818152505082610140818152505081610160818152505080600360006101000a81548173ffffffffffffffffffffffffffffffffffffffff021916908373ffffffffffffffffffffffffffffffffffffffff1602179055506040518060a00160405280600081526020016b0a56fa5b99019a5c8000000081526020016000815260200160008152602001601e81525060056000601e815260200190815260200160002060008201518160000155602082015181600101556040820151816002015560608201518160030155608082015181600401559050506040518060a00160405280600081526020016b03bddc2f53582abccecc000081526020016000815260200160008152602001603c81525060056000603c815260200190815260200160002060008201518160000155602082015181600101556040820151816002015560608201518160030155608082015181600401559050506040518060a00160405280600081526020016b0151db3de1e9ad6ecf14000081526020016000815260200160008152602001605a81525060056000605a815260200190815260200160002060008201518160000155602082015181600101556040820151816002015560608201518160030155608082015181600401559050505050505050505050505050620006d8565b60008060009054906101000a900473ffffffffffffffffffffffffffffffffffffffff169050816000806101000a81548173ffffffffffffffffffffffffffffffffffffffff021916908373ffffffffffffffffffffffffffffffffffffffff1602179055508173ffffffffffffffffffffffffffffffffffffffff168173ffffffffffffffffffffffffffffffffffffffff167f8be0079c531659141344cd1fd0a4f28419497f9722a3daafe3b4186f6b6457e060405160405180910390a35050565b600080fd5b600073ffffffffffffffffffffffffffffffffffffffff82169050919050565b60006200052a82620004fd565b9050919050565b6200053c816200051d565b81146200054857600080fd5b50565b6000815190506200055c8162000531565b92915050565b6000819050919050565b620005778162000562565b81146200058357600080fd5b50565b60008151905062000597816200056c565b92915050565b60008060008060008060008060008060006101608c8e031215620005c657620005c5620004f8565b5b6000620005d68e828f016200054b565b9b50506020620005e98e828f016200054b565b9a50506040620005fc8e828f016200054b565b99505060606200060f8e828f016200054b565b9850506080620006228e828f016200054b565b97505060a0620006358e828f016200054b565b96505060c0620006488e828f016200054b565b95505060e06200065b8e828f0162000586565b9450506101006200066f8e828f0162000586565b935050610120620006838e828f0162000586565b925050610140620006978e828f016200054b565b9150509295989b509295989b9093969950565b620006b5816200051d565b82525050565b6000602082019050620006d26000830184620006aa565b92915050565b60805160a05160c05160e051610100516101205161014051610160516140a36200085d600039600081816108a301528181610ac40152818161128e01526118ee01526000818161075f0152818161120301528181611876015261295b0152600081816109e301528181610b240152818161131601526117c901526000818161073e01528181610882015281816109c20152818161267101528181612a460152612bf00152600081816108c4015281816112af015281816119300152611c1701526000818161078001528181611224015281816118b801526121990152600081816107a1015281816108e501528181610a0401528181610b0001528181611245015281816112d0015281816113370152818161180b01528181611897015261190f015260008181610a2501528181610de301528181610ea5015281816113580152818161140b015281816114cf015281816116fb015281816117ea01528181611fc2015281816121c7015281816122a60152818161249d015261293701526140a36000f3fe608060405234801561001057600080fd5b50600436106101da5760003560e01c8063715018a6116101045780639efe1cd2116100a2578063d523819211610071578063d52381921461053f578063e733062714610578578063eff8ff0c14610596578063f2fde38b146105b4576101da565b80639efe1cd21461049f578063a5c7343c146104bd578063b5d5b5fa146104ed578063ca4b208b14610521576101da565b806380308f23116100de57806380308f231461042b578063842e2981146104355780638da5cb5b1461046557806393707a1914610483576101da565b8063715018a6146103e75780637b0472f0146103f15780637d1f2de71461040d576101da565b80632f380b351161017c578063537514a21161014b578063537514a214610359578063591b0014146103775780635aad6cf01461039557806363f68d5d146103c9576101da565b80632f380b35146102d3578063379607f51461030357806343a0d0661461031f578063473e5b941461033b576101da565b80631c803416116101b85780631c8034161461024b5780631fccf6721461027b5780632a063b97146102995780632e17de78146102b7576101da565b806302a6bbca146101df57806308dae84d146101fd57806313178c3f1461022d575b600080fd5b6101e76105d0565b6040516101f49190612e1e565b60405180910390f35b61021760048036038101906102129190612ec8565b6105d5565b6040516102249190612e1e565b60405180910390f35b610235610ac2565b6040516102429190612f21565b60405180910390f35b61026560048036038101906102609190612f3c565b610ae6565b6040516102729190612e1e565b60405180910390f35b610283610afe565b6040516102909190612f78565b60405180910390f35b6102a1610b22565b6040516102ae9190612f21565b60405180910390f35b6102d160048036038101906102cc9190612f93565b610b46565b005b6102ed60048036038101906102e89190612f93565b610fa1565b6040516102fa9190613037565b60405180910390f35b61031d60048036038101906103189190612f93565b611059565b005b6103396004803603810190610334919061308a565b6115c7565b005b610343611b84565b6040516103509190612e1e565b60405180910390f35b610361611b93565b60405161036e919061313c565b60405180910390f35b61037f611bb9565b60405161038c9190613178565b60405180910390f35b6103af60048036038101906103aa9190612f93565b611bdf565b6040516103c0959493929190613193565b60405180910390f35b6103d1611c15565b6040516103de9190612f78565b60405180910390f35b6103ef611c39565b005b61040b600480360381019061040691906131e6565b611c4d565b005b610415612197565b6040516104229190612f78565b60405180910390f35b6104336121bb565b005b61044f600480360381019061044a9190612f3c565b612346565b60405161045c919061334c565b60405180910390f35b61046d612427565b60405161047a9190612f78565b60405180910390f35b61049d60048036038101906104989190612f93565b612450565b005b6104a761266f565b6040516104b49190612f78565b60405180910390f35b6104d760048036038101906104d29190612f3c565b612693565b6040516104e491906134f9565b60405180910390f35b61050760048036038101906105029190612ec8565b612804565b60405161051895949392919061352a565b60405180910390f35b610529612864565b6040516105369190612f78565b60405180910390f35b61055960048036038101906105549190612ec8565b61288a565b60405161056f9a9998979695949392919061357d565b60405180910390f35b610580612935565b60405161058d9190612f78565b60405180910390f35b61059e612959565b6040516105ab9190612f21565b60405180910390f35b6105ce60048036038101906105c99190612f3c565b61297d565b005b600581565b6000600460008473ffffffffffffffffffffffffffffffffffffffff1673ffffffffffffffffffffffffffffffffffffffff16815260200190815260200160002080549050821061065b576040517f08c379a000000000000000000000000000000000000000000000000000000000815260040161065290613676565b60405180910390fd5b6000600460008573ffffffffffffffffffffffffffffffffffffffff1673ffffffffffffffffffffffffffffffffffffffff16815260200190815260200160002083815481106106ae576106ad613696565b5b906000526020600020906009020190508060080160019054906101000a900460ff16156106df576000915050610abc565b60008160020154905060008260030154905060008360040154111561083557600260009054906101000a900473ffffffffffffffffffffffffffffffffffffffff1673ffffffffffffffffffffffffffffffffffffffff1663a20f23057f00000000000000000000000000000000000000000000000000000000000000007f00000000000000000000000000000000000000000000000000000000000000007f00000000000000000000000000000000000000000000000000000000000000007f000000000000000000000000000000000000000000000000000000000000000088600401546040518663ffffffff1660e01b81526004016107e59594939291906136c5565b602060405180830381865afa92505050801561081f57506040513d601f19601f8201168201806040525081019061081c919061372d565b60015b156108345780826108309190613789565b9150505b5b60008360050154111561097957600260009054906101000a900473ffffffffffffffffffffffffffffffffffffffff1673ffffffffffffffffffffffffffffffffffffffff1663a20f23057f00000000000000000000000000000000000000000000000000000000000000007f00000000000000000000000000000000000000000000000000000000000000007f00000000000000000000000000000000000000000000000000000000000000007f000000000000000000000000000000000000000000000000000000000000000088600501546040518663ffffffff1660e01b81526004016109299594939291906136c5565b602060405180830381865afa92505050801561096357506040513d601f19601f82011682018060405250810190610960919061372d565b60015b156109785780826109749190613789565b9150505b5b6000811115610ab557600260009054906101000a900473ffffffffffffffffffffffffffffffffffffffff1673ffffffffffffffffffffffffffffffffffffffff1663a20f23057f00000000000000000000000000000000000000000000000000000000000000007f00000000000000000000000000000000000000000000000000000000000000007f00000000000000000000000000000000000000000000000000000000000000007f0000000000000000000000000000000000000000000000000000000000000000866040518663ffffffff1660e01b8152600401610a659594939291906136c5565b602060405180830381865afa925050508015610a9f57506040513d601f19601f82011682018060405250810190610a9c919061372d565b60015b15610ab4578083610ab09190613789565b9250505b5b8193505050505b92915050565b7f000000000000000000000000000000000000000000000000000000000000000081565b60076020528060005260406000206000915090505481565b7f000000000000000000000000000000000000000000000000000000000000000081565b7f000000000000000000000000000000000000000000000000000000000000000081565b600660003373ffffffffffffffffffffffffffffffffffffffff1673ffffffffffffffffffffffffffffffffffffffff168152602001908152602001600020805490508110610bca576040517f08c379a0000000000000000000000000000000000000000000000000000000008152600401610bc190613809565b60405180910390fd5b6000600660003373ffffffffffffffffffffffffffffffffffffffff1673ffffffffffffffffffffffffffffffffffffffff1681526020019081526020016000208281548110610c1d57610c1c613696565b5b906000526020600020906005020190508060040160009054906101000a900460ff1615610c7f576040517f08c379a0000000000000000000000000000000000000000000000000000000008152600401610c7690613875565b60405180910390fd5b620151808160020154610c929190613895565b8160010154610ca19190613789565b421015610ce3576040517f08c379a0000000000000000000000000000000000000000000000000000000008152600401610cda90613923565b60405180910390fd5b60018160040160006101000a81548160ff0219169083151502179055506000606460058360030154610d159190613895565b610d1f9190613972565b90506000818360030154610d3391906139a3565b90506000818460000154610d479190613789565b90508360000154600760003373ffffffffffffffffffffffffffffffffffffffff1673ffffffffffffffffffffffffffffffffffffffff1681526020019081526020016000206000828254610d9c91906139a3565b92505081905550836000015460056000866002015481526020019081526020016000206000016000828254610dd191906139a3565b925050819055506000831115610ea3577f000000000000000000000000000000000000000000000000000000000000000073ffffffffffffffffffffffffffffffffffffffff1663a9059cbb600360009054906101000a900473ffffffffffffffffffffffffffffffffffffffff16856040518363ffffffff1660e01b8152600401610e5e9291906139d7565b6020604051808303816000875af1158015610e7d573d6000803e3d6000fd5b505050506040513d601f19601f82011682018060405250810190610ea19190613a15565b505b7f000000000000000000000000000000000000000000000000000000000000000073ffffffffffffffffffffffffffffffffffffffff1663a9059cbb33836040518363ffffffff1660e01b8152600401610efe9291906139d7565b6020604051808303816000875af1158015610f1d573d6000803e3d6000fd5b505050506040513d601f19601f82011682018060405250810190610f419190613a15565b503373ffffffffffffffffffffffffffffffffffffffff167f3f0d7efee16f032b58c9ead61368473e4e8d9849606765453906bc92cdb82b308686600001548587604051610f929493929190613a42565b60405180910390a25050505050565b610fa9612dd6565b601e821480610fb85750603c82145b80610fc35750605a82145b611002576040517f08c379a0000000000000000000000000000000000000000000000000000000008152600401610ff990613ad3565b60405180910390fd5b600560008381526020019081526020016000206040518060a0016040529081600082015481526020016001820154815260200160028201548152602001600382015481526020016004820154815250509050919050565b600460003373ffffffffffffffffffffffffffffffffffffffff1673ffffffffffffffffffffffffffffffffffffffff1681526020019081526020016000208054905081106110dd576040517f08c379a00000000000000000000000000000000000000000000000000000000081526004016110d490613676565b60405180910390fd5b6000600460003373ffffffffffffffffffffffffffffffffffffffff1673ffffffffffffffffffffffffffffffffffffffff16815260200190815260200160002082815481106111305761112f613696565b5b906000526020600020906009020190508060080160019054906101000a900460ff1615611192576040517f08c379a000000000000000000000000000000000000000000000000000000000815260040161118990613875565b60405180910390fd5b806007015481600601546111a69190613789565b4210156111e8576040517f08c379a00000000000000000000000000000000000000000000000000000000081526004016111df90613b3f565b60405180910390fd5b60008160030154905060008260040154111561127c5761126e7f00000000000000000000000000000000000000000000000000000000000000007f00000000000000000000000000000000000000000000000000000000000000007f00000000000000000000000000000000000000000000000000000000000000008560040154612a03565b816112799190613789565b90505b600082600501541115611307576112f97f00000000000000000000000000000000000000000000000000000000000000007f00000000000000000000000000000000000000000000000000000000000000007f00000000000000000000000000000000000000000000000000000000000000008560050154612a03565b816113049190613789565b90505b6000808211156113805761137d7f00000000000000000000000000000000000000000000000000000000000000007f00000000000000000000000000000000000000000000000000000000000000007f000000000000000000000000000000000000000000000000000000000000000085612a03565b90505b60008184600201546113929190613789565b905060018460080160016101000a81548160ff02191690831515021790555060008082905085600101548311156114cd5760008660010154846113d591906139a3565b905060646001826113e69190613895565b6113f09190613972565b925082846113fe91906139a3565b915060008311156114cb577f000000000000000000000000000000000000000000000000000000000000000073ffffffffffffffffffffffffffffffffffffffff1663a9059cbb600360009054906101000a900473ffffffffffffffffffffffffffffffffffffffff16856040518363ffffffff1660e01b81526004016114869291906139d7565b6020604051808303816000875af11580156114a5573d6000803e3d6000fd5b505050506040513d601f19601f820116820180604052508101906114c99190613a15565b505b505b7f000000000000000000000000000000000000000000000000000000000000000073ffffffffffffffffffffffffffffffffffffffff1663a9059cbb33836040518363ffffffff1660e01b81526004016115289291906139d7565b6020604051808303816000875af1158015611547573d6000803e3d6000fd5b505050506040513d601f19601f8201168201806040525081019061156b9190613a15565b503373ffffffffffffffffffffffffffffffffffffffff167fd50a71d2f16af090d2c460d2671e33503e48d8b4af2fa44e1522750e94ec4df58883856040516115b693929190613b5f565b60405180910390a250505050505050565b6000831161160a576040517f08c379a000000000000000000000000000000000000000000000000000000000815260040161160190613be2565b60405180910390fd5b6000821161164d576040517f08c379a000000000000000000000000000000000000000000000000000000000815260040161164490613c4e565b60405180910390fd5b600080600080600160009054906101000a900473ffffffffffffffffffffffffffffffffffffffff1673ffffffffffffffffffffffffffffffffffffffff1663b4f35d5588876040518363ffffffff1660e01b81526004016116b0929190613c6e565b608060405180830381865afa1580156116cd573d6000803e3d6000fd5b505050506040513d601f19601f820116820180604052508101906116f19190613c97565b93509350935093507f000000000000000000000000000000000000000000000000000000000000000073ffffffffffffffffffffffffffffffffffffffff166323b872dd33308a6040518463ffffffff1660e01b815260040161175693929190613cfe565b6020604051808303816000875af1158015611775573d6000803e3d6000fd5b505050506040513d601f19601f820116820180604052508101906117999190613a15565b506000806000808486886117ad9190613789565b6117b79190613789565b905060008111156119755760006118307f00000000000000000000000000000000000000000000000000000000000000007f00000000000000000000000000000000000000000000000000000000000000007f000000000000000000000000000000000000000000000000000000000000000085612a03565b905060008288836118419190613895565b61184b9190613972565b9050600083888461185c9190613895565b6118669190613972565b905060008211156118e0576118dd7f00000000000000000000000000000000000000000000000000000000000000007f00000000000000000000000000000000000000000000000000000000000000007f000000000000000000000000000000000000000000000000000000000000000085612a03565b95505b6000811115611958576119557f00000000000000000000000000000000000000000000000000000000000000007f00000000000000000000000000000000000000000000000000000000000000007f000000000000000000000000000000000000000000000000000000000000000084612a03565b94505b80828461196591906139a3565b61196f91906139a3565b96505050505b600460003373ffffffffffffffffffffffffffffffffffffffff1673ffffffffffffffffffffffffffffffffffffffff1681526020019081526020016000206040518061014001604052803373ffffffffffffffffffffffffffffffffffffffff1681526020018d81526020018a8152602001868152602001858152602001848152602001428152602001620151808d611a0f9190613895565b81526020018b1515815260200160001515815250908060018154018082558091505060019003906000526020600020906009020160009091909190915060008201518160000160006101000a81548173ffffffffffffffffffffffffffffffffffffffff021916908373ffffffffffffffffffffffffffffffffffffffff1602179055506020820151816001015560408201518160020155606082015181600301556080820151816004015560a0820151816005015560c0820151816006015560e082015181600701556101008201518160080160006101000a81548160ff0219169083151502179055506101208201518160080160016101000a81548160ff02191690831515021790555050503373ffffffffffffffffffffffffffffffffffffffff167f9c63b5a6081196a022f84a8c5f96ec6f357800e5be9d0d0e7be1a3ded19ae0708c8c8c8c898989604051611b6f9796959493929190613d35565b60405180910390a25050505050505050505050565b6a084595161401484a00000081565b600260009054906101000a900473ffffffffffffffffffffffffffffffffffffffff1681565b600160009054906101000a900473ffffffffffffffffffffffffffffffffffffffff1681565b60056020528060005260406000206000915090508060000154908060010154908060020154908060030154908060040154905085565b7f000000000000000000000000000000000000000000000000000000000000000081565b611c41612c83565b611c4b6000612d0a565b565b60008211611c90576040517f08c379a0000000000000000000000000000000000000000000000000000000008152600401611c8790613be2565b60405180910390fd5b601e811480611c9f5750603c81145b80611caa5750605a81145b611ce9576040517f08c379a0000000000000000000000000000000000000000000000000000000008152600401611ce090613ad3565b60405180910390fd5b60006005600083815260200190815260200160002090506a084595161401484a00000083600760003373ffffffffffffffffffffffffffffffffffffffff1673ffffffffffffffffffffffffffffffffffffffff16815260200190815260200160002054611d579190613789565b1115611d98576040517f08c379a0000000000000000000000000000000000000000000000000000000008152600401611d8f90613df0565b60405180910390fd5b8060010154838260000154611dad9190613789565b1115611dee576040517f08c379a0000000000000000000000000000000000000000000000000000000008152600401611de590613e5c565b60405180910390fd5b60006008606460288460010154611e059190613895565b611e0f9190613972565b611e199190613972565b9050603c8303611e4f576004606460238460010154611e389190613895565b611e429190613972565b611e4c9190613972565b90505b605a8303611e83576004606460198460010154611e6c9190613895565b611e769190613972565b611e809190613972565b90505b6000601e8403611e9657607d9050611ec1565b603c8403611ea85761012e9050611ec0565b605a8403611eba576102649050611ebf565b600090505b5b5b60006127108287611ed29190613895565b611edc9190613972565b90508360020154818560030154611ef39190613789565b1115611f34576040517f08c379a0000000000000000000000000000000000000000000000000000000008152600401611f2b90613eee565b60405180910390fd5b85846000016000828254611f489190613789565b9250508190555080846003016000828254611f639190613789565b9250508190555085600760003373ffffffffffffffffffffffffffffffffffffffff1673ffffffffffffffffffffffffffffffffffffffff1681526020019081526020016000206000828254611fb99190613789565b925050819055507f000000000000000000000000000000000000000000000000000000000000000073ffffffffffffffffffffffffffffffffffffffff166323b872dd3330896040518463ffffffff1660e01b815260040161201d93929190613cfe565b6020604051808303816000875af115801561203c573d6000803e3d6000fd5b505050506040513d601f19601f820116820180604052508101906120609190613a15565b50600660003373ffffffffffffffffffffffffffffffffffffffff1673ffffffffffffffffffffffffffffffffffffffff1681526020019081526020016000206040518060a001604052808881526020014281526020018781526020018381526020016000151581525090806001815401808255809150506001900390600052602060002090600502016000909190919091506000820151816000015560208201518160010155604082015181600201556060820151816003015560808201518160040160006101000a81548160ff02191690831515021790555050503373ffffffffffffffffffffffffffffffffffffffff167f20400db7cf9bdfcb8b13ccfb8a7b4bb447c3244efdbc2336e6f6e1673d7bd84587878460405161218793929190613b5f565b60405180910390a2505050505050565b7f000000000000000000000000000000000000000000000000000000000000000081565b6121c3612c83565b60007f000000000000000000000000000000000000000000000000000000000000000073ffffffffffffffffffffffffffffffffffffffff166370a08231306040518263ffffffff1660e01b815260040161221e9190612f78565b602060405180830381865afa15801561223b573d6000803e3d6000fd5b505050506040513d601f19601f8201168201806040525081019061225f919061372d565b9050600081116122a4576040517f08c379a000000000000000000000000000000000000000000000000000000000815260040161229b90613f80565b60405180910390fd5b7f000000000000000000000000000000000000000000000000000000000000000073ffffffffffffffffffffffffffffffffffffffff1663a9059cbb33836040518363ffffffff1660e01b81526004016122ff9291906139d7565b6020604051808303816000875af115801561231e573d6000803e3d6000fd5b505050506040513d601f19601f820116820180604052508101906123429190613a15565b5050565b6060600660008373ffffffffffffffffffffffffffffffffffffffff1673ffffffffffffffffffffffffffffffffffffffff168152602001908152602001600020805480602002602001604051908101604052809291908181526020016000905b8282101561241c57838290600052602060002090600502016040518060a0016040529081600082015481526020016001820154815260200160028201548152602001600382015481526020016004820160009054906101000a900460ff161515151581525050815260200190600101906123a7565b505050509050919050565b60008060009054906101000a900473ffffffffffffffffffffffffffffffffffffffff16905090565b612458612c83565b6000811161249b576040517f08c379a000000000000000000000000000000000000000000000000000000000815260040161249290613be2565b60405180910390fd5b7f000000000000000000000000000000000000000000000000000000000000000073ffffffffffffffffffffffffffffffffffffffff166323b872dd3330846040518463ffffffff1660e01b81526004016124f893929190613cfe565b6020604051808303816000875af1158015612517573d6000803e3d6000fd5b505050506040513d601f19601f8201168201806040525081019061253b9190613a15565b506000606460288361254d9190613895565b6125579190613972565b90506000606460238461256a9190613895565b6125749190613972565b9050600081838561258591906139a3565b61258f91906139a3565b90508260056000601e815260200190815260200160002060020160008282546125b89190613789565b925050819055508160056000603c815260200190815260200160002060020160008282546125e69190613789565b925050819055508060056000605a815260200190815260200160002060020160008282546126149190613789565b925050819055503373ffffffffffffffffffffffffffffffffffffffff167fd53214ca07be5520e229c395f05a3e5c0697ec6279184ffbe2758d304fd322cc856040516126619190612e1e565b60405180910390a250505050565b7f000000000000000000000000000000000000000000000000000000000000000081565b6060600460008373ffffffffffffffffffffffffffffffffffffffff1673ffffffffffffffffffffffffffffffffffffffff168152602001908152602001600020805480602002602001604051908101604052809291908181526020016000905b828210156127f95783829060005260206000209060090201604051806101400160405290816000820160009054906101000a900473ffffffffffffffffffffffffffffffffffffffff1673ffffffffffffffffffffffffffffffffffffffff1673ffffffffffffffffffffffffffffffffffffffff168152602001600182015481526020016002820154815260200160038201548152602001600482015481526020016005820154815260200160068201548152602001600782015481526020016008820160009054906101000a900460ff161515151581526020016008820160019054906101000a900460ff161515151581525050815260200190600101906126f4565b505050509050919050565b6006602052816000526040600020818154811061282057600080fd5b9060005260206000209060050201600091509150508060000154908060010154908060020154908060030154908060040160009054906101000a900460ff16905085565b600360009054906101000a900473ffffffffffffffffffffffffffffffffffffffff1681565b600460205281600052604060002081815481106128a657600080fd5b9060005260206000209060090201600091509150508060000160009054906101000a900473ffffffffffffffffffffffffffffffffffffffff16908060010154908060020154908060030154908060040154908060050154908060060154908060070154908060080160009054906101000a900460ff16908060080160019054906101000a900460ff1690508a565b7f000000000000000000000000000000000000000000000000000000000000000081565b7f000000000000000000000000000000000000000000000000000000000000000081565b612985612c83565b600073ffffffffffffffffffffffffffffffffffffffff168173ffffffffffffffffffffffffffffffffffffffff16036129f75760006040517f1e4fbdf70000000000000000000000000000000000000000000000000000000081526004016129ee9190612f78565b60405180910390fd5b612a0081612d0a565b50565b600080600260009054906101000a900473ffffffffffffffffffffffffffffffffffffffff1673ffffffffffffffffffffffffffffffffffffffff1663a20f23057f0000000000000000000000000000000000000000000000000000000000000000888888886040518663ffffffff1660e01b8152600401612a899594939291906136c5565b602060405180830381865afa158015612aa6573d6000803e3d6000fd5b505050506040513d601f19601f82011682018060405250810190612aca919061372d565b905060008111612b0f576040517f08c379a0000000000000000000000000000000000000000000000000000000008152600401612b0690613fec565b60405180910390fd5b8473ffffffffffffffffffffffffffffffffffffffff1663095ea7b3600260009054906101000a900473ffffffffffffffffffffffffffffffffffffffff16856040518363ffffffff1660e01b8152600401612b6c9291906139d7565b6020604051808303816000875af1158015612b8b573d6000803e3d6000fd5b505050506040513d601f19601f82011682018060405250810190612baf9190613a15565b50600260009054906101000a900473ffffffffffffffffffffffffffffffffffffffff1673ffffffffffffffffffffffffffffffffffffffff1663ddbbe8507f000000000000000000000000000000000000000000000000000000000000000088888888876040518763ffffffff1660e01b8152600401612c359695949392919061400c565b6020604051808303816000875af1158015612c54573d6000803e3d6000fd5b505050506040513d601f19601f82011682018060405250810190612c78919061372d565b915050949350505050565b612c8b612dce565b73ffffffffffffffffffffffffffffffffffffffff16612ca9612427565b73ffffffffffffffffffffffffffffffffffffffff1614612d0857612ccc612dce565b6040517f118cdaa7000000000000000000000000000000000000000000000000000000008152600401612cff9190612f78565b60405180910390fd5b565b60008060009054906101000a900473ffffffffffffffffffffffffffffffffffffffff169050816000806101000a81548173ffffffffffffffffffffffffffffffffffffffff021916908373ffffffffffffffffffffffffffffffffffffffff1602179055508173ffffffffffffffffffffffffffffffffffffffff168173ffffffffffffffffffffffffffffffffffffffff167f8be0079c531659141344cd1fd0a4f28419497f9722a3daafe3b4186f6b6457e060405160405180910390a35050565b600033905090565b6040518060a0016040528060008152602001600081526020016000815260200160008152602001600081525090565b6000819050919050565b612e1881612e05565b82525050565b6000602082019050612e336000830184612e0f565b92915050565b600080fd5b600073ffffffffffffffffffffffffffffffffffffffff82169050919050565b6000612e6982612e3e565b9050919050565b612e7981612e5e565b8114612e8457600080fd5b50565b600081359050612e9681612e70565b92915050565b612ea581612e05565b8114612eb057600080fd5b50565b600081359050612ec281612e9c565b92915050565b60008060408385031215612edf57612ede612e39565b5b6000612eed85828601612e87565b9250506020612efe85828601612eb3565b9150509250929050565b6000819050919050565b612f1b81612f08565b82525050565b6000602082019050612f366000830184612f12565b92915050565b600060208284031215612f5257612f51612e39565b5b6000612f6084828501612e87565b91505092915050565b612f7281612e5e565b82525050565b6000602082019050612f8d6000830184612f69565b92915050565b600060208284031215612fa957612fa8612e39565b5b6000612fb784828501612eb3565b91505092915050565b612fc981612e05565b82525050565b60a082016000820151612fe56000850182612fc0565b506020820151612ff86020850182612fc0565b50604082015161300b6040850182612fc0565b50606082015161301e6060850182612fc0565b5060808201516130316080850182612fc0565b50505050565b600060a08201905061304c6000830184612fcf565b92915050565b60008115159050919050565b61306781613052565b811461307257600080fd5b50565b6000813590506130848161305e565b92915050565b6000806000606084860312156130a3576130a2612e39565b5b60006130b186828701612eb3565b93505060206130c286828701612eb3565b92505060406130d386828701613075565b9150509250925092565b6000819050919050565b60006131026130fd6130f884612e3e565b6130dd565b612e3e565b9050919050565b6000613114826130e7565b9050919050565b600061312682613109565b9050919050565b6131368161311b565b82525050565b6000602082019050613151600083018461312d565b92915050565b600061316282613109565b9050919050565b61317281613157565b82525050565b600060208201905061318d6000830184613169565b92915050565b600060a0820190506131a86000830188612e0f565b6131b56020830187612e0f565b6131c26040830186612e0f565b6131cf6060830185612e0f565b6131dc6080830184612e0f565b9695505050505050565b600080604083850312156131fd576131fc612e39565b5b600061320b85828601612eb3565b925050602061321c85828601612eb3565b9150509250929050565b600081519050919050565b600082825260208201905092915050565b6000819050602082019050919050565b61325b81613052565b82525050565b60a0820160008201516132776000850182612fc0565b50602082015161328a6020850182612fc0565b50604082015161329d6040850182612fc0565b5060608201516132b06060850182612fc0565b5060808201516132c36080850182613252565b50505050565b60006132d58383613261565b60a08301905092915050565b6000602082019050919050565b60006132f982613226565b6133038185613231565b935061330e83613242565b8060005b8381101561333f57815161332688826132c9565b9750613331836132e1565b925050600181019050613312565b5085935050505092915050565b6000602082019050818103600083015261336681846132ee565b905092915050565b600081519050919050565b600082825260208201905092915050565b6000819050602082019050919050565b6133a381612e5e565b82525050565b610140820160008201516133c0600085018261339a565b5060208201516133d36020850182612fc0565b5060408201516133e66040850182612fc0565b5060608201516133f96060850182612fc0565b50608082015161340c6080850182612fc0565b5060a082015161341f60a0850182612fc0565b5060c082015161343260c0850182612fc0565b5060e082015161344560e0850182612fc0565b5061010082015161345a610100850182613252565b5061012082015161346f610120850182613252565b50505050565b600061348183836133a9565b6101408301905092915050565b6000602082019050919050565b60006134a68261336e565b6134b08185613379565b93506134bb8361338a565b8060005b838110156134ec5781516134d38882613475565b97506134de8361348e565b9250506001810190506134bf565b5085935050505092915050565b60006020820190508181036000830152613513818461349b565b905092915050565b61352481613052565b82525050565b600060a08201905061353f6000830188612e0f565b61354c6020830187612e0f565b6135596040830186612e0f565b6135666060830185612e0f565b613573608083018461351b565b9695505050505050565b600061014082019050613593600083018d612f69565b6135a0602083018c612e0f565b6135ad604083018b612e0f565b6135ba606083018a612e0f565b6135c76080830189612e0f565b6135d460a0830188612e0f565b6135e160c0830187612e0f565b6135ee60e0830186612e0f565b6135fc61010083018561351b565b61360a61012083018461351b565b9b9a5050505050505050505050565b600082825260208201905092915050565b7f496e76616c696420706967677920696e64657800000000000000000000000000600082015250565b6000613660601383613619565b915061366b8261362a565b602082019050919050565b6000602082019050818103600083015261368f81613653565b9050919050565b7f4e487b7100000000000000000000000000000000000000000000000000000000600052603260045260246000fd5b600060a0820190506136da6000830188612f69565b6136e76020830187612f12565b6136f46040830186612f69565b6137016060830185612f69565b61370e6080830184612e0f565b9695505050505050565b60008151905061372781612e9c565b92915050565b60006020828403121561374357613742612e39565b5b600061375184828501613718565b91505092915050565b7f4e487b7100000000000000000000000000000000000000000000000000000000600052601160045260246000fd5b600061379482612e05565b915061379f83612e05565b92508282019050808211156137b7576137b661375a565b5b92915050565b7f496e76616c6964207374616b6520696e64657800000000000000000000000000600082015250565b60006137f3601383613619565b91506137fe826137bd565b602082019050919050565b60006020820190508181036000830152613822816137e6565b9050919050565b7f416c726561647920636c61696d65640000000000000000000000000000000000600082015250565b600061385f600f83613619565b915061386a82613829565b602082019050919050565b6000602082019050818103600083015261388e81613852565b9050919050565b60006138a082612e05565b91506138ab83612e05565b92508282026138b981612e05565b915082820484148315176138d0576138cf61375a565b5b5092915050565b7f4c6f636b20706572696f64206e6f7420656e6465640000000000000000000000600082015250565b600061390d601583613619565b9150613918826138d7565b602082019050919050565b6000602082019050818103600083015261393c81613900565b9050919050565b7f4e487b7100000000000000000000000000000000000000000000000000000000600052601260045260246000fd5b600061397d82612e05565b915061398883612e05565b92508261399857613997613943565b5b828204905092915050565b60006139ae82612e05565b91506139b983612e05565b92508282039050818111156139d1576139d061375a565b5b92915050565b60006040820190506139ec6000830185612f69565b6139f96020830184612e0f565b9392505050565b600081519050613a0f8161305e565b92915050565b600060208284031215613a2b57613a2a612e39565b5b6000613a3984828501613a00565b91505092915050565b6000608082019050613a576000830187612e0f565b613a646020830186612e0f565b613a716040830185612e0f565b613a7e6060830184612e0f565b95945050505050565b7f496e76616c6964206475726174696f6e00000000000000000000000000000000600082015250565b6000613abd601083613619565b9150613ac882613a87565b602082019050919050565b60006020820190508181036000830152613aec81613ab0565b9050919050565b7f4c6f636b206e6f7420656e646564000000000000000000000000000000000000600082015250565b6000613b29600e83613619565b9150613b3482613af3565b602082019050919050565b60006020820190508181036000830152613b5881613b1c565b9050919050565b6000606082019050613b746000830186612e0f565b613b816020830185612e0f565b613b8e6040830184612e0f565b949350505050565b7f416d6f756e74206d75737420626520706f736974697665000000000000000000600082015250565b6000613bcc601783613619565b9150613bd782613b96565b602082019050919050565b60006020820190508181036000830152613bfb81613bbf565b9050919050565b7f4475726174696f6e206d75737420626520706f73697469766500000000000000600082015250565b6000613c38601983613619565b9150613c4382613c02565b602082019050919050565b60006020820190508181036000830152613c6781613c2b565b9050919050565b6000604082019050613c836000830185612e0f565b613c90602083018461351b565b9392505050565b60008060008060808587031215613cb157613cb0612e39565b5b6000613cbf87828801613718565b9450506020613cd087828801613718565b9350506040613ce187828801613718565b9250506060613cf287828801613718565b91505092959194509250565b6000606082019050613d136000830186612f69565b613d206020830185612f69565b613d2d6040830184612e0f565b949350505050565b600060e082019050613d4a600083018a612e0f565b613d576020830189612e0f565b613d64604083018861351b565b613d716060830187612e0f565b613d7e6080830186612e0f565b613d8b60a0830185612e0f565b613d9860c0830184612e0f565b98975050505050505050565b7f45786365656473206d61782077616c6c6574206465706f736974206c696d6974600082015250565b6000613dda602083613619565b9150613de582613da4565b602082019050919050565b60006020820190508181036000830152613e0981613dcd565b9050919050565b7f506f6f6c2069732066756c6c0000000000000000000000000000000000000000600082015250565b6000613e46600c83613619565b9150613e5182613e10565b602082019050919050565b60006020820190508181036000830152613e7581613e39565b9050919050565b7f4e6f7420656e6f75676820726577617264732066756e64656420696e20706f6f60008201527f6c00000000000000000000000000000000000000000000000000000000000000602082015250565b6000613ed8602183613619565b9150613ee382613e7c565b604082019050919050565b60006020820190508181036000830152613f0781613ecb565b9050919050565b7f596f752063616e6e6f7420676574206f757420616e792066756e64732061732060008201527f6974206973207a65726f00000000000000000000000000000000000000000000602082015250565b6000613f6a602a83613619565b9150613f7582613f0e565b604082019050919050565b60006020820190508181036000830152613f9981613f5d565b9050919050565b7f4d656e746f3a20496e73756666696369656e74206f7574707574000000000000600082015250565b6000613fd6601a83613619565b9150613fe182613fa0565b602082019050919050565b6000602082019050818103600083015261400581613fc9565b9050919050565b600060c0820190506140216000830189612f69565b61402e6020830188612f12565b61403b6040830187612f69565b6140486060830186612f69565b6140556080830185612e0f565b61406260a0830184612e0f565b97965050505050505056fea2646970667358221220ec0f646b828a0866266f88fadb04110c457b9cb1655450c8e92a10a2cab8cbc064736f6c63430008140033","opcodes":"PUSH2 0x180 PUSH1 0x40 MSTORE CALLVALUE DUP1 ISZERO PUSH3 0x12 JUMPI PUSH1 0x0 DUP1 REVERT JUMPDEST POP PUSH1 0x40 MLOAD PUSH3 0x4900 CODESIZE SUB DUP1 PUSH3 0x4900 DUP4 CODECOPY DUP2 DUP2 ADD PUSH1 0x40 MSTORE DUP2 ADD SWAP1 PUSH3 0x38 SWAP2 SWAP1 PUSH3 0x59D JUMP JUMPDEST CALLER PUSH1 0x0 PUSH20 0xFFFFFFFFFFFFFFFFFFFFFFFFFFFFFFFFFFFFFFFF AND DUP2 PUSH20 0xFFFFFFFFFFFFFFFFFFFFFFFFFFFFFFFFFFFFFFFF AND SUB PUSH3 0xAE JUMPI PUSH1 0x0 PUSH1 0x40 MLOAD PUSH32 0x1E4FBDF700000000000000000000000000000000000000000000000000000000 DUP2 MSTORE PUSH1 0x4 ADD PUSH3 0xA5 SWAP2 SWAP1 PUSH3 0x6BB JUMP JUMPDEST PUSH1 0x40 MLOAD DUP1 SWAP2 SUB SWAP1 REVERT JUMPDEST PUSH3 0xBF DUP2 PUSH3 0x434 PUSH1 0x20 SHL PUSH1 0x20 SHR JUMP JUMPDEST POP DUP11 PUSH1 0x2 PUSH1 0x0 PUSH2 0x100 EXP DUP2 SLOAD DUP2 PUSH20 0xFFFFFFFFFFFFFFFFFFFFFFFFFFFFFFFFFFFFFFFF MUL NOT AND SWAP1 DUP4 PUSH20 0xFFFFFFFFFFFFFFFFFFFFFFFFFFFFFFFFFFFFFFFF AND MUL OR SWAP1 SSTORE POP DUP10 PUSH1 0x1 PUSH1 0x0 PUSH2 0x100 EXP DUP2 SLOAD DUP2 PUSH20 0xFFFFFFFFFFFFFFFFFFFFFFFFFFFFFFFFFFFFFFFF MUL NOT AND SWAP1 DUP4 PUSH20 0xFFFFFFFFFFFFFFFFFFFFFFFFFFFFFFFFFFFFFFFF AND MUL OR SWAP1 SSTORE POP DUP9 PUSH20 0xFFFFFFFFFFFFFFFFFFFFFFFFFFFFFFFFFFFFFFFF AND PUSH2 0x100 DUP2 PUSH20 0xFFFFFFFFFFFFFFFFFFFFFFFFFFFFFFFFFFFFFFFF AND DUP2 MSTORE POP POP DUP8 PUSH20 0xFFFFFFFFFFFFFFFFFFFFFFFFFFFFFFFFFFFFFFFF AND PUSH1 0x80 DUP2 PUSH20 0xFFFFFFFFFFFFFFFFFFFFFFFFFFFFFFFFFFFFFFFF AND DUP2 MSTORE POP POP DUP7 PUSH20 0xFFFFFFFFFFFFFFFFFFFFFFFFFFFFFFFFFFFFFFFF AND PUSH1 0xA0 DUP2 PUSH20 0xFFFFFFFFFFFFFFFFFFFFFFFFFFFFFFFFFFFFFFFF AND DUP2 MSTORE POP POP DUP6 PUSH20 0xFFFFFFFFFFFFFFFFFFFFFFFFFFFFFFFFFFFFFFFF AND PUSH1 0xC0 DUP2 PUSH20 0xFFFFFFFFFFFFFFFFFFFFFFFFFFFFFFFFFFFFFFFF AND DUP2 MSTORE POP POP DUP5 PUSH20 0xFFFFFFFFFFFFFFFFFFFFFFFFFFFFFFFFFFFFFFFF AND PUSH1 0xE0 DUP2 PUSH20 0xFFFFFFFFFFFFFFFFFFFFFFFFFFFFFFFFFFFFFFFF AND DUP2 MSTORE POP POP DUP4 PUSH2 0x120 DUP2 DUP2 MSTORE POP POP DUP3 PUSH2 0x140 DUP2 DUP2 MSTORE POP POP DUP2 PUSH2 0x160 DUP2 DUP2 MSTORE POP POP DUP1 PUSH1 0x3 PUSH1 0x0 PUSH2 0x100 EXP DUP2 SLOAD DUP2 PUSH20 0xFFFFFFFFFFFFFFFFFFFFFFFFFFFFFFFFFFFFFFFF MUL NOT AND SWAP1 DUP4 PUSH20 0xFFFFFFFFFFFFFFFFFFFFFFFFFFFFFFFFFFFFFFFF AND MUL OR SWAP1 SSTORE POP PUSH1 0x40 MLOAD DUP1 PUSH1 0xA0 ADD PUSH1 0x40 MSTORE DUP1 PUSH1 0x0 DUP2 MSTORE PUSH1 0x20 ADD PUSH12 0xA56FA5B99019A5C80000000 DUP2 MSTORE PUSH1 0x20 ADD PUSH1 0x0 DUP2 MSTORE PUSH1 0x20 ADD PUSH1 0x0 DUP2 MSTORE PUSH1 0x20 ADD PUSH1 0x1E DUP2 MSTORE POP PUSH1 0x5 PUSH1 0x0 PUSH1 0x1E DUP2 MSTORE PUSH1 0x20 ADD SWAP1 DUP2 MSTORE PUSH1 0x20 ADD PUSH1 0x0 KECCAK256 PUSH1 0x0 DUP3 ADD MLOAD DUP2 PUSH1 0x0 ADD SSTORE PUSH1 0x20 DUP3 ADD MLOAD DUP2 PUSH1 0x1 ADD SSTORE PUSH1 0x40 DUP3 ADD MLOAD DUP2 PUSH1 0x2 ADD SSTORE PUSH1 0x60 DUP3 ADD MLOAD DUP2 PUSH1 0x3 ADD SSTORE PUSH1 0x80 DUP3 ADD MLOAD DUP2 PUSH1 0x4 ADD SSTORE SWAP1 POP POP PUSH1 0x40 MLOAD DUP1 PUSH1 0xA0 ADD PUSH1 0x40 MSTORE DUP1 PUSH1 0x0 DUP2 MSTORE PUSH1 0x20 ADD PUSH12 0x3BDDC2F53582ABCCECC0000 DUP2 MSTORE PUSH1 0x20 ADD PUSH1 0x0 DUP2 MSTORE PUSH1 0x20 ADD PUSH1 0x0 DUP2 MSTORE PUSH1 0x20 ADD PUSH1 0x3C DUP2 MSTORE POP PUSH1 0x5 PUSH1 0x0 PUSH1 0x3C DUP2 MSTORE PUSH1 0x20 ADD SWAP1 DUP2 MSTORE PUSH1 0x20 ADD PUSH1 0x0 KECCAK256 PUSH1 0x0 DUP3 ADD MLOAD DUP2 PUSH1 0x0 ADD SSTORE PUSH1 0x20 DUP3 ADD MLOAD DUP2 PUSH1 0x1 ADD SSTORE PUSH1 0x40 DUP3 ADD MLOAD DUP2 PUSH1 0x2 ADD SSTORE PUSH1 0x60 DUP3 ADD MLOAD DUP2 PUSH1 0x3 ADD SSTORE PUSH1 0x80 DUP3 ADD MLOAD DUP2 PUSH1 0x4 ADD SSTORE SWAP1 POP POP PUSH1 0x40 MLOAD DUP1 PUSH1 0xA0 ADD PUSH1 0x40 MSTORE DUP1 PUSH1 0x0 DUP2 MSTORE PUSH1 0x20 ADD PUSH12 0x151DB3DE1E9AD6ECF140000 DUP2 MSTORE PUSH1 0x20 ADD PUSH1 0x0 DUP2 MSTORE PUSH1 0x20 ADD PUSH1 0x0 DUP2 MSTORE PUSH1 0x20 ADD PUSH1 0x5A DUP2 MSTORE POP PUSH1 0x5 PUSH1 0x0 PUSH1 0x5A DUP2 MSTORE PUSH1 0x20 ADD SWAP1 DUP2 MSTORE PUSH1 0x20 ADD PUSH1 0x0 KECCAK256 PUSH1 0x0 DUP3 ADD MLOAD DUP2 PUSH1 0x0 ADD SSTORE PUSH1 0x20 DUP3 ADD MLOAD DUP2 PUSH1 0x1 ADD SSTORE PUSH1 0x40 DUP3 ADD MLOAD DUP2 PUSH1 0x2 ADD SSTORE PUSH1 0x60 DUP3 ADD MLOAD DUP2 PUSH1 0x3 ADD SSTORE PUSH1 0x80 DUP3 ADD MLOAD DUP2 PUSH1 0x4 ADD SSTORE SWAP1 POP POP POP POP POP POP POP POP POP POP POP POP POP PUSH3 0x6D8 JUMP JUMPDEST PUSH1 0x0 DUP1 PUSH1 0x0 SWAP1 SLOAD SWAP1 PUSH2 0x100 EXP SWAP1 DIV PUSH20 0xFFFFFFFFFFFFFFFFFFFFFFFFFFFFFFFFFFFFFFFF AND SWAP1 POP DUP2 PUSH1 0x0 DUP1 PUSH2 0x100 EXP DUP2 SLOAD DUP2 PUSH20 0xFFFFFFFFFFFFFFFFFFFFFFFFFFFFFFFFFFFFFFFF MUL NOT AND SWAP1 DUP4 PUSH20 0xFFFFFFFFFFFFFFFFFFFFFFFFFFFFFFFFFFFFFFFF AND MUL OR SWAP1 SSTORE POP DUP2 PUSH20 0xFFFFFFFFFFFFFFFFFFFFFFFFFFFFFFFFFFFFFFFF AND DUP2 PUSH20 0xFFFFFFFFFFFFFFFFFFFFFFFFFFFFFFFFFFFFFFFF AND PUSH32 0x8BE0079C531659141344CD1FD0A4F28419497F9722A3DAAFE3B4186F6B6457E0 PUSH1 0x40 MLOAD PUSH1 0x40 MLOAD DUP1 SWAP2 SUB SWAP1 LOG3 POP POP JUMP JUMPDEST PUSH1 0x0 DUP1 REVERT JUMPDEST PUSH1 0x0 PUSH20 0xFFFFFFFFFFFFFFFFFFFFFFFFFFFFFFFFFFFFFFFF DUP3 AND SWAP1 POP SWAP2 SWAP1 POP JUMP JUMPDEST PUSH1 0x0 PUSH3 0x52A DUP3 PUSH3 0x4FD JUMP JUMPDEST SWAP1 POP SWAP2 SWAP1 POP JUMP JUMPDEST PUSH3 0x53C DUP2 PUSH3 0x51D JUMP JUMPDEST DUP2 EQ PUSH3 0x548 JUMPI PUSH1 0x0 DUP1 REVERT JUMPDEST POP JUMP JUMPDEST PUSH1 0x0 DUP2 MLOAD SWAP1 POP PUSH3 0x55C DUP2 PUSH3 0x531 JUMP JUMPDEST SWAP3 SWAP2 POP POP JUMP JUMPDEST PUSH1 0x0 DUP2 SWAP1 POP SWAP2 SWAP1 POP JUMP JUMPDEST PUSH3 0x577 DUP2 PUSH3 0x562 JUMP JUMPDEST DUP2 EQ PUSH3 0x583 JUMPI PUSH1 0x0 DUP1 REVERT JUMPDEST POP JUMP JUMPDEST PUSH1 0x0 DUP2 MLOAD SWAP1 POP PUSH3 0x597 DUP2 PUSH3 0x56C JUMP JUMPDEST SWAP3 SWAP2 POP POP JUMP JUMPDEST PUSH1 0x0 DUP1 PUSH1 0x0 DUP1 PUSH1 0x0 DUP1 PUSH1 0x0 DUP1 PUSH1 0x0 DUP1 PUSH1 0x0 PUSH2 0x160 DUP13 DUP15 SUB SLT ISZERO PUSH3 0x5C6 JUMPI PUSH3 0x5C5 PUSH3 0x4F8 JUMP JUMPDEST JUMPDEST PUSH1 0x0 PUSH3 0x5D6 DUP15 DUP3 DUP16 ADD PUSH3 0x54B JUMP JUMPDEST SWAP12 POP POP PUSH1 0x20 PUSH3 0x5E9 DUP15 DUP3 DUP16 ADD PUSH3 0x54B JUMP JUMPDEST SWAP11 POP POP PUSH1 0x40 PUSH3 0x5FC DUP15 DUP3 DUP16 ADD PUSH3 0x54B JUMP JUMPDEST SWAP10 POP POP PUSH1 0x60 PUSH3 0x60F DUP15 DUP3 DUP16 ADD PUSH3 0x54B JUMP JUMPDEST SWAP9 POP POP PUSH1 0x80 PUSH3 0x622 DUP15 DUP3 DUP16 ADD PUSH3 0x54B JUMP JUMPDEST SWAP8 POP POP PUSH1 0xA0 PUSH3 0x635 DUP15 DUP3 DUP16 ADD PUSH3 0x54B JUMP JUMPDEST SWAP7 POP POP PUSH1 0xC0 PUSH3 0x648 DUP15 DUP3 DUP16 ADD PUSH3 0x54B JUMP JUMPDEST SWAP6 POP POP PUSH1 0xE0 PUSH3 0x65B DUP15 DUP3 DUP16 ADD PUSH3 0x586 JUMP JUMPDEST SWAP5 POP POP PUSH2 0x100 PUSH3 0x66F DUP15 DUP3 DUP16 ADD PUSH3 0x586 JUMP JUMPDEST SWAP4 POP POP PUSH2 0x120 PUSH3 0x683 DUP15 DUP3 DUP16 ADD PUSH3 0x586 JUMP JUMPDEST SWAP3 POP POP PUSH2 0x140 PUSH3 0x697 DUP15 DUP3 DUP16 ADD PUSH3 0x54B JUMP JUMPDEST SWAP2 POP POP SWAP3 SWAP6 SWAP9 SWAP12 POP SWAP3 SWAP6 SWAP9 SWAP12 SWAP1 SWAP4 SWAP7 SWAP10 POP JUMP JUMPDEST PUSH3 0x6B5 DUP2 PUSH3 0x51D JUMP JUMPDEST DUP3 MSTORE POP POP JUMP JUMPDEST PUSH1 0x0 PUSH1 0x20 DUP3 ADD SWAP1 POP PUSH3 0x6D2 PUSH1 0x0 DUP4 ADD DUP5 PUSH3 0x6AA JUMP JUMPDEST SWAP3 SWAP2 POP POP JUMP JUMPDEST PUSH1 0x80 MLOAD PUSH1 0xA0 MLOAD PUSH1 0xC0 MLOAD PUSH1 0xE0 MLOAD PUSH2 0x100 MLOAD PUSH2 0x120 MLOAD PUSH2 0x140 MLOAD PUSH2 0x160 MLOAD PUSH2 0x40A3 PUSH3 0x85D PUSH1 0x0 CODECOPY PUSH1 0x0 DUP2 DUP2 PUSH2 0x8A3 ADD MSTORE DUP2 DUP2 PUSH2 0xAC4 ADD MSTORE DUP2 DUP2 PUSH2 0x128E ADD MSTORE PUSH2 0x18EE ADD MSTORE PUSH1 0x0 DUP2 DUP2 PUSH2 0x75F ADD MSTORE DUP2 DUP2 PUSH2 0x1203 ADD MSTORE DUP2 DUP2 PUSH2 0x1876 ADD MSTORE PUSH2 0x295B ADD MSTORE PUSH1 0x0 DUP2 DUP2 PUSH2 0x9E3 ADD MSTORE DUP2 DUP2 PUSH2 0xB24 ADD MSTORE DUP2 DUP2 PUSH2 0x1316 ADD MSTORE PUSH2 0x17C9 ADD MSTORE PUSH1 0x0 DUP2 DUP2 PUSH2 0x73E ADD MSTORE DUP2 DUP2 PUSH2 0x882 ADD MSTORE DUP2 DUP2 PUSH2 0x9C2 ADD MSTORE DUP2 DUP2 PUSH2 0x2671 ADD MSTORE DUP2 DUP2 PUSH2 0x2A46 ADD MSTORE PUSH2 0x2BF0 ADD MSTORE PUSH1 0x0 DUP2 DUP2 PUSH2 0x8C4 ADD MSTORE DUP2 DUP2 PUSH2 0x12AF ADD MSTORE DUP2 DUP2 PUSH2 0x1930 ADD MSTORE PUSH2 0x1C17 ADD MSTORE PUSH1 0x0 DUP2 DUP2 PUSH2 0x780 ADD MSTORE DUP2 DUP2 PUSH2 0x1224 ADD MSTORE DUP2 DUP2 PUSH2 0x18B8 ADD MSTORE PUSH2 0x2199 ADD MSTORE PUSH1 0x0 DUP2 DUP2 PUSH2 0x7A1 ADD MSTORE DUP2 DUP2 PUSH2 0x8E5 ADD MSTORE DUP2 DUP2 PUSH2 0xA04 ADD MSTORE DUP2 DUP2 PUSH2 0xB00 ADD MSTORE DUP2 DUP2 PUSH2 0x1245 ADD MSTORE DUP2 DUP2 PUSH2 0x12D0 ADD MSTORE DUP2 DUP2 PUSH2 0x1337 ADD MSTORE DUP2 DUP2 PUSH2 0x180B ADD MSTORE DUP2 DUP2 PUSH2 0x1897 ADD MSTORE PUSH2 0x190F ADD MSTORE PUSH1 0x0 DUP2 DUP2 PUSH2 0xA25 ADD MSTORE DUP2 DUP2 PUSH2 0xDE3 ADD MSTORE DUP2 DUP2 PUSH2 0xEA5 ADD MSTORE DUP2 DUP2 PUSH2 0x1358 ADD MSTORE DUP2 DUP2 PUSH2 0x140B ADD MSTORE DUP2 DUP2 PUSH2 0x14CF ADD MSTORE DUP2 DUP2 PUSH2 0x16FB ADD MSTORE DUP2 DUP2 PUSH2 0x17EA ADD MSTORE DUP2 DUP2 PUSH2 0x1FC2 ADD MSTORE DUP2 DUP2 PUSH2 0x21C7 ADD MSTORE DUP2 DUP2 PUSH2 0x22A6 ADD MSTORE DUP2 DUP2 PUSH2 0x249D ADD MSTORE PUSH2 0x2937 ADD MSTORE PUSH2 0x40A3 PUSH1 0x0 RETURN INVALID PUSH1 0x80 PUSH1 0x40 MSTORE CALLVALUE DUP1 ISZERO PUSH2 0x10 JUMPI PUSH1 0x0 DUP1 REVERT JUMPDEST POP PUSH1 0x4 CALLDATASIZE LT PUSH2 0x1DA JUMPI PUSH1 0x0 CALLDATALOAD PUSH1 0xE0 SHR DUP1 PUSH4 0x715018A6 GT PUSH2 0x104 JUMPI DUP1 PUSH4 0x9EFE1CD2 GT PUSH2 0xA2 JUMPI DUP1 PUSH4 0xD5238192 GT PUSH2 0x71 JUMPI DUP1 PUSH4 0xD5238192 EQ PUSH2 0x53F JUMPI DUP1 PUSH4 0xE7330627 EQ PUSH2 0x578 JUMPI DUP1 PUSH4 0xEFF8FF0C EQ PUSH2 0x596 JUMPI DUP1 PUSH4 0xF2FDE38B EQ PUSH2 0x5B4 JUMPI PUSH2 0x1DA JUMP JUMPDEST DUP1 PUSH4 0x9EFE1CD2 EQ PUSH2 0x49F JUMPI DUP1 PUSH4 0xA5C7343C EQ PUSH2 0x4BD JUMPI DUP1 PUSH4 0xB5D5B5FA EQ PUSH2 0x4ED JUMPI DUP1 PUSH4 0xCA4B208B EQ PUSH2 0x521 JUMPI PUSH2 0x1DA JUMP JUMPDEST DUP1 PUSH4 0x80308F23 GT PUSH2 0xDE JUMPI DUP1 PUSH4 0x80308F23 EQ PUSH2 0x42B JUMPI DUP1 PUSH4 0x842E2981 EQ PUSH2 0x435 JUMPI DUP1 PUSH4 0x8DA5CB5B EQ PUSH2 0x465 JUMPI DUP1 PUSH4 0x93707A19 EQ PUSH2 0x483 JUMPI PUSH2 0x1DA JUMP JUMPDEST DUP1 PUSH4 0x715018A6 EQ PUSH2 0x3E7 JUMPI DUP1 PUSH4 0x7B0472F0 EQ PUSH2 0x3F1 JUMPI DUP1 PUSH4 0x7D1F2DE7 EQ PUSH2 0x40D JUMPI PUSH2 0x1DA JUMP JUMPDEST DUP1 PUSH4 0x2F380B35 GT PUSH2 0x17C JUMPI DUP1 PUSH4 0x537514A2 GT PUSH2 0x14B JUMPI DUP1 PUSH4 0x537514A2 EQ PUSH2 0x359 JUMPI DUP1 PUSH4 0x591B0014 EQ PUSH2 0x377 JUMPI DUP1 PUSH4 0x5AAD6CF0 EQ PUSH2 0x395 JUMPI DUP1 PUSH4 0x63F68D5D EQ PUSH2 0x3C9 JUMPI PUSH2 0x1DA JUMP JUMPDEST DUP1 PUSH4 0x2F380B35 EQ PUSH2 0x2D3 JUMPI DUP1 PUSH4 0x379607F5 EQ PUSH2 0x303 JUMPI DUP1 PUSH4 0x43A0D066 EQ PUSH2 0x31F JUMPI DUP1 PUSH4 0x473E5B94 EQ PUSH2 0x33B JUMPI PUSH2 0x1DA JUMP JUMPDEST DUP1 PUSH4 0x1C803416 GT PUSH2 0x1B8 JUMPI DUP1 PUSH4 0x1C803416 EQ PUSH2 0x24B JUMPI DUP1 PUSH4 0x1FCCF672 EQ PUSH2 0x27B JUMPI DUP1 PUSH4 0x2A063B97 EQ PUSH2 0x299 JUMPI DUP1 PUSH4 0x2E17DE78 EQ PUSH2 0x2B7 JUMPI PUSH2 0x1DA JUMP JUMPDEST DUP1 PUSH4 0x2A6BBCA EQ PUSH2 0x1DF JUMPI DUP1 PUSH4 0x8DAE84D EQ PUSH2 0x1FD JUMPI DUP1 PUSH4 0x13178C3F EQ PUSH2 0x22D JUMPI JUMPDEST PUSH1 0x0 DUP1 REVERT JUMPDEST PUSH2 0x1E7 PUSH2 0x5D0 JUMP JUMPDEST PUSH1 0x40 MLOAD PUSH2 0x1F4 SWAP2 SWAP1 PUSH2 0x2E1E JUMP JUMPDEST PUSH1 0x40 MLOAD DUP1 SWAP2 SUB SWAP1 RETURN JUMPDEST PUSH2 0x217 PUSH1 0x4 DUP1 CALLDATASIZE SUB DUP2 ADD SWAP1 PUSH2 0x212 SWAP2 SWAP1 PUSH2 0x2EC8 JUMP JUMPDEST PUSH2 0x5D5 JUMP JUMPDEST PUSH1 0x40 MLOAD PUSH2 0x224 SWAP2 SWAP1 PUSH2 0x2E1E JUMP JUMPDEST PUSH1 0x40 MLOAD DUP1 SWAP2 SUB SWAP1 RETURN JUMPDEST PUSH2 0x235 PUSH2 0xAC2 JUMP JUMPDEST PUSH1 0x40 MLOAD PUSH2 0x242 SWAP2 SWAP1 PUSH2 0x2F21 JUMP JUMPDEST PUSH1 0x40 MLOAD DUP1 SWAP2 SUB SWAP1 RETURN JUMPDEST PUSH2 0x265 PUSH1 0x4 DUP1 CALLDATASIZE SUB DUP2 ADD SWAP1 PUSH2 0x260 SWAP2 SWAP1 PUSH2 0x2F3C JUMP JUMPDEST PUSH2 0xAE6 JUMP JUMPDEST PUSH1 0x40 MLOAD PUSH2 0x272 SWAP2 SWAP1 PUSH2 0x2E1E JUMP JUMPDEST PUSH1 0x40 MLOAD DUP1 SWAP2 SUB SWAP1 RETURN JUMPDEST PUSH2 0x283 PUSH2 0xAFE JUMP JUMPDEST PUSH1 0x40 MLOAD PUSH2 0x290 SWAP2 SWAP1 PUSH2 0x2F78 JUMP JUMPDEST PUSH1 0x40 MLOAD DUP1 SWAP2 SUB SWAP1 RETURN JUMPDEST PUSH2 0x2A1 PUSH2 0xB22 JUMP JUMPDEST PUSH1 0x40 MLOAD PUSH2 0x2AE SWAP2 SWAP1 PUSH2 0x2F21 JUMP JUMPDEST PUSH1 0x40 MLOAD DUP1 SWAP2 SUB SWAP1 RETURN JUMPDEST PUSH2 0x2D1 PUSH1 0x4 DUP1 CALLDATASIZE SUB DUP2 ADD SWAP1 PUSH2 0x2CC SWAP2 SWAP1 PUSH2 0x2F93 JUMP JUMPDEST PUSH2 0xB46 JUMP JUMPDEST STOP JUMPDEST PUSH2 0x2ED PUSH1 0x4 DUP1 CALLDATASIZE SUB DUP2 ADD SWAP1 PUSH2 0x2E8 SWAP2 SWAP1 PUSH2 0x2F93 JUMP JUMPDEST PUSH2 0xFA1 JUMP JUMPDEST PUSH1 0x40 MLOAD PUSH2 0x2FA SWAP2 SWAP1 PUSH2 0x3037 JUMP JUMPDEST PUSH1 0x40 MLOAD DUP1 SWAP2 SUB SWAP1 RETURN JUMPDEST PUSH2 0x31D PUSH1 0x4 DUP1 CALLDATASIZE SUB DUP2 ADD SWAP1 PUSH2 0x318 SWAP2 SWAP1 PUSH2 0x2F93 JUMP JUMPDEST PUSH2 0x1059 JUMP JUMPDEST STOP JUMPDEST PUSH2 0x339 PUSH1 0x4 DUP1 CALLDATASIZE SUB DUP2 ADD SWAP1 PUSH2 0x334 SWAP2 SWAP1 PUSH2 0x308A JUMP JUMPDEST PUSH2 0x15C7 JUMP JUMPDEST STOP JUMPDEST PUSH2 0x343 PUSH2 0x1B84 JUMP JUMPDEST PUSH1 0x40 MLOAD PUSH2 0x350 SWAP2 SWAP1 PUSH2 0x2E1E JUMP JUMPDEST PUSH1 0x40 MLOAD DUP1 SWAP2 SUB SWAP1 RETURN JUMPDEST PUSH2 0x361 PUSH2 0x1B93 JUMP JUMPDEST PUSH1 0x40 MLOAD PUSH2 0x36E SWAP2 SWAP1 PUSH2 0x313C JUMP JUMPDEST PUSH1 0x40 MLOAD DUP1 SWAP2 SUB SWAP1 RETURN JUMPDEST PUSH2 0x37F PUSH2 0x1BB9 JUMP JUMPDEST PUSH1 0x40 MLOAD PUSH2 0x38C SWAP2 SWAP1 PUSH2 0x3178 JUMP JUMPDEST PUSH1 0x40 MLOAD DUP1 SWAP2 SUB SWAP1 RETURN JUMPDEST PUSH2 0x3AF PUSH1 0x4 DUP1 CALLDATASIZE SUB DUP2 ADD SWAP1 PUSH2 0x3AA SWAP2 SWAP1 PUSH2 0x2F93 JUMP JUMPDEST PUSH2 0x1BDF JUMP JUMPDEST PUSH1 0x40 MLOAD PUSH2 0x3C0 SWAP6 SWAP5 SWAP4 SWAP3 SWAP2 SWAP1 PUSH2 0x3193 JUMP JUMPDEST PUSH1 0x40 MLOAD DUP1 SWAP2 SUB SWAP1 RETURN JUMPDEST PUSH2 0x3D1 PUSH2 0x1C15 JUMP JUMPDEST PUSH1 0x40 MLOAD PUSH2 0x3DE SWAP2 SWAP1 PUSH2 0x2F78 JUMP JUMPDEST PUSH1 0x40 MLOAD DUP1 SWAP2 SUB SWAP1 RETURN JUMPDEST PUSH2 0x3EF PUSH2 0x1C39 JUMP JUMPDEST STOP JUMPDEST PUSH2 0x40B PUSH1 0x4 DUP1 CALLDATASIZE SUB DUP2 ADD SWAP1 PUSH2 0x406 SWAP2 SWAP1 PUSH2 0x31E6 JUMP JUMPDEST PUSH2 0x1C4D JUMP JUMPDEST STOP JUMPDEST PUSH2 0x415 PUSH2 0x2197 JUMP JUMPDEST PUSH1 0x40 MLOAD PUSH2 0x422 SWAP2 SWAP1 PUSH2 0x2F78 JUMP JUMPDEST PUSH1 0x40 MLOAD DUP1 SWAP2 SUB SWAP1 RETURN JUMPDEST PUSH2 0x433 PUSH2 0x21BB JUMP JUMPDEST STOP JUMPDEST PUSH2 0x44F PUSH1 0x4 DUP1 CALLDATASIZE SUB DUP2 ADD SWAP1 PUSH2 0x44A SWAP2 SWAP1 PUSH2 0x2F3C JUMP JUMPDEST PUSH2 0x2346 JUMP JUMPDEST PUSH1 0x40 MLOAD PUSH2 0x45C SWAP2 SWAP1 PUSH2 0x334C JUMP JUMPDEST PUSH1 0x40 MLOAD DUP1 SWAP2 SUB SWAP1 RETURN JUMPDEST PUSH2 0x46D PUSH2 0x2427 JUMP JUMPDEST PUSH1 0x40 MLOAD PUSH2 0x47A SWAP2 SWAP1 PUSH2 0x2F78 JUMP JUMPDEST PUSH1 0x40 MLOAD DUP1 SWAP2 SUB SWAP1 RETURN JUMPDEST PUSH2 0x49D PUSH1 0x4 DUP1 CALLDATASIZE SUB DUP2 ADD SWAP1 PUSH2 0x498 SWAP2 SWAP1 PUSH2 0x2F93 JUMP JUMPDEST PUSH2 0x2450 JUMP JUMPDEST STOP JUMPDEST PUSH2 0x4A7 PUSH2 0x266F JUMP JUMPDEST PUSH1 0x40 MLOAD PUSH2 0x4B4 SWAP2 SWAP1 PUSH2 0x2F78 JUMP JUMPDEST PUSH1 0x40 MLOAD DUP1 SWAP2 SUB SWAP1 RETURN JUMPDEST PUSH2 0x4D7 PUSH1 0x4 DUP1 CALLDATASIZE SUB DUP2 ADD SWAP1 PUSH2 0x4D2 SWAP2 SWAP1 PUSH2 0x2F3C JUMP JUMPDEST PUSH2 0x2693 JUMP JUMPDEST PUSH1 0x40 MLOAD PUSH2 0x4E4 SWAP2 SWAP1 PUSH2 0x34F9 JUMP JUMPDEST PUSH1 0x40 MLOAD DUP1 SWAP2 SUB SWAP1 RETURN JUMPDEST PUSH2 0x507 PUSH1 0x4 DUP1 CALLDATASIZE SUB DUP2 ADD SWAP1 PUSH2 0x502 SWAP2 SWAP1 PUSH2 0x2EC8 JUMP JUMPDEST PUSH2 0x2804 JUMP JUMPDEST PUSH1 0x40 MLOAD PUSH2 0x518 SWAP6 SWAP5 SWAP4 SWAP3 SWAP2 SWAP1 PUSH2 0x352A JUMP JUMPDEST PUSH1 0x40 MLOAD DUP1 SWAP2 SUB SWAP1 RETURN JUMPDEST PUSH2 0x529 PUSH2 0x2864 JUMP JUMPDEST PUSH1 0x40 MLOAD PUSH2 0x536 SWAP2 SWAP1 PUSH2 0x2F78 JUMP JUMPDEST PUSH1 0x40 MLOAD DUP1 SWAP2 SUB SWAP1 RETURN JUMPDEST PUSH2 0x559 PUSH1 0x4 DUP1 CALLDATASIZE SUB DUP2 ADD SWAP1 PUSH2 0x554 SWAP2 SWAP1 PUSH2 0x2EC8 JUMP JUMPDEST PUSH2 0x288A JUMP JUMPDEST PUSH1 0x40 MLOAD PUSH2 0x56F SWAP11 SWAP10 SWAP9 SWAP8 SWAP7 SWAP6 SWAP5 SWAP4 SWAP3 SWAP2 SWAP1 PUSH2 0x357D JUMP JUMPDEST PUSH1 0x40 MLOAD DUP1 SWAP2 SUB SWAP1 RETURN JUMPDEST PUSH2 0x580 PUSH2 0x2935 JUMP JUMPDEST PUSH1 0x40 MLOAD PUSH2 0x58D SWAP2 SWAP1 PUSH2 0x2F78 JUMP JUMPDEST PUSH1 0x40 MLOAD DUP1 SWAP2 SUB SWAP1 RETURN JUMPDEST PUSH2 0x59E PUSH2 0x2959 JUMP JUMPDEST PUSH1 0x40 MLOAD PUSH2 0x5AB SWAP2 SWAP1 PUSH2 0x2F21 JUMP JUMPDEST PUSH1 0x40 MLOAD DUP1 SWAP2 SUB SWAP1 RETURN JUMPDEST PUSH2 0x5CE PUSH1 0x4 DUP1 CALLDATASIZE SUB DUP2 ADD SWAP1 PUSH2 0x5C9 SWAP2 SWAP1 PUSH2 0x2F3C JUMP JUMPDEST PUSH2 0x297D JUMP JUMPDEST STOP JUMPDEST PUSH1 0x5 DUP2 JUMP JUMPDEST PUSH1 0x0 PUSH1 0x4 PUSH1 0x0 DUP5 PUSH20 0xFFFFFFFFFFFFFFFFFFFFFFFFFFFFFFFFFFFFFFFF AND PUSH20 0xFFFFFFFFFFFFFFFFFFFFFFFFFFFFFFFFFFFFFFFF AND DUP2 MSTORE PUSH1 0x20 ADD SWAP1 DUP2 MSTORE PUSH1 0x20 ADD PUSH1 0x0 KECCAK256 DUP1 SLOAD SWAP1 POP DUP3 LT PUSH2 0x65B JUMPI PUSH1 0x40 MLOAD PUSH32 0x8C379A000000000000000000000000000000000000000000000000000000000 DUP2 MSTORE PUSH1 0x4 ADD PUSH2 0x652 SWAP1 PUSH2 0x3676 JUMP JUMPDEST PUSH1 0x40 MLOAD DUP1 SWAP2 SUB SWAP1 REVERT JUMPDEST PUSH1 0x0 PUSH1 0x4 PUSH1 0x0 DUP6 PUSH20 0xFFFFFFFFFFFFFFFFFFFFFFFFFFFFFFFFFFFFFFFF AND PUSH20 0xFFFFFFFFFFFFFFFFFFFFFFFFFFFFFFFFFFFFFFFF AND DUP2 MSTORE PUSH1 0x20 ADD SWAP1 DUP2 MSTORE PUSH1 0x20 ADD PUSH1 0x0 KECCAK256 DUP4 DUP2 SLOAD DUP2 LT PUSH2 0x6AE JUMPI PUSH2 0x6AD PUSH2 0x3696 JUMP JUMPDEST JUMPDEST SWAP1 PUSH1 0x0 MSTORE PUSH1 0x20 PUSH1 0x0 KECCAK256 SWAP1 PUSH1 0x9 MUL ADD SWAP1 POP DUP1 PUSH1 0x8 ADD PUSH1 0x1 SWAP1 SLOAD SWAP1 PUSH2 0x100 EXP SWAP1 DIV PUSH1 0xFF AND ISZERO PUSH2 0x6DF JUMPI PUSH1 0x0 SWAP2 POP POP PUSH2 0xABC JUMP JUMPDEST PUSH1 0x0 DUP2 PUSH1 0x2 ADD SLOAD SWAP1 POP PUSH1 0x0 DUP3 PUSH1 0x3 ADD SLOAD SWAP1 POP PUSH1 0x0 DUP4 PUSH1 0x4 ADD SLOAD GT ISZERO PUSH2 0x835 JUMPI PUSH1 0x2 PUSH1 0x0 SWAP1 SLOAD SWAP1 PUSH2 0x100 EXP SWAP1 DIV PUSH20 0xFFFFFFFFFFFFFFFFFFFFFFFFFFFFFFFFFFFFFFFF AND PUSH20 0xFFFFFFFFFFFFFFFFFFFFFFFFFFFFFFFFFFFFFFFF AND PUSH4 0xA20F2305 PUSH32 0x0 PUSH32 0x0 PUSH32 0x0 PUSH32 0x0 DUP9 PUSH1 0x4 ADD SLOAD PUSH1 0x40 MLOAD DUP7 PUSH4 0xFFFFFFFF AND PUSH1 0xE0 SHL DUP2 MSTORE PUSH1 0x4 ADD PUSH2 0x7E5 SWAP6 SWAP5 SWAP4 SWAP3 SWAP2 SWAP1 PUSH2 0x36C5 JUMP JUMPDEST PUSH1 0x20 PUSH1 0x40 MLOAD DUP1 DUP4 SUB DUP2 DUP7 GAS STATICCALL SWAP3 POP POP POP DUP1 ISZERO PUSH2 0x81F JUMPI POP PUSH1 0x40 MLOAD RETURNDATASIZE PUSH1 0x1F NOT PUSH1 0x1F DUP3 ADD AND DUP3 ADD DUP1 PUSH1 0x40 MSTORE POP DUP2 ADD SWAP1 PUSH2 0x81C SWAP2 SWAP1 PUSH2 0x372D JUMP JUMPDEST PUSH1 0x1 JUMPDEST ISZERO PUSH2 0x834 JUMPI DUP1 DUP3 PUSH2 0x830 SWAP2 SWAP1 PUSH2 0x3789 JUMP JUMPDEST SWAP2 POP POP JUMPDEST JUMPDEST PUSH1 0x0 DUP4 PUSH1 0x5 ADD SLOAD GT ISZERO PUSH2 0x979 JUMPI PUSH1 0x2 PUSH1 0x0 SWAP1 SLOAD SWAP1 PUSH2 0x100 EXP SWAP1 DIV PUSH20 0xFFFFFFFFFFFFFFFFFFFFFFFFFFFFFFFFFFFFFFFF AND PUSH20 0xFFFFFFFFFFFFFFFFFFFFFFFFFFFFFFFFFFFFFFFF AND PUSH4 0xA20F2305 PUSH32 0x0 PUSH32 0x0 PUSH32 0x0 PUSH32 0x0 DUP9 PUSH1 0x5 ADD SLOAD PUSH1 0x40 MLOAD DUP7 PUSH4 0xFFFFFFFF AND PUSH1 0xE0 SHL DUP2 MSTORE PUSH1 0x4 ADD PUSH2 0x929 SWAP6 SWAP5 SWAP4 SWAP3 SWAP2 SWAP1 PUSH2 0x36C5 JUMP JUMPDEST PUSH1 0x20 PUSH1 0x40 MLOAD DUP1 DUP4 SUB DUP2 DUP7 GAS STATICCALL SWAP3 POP POP POP DUP1 ISZERO PUSH2 0x963 JUMPI POP PUSH1 0x40 MLOAD RETURNDATASIZE PUSH1 0x1F NOT PUSH1 0x1F DUP3 ADD AND DUP3 ADD DUP1 PUSH1 0x40 MSTORE POP DUP2 ADD SWAP1 PUSH2 0x960 SWAP2 SWAP1 PUSH2 0x372D JUMP JUMPDEST PUSH1 0x1 JUMPDEST ISZERO PUSH2 0x978 JUMPI DUP1 DUP3 PUSH2 0x974 SWAP2 SWAP1 PUSH2 0x3789 JUMP JUMPDEST SWAP2 POP POP JUMPDEST JUMPDEST PUSH1 0x0 DUP2 GT ISZERO PUSH2 0xAB5 JUMPI PUSH1 0x2 PUSH1 0x0 SWAP1 SLOAD SWAP1 PUSH2 0x100 EXP SWAP1 DIV PUSH20 0xFFFFFFFFFFFFFFFFFFFFFFFFFFFFFFFFFFFFFFFF AND PUSH20 0xFFFFFFFFFFFFFFFFFFFFFFFFFFFFFFFFFFFFFFFF AND PUSH4 0xA20F2305 PUSH32 0x0 PUSH32 0x0 PUSH32 0x0 PUSH32 0x0 DUP7 PUSH1 0x40 MLOAD DUP7 PUSH4 0xFFFFFFFF AND PUSH1 0xE0 SHL DUP2 MSTORE PUSH1 0x4 ADD PUSH2 0xA65 SWAP6 SWAP5 SWAP4 SWAP3 SWAP2 SWAP1 PUSH2 0x36C5 JUMP JUMPDEST PUSH1 0x20 PUSH1 0x40 MLOAD DUP1 DUP4 SUB DUP2 DUP7 GAS STATICCALL SWAP3 POP POP POP DUP1 ISZERO PUSH2 0xA9F JUMPI POP PUSH1 0x40 MLOAD RETURNDATASIZE PUSH1 0x1F NOT PUSH1 0x1F DUP3 ADD AND DUP3 ADD DUP1 PUSH1 0x40 MSTORE POP DUP2 ADD SWAP1 PUSH2 0xA9C SWAP2 SWAP1 PUSH2 0x372D JUMP JUMPDEST PUSH1 0x1 JUMPDEST ISZERO PUSH2 0xAB4 JUMPI DUP1 DUP4 PUSH2 0xAB0 SWAP2 SWAP1 PUSH2 0x3789 JUMP JUMPDEST SWAP3 POP POP JUMPDEST JUMPDEST DUP2 SWAP4 POP POP POP POP JUMPDEST SWAP3 SWAP2 POP POP JUMP JUMPDEST PUSH32 0x0 DUP2 JUMP JUMPDEST PUSH1 0x7 PUSH1 0x20 MSTORE DUP1 PUSH1 0x0 MSTORE PUSH1 0x40 PUSH1 0x0 KECCAK256 PUSH1 0x0 SWAP2 POP SWAP1 POP SLOAD DUP2 JUMP JUMPDEST PUSH32 0x0 DUP2 JUMP JUMPDEST PUSH32 0x0 DUP2 JUMP JUMPDEST PUSH1 0x6 PUSH1 0x0 CALLER PUSH20 0xFFFFFFFFFFFFFFFFFFFFFFFFFFFFFFFFFFFFFFFF AND PUSH20 0xFFFFFFFFFFFFFFFFFFFFFFFFFFFFFFFFFFFFFFFF AND DUP2 MSTORE PUSH1 0x20 ADD SWAP1 DUP2 MSTORE PUSH1 0x20 ADD PUSH1 0x0 KECCAK256 DUP1 SLOAD SWAP1 POP DUP2 LT PUSH2 0xBCA JUMPI PUSH1 0x40 MLOAD PUSH32 0x8C379A000000000000000000000000000000000000000000000000000000000 DUP2 MSTORE PUSH1 0x4 ADD PUSH2 0xBC1 SWAP1 PUSH2 0x3809 JUMP JUMPDEST PUSH1 0x40 MLOAD DUP1 SWAP2 SUB SWAP1 REVERT JUMPDEST PUSH1 0x0 PUSH1 0x6 PUSH1 0x0 CALLER PUSH20 0xFFFFFFFFFFFFFFFFFFFFFFFFFFFFFFFFFFFFFFFF AND PUSH20 0xFFFFFFFFFFFFFFFFFFFFFFFFFFFFFFFFFFFFFFFF AND DUP2 MSTORE PUSH1 0x20 ADD SWAP1 DUP2 MSTORE PUSH1 0x20 ADD PUSH1 0x0 KECCAK256 DUP3 DUP2 SLOAD DUP2 LT PUSH2 0xC1D JUMPI PUSH2 0xC1C PUSH2 0x3696 JUMP JUMPDEST JUMPDEST SWAP1 PUSH1 0x0 MSTORE PUSH1 0x20 PUSH1 0x0 KECCAK256 SWAP1 PUSH1 0x5 MUL ADD SWAP1 POP DUP1 PUSH1 0x4 ADD PUSH1 0x0 SWAP1 SLOAD SWAP1 PUSH2 0x100 EXP SWAP1 DIV PUSH1 0xFF AND ISZERO PUSH2 0xC7F JUMPI PUSH1 0x40 MLOAD PUSH32 0x8C379A000000000000000000000000000000000000000000000000000000000 DUP2 MSTORE PUSH1 0x4 ADD PUSH2 0xC76 SWAP1 PUSH2 0x3875 JUMP JUMPDEST PUSH1 0x40 MLOAD DUP1 SWAP2 SUB SWAP1 REVERT JUMPDEST PUSH3 0x15180 DUP2 PUSH1 0x2 ADD SLOAD PUSH2 0xC92 SWAP2 SWAP1 PUSH2 0x3895 JUMP JUMPDEST DUP2 PUSH1 0x1 ADD SLOAD PUSH2 0xCA1 SWAP2 SWAP1 PUSH2 0x3789 JUMP JUMPDEST TIMESTAMP LT ISZERO PUSH2 0xCE3 JUMPI PUSH1 0x40 MLOAD PUSH32 0x8C379A000000000000000000000000000000000000000000000000000000000 DUP2 MSTORE PUSH1 0x4 ADD PUSH2 0xCDA SWAP1 PUSH2 0x3923 JUMP JUMPDEST PUSH1 0x40 MLOAD DUP1 SWAP2 SUB SWAP1 REVERT JUMPDEST PUSH1 0x1 DUP2 PUSH1 0x4 ADD PUSH1 0x0 PUSH2 0x100 EXP DUP2 SLOAD DUP2 PUSH1 0xFF MUL NOT AND SWAP1 DUP4 ISZERO ISZERO MUL OR SWAP1 SSTORE POP PUSH1 0x0 PUSH1 0x64 PUSH1 0x5 DUP4 PUSH1 0x3 ADD SLOAD PUSH2 0xD15 SWAP2 SWAP1 PUSH2 0x3895 JUMP JUMPDEST PUSH2 0xD1F SWAP2 SWAP1 PUSH2 0x3972 JUMP JUMPDEST SWAP1 POP PUSH1 0x0 DUP2 DUP4 PUSH1 0x3 ADD SLOAD PUSH2 0xD33 SWAP2 SWAP1 PUSH2 0x39A3 JUMP JUMPDEST SWAP1 POP PUSH1 0x0 DUP2 DUP5 PUSH1 0x0 ADD SLOAD PUSH2 0xD47 SWAP2 SWAP1 PUSH2 0x3789 JUMP JUMPDEST SWAP1 POP DUP4 PUSH1 0x0 ADD SLOAD PUSH1 0x7 PUSH1 0x0 CALLER PUSH20 0xFFFFFFFFFFFFFFFFFFFFFFFFFFFFFFFFFFFFFFFF AND PUSH20 0xFFFFFFFFFFFFFFFFFFFFFFFFFFFFFFFFFFFFFFFF AND DUP2 MSTORE PUSH1 0x20 ADD SWAP1 DUP2 MSTORE PUSH1 0x20 ADD PUSH1 0x0 KECCAK256 PUSH1 0x0 DUP3 DUP3 SLOAD PUSH2 0xD9C SWAP2 SWAP1 PUSH2 0x39A3 JUMP JUMPDEST SWAP3 POP POP DUP2 SWAP1 SSTORE POP DUP4 PUSH1 0x0 ADD SLOAD PUSH1 0x5 PUSH1 0x0 DUP7 PUSH1 0x2 ADD SLOAD DUP2 MSTORE PUSH1 0x20 ADD SWAP1 DUP2 MSTORE PUSH1 0x20 ADD PUSH1 0x0 KECCAK256 PUSH1 0x0 ADD PUSH1 0x0 DUP3 DUP3 SLOAD PUSH2 0xDD1 SWAP2 SWAP1 PUSH2 0x39A3 JUMP JUMPDEST SWAP3 POP POP DUP2 SWAP1 SSTORE POP PUSH1 0x0 DUP4 GT ISZERO PUSH2 0xEA3 JUMPI PUSH32 0x0 PUSH20 0xFFFFFFFFFFFFFFFFFFFFFFFFFFFFFFFFFFFFFFFF AND PUSH4 0xA9059CBB PUSH1 0x3 PUSH1 0x0 SWAP1 SLOAD SWAP1 PUSH2 0x100 EXP SWAP1 DIV PUSH20 0xFFFFFFFFFFFFFFFFFFFFFFFFFFFFFFFFFFFFFFFF AND DUP6 PUSH1 0x40 MLOAD DUP4 PUSH4 0xFFFFFFFF AND PUSH1 0xE0 SHL DUP2 MSTORE PUSH1 0x4 ADD PUSH2 0xE5E SWAP3 SWAP2 SWAP1 PUSH2 0x39D7 JUMP JUMPDEST PUSH1 0x20 PUSH1 0x40 MLOAD DUP1 DUP4 SUB DUP2 PUSH1 0x0 DUP8 GAS CALL ISZERO DUP1 ISZERO PUSH2 0xE7D JUMPI RETURNDATASIZE PUSH1 0x0 DUP1 RETURNDATACOPY RETURNDATASIZE PUSH1 0x0 REVERT JUMPDEST POP POP POP POP PUSH1 0x40 MLOAD RETURNDATASIZE PUSH1 0x1F NOT PUSH1 0x1F DUP3 ADD AND DUP3 ADD DUP1 PUSH1 0x40 MSTORE POP DUP2 ADD SWAP1 PUSH2 0xEA1 SWAP2 SWAP1 PUSH2 0x3A15 JUMP JUMPDEST POP JUMPDEST PUSH32 0x0 PUSH20 0xFFFFFFFFFFFFFFFFFFFFFFFFFFFFFFFFFFFFFFFF AND PUSH4 0xA9059CBB CALLER DUP4 PUSH1 0x40 MLOAD DUP4 PUSH4 0xFFFFFFFF AND PUSH1 0xE0 SHL DUP2 MSTORE PUSH1 0x4 ADD PUSH2 0xEFE SWAP3 SWAP2 SWAP1 PUSH2 0x39D7 JUMP JUMPDEST PUSH1 0x20 PUSH1 0x40 MLOAD DUP1 DUP4 SUB DUP2 PUSH1 0x0 DUP8 GAS CALL ISZERO DUP1 ISZERO PUSH2 0xF1D JUMPI RETURNDATASIZE PUSH1 0x0 DUP1 RETURNDATACOPY RETURNDATASIZE PUSH1 0x0 REVERT JUMPDEST POP POP POP POP PUSH1 0x40 MLOAD RETURNDATASIZE PUSH1 0x1F NOT PUSH1 0x1F DUP3 ADD AND DUP3 ADD DUP1 PUSH1 0x40 MSTORE POP DUP2 ADD SWAP1 PUSH2 0xF41 SWAP2 SWAP1 PUSH2 0x3A15 JUMP JUMPDEST POP CALLER PUSH20 0xFFFFFFFFFFFFFFFFFFFFFFFFFFFFFFFFFFFFFFFF AND PUSH32 0x3F0D7EFEE16F032B58C9EAD61368473E4E8D9849606765453906BC92CDB82B30 DUP7 DUP7 PUSH1 0x0 ADD SLOAD DUP6 DUP8 PUSH1 0x40 MLOAD PUSH2 0xF92 SWAP5 SWAP4 SWAP3 SWAP2 SWAP1 PUSH2 0x3A42 JUMP JUMPDEST PUSH1 0x40 MLOAD DUP1 SWAP2 SUB SWAP1 LOG2 POP POP POP POP POP JUMP JUMPDEST PUSH2 0xFA9 PUSH2 0x2DD6 JUMP JUMPDEST PUSH1 0x1E DUP3 EQ DUP1 PUSH2 0xFB8 JUMPI POP PUSH1 0x3C DUP3 EQ JUMPDEST DUP1 PUSH2 0xFC3 JUMPI POP PUSH1 0x5A DUP3 EQ JUMPDEST PUSH2 0x1002 JUMPI PUSH1 0x40 MLOAD PUSH32 0x8C379A000000000000000000000000000000000000000000000000000000000 DUP2 MSTORE PUSH1 0x4 ADD PUSH2 0xFF9 SWAP1 PUSH2 0x3AD3 JUMP JUMPDEST PUSH1 0x40 MLOAD DUP1 SWAP2 SUB SWAP1 REVERT JUMPDEST PUSH1 0x5 PUSH1 0x0 DUP4 DUP2 MSTORE PUSH1 0x20 ADD SWAP1 DUP2 MSTORE PUSH1 0x20 ADD PUSH1 0x0 KECCAK256 PUSH1 0x40 MLOAD DUP1 PUSH1 0xA0 ADD PUSH1 0x40 MSTORE SWAP1 DUP2 PUSH1 0x0 DUP3 ADD SLOAD DUP2 MSTORE PUSH1 0x20 ADD PUSH1 0x1 DUP3 ADD SLOAD DUP2 MSTORE PUSH1 0x20 ADD PUSH1 0x2 DUP3 ADD SLOAD DUP2 MSTORE PUSH1 0x20 ADD PUSH1 0x3 DUP3 ADD SLOAD DUP2 MSTORE PUSH1 0x20 ADD PUSH1 0x4 DUP3 ADD SLOAD DUP2 MSTORE POP POP SWAP1 POP SWAP2 SWAP1 POP JUMP JUMPDEST PUSH1 0x4 PUSH1 0x0 CALLER PUSH20 0xFFFFFFFFFFFFFFFFFFFFFFFFFFFFFFFFFFFFFFFF AND PUSH20 0xFFFFFFFFFFFFFFFFFFFFFFFFFFFFFFFFFFFFFFFF AND DUP2 MSTORE PUSH1 0x20 ADD SWAP1 DUP2 MSTORE PUSH1 0x20 ADD PUSH1 0x0 KECCAK256 DUP1 SLOAD SWAP1 POP DUP2 LT PUSH2 0x10DD JUMPI PUSH1 0x40 MLOAD PUSH32 0x8C379A000000000000000000000000000000000000000000000000000000000 DUP2 MSTORE PUSH1 0x4 ADD PUSH2 0x10D4 SWAP1 PUSH2 0x3676 JUMP JUMPDEST PUSH1 0x40 MLOAD DUP1 SWAP2 SUB SWAP1 REVERT JUMPDEST PUSH1 0x0 PUSH1 0x4 PUSH1 0x0 CALLER PUSH20 0xFFFFFFFFFFFFFFFFFFFFFFFFFFFFFFFFFFFFFFFF AND PUSH20 0xFFFFFFFFFFFFFFFFFFFFFFFFFFFFFFFFFFFFFFFF AND DUP2 MSTORE PUSH1 0x20 ADD SWAP1 DUP2 MSTORE PUSH1 0x20 ADD PUSH1 0x0 KECCAK256 DUP3 DUP2 SLOAD DUP2 LT PUSH2 0x1130 JUMPI PUSH2 0x112F PUSH2 0x3696 JUMP JUMPDEST JUMPDEST SWAP1 PUSH1 0x0 MSTORE PUSH1 0x20 PUSH1 0x0 KECCAK256 SWAP1 PUSH1 0x9 MUL ADD SWAP1 POP DUP1 PUSH1 0x8 ADD PUSH1 0x1 SWAP1 SLOAD SWAP1 PUSH2 0x100 EXP SWAP1 DIV PUSH1 0xFF AND ISZERO PUSH2 0x1192 JUMPI PUSH1 0x40 MLOAD PUSH32 0x8C379A000000000000000000000000000000000000000000000000000000000 DUP2 MSTORE PUSH1 0x4 ADD PUSH2 0x1189 SWAP1 PUSH2 0x3875 JUMP JUMPDEST PUSH1 0x40 MLOAD DUP1 SWAP2 SUB SWAP1 REVERT JUMPDEST DUP1 PUSH1 0x7 ADD SLOAD DUP2 PUSH1 0x6 ADD SLOAD PUSH2 0x11A6 SWAP2 SWAP1 PUSH2 0x3789 JUMP JUMPDEST TIMESTAMP LT ISZERO PUSH2 0x11E8 JUMPI PUSH1 0x40 MLOAD PUSH32 0x8C379A000000000000000000000000000000000000000000000000000000000 DUP2 MSTORE PUSH1 0x4 ADD PUSH2 0x11DF SWAP1 PUSH2 0x3B3F JUMP JUMPDEST PUSH1 0x40 MLOAD DUP1 SWAP2 SUB SWAP1 REVERT JUMPDEST PUSH1 0x0 DUP2 PUSH1 0x3 ADD SLOAD SWAP1 POP PUSH1 0x0 DUP3 PUSH1 0x4 ADD SLOAD GT ISZERO PUSH2 0x127C JUMPI PUSH2 0x126E PUSH32 0x0 PUSH32 0x0 PUSH32 0x0 DUP6 PUSH1 0x4 ADD SLOAD PUSH2 0x2A03 JUMP JUMPDEST DUP2 PUSH2 0x1279 SWAP2 SWAP1 PUSH2 0x3789 JUMP JUMPDEST SWAP1 POP JUMPDEST PUSH1 0x0 DUP3 PUSH1 0x5 ADD SLOAD GT ISZERO PUSH2 0x1307 JUMPI PUSH2 0x12F9 PUSH32 0x0 PUSH32 0x0 PUSH32 0x0 DUP6 PUSH1 0x5 ADD SLOAD PUSH2 0x2A03 JUMP JUMPDEST DUP2 PUSH2 0x1304 SWAP2 SWAP1 PUSH2 0x3789 JUMP JUMPDEST SWAP1 POP JUMPDEST PUSH1 0x0 DUP1 DUP3 GT ISZERO PUSH2 0x1380 JUMPI PUSH2 0x137D PUSH32 0x0 PUSH32 0x0 PUSH32 0x0 DUP6 PUSH2 0x2A03 JUMP JUMPDEST SWAP1 POP JUMPDEST PUSH1 0x0 DUP2 DUP5 PUSH1 0x2 ADD SLOAD PUSH2 0x1392 SWAP2 SWAP1 PUSH2 0x3789 JUMP JUMPDEST SWAP1 POP PUSH1 0x1 DUP5 PUSH1 0x8 ADD PUSH1 0x1 PUSH2 0x100 EXP DUP2 SLOAD DUP2 PUSH1 0xFF MUL NOT AND SWAP1 DUP4 ISZERO ISZERO MUL OR SWAP1 SSTORE POP PUSH1 0x0 DUP1 DUP3 SWAP1 POP DUP6 PUSH1 0x1 ADD SLOAD DUP4 GT ISZERO PUSH2 0x14CD JUMPI PUSH1 0x0 DUP7 PUSH1 0x1 ADD SLOAD DUP5 PUSH2 0x13D5 SWAP2 SWAP1 PUSH2 0x39A3 JUMP JUMPDEST SWAP1 POP PUSH1 0x64 PUSH1 0x1 DUP3 PUSH2 0x13E6 SWAP2 SWAP1 PUSH2 0x3895 JUMP JUMPDEST PUSH2 0x13F0 SWAP2 SWAP1 PUSH2 0x3972 JUMP JUMPDEST SWAP3 POP DUP3 DUP5 PUSH2 0x13FE SWAP2 SWAP1 PUSH2 0x39A3 JUMP JUMPDEST SWAP2 POP PUSH1 0x0 DUP4 GT ISZERO PUSH2 0x14CB JUMPI PUSH32 0x0 PUSH20 0xFFFFFFFFFFFFFFFFFFFFFFFFFFFFFFFFFFFFFFFF AND PUSH4 0xA9059CBB PUSH1 0x3 PUSH1 0x0 SWAP1 SLOAD SWAP1 PUSH2 0x100 EXP SWAP1 DIV PUSH20 0xFFFFFFFFFFFFFFFFFFFFFFFFFFFFFFFFFFFFFFFF AND DUP6 PUSH1 0x40 MLOAD DUP4 PUSH4 0xFFFFFFFF AND PUSH1 0xE0 SHL DUP2 MSTORE PUSH1 0x4 ADD PUSH2 0x1486 SWAP3 SWAP2 SWAP1 PUSH2 0x39D7 JUMP JUMPDEST PUSH1 0x20 PUSH1 0x40 MLOAD DUP1 DUP4 SUB DUP2 PUSH1 0x0 DUP8 GAS CALL ISZERO DUP1 ISZERO PUSH2 0x14A5 JUMPI RETURNDATASIZE PUSH1 0x0 DUP1 RETURNDATACOPY RETURNDATASIZE PUSH1 0x0 REVERT JUMPDEST POP POP POP POP PUSH1 0x40 MLOAD RETURNDATASIZE PUSH1 0x1F NOT PUSH1 0x1F DUP3 ADD AND DUP3 ADD DUP1 PUSH1 0x40 MSTORE POP DUP2 ADD SWAP1 PUSH2 0x14C9 SWAP2 SWAP1 PUSH2 0x3A15 JUMP JUMPDEST POP JUMPDEST POP JUMPDEST PUSH32 0x0 PUSH20 0xFFFFFFFFFFFFFFFFFFFFFFFFFFFFFFFFFFFFFFFF AND PUSH4 0xA9059CBB CALLER DUP4 PUSH1 0x40 MLOAD DUP4 PUSH4 0xFFFFFFFF AND PUSH1 0xE0 SHL DUP2 MSTORE PUSH1 0x4 ADD PUSH2 0x1528 SWAP3 SWAP2 SWAP1 PUSH2 0x39D7 JUMP JUMPDEST PUSH1 0x20 PUSH1 0x40 MLOAD DUP1 DUP4 SUB DUP2 PUSH1 0x0 DUP8 GAS CALL ISZERO DUP1 ISZERO PUSH2 0x1547 JUMPI RETURNDATASIZE PUSH1 0x0 DUP1 RETURNDATACOPY RETURNDATASIZE PUSH1 0x0 REVERT JUMPDEST POP POP POP POP PUSH1 0x40 MLOAD RETURNDATASIZE PUSH1 0x1F NOT PUSH1 0x1F DUP3 ADD AND DUP3 ADD DUP1 PUSH1 0x40 MSTORE POP DUP2 ADD SWAP1 PUSH2 0x156B SWAP2 SWAP1 PUSH2 0x3A15 JUMP JUMPDEST POP CALLER PUSH20 0xFFFFFFFFFFFFFFFFFFFFFFFFFFFFFFFFFFFFFFFF AND PUSH32 0xD50A71D2F16AF090D2C460D2671E33503E48D8B4AF2FA44E1522750E94EC4DF5 DUP9 DUP4 DUP6 PUSH1 0x40 MLOAD PUSH2 0x15B6 SWAP4 SWAP3 SWAP2 SWAP1 PUSH2 0x3B5F JUMP JUMPDEST PUSH1 0x40 MLOAD DUP1 SWAP2 SUB SWAP1 LOG2 POP POP POP POP POP POP POP JUMP JUMPDEST PUSH1 0x0 DUP4 GT PUSH2 0x160A JUMPI PUSH1 0x40 MLOAD PUSH32 0x8C379A000000000000000000000000000000000000000000000000000000000 DUP2 MSTORE PUSH1 0x4 ADD PUSH2 0x1601 SWAP1 PUSH2 0x3BE2 JUMP JUMPDEST PUSH1 0x40 MLOAD DUP1 SWAP2 SUB SWAP1 REVERT JUMPDEST PUSH1 0x0 DUP3 GT PUSH2 0x164D JUMPI PUSH1 0x40 MLOAD PUSH32 0x8C379A000000000000000000000000000000000000000000000000000000000 DUP2 MSTORE PUSH1 0x4 ADD PUSH2 0x1644 SWAP1 PUSH2 0x3C4E JUMP JUMPDEST PUSH1 0x40 MLOAD DUP1 SWAP2 SUB SWAP1 REVERT JUMPDEST PUSH1 0x0 DUP1 PUSH1 0x0 DUP1 PUSH1 0x1 PUSH1 0x0 SWAP1 SLOAD SWAP1 PUSH2 0x100 EXP SWAP1 DIV PUSH20 0xFFFFFFFFFFFFFFFFFFFFFFFFFFFFFFFFFFFFFFFF AND PUSH20 0xFFFFFFFFFFFFFFFFFFFFFFFFFFFFFFFFFFFFFFFF AND PUSH4 0xB4F35D55 DUP9 DUP8 PUSH1 0x40 MLOAD DUP4 PUSH4 0xFFFFFFFF AND PUSH1 0xE0 SHL DUP2 MSTORE PUSH1 0x4 ADD PUSH2 0x16B0 SWAP3 SWAP2 SWAP1 PUSH2 0x3C6E JUMP JUMPDEST PUSH1 0x80 PUSH1 0x40 MLOAD DUP1 DUP4 SUB DUP2 DUP7 GAS STATICCALL ISZERO DUP1 ISZERO PUSH2 0x16CD JUMPI RETURNDATASIZE PUSH1 0x0 DUP1 RETURNDATACOPY RETURNDATASIZE PUSH1 0x0 REVERT JUMPDEST POP POP POP POP PUSH1 0x40 MLOAD RETURNDATASIZE PUSH1 0x1F NOT PUSH1 0x1F DUP3 ADD AND DUP3 ADD DUP1 PUSH1 0x40 MSTORE POP DUP2 ADD SWAP1 PUSH2 0x16F1 SWAP2 SWAP1 PUSH2 0x3C97 JUMP JUMPDEST SWAP4 POP SWAP4 POP SWAP4 POP SWAP4 POP PUSH32 0x0 PUSH20 0xFFFFFFFFFFFFFFFFFFFFFFFFFFFFFFFFFFFFFFFF AND PUSH4 0x23B872DD CALLER ADDRESS DUP11 PUSH1 0x40 MLOAD DUP5 PUSH4 0xFFFFFFFF AND PUSH1 0xE0 SHL DUP2 MSTORE PUSH1 0x4 ADD PUSH2 0x1756 SWAP4 SWAP3 SWAP2 SWAP1 PUSH2 0x3CFE JUMP JUMPDEST PUSH1 0x20 PUSH1 0x40 MLOAD DUP1 DUP4 SUB DUP2 PUSH1 0x0 DUP8 GAS CALL ISZERO DUP1 ISZERO PUSH2 0x1775 JUMPI RETURNDATASIZE PUSH1 0x0 DUP1 RETURNDATACOPY RETURNDATASIZE PUSH1 0x0 REVERT JUMPDEST POP POP POP POP PUSH1 0x40 MLOAD RETURNDATASIZE PUSH1 0x1F NOT PUSH1 0x1F DUP3 ADD AND DUP3 ADD DUP1 PUSH1 0x40 MSTORE POP DUP2 ADD SWAP1 PUSH2 0x1799 SWAP2 SWAP1 PUSH2 0x3A15 JUMP JUMPDEST POP PUSH1 0x0 DUP1 PUSH1 0x0 DUP1 DUP5 DUP7 DUP9 PUSH2 0x17AD SWAP2 SWAP1 PUSH2 0x3789 JUMP JUMPDEST PUSH2 0x17B7 SWAP2 SWAP1 PUSH2 0x3789 JUMP JUMPDEST SWAP1 POP PUSH1 0x0 DUP2 GT ISZERO PUSH2 0x1975 JUMPI PUSH1 0x0 PUSH2 0x1830 PUSH32 0x0 PUSH32 0x0 PUSH32 0x0 DUP6 PUSH2 0x2A03 JUMP JUMPDEST SWAP1 POP PUSH1 0x0 DUP3 DUP9 DUP4 PUSH2 0x1841 SWAP2 SWAP1 PUSH2 0x3895 JUMP JUMPDEST PUSH2 0x184B SWAP2 SWAP1 PUSH2 0x3972 JUMP JUMPDEST SWAP1 POP PUSH1 0x0 DUP4 DUP9 DUP5 PUSH2 0x185C SWAP2 SWAP1 PUSH2 0x3895 JUMP JUMPDEST PUSH2 0x1866 SWAP2 SWAP1 PUSH2 0x3972 JUMP JUMPDEST SWAP1 POP PUSH1 0x0 DUP3 GT ISZERO PUSH2 0x18E0 JUMPI PUSH2 0x18DD PUSH32 0x0 PUSH32 0x0 PUSH32 0x0 DUP6 PUSH2 0x2A03 JUMP JUMPDEST SWAP6 POP JUMPDEST PUSH1 0x0 DUP2 GT ISZERO PUSH2 0x1958 JUMPI PUSH2 0x1955 PUSH32 0x0 PUSH32 0x0 PUSH32 0x0 DUP5 PUSH2 0x2A03 JUMP JUMPDEST SWAP5 POP JUMPDEST DUP1 DUP3 DUP5 PUSH2 0x1965 SWAP2 SWAP1 PUSH2 0x39A3 JUMP JUMPDEST PUSH2 0x196F SWAP2 SWAP1 PUSH2 0x39A3 JUMP JUMPDEST SWAP7 POP POP POP POP JUMPDEST PUSH1 0x4 PUSH1 0x0 CALLER PUSH20 0xFFFFFFFFFFFFFFFFFFFFFFFFFFFFFFFFFFFFFFFF AND PUSH20 0xFFFFFFFFFFFFFFFFFFFFFFFFFFFFFFFFFFFFFFFF AND DUP2 MSTORE PUSH1 0x20 ADD SWAP1 DUP2 MSTORE PUSH1 0x20 ADD PUSH1 0x0 KECCAK256 PUSH1 0x40 MLOAD DUP1 PUSH2 0x140 ADD PUSH1 0x40 MSTORE DUP1 CALLER PUSH20 0xFFFFFFFFFFFFFFFFFFFFFFFFFFFFFFFFFFFFFFFF AND DUP2 MSTORE PUSH1 0x20 ADD DUP14 DUP2 MSTORE PUSH1 0x20 ADD DUP11 DUP2 MSTORE PUSH1 0x20 ADD DUP7 DUP2 MSTORE PUSH1 0x20 ADD DUP6 DUP2 MSTORE PUSH1 0x20 ADD DUP5 DUP2 MSTORE PUSH1 0x20 ADD TIMESTAMP DUP2 MSTORE PUSH1 0x20 ADD PUSH3 0x15180 DUP14 PUSH2 0x1A0F SWAP2 SWAP1 PUSH2 0x3895 JUMP JUMPDEST DUP2 MSTORE PUSH1 0x20 ADD DUP12 ISZERO ISZERO DUP2 MSTORE PUSH1 0x20 ADD PUSH1 0x0 ISZERO ISZERO DUP2 MSTORE POP SWAP1 DUP1 PUSH1 0x1 DUP2 SLOAD ADD DUP1 DUP3 SSTORE DUP1 SWAP2 POP POP PUSH1 0x1 SWAP1 SUB SWAP1 PUSH1 0x0 MSTORE PUSH1 0x20 PUSH1 0x0 KECCAK256 SWAP1 PUSH1 0x9 MUL ADD PUSH1 0x0 SWAP1 SWAP2 SWAP1 SWAP2 SWAP1 SWAP2 POP PUSH1 0x0 DUP3 ADD MLOAD DUP2 PUSH1 0x0 ADD PUSH1 0x0 PUSH2 0x100 EXP DUP2 SLOAD DUP2 PUSH20 0xFFFFFFFFFFFFFFFFFFFFFFFFFFFFFFFFFFFFFFFF MUL NOT AND SWAP1 DUP4 PUSH20 0xFFFFFFFFFFFFFFFFFFFFFFFFFFFFFFFFFFFFFFFF AND MUL OR SWAP1 SSTORE POP PUSH1 0x20 DUP3 ADD MLOAD DUP2 PUSH1 0x1 ADD SSTORE PUSH1 0x40 DUP3 ADD MLOAD DUP2 PUSH1 0x2 ADD SSTORE PUSH1 0x60 DUP3 ADD MLOAD DUP2 PUSH1 0x3 ADD SSTORE PUSH1 0x80 DUP3 ADD MLOAD DUP2 PUSH1 0x4 ADD SSTORE PUSH1 0xA0 DUP3 ADD MLOAD DUP2 PUSH1 0x5 ADD SSTORE PUSH1 0xC0 DUP3 ADD MLOAD DUP2 PUSH1 0x6 ADD SSTORE PUSH1 0xE0 DUP3 ADD MLOAD DUP2 PUSH1 0x7 ADD SSTORE PUSH2 0x100 DUP3 ADD MLOAD DUP2 PUSH1 0x8 ADD PUSH1 0x0 PUSH2 0x100 EXP DUP2 SLOAD DUP2 PUSH1 0xFF MUL NOT AND SWAP1 DUP4 ISZERO ISZERO MUL OR SWAP1 SSTORE POP PUSH2 0x120 DUP3 ADD MLOAD DUP2 PUSH1 0x8 ADD PUSH1 0x1 PUSH2 0x100 EXP DUP2 SLOAD DUP2 PUSH1 0xFF MUL NOT AND SWAP1 DUP4 ISZERO ISZERO MUL OR SWAP1 SSTORE POP POP POP CALLER PUSH20 0xFFFFFFFFFFFFFFFFFFFFFFFFFFFFFFFFFFFFFFFF AND PUSH32 0x9C63B5A6081196A022F84A8C5F96EC6F357800E5BE9D0D0E7BE1A3DED19AE070 DUP13 DUP13 DUP13 DUP13 DUP10 DUP10 DUP10 PUSH1 0x40 MLOAD PUSH2 0x1B6F SWAP8 SWAP7 SWAP6 SWAP5 SWAP4 SWAP3 SWAP2 SWAP1 PUSH2 0x3D35 JUMP JUMPDEST PUSH1 0x40 MLOAD DUP1 SWAP2 SUB SWAP1 LOG2 POP POP POP POP POP POP POP POP POP POP POP JUMP JUMPDEST PUSH11 0x84595161401484A000000 DUP2 JUMP JUMPDEST PUSH1 0x2 PUSH1 0x0 SWAP1 SLOAD SWAP1 PUSH2 0x100 EXP SWAP1 DIV PUSH20 0xFFFFFFFFFFFFFFFFFFFFFFFFFFFFFFFFFFFFFFFF AND DUP2 JUMP JUMPDEST PUSH1 0x1 PUSH1 0x0 SWAP1 SLOAD SWAP1 PUSH2 0x100 EXP SWAP1 DIV PUSH20 0xFFFFFFFFFFFFFFFFFFFFFFFFFFFFFFFFFFFFFFFF AND DUP2 JUMP JUMPDEST PUSH1 0x5 PUSH1 0x20 MSTORE DUP1 PUSH1 0x0 MSTORE PUSH1 0x40 PUSH1 0x0 KECCAK256 PUSH1 0x0 SWAP2 POP SWAP1 POP DUP1 PUSH1 0x0 ADD SLOAD SWAP1 DUP1 PUSH1 0x1 ADD SLOAD SWAP1 DUP1 PUSH1 0x2 ADD SLOAD SWAP1 DUP1 PUSH1 0x3 ADD SLOAD SWAP1 DUP1 PUSH1 0x4 ADD SLOAD SWAP1 POP DUP6 JUMP JUMPDEST PUSH32 0x0 DUP2 JUMP JUMPDEST PUSH2 0x1C41 PUSH2 0x2C83 JUMP JUMPDEST PUSH2 0x1C4B PUSH1 0x0 PUSH2 0x2D0A JUMP JUMPDEST JUMP JUMPDEST PUSH1 0x0 DUP3 GT PUSH2 0x1C90 JUMPI PUSH1 0x40 MLOAD PUSH32 0x8C379A000000000000000000000000000000000000000000000000000000000 DUP2 MSTORE PUSH1 0x4 ADD PUSH2 0x1C87 SWAP1 PUSH2 0x3BE2 JUMP JUMPDEST PUSH1 0x40 MLOAD DUP1 SWAP2 SUB SWAP1 REVERT JUMPDEST PUSH1 0x1E DUP2 EQ DUP1 PUSH2 0x1C9F JUMPI POP PUSH1 0x3C DUP2 EQ JUMPDEST DUP1 PUSH2 0x1CAA JUMPI POP PUSH1 0x5A DUP2 EQ JUMPDEST PUSH2 0x1CE9 JUMPI PUSH1 0x40 MLOAD PUSH32 0x8C379A000000000000000000000000000000000000000000000000000000000 DUP2 MSTORE PUSH1 0x4 ADD PUSH2 0x1CE0 SWAP1 PUSH2 0x3AD3 JUMP JUMPDEST PUSH1 0x40 MLOAD DUP1 SWAP2 SUB SWAP1 REVERT JUMPDEST PUSH1 0x0 PUSH1 0x5 PUSH1 0x0 DUP4 DUP2 MSTORE PUSH1 0x20 ADD SWAP1 DUP2 MSTORE PUSH1 0x20 ADD PUSH1 0x0 KECCAK256 SWAP1 POP PUSH11 0x84595161401484A000000 DUP4 PUSH1 0x7 PUSH1 0x0 CALLER PUSH20 0xFFFFFFFFFFFFFFFFFFFFFFFFFFFFFFFFFFFFFFFF AND PUSH20 0xFFFFFFFFFFFFFFFFFFFFFFFFFFFFFFFFFFFFFFFF AND DUP2 MSTORE PUSH1 0x20 ADD SWAP1 DUP2 MSTORE PUSH1 0x20 ADD PUSH1 0x0 KECCAK256 SLOAD PUSH2 0x1D57 SWAP2 SWAP1 PUSH2 0x3789 JUMP JUMPDEST GT ISZERO PUSH2 0x1D98 JUMPI PUSH1 0x40 MLOAD PUSH32 0x8C379A000000000000000000000000000000000000000000000000000000000 DUP2 MSTORE PUSH1 0x4 ADD PUSH2 0x1D8F SWAP1 PUSH2 0x3DF0 JUMP JUMPDEST PUSH1 0x40 MLOAD DUP1 SWAP2 SUB SWAP1 REVERT JUMPDEST DUP1 PUSH1 0x1 ADD SLOAD DUP4 DUP3 PUSH1 0x0 ADD SLOAD PUSH2 0x1DAD SWAP2 SWAP1 PUSH2 0x3789 JUMP JUMPDEST GT ISZERO PUSH2 0x1DEE JUMPI PUSH1 0x40 MLOAD PUSH32 0x8C379A000000000000000000000000000000000000000000000000000000000 DUP2 MSTORE PUSH1 0x4 ADD PUSH2 0x1DE5 SWAP1 PUSH2 0x3E5C JUMP JUMPDEST PUSH1 0x40 MLOAD DUP1 SWAP2 SUB SWAP1 REVERT JUMPDEST PUSH1 0x0 PUSH1 0x8 PUSH1 0x64 PUSH1 0x28 DUP5 PUSH1 0x1 ADD SLOAD PUSH2 0x1E05 SWAP2 SWAP1 PUSH2 0x3895 JUMP JUMPDEST PUSH2 0x1E0F SWAP2 SWAP1 PUSH2 0x3972 JUMP JUMPDEST PUSH2 0x1E19 SWAP2 SWAP1 PUSH2 0x3972 JUMP JUMPDEST SWAP1 POP PUSH1 0x3C DUP4 SUB PUSH2 0x1E4F JUMPI PUSH1 0x4 PUSH1 0x64 PUSH1 0x23 DUP5 PUSH1 0x1 ADD SLOAD PUSH2 0x1E38 SWAP2 SWAP1 PUSH2 0x3895 JUMP JUMPDEST PUSH2 0x1E42 SWAP2 SWAP1 PUSH2 0x3972 JUMP JUMPDEST PUSH2 0x1E4C SWAP2 SWAP1 PUSH2 0x3972 JUMP JUMPDEST SWAP1 POP JUMPDEST PUSH1 0x5A DUP4 SUB PUSH2 0x1E83 JUMPI PUSH1 0x4 PUSH1 0x64 PUSH1 0x19 DUP5 PUSH1 0x1 ADD SLOAD PUSH2 0x1E6C SWAP2 SWAP1 PUSH2 0x3895 JUMP JUMPDEST PUSH2 0x1E76 SWAP2 SWAP1 PUSH2 0x3972 JUMP JUMPDEST PUSH2 0x1E80 SWAP2 SWAP1 PUSH2 0x3972 JUMP JUMPDEST SWAP1 POP JUMPDEST PUSH1 0x0 PUSH1 0x1E DUP5 SUB PUSH2 0x1E96 JUMPI PUSH1 0x7D SWAP1 POP PUSH2 0x1EC1 JUMP JUMPDEST PUSH1 0x3C DUP5 SUB PUSH2 0x1EA8 JUMPI PUSH2 0x12E SWAP1 POP PUSH2 0x1EC0 JUMP JUMPDEST PUSH1 0x5A DUP5 SUB PUSH2 0x1EBA JUMPI PUSH2 0x264 SWAP1 POP PUSH2 0x1EBF JUMP JUMPDEST PUSH1 0x0 SWAP1 POP JUMPDEST JUMPDEST JUMPDEST PUSH1 0x0 PUSH2 0x2710 DUP3 DUP8 PUSH2 0x1ED2 SWAP2 SWAP1 PUSH2 0x3895 JUMP JUMPDEST PUSH2 0x1EDC SWAP2 SWAP1 PUSH2 0x3972 JUMP JUMPDEST SWAP1 POP DUP4 PUSH1 0x2 ADD SLOAD DUP2 DUP6 PUSH1 0x3 ADD SLOAD PUSH2 0x1EF3 SWAP2 SWAP1 PUSH2 0x3789 JUMP JUMPDEST GT ISZERO PUSH2 0x1F34 JUMPI PUSH1 0x40 MLOAD PUSH32 0x8C379A000000000000000000000000000000000000000000000000000000000 DUP2 MSTORE PUSH1 0x4 ADD PUSH2 0x1F2B SWAP1 PUSH2 0x3EEE JUMP JUMPDEST PUSH1 0x40 MLOAD DUP1 SWAP2 SUB SWAP1 REVERT JUMPDEST DUP6 DUP5 PUSH1 0x0 ADD PUSH1 0x0 DUP3 DUP3 SLOAD PUSH2 0x1F48 SWAP2 SWAP1 PUSH2 0x3789 JUMP JUMPDEST SWAP3 POP POP DUP2 SWAP1 SSTORE POP DUP1 DUP5 PUSH1 0x3 ADD PUSH1 0x0 DUP3 DUP3 SLOAD PUSH2 0x1F63 SWAP2 SWAP1 PUSH2 0x3789 JUMP JUMPDEST SWAP3 POP POP DUP2 SWAP1 SSTORE POP DUP6 PUSH1 0x7 PUSH1 0x0 CALLER PUSH20 0xFFFFFFFFFFFFFFFFFFFFFFFFFFFFFFFFFFFFFFFF AND PUSH20 0xFFFFFFFFFFFFFFFFFFFFFFFFFFFFFFFFFFFFFFFF AND DUP2 MSTORE PUSH1 0x20 ADD SWAP1 DUP2 MSTORE PUSH1 0x20 ADD PUSH1 0x0 KECCAK256 PUSH1 0x0 DUP3 DUP3 SLOAD PUSH2 0x1FB9 SWAP2 SWAP1 PUSH2 0x3789 JUMP JUMPDEST SWAP3 POP POP DUP2 SWAP1 SSTORE POP PUSH32 0x0 PUSH20 0xFFFFFFFFFFFFFFFFFFFFFFFFFFFFFFFFFFFFFFFF AND PUSH4 0x23B872DD CALLER ADDRESS DUP10 PUSH1 0x40 MLOAD DUP5 PUSH4 0xFFFFFFFF AND PUSH1 0xE0 SHL DUP2 MSTORE PUSH1 0x4 ADD PUSH2 0x201D SWAP4 SWAP3 SWAP2 SWAP1 PUSH2 0x3CFE JUMP JUMPDEST PUSH1 0x20 PUSH1 0x40 MLOAD DUP1 DUP4 SUB DUP2 PUSH1 0x0 DUP8 GAS CALL ISZERO DUP1 ISZERO PUSH2 0x203C JUMPI RETURNDATASIZE PUSH1 0x0 DUP1 RETURNDATACOPY RETURNDATASIZE PUSH1 0x0 REVERT JUMPDEST POP POP POP POP PUSH1 0x40 MLOAD RETURNDATASIZE PUSH1 0x1F NOT PUSH1 0x1F DUP3 ADD AND DUP3 ADD DUP1 PUSH1 0x40 MSTORE POP DUP2 ADD SWAP1 PUSH2 0x2060 SWAP2 SWAP1 PUSH2 0x3A15 JUMP JUMPDEST POP PUSH1 0x6 PUSH1 0x0 CALLER PUSH20 0xFFFFFFFFFFFFFFFFFFFFFFFFFFFFFFFFFFFFFFFF AND PUSH20 0xFFFFFFFFFFFFFFFFFFFFFFFFFFFFFFFFFFFFFFFF AND DUP2 MSTORE PUSH1 0x20 ADD SWAP1 DUP2 MSTORE PUSH1 0x20 ADD PUSH1 0x0 KECCAK256 PUSH1 0x40 MLOAD DUP1 PUSH1 0xA0 ADD PUSH1 0x40 MSTORE DUP1 DUP9 DUP2 MSTORE PUSH1 0x20 ADD TIMESTAMP DUP2 MSTORE PUSH1 0x20 ADD DUP8 DUP2 MSTORE PUSH1 0x20 ADD DUP4 DUP2 MSTORE PUSH1 0x20 ADD PUSH1 0x0 ISZERO ISZERO DUP2 MSTORE POP SWAP1 DUP1 PUSH1 0x1 DUP2 SLOAD ADD DUP1 DUP3 SSTORE DUP1 SWAP2 POP POP PUSH1 0x1 SWAP1 SUB SWAP1 PUSH1 0x0 MSTORE PUSH1 0x20 PUSH1 0x0 KECCAK256 SWAP1 PUSH1 0x5 MUL ADD PUSH1 0x0 SWAP1 SWAP2 SWAP1 SWAP2 SWAP1 SWAP2 POP PUSH1 0x0 DUP3 ADD MLOAD DUP2 PUSH1 0x0 ADD SSTORE PUSH1 0x20 DUP3 ADD MLOAD DUP2 PUSH1 0x1 ADD SSTORE PUSH1 0x40 DUP3 ADD MLOAD DUP2 PUSH1 0x2 ADD SSTORE PUSH1 0x60 DUP3 ADD MLOAD DUP2 PUSH1 0x3 ADD SSTORE PUSH1 0x80 DUP3 ADD MLOAD DUP2 PUSH1 0x4 ADD PUSH1 0x0 PUSH2 0x100 EXP DUP2 SLOAD DUP2 PUSH1 0xFF MUL NOT AND SWAP1 DUP4 ISZERO ISZERO MUL OR SWAP1 SSTORE POP POP POP CALLER PUSH20 0xFFFFFFFFFFFFFFFFFFFFFFFFFFFFFFFFFFFFFFFF AND PUSH32 0x20400DB7CF9BDFCB8B13CCFB8A7B4BB447C3244EFDBC2336E6F6E1673D7BD845 DUP8 DUP8 DUP5 PUSH1 0x40 MLOAD PUSH2 0x2187 SWAP4 SWAP3 SWAP2 SWAP1 PUSH2 0x3B5F JUMP JUMPDEST PUSH1 0x40 MLOAD DUP1 SWAP2 SUB SWAP1 LOG2 POP POP POP POP POP POP JUMP JUMPDEST PUSH32 0x0 DUP2 JUMP JUMPDEST PUSH2 0x21C3 PUSH2 0x2C83 JUMP JUMPDEST PUSH1 0x0 PUSH32 0x0 PUSH20 0xFFFFFFFFFFFFFFFFFFFFFFFFFFFFFFFFFFFFFFFF AND PUSH4 0x70A08231 ADDRESS PUSH1 0x40 MLOAD DUP3 PUSH4 0xFFFFFFFF AND PUSH1 0xE0 SHL DUP2 MSTORE PUSH1 0x4 ADD PUSH2 0x221E SWAP2 SWAP1 PUSH2 0x2F78 JUMP JUMPDEST PUSH1 0x20 PUSH1 0x40 MLOAD DUP1 DUP4 SUB DUP2 DUP7 GAS STATICCALL ISZERO DUP1 ISZERO PUSH2 0x223B JUMPI RETURNDATASIZE PUSH1 0x0 DUP1 RETURNDATACOPY RETURNDATASIZE PUSH1 0x0 REVERT JUMPDEST POP POP POP POP PUSH1 0x40 MLOAD RETURNDATASIZE PUSH1 0x1F NOT PUSH1 0x1F DUP3 ADD AND DUP3 ADD DUP1 PUSH1 0x40 MSTORE POP DUP2 ADD SWAP1 PUSH2 0x225F SWAP2 SWAP1 PUSH2 0x372D JUMP JUMPDEST SWAP1 POP PUSH1 0x0 DUP2 GT PUSH2 0x22A4 JUMPI PUSH1 0x40 MLOAD PUSH32 0x8C379A000000000000000000000000000000000000000000000000000000000 DUP2 MSTORE PUSH1 0x4 ADD PUSH2 0x229B SWAP1 PUSH2 0x3F80 JUMP JUMPDEST PUSH1 0x40 MLOAD DUP1 SWAP2 SUB SWAP1 REVERT JUMPDEST PUSH32 0x0 PUSH20 0xFFFFFFFFFFFFFFFFFFFFFFFFFFFFFFFFFFFFFFFF AND PUSH4 0xA9059CBB CALLER DUP4 PUSH1 0x40 MLOAD DUP4 PUSH4 0xFFFFFFFF AND PUSH1 0xE0 SHL DUP2 MSTORE PUSH1 0x4 ADD PUSH2 0x22FF SWAP3 SWAP2 SWAP1 PUSH2 0x39D7 JUMP JUMPDEST PUSH1 0x20 PUSH1 0x40 MLOAD DUP1 DUP4 SUB DUP2 PUSH1 0x0 DUP8 GAS CALL ISZERO DUP1 ISZERO PUSH2 0x231E JUMPI RETURNDATASIZE PUSH1 0x0 DUP1 RETURNDATACOPY RETURNDATASIZE PUSH1 0x0 REVERT JUMPDEST POP POP POP POP PUSH1 0x40 MLOAD RETURNDATASIZE PUSH1 0x1F NOT PUSH1 0x1F DUP3 ADD AND DUP3 ADD DUP1 PUSH1 0x40 MSTORE POP DUP2 ADD SWAP1 PUSH2 0x2342 SWAP2 SWAP1 PUSH2 0x3A15 JUMP JUMPDEST POP POP JUMP JUMPDEST PUSH1 0x60 PUSH1 0x6 PUSH1 0x0 DUP4 PUSH20 0xFFFFFFFFFFFFFFFFFFFFFFFFFFFFFFFFFFFFFFFF AND PUSH20 0xFFFFFFFFFFFFFFFFFFFFFFFFFFFFFFFFFFFFFFFF AND DUP2 MSTORE PUSH1 0x20 ADD SWAP1 DUP2 MSTORE PUSH1 0x20 ADD PUSH1 0x0 KECCAK256 DUP1 SLOAD DUP1 PUSH1 0x20 MUL PUSH1 0x20 ADD PUSH1 0x40 MLOAD SWAP1 DUP2 ADD PUSH1 0x40 MSTORE DUP1 SWAP3 SWAP2 SWAP1 DUP2 DUP2 MSTORE PUSH1 0x20 ADD PUSH1 0x0 SWAP1 JUMPDEST DUP3 DUP3 LT ISZERO PUSH2 0x241C JUMPI DUP4 DUP3 SWAP1 PUSH1 0x0 MSTORE PUSH1 0x20 PUSH1 0x0 KECCAK256 SWAP1 PUSH1 0x5 MUL ADD PUSH1 0x40 MLOAD DUP1 PUSH1 0xA0 ADD PUSH1 0x40 MSTORE SWAP1 DUP2 PUSH1 0x0 DUP3 ADD SLOAD DUP2 MSTORE PUSH1 0x20 ADD PUSH1 0x1 DUP3 ADD SLOAD DUP2 MSTORE PUSH1 0x20 ADD PUSH1 0x2 DUP3 ADD SLOAD DUP2 MSTORE PUSH1 0x20 ADD PUSH1 0x3 DUP3 ADD SLOAD DUP2 MSTORE PUSH1 0x20 ADD PUSH1 0x4 DUP3 ADD PUSH1 0x0 SWAP1 SLOAD SWAP1 PUSH2 0x100 EXP SWAP1 DIV PUSH1 0xFF AND ISZERO ISZERO ISZERO ISZERO DUP2 MSTORE POP POP DUP2 MSTORE PUSH1 0x20 ADD SWAP1 PUSH1 0x1 ADD SWAP1 PUSH2 0x23A7 JUMP JUMPDEST POP POP POP POP SWAP1 POP SWAP2 SWAP1 POP JUMP JUMPDEST PUSH1 0x0 DUP1 PUSH1 0x0 SWAP1 SLOAD SWAP1 PUSH2 0x100 EXP SWAP1 DIV PUSH20 0xFFFFFFFFFFFFFFFFFFFFFFFFFFFFFFFFFFFFFFFF AND SWAP1 POP SWAP1 JUMP JUMPDEST PUSH2 0x2458 PUSH2 0x2C83 JUMP JUMPDEST PUSH1 0x0 DUP2 GT PUSH2 0x249B JUMPI PUSH1 0x40 MLOAD PUSH32 0x8C379A000000000000000000000000000000000000000000000000000000000 DUP2 MSTORE PUSH1 0x4 ADD PUSH2 0x2492 SWAP1 PUSH2 0x3BE2 JUMP JUMPDEST PUSH1 0x40 MLOAD DUP1 SWAP2 SUB SWAP1 REVERT JUMPDEST PUSH32 0x0 PUSH20 0xFFFFFFFFFFFFFFFFFFFFFFFFFFFFFFFFFFFFFFFF AND PUSH4 0x23B872DD CALLER ADDRESS DUP5 PUSH1 0x40 MLOAD DUP5 PUSH4 0xFFFFFFFF AND PUSH1 0xE0 SHL DUP2 MSTORE PUSH1 0x4 ADD PUSH2 0x24F8 SWAP4 SWAP3 SWAP2 SWAP1 PUSH2 0x3CFE JUMP JUMPDEST PUSH1 0x20 PUSH1 0x40 MLOAD DUP1 DUP4 SUB DUP2 PUSH1 0x0 DUP8 GAS CALL ISZERO DUP1 ISZERO PUSH2 0x2517 JUMPI RETURNDATASIZE PUSH1 0x0 DUP1 RETURNDATACOPY RETURNDATASIZE PUSH1 0x0 REVERT JUMPDEST POP POP POP POP PUSH1 0x40 MLOAD RETURNDATASIZE PUSH1 0x1F NOT PUSH1 0x1F DUP3 ADD AND DUP3 ADD DUP1 PUSH1 0x40 MSTORE POP DUP2 ADD SWAP1 PUSH2 0x253B SWAP2 SWAP1 PUSH2 0x3A15 JUMP JUMPDEST POP PUSH1 0x0 PUSH1 0x64 PUSH1 0x28 DUP4 PUSH2 0x254D SWAP2 SWAP1 PUSH2 0x3895 JUMP JUMPDEST PUSH2 0x2557 SWAP2 SWAP1 PUSH2 0x3972 JUMP JUMPDEST SWAP1 POP PUSH1 0x0 PUSH1 0x64 PUSH1 0x23 DUP5 PUSH2 0x256A SWAP2 SWAP1 PUSH2 0x3895 JUMP JUMPDEST PUSH2 0x2574 SWAP2 SWAP1 PUSH2 0x3972 JUMP JUMPDEST SWAP1 POP PUSH1 0x0 DUP2 DUP4 DUP6 PUSH2 0x2585 SWAP2 SWAP1 PUSH2 0x39A3 JUMP JUMPDEST PUSH2 0x258F SWAP2 SWAP1 PUSH2 0x39A3 JUMP JUMPDEST SWAP1 POP DUP3 PUSH1 0x5 PUSH1 0x0 PUSH1 0x1E DUP2 MSTORE PUSH1 0x20 ADD SWAP1 DUP2 MSTORE PUSH1 0x20 ADD PUSH1 0x0 KECCAK256 PUSH1 0x2 ADD PUSH1 0x0 DUP3 DUP3 SLOAD PUSH2 0x25B8 SWAP2 SWAP1 PUSH2 0x3789 JUMP JUMPDEST SWAP3 POP POP DUP2 SWAP1 SSTORE POP DUP2 PUSH1 0x5 PUSH1 0x0 PUSH1 0x3C DUP2 MSTORE PUSH1 0x20 ADD SWAP1 DUP2 MSTORE PUSH1 0x20 ADD PUSH1 0x0 KECCAK256 PUSH1 0x2 ADD PUSH1 0x0 DUP3 DUP3 SLOAD PUSH2 0x25E6 SWAP2 SWAP1 PUSH2 0x3789 JUMP JUMPDEST SWAP3 POP POP DUP2 SWAP1 SSTORE POP DUP1 PUSH1 0x5 PUSH1 0x0 PUSH1 0x5A DUP2 MSTORE PUSH1 0x20 ADD SWAP1 DUP2 MSTORE PUSH1 0x20 ADD PUSH1 0x0 KECCAK256 PUSH1 0x2 ADD PUSH1 0x0 DUP3 DUP3 SLOAD PUSH2 0x2614 SWAP2 SWAP1 PUSH2 0x3789 JUMP JUMPDEST SWAP3 POP POP DUP2 SWAP1 SSTORE POP CALLER PUSH20 0xFFFFFFFFFFFFFFFFFFFFFFFFFFFFFFFFFFFFFFFF AND PUSH32 0xD53214CA07BE5520E229C395F05A3E5C0697EC6279184FFBE2758D304FD322CC DUP6 PUSH1 0x40 MLOAD PUSH2 0x2661 SWAP2 SWAP1 PUSH2 0x2E1E JUMP JUMPDEST PUSH1 0x40 MLOAD DUP1 SWAP2 SUB SWAP1 LOG2 POP POP POP POP JUMP JUMPDEST PUSH32 0x0 DUP2 JUMP JUMPDEST PUSH1 0x60 PUSH1 0x4 PUSH1 0x0 DUP4 PUSH20 0xFFFFFFFFFFFFFFFFFFFFFFFFFFFFFFFFFFFFFFFF AND PUSH20 0xFFFFFFFFFFFFFFFFFFFFFFFFFFFFFFFFFFFFFFFF AND DUP2 MSTORE PUSH1 0x20 ADD SWAP1 DUP2 MSTORE PUSH1 0x20 ADD PUSH1 0x0 KECCAK256 DUP1 SLOAD DUP1 PUSH1 0x20 MUL PUSH1 0x20 ADD PUSH1 0x40 MLOAD SWAP1 DUP2 ADD PUSH1 0x40 MSTORE DUP1 SWAP3 SWAP2 SWAP1 DUP2 DUP2 MSTORE PUSH1 0x20 ADD PUSH1 0x0 SWAP1 JUMPDEST DUP3 DUP3 LT ISZERO PUSH2 0x27F9 JUMPI DUP4 DUP3 SWAP1 PUSH1 0x0 MSTORE PUSH1 0x20 PUSH1 0x0 KECCAK256 SWAP1 PUSH1 0x9 MUL ADD PUSH1 0x40 MLOAD DUP1 PUSH2 0x140 ADD PUSH1 0x40 MSTORE SWAP1 DUP2 PUSH1 0x0 DUP3 ADD PUSH1 0x0 SWAP1 SLOAD SWAP1 PUSH2 0x100 EXP SWAP1 DIV PUSH20 0xFFFFFFFFFFFFFFFFFFFFFFFFFFFFFFFFFFFFFFFF AND PUSH20 0xFFFFFFFFFFFFFFFFFFFFFFFFFFFFFFFFFFFFFFFF AND PUSH20 0xFFFFFFFFFFFFFFFFFFFFFFFFFFFFFFFFFFFFFFFF AND DUP2 MSTORE PUSH1 0x20 ADD PUSH1 0x1 DUP3 ADD SLOAD DUP2 MSTORE PUSH1 0x20 ADD PUSH1 0x2 DUP3 ADD SLOAD DUP2 MSTORE PUSH1 0x20 ADD PUSH1 0x3 DUP3 ADD SLOAD DUP2 MSTORE PUSH1 0x20 ADD PUSH1 0x4 DUP3 ADD SLOAD DUP2 MSTORE PUSH1 0x20 ADD PUSH1 0x5 DUP3 ADD SLOAD DUP2 MSTORE PUSH1 0x20 ADD PUSH1 0x6 DUP3 ADD SLOAD DUP2 MSTORE PUSH1 0x20 ADD PUSH1 0x7 DUP3 ADD SLOAD DUP2 MSTORE PUSH1 0x20 ADD PUSH1 0x8 DUP3 ADD PUSH1 0x0 SWAP1 SLOAD SWAP1 PUSH2 0x100 EXP SWAP1 DIV PUSH1 0xFF AND ISZERO ISZERO ISZERO ISZERO DUP2 MSTORE PUSH1 0x20 ADD PUSH1 0x8 DUP3 ADD PUSH1 0x1 SWAP1 SLOAD SWAP1 PUSH2 0x100 EXP SWAP1 DIV PUSH1 0xFF AND ISZERO ISZERO ISZERO ISZERO DUP2 MSTORE POP POP DUP2 MSTORE PUSH1 0x20 ADD SWAP1 PUSH1 0x1 ADD SWAP1 PUSH2 0x26F4 JUMP JUMPDEST POP POP POP POP SWAP1 POP SWAP2 SWAP1 POP JUMP JUMPDEST PUSH1 0x6 PUSH1 0x20 MSTORE DUP2 PUSH1 0x0 MSTORE PUSH1 0x40 PUSH1 0x0 KECCAK256 DUP2 DUP2 SLOAD DUP2 LT PUSH2 0x2820 JUMPI PUSH1 0x0 DUP1 REVERT JUMPDEST SWAP1 PUSH1 0x0 MSTORE PUSH1 0x20 PUSH1 0x0 KECCAK256 SWAP1 PUSH1 0x5 MUL ADD PUSH1 0x0 SWAP2 POP SWAP2 POP POP DUP1 PUSH1 0x0 ADD SLOAD SWAP1 DUP1 PUSH1 0x1 ADD SLOAD SWAP1 DUP1 PUSH1 0x2 ADD SLOAD SWAP1 DUP1 PUSH1 0x3 ADD SLOAD SWAP1 DUP1 PUSH1 0x4 ADD PUSH1 0x0 SWAP1 SLOAD SWAP1 PUSH2 0x100 EXP SWAP1 DIV PUSH1 0xFF AND SWAP1 POP DUP6 JUMP JUMPDEST PUSH1 0x3 PUSH1 0x0 SWAP1 SLOAD SWAP1 PUSH2 0x100 EXP SWAP1 DIV PUSH20 0xFFFFFFFFFFFFFFFFFFFFFFFFFFFFFFFFFFFFFFFF AND DUP2 JUMP JUMPDEST PUSH1 0x4 PUSH1 0x20 MSTORE DUP2 PUSH1 0x0 MSTORE PUSH1 0x40 PUSH1 0x0 KECCAK256 DUP2 DUP2 SLOAD DUP2 LT PUSH2 0x28A6 JUMPI PUSH1 0x0 DUP1 REVERT JUMPDEST SWAP1 PUSH1 0x0 MSTORE PUSH1 0x20 PUSH1 0x0 KECCAK256 SWAP1 PUSH1 0x9 MUL ADD PUSH1 0x0 SWAP2 POP SWAP2 POP POP DUP1 PUSH1 0x0 ADD PUSH1 0x0 SWAP1 SLOAD SWAP1 PUSH2 0x100 EXP SWAP1 DIV PUSH20 0xFFFFFFFFFFFFFFFFFFFFFFFFFFFFFFFFFFFFFFFF AND SWAP1 DUP1 PUSH1 0x1 ADD SLOAD SWAP1 DUP1 PUSH1 0x2 ADD SLOAD SWAP1 DUP1 PUSH1 0x3 ADD SLOAD SWAP1 DUP1 PUSH1 0x4 ADD SLOAD SWAP1 DUP1 PUSH1 0x5 ADD SLOAD SWAP1 DUP1 PUSH1 0x6 ADD SLOAD SWAP1 DUP1 PUSH1 0x7 ADD SLOAD SWAP1 DUP1 PUSH1 0x8 ADD PUSH1 0x0 SWAP1 SLOAD SWAP1 PUSH2 0x100 EXP SWAP1 DIV PUSH1 0xFF AND SWAP1 DUP1 PUSH1 0x8 ADD PUSH1 0x1 SWAP1 SLOAD SWAP1 PUSH2 0x100 EXP SWAP1 DIV PUSH1 0xFF AND SWAP1 POP DUP11 JUMP JUMPDEST PUSH32 0x0 DUP2 JUMP JUMPDEST PUSH32 0x0 DUP2 JUMP JUMPDEST PUSH2 0x2985 PUSH2 0x2C83 JUMP JUMPDEST PUSH1 0x0 PUSH20 0xFFFFFFFFFFFFFFFFFFFFFFFFFFFFFFFFFFFFFFFF AND DUP2 PUSH20 0xFFFFFFFFFFFFFFFFFFFFFFFFFFFFFFFFFFFFFFFF AND SUB PUSH2 0x29F7 JUMPI PUSH1 0x0 PUSH1 0x40 MLOAD PUSH32 0x1E4FBDF700000000000000000000000000000000000000000000000000000000 DUP2 MSTORE PUSH1 0x4 ADD PUSH2 0x29EE SWAP2 SWAP1 PUSH2 0x2F78 JUMP JUMPDEST PUSH1 0x40 MLOAD DUP1 SWAP2 SUB SWAP1 REVERT JUMPDEST PUSH2 0x2A00 DUP2 PUSH2 0x2D0A JUMP JUMPDEST POP JUMP JUMPDEST PUSH1 0x0 DUP1 PUSH1 0x2 PUSH1 0x0 SWAP1 SLOAD SWAP1 PUSH2 0x100 EXP SWAP1 DIV PUSH20 0xFFFFFFFFFFFFFFFFFFFFFFFFFFFFFFFFFFFFFFFF AND PUSH20 0xFFFFFFFFFFFFFFFFFFFFFFFFFFFFFFFFFFFFFFFF AND PUSH4 0xA20F2305 PUSH32 0x0 DUP9 DUP9 DUP9 DUP9 PUSH1 0x40 MLOAD DUP7 PUSH4 0xFFFFFFFF AND PUSH1 0xE0 SHL DUP2 MSTORE PUSH1 0x4 ADD PUSH2 0x2A89 SWAP6 SWAP5 SWAP4 SWAP3 SWAP2 SWAP1 PUSH2 0x36C5 JUMP JUMPDEST PUSH1 0x20 PUSH1 0x40 MLOAD DUP1 DUP4 SUB DUP2 DUP7 GAS STATICCALL ISZERO DUP1 ISZERO PUSH2 0x2AA6 JUMPI RETURNDATASIZE PUSH1 0x0 DUP1 RETURNDATACOPY RETURNDATASIZE PUSH1 0x0 REVERT JUMPDEST POP POP POP POP PUSH1 0x40 MLOAD RETURNDATASIZE PUSH1 0x1F NOT PUSH1 0x1F DUP3 ADD AND DUP3 ADD DUP1 PUSH1 0x40 MSTORE POP DUP2 ADD SWAP1 PUSH2 0x2ACA SWAP2 SWAP1 PUSH2 0x372D JUMP JUMPDEST SWAP1 POP PUSH1 0x0 DUP2 GT PUSH2 0x2B0F JUMPI PUSH1 0x40 MLOAD PUSH32 0x8C379A000000000000000000000000000000000000000000000000000000000 DUP2 MSTORE PUSH1 0x4 ADD PUSH2 0x2B06 SWAP1 PUSH2 0x3FEC JUMP JUMPDEST PUSH1 0x40 MLOAD DUP1 SWAP2 SUB SWAP1 REVERT JUMPDEST DUP5 PUSH20 0xFFFFFFFFFFFFFFFFFFFFFFFFFFFFFFFFFFFFFFFF AND PUSH4 0x95EA7B3 PUSH1 0x2 PUSH1 0x0 SWAP1 SLOAD SWAP1 PUSH2 0x100 EXP SWAP1 DIV PUSH20 0xFFFFFFFFFFFFFFFFFFFFFFFFFFFFFFFFFFFFFFFF AND DUP6 PUSH1 0x40 MLOAD DUP4 PUSH4 0xFFFFFFFF AND PUSH1 0xE0 SHL DUP2 MSTORE PUSH1 0x4 ADD PUSH2 0x2B6C SWAP3 SWAP2 SWAP1 PUSH2 0x39D7 JUMP JUMPDEST PUSH1 0x20 PUSH1 0x40 MLOAD DUP1 DUP4 SUB DUP2 PUSH1 0x0 DUP8 GAS CALL ISZERO DUP1 ISZERO PUSH2 0x2B8B JUMPI RETURNDATASIZE PUSH1 0x0 DUP1 RETURNDATACOPY RETURNDATASIZE PUSH1 0x0 REVERT JUMPDEST POP POP POP POP PUSH1 0x40 MLOAD RETURNDATASIZE PUSH1 0x1F NOT PUSH1 0x1F DUP3 ADD AND DUP3 ADD DUP1 PUSH1 0x40 MSTORE POP DUP2 ADD SWAP1 PUSH2 0x2BAF SWAP2 SWAP1 PUSH2 0x3A15 JUMP JUMPDEST POP PUSH1 0x2 PUSH1 0x0 SWAP1 SLOAD SWAP1 PUSH2 0x100 EXP SWAP1 DIV PUSH20 0xFFFFFFFFFFFFFFFFFFFFFFFFFFFFFFFFFFFFFFFF AND PUSH20 0xFFFFFFFFFFFFFFFFFFFFFFFFFFFFFFFFFFFFFFFF AND PUSH4 0xDDBBE850 PUSH32 0x0 DUP9 DUP9 DUP9 DUP9 DUP8 PUSH1 0x40 MLOAD DUP8 PUSH4 0xFFFFFFFF AND PUSH1 0xE0 SHL DUP2 MSTORE PUSH1 0x4 ADD PUSH2 0x2C35 SWAP7 SWAP6 SWAP5 SWAP4 SWAP3 SWAP2 SWAP1 PUSH2 0x400C JUMP JUMPDEST PUSH1 0x20 PUSH1 0x40 MLOAD DUP1 DUP4 SUB DUP2 PUSH1 0x0 DUP8 GAS CALL ISZERO DUP1 ISZERO PUSH2 0x2C54 JUMPI RETURNDATASIZE PUSH1 0x0 DUP1 RETURNDATACOPY RETURNDATASIZE PUSH1 0x0 REVERT JUMPDEST POP POP POP POP PUSH1 0x40 MLOAD RETURNDATASIZE PUSH1 0x1F NOT PUSH1 0x1F DUP3 ADD AND DUP3 ADD DUP1 PUSH1 0x40 MSTORE POP DUP2 ADD SWAP1 PUSH2 0x2C78 SWAP2 SWAP1 PUSH2 0x372D JUMP JUMPDEST SWAP2 POP POP SWAP5 SWAP4 POP POP POP POP JUMP JUMPDEST PUSH2 0x2C8B PUSH2 0x2DCE JUMP JUMPDEST PUSH20 0xFFFFFFFFFFFFFFFFFFFFFFFFFFFFFFFFFFFFFFFF AND PUSH2 0x2CA9 PUSH2 0x2427 JUMP JUMPDEST PUSH20 0xFFFFFFFFFFFFFFFFFFFFFFFFFFFFFFFFFFFFFFFF AND EQ PUSH2 0x2D08 JUMPI PUSH2 0x2CCC PUSH2 0x2DCE JUMP JUMPDEST PUSH1 0x40 MLOAD PUSH32 0x118CDAA700000000000000000000000000000000000000000000000000000000 DUP2 MSTORE PUSH1 0x4 ADD PUSH2 0x2CFF SWAP2 SWAP1 PUSH2 0x2F78 JUMP JUMPDEST PUSH1 0x40 MLOAD DUP1 SWAP2 SUB SWAP1 REVERT JUMPDEST JUMP JUMPDEST PUSH1 0x0 DUP1 PUSH1 0x0 SWAP1 SLOAD SWAP1 PUSH2 0x100 EXP SWAP1 DIV PUSH20 0xFFFFFFFFFFFFFFFFFFFFFFFFFFFFFFFFFFFFFFFF AND SWAP1 POP DUP2 PUSH1 0x0 DUP1 PUSH2 0x100 EXP DUP2 SLOAD DUP2 PUSH20 0xFFFFFFFFFFFFFFFFFFFFFFFFFFFFFFFFFFFFFFFF MUL NOT AND SWAP1 DUP4 PUSH20 0xFFFFFFFFFFFFFFFFFFFFFFFFFFFFFFFFFFFFFFFF AND MUL OR SWAP1 SSTORE POP DUP2 PUSH20 0xFFFFFFFFFFFFFFFFFFFFFFFFFFFFFFFFFFFFFFFF AND DUP2 PUSH20 0xFFFFFFFFFFFFFFFFFFFFFFFFFFFFFFFFFFFFFFFF AND PUSH32 0x8BE0079C531659141344CD1FD0A4F28419497F9722A3DAAFE3B4186F6B6457E0 PUSH1 0x40 MLOAD PUSH1 0x40 MLOAD DUP1 SWAP2 SUB SWAP1 LOG3 POP POP JUMP JUMPDEST PUSH1 0x0 CALLER SWAP1 POP SWAP1 JUMP JUMPDEST PUSH1 0x40 MLOAD DUP1 PUSH1 0xA0 ADD PUSH1 0x40 MSTORE DUP1 PUSH1 0x0 DUP2 MSTORE PUSH1 0x20 ADD PUSH1 0x0 DUP2 MSTORE PUSH1 0x20 ADD PUSH1 0x0 DUP2 MSTORE PUSH1 0x20 ADD PUSH1 0x0 DUP2 MSTORE PUSH1 0x20 ADD PUSH1 0x0 DUP2 MSTORE POP SWAP1 JUMP JUMPDEST PUSH1 0x0 DUP2 SWAP1 POP SWAP2 SWAP1 POP JUMP JUMPDEST PUSH2 0x2E18 DUP2 PUSH2 0x2E05 JUMP JUMPDEST DUP3 MSTORE POP POP JUMP JUMPDEST PUSH1 0x0 PUSH1 0x20 DUP3 ADD SWAP1 POP PUSH2 0x2E33 PUSH1 0x0 DUP4 ADD DUP5 PUSH2 0x2E0F JUMP JUMPDEST SWAP3 SWAP2 POP POP JUMP JUMPDEST PUSH1 0x0 DUP1 REVERT JUMPDEST PUSH1 0x0 PUSH20 0xFFFFFFFFFFFFFFFFFFFFFFFFFFFFFFFFFFFFFFFF DUP3 AND SWAP1 POP SWAP2 SWAP1 POP JUMP JUMPDEST PUSH1 0x0 PUSH2 0x2E69 DUP3 PUSH2 0x2E3E JUMP JUMPDEST SWAP1 POP SWAP2 SWAP1 POP JUMP JUMPDEST PUSH2 0x2E79 DUP2 PUSH2 0x2E5E JUMP JUMPDEST DUP2 EQ PUSH2 0x2E84 JUMPI PUSH1 0x0 DUP1 REVERT JUMPDEST POP JUMP JUMPDEST PUSH1 0x0 DUP2 CALLDATALOAD SWAP1 POP PUSH2 0x2E96 DUP2 PUSH2 0x2E70 JUMP JUMPDEST SWAP3 SWAP2 POP POP JUMP JUMPDEST PUSH2 0x2EA5 DUP2 PUSH2 0x2E05 JUMP JUMPDEST DUP2 EQ PUSH2 0x2EB0 JUMPI PUSH1 0x0 DUP1 REVERT JUMPDEST POP JUMP JUMPDEST PUSH1 0x0 DUP2 CALLDATALOAD SWAP1 POP PUSH2 0x2EC2 DUP2 PUSH2 0x2E9C JUMP JUMPDEST SWAP3 SWAP2 POP POP JUMP JUMPDEST PUSH1 0x0 DUP1 PUSH1 0x40 DUP4 DUP6 SUB SLT ISZERO PUSH2 0x2EDF JUMPI PUSH2 0x2EDE PUSH2 0x2E39 JUMP JUMPDEST JUMPDEST PUSH1 0x0 PUSH2 0x2EED DUP6 DUP3 DUP7 ADD PUSH2 0x2E87 JUMP JUMPDEST SWAP3 POP POP PUSH1 0x20 PUSH2 0x2EFE DUP6 DUP3 DUP7 ADD PUSH2 0x2EB3 JUMP JUMPDEST SWAP2 POP POP SWAP3 POP SWAP3 SWAP1 POP JUMP JUMPDEST PUSH1 0x0 DUP2 SWAP1 POP SWAP2 SWAP1 POP JUMP JUMPDEST PUSH2 0x2F1B DUP2 PUSH2 0x2F08 JUMP JUMPDEST DUP3 MSTORE POP POP JUMP JUMPDEST PUSH1 0x0 PUSH1 0x20 DUP3 ADD SWAP1 POP PUSH2 0x2F36 PUSH1 0x0 DUP4 ADD DUP5 PUSH2 0x2F12 JUMP JUMPDEST SWAP3 SWAP2 POP POP JUMP JUMPDEST PUSH1 0x0 PUSH1 0x20 DUP3 DUP5 SUB SLT ISZERO PUSH2 0x2F52 JUMPI PUSH2 0x2F51 PUSH2 0x2E39 JUMP JUMPDEST JUMPDEST PUSH1 0x0 PUSH2 0x2F60 DUP5 DUP3 DUP6 ADD PUSH2 0x2E87 JUMP JUMPDEST SWAP2 POP POP SWAP3 SWAP2 POP POP JUMP JUMPDEST PUSH2 0x2F72 DUP2 PUSH2 0x2E5E JUMP JUMPDEST DUP3 MSTORE POP POP JUMP JUMPDEST PUSH1 0x0 PUSH1 0x20 DUP3 ADD SWAP1 POP PUSH2 0x2F8D PUSH1 0x0 DUP4 ADD DUP5 PUSH2 0x2F69 JUMP JUMPDEST SWAP3 SWAP2 POP POP JUMP JUMPDEST PUSH1 0x0 PUSH1 0x20 DUP3 DUP5 SUB SLT ISZERO PUSH2 0x2FA9 JUMPI PUSH2 0x2FA8 PUSH2 0x2E39 JUMP JUMPDEST JUMPDEST PUSH1 0x0 PUSH2 0x2FB7 DUP5 DUP3 DUP6 ADD PUSH2 0x2EB3 JUMP JUMPDEST SWAP2 POP POP SWAP3 SWAP2 POP POP JUMP JUMPDEST PUSH2 0x2FC9 DUP2 PUSH2 0x2E05 JUMP JUMPDEST DUP3 MSTORE POP POP JUMP JUMPDEST PUSH1 0xA0 DUP3 ADD PUSH1 0x0 DUP3 ADD MLOAD PUSH2 0x2FE5 PUSH1 0x0 DUP6 ADD DUP3 PUSH2 0x2FC0 JUMP JUMPDEST POP PUSH1 0x20 DUP3 ADD MLOAD PUSH2 0x2FF8 PUSH1 0x20 DUP6 ADD DUP3 PUSH2 0x2FC0 JUMP JUMPDEST POP PUSH1 0x40 DUP3 ADD MLOAD PUSH2 0x300B PUSH1 0x40 DUP6 ADD DUP3 PUSH2 0x2FC0 JUMP JUMPDEST POP PUSH1 0x60 DUP3 ADD MLOAD PUSH2 0x301E PUSH1 0x60 DUP6 ADD DUP3 PUSH2 0x2FC0 JUMP JUMPDEST POP PUSH1 0x80 DUP3 ADD MLOAD PUSH2 0x3031 PUSH1 0x80 DUP6 ADD DUP3 PUSH2 0x2FC0 JUMP JUMPDEST POP POP POP POP JUMP JUMPDEST PUSH1 0x0 PUSH1 0xA0 DUP3 ADD SWAP1 POP PUSH2 0x304C PUSH1 0x0 DUP4 ADD DUP5 PUSH2 0x2FCF JUMP JUMPDEST SWAP3 SWAP2 POP POP JUMP JUMPDEST PUSH1 0x0 DUP2 ISZERO ISZERO SWAP1 POP SWAP2 SWAP1 POP JUMP JUMPDEST PUSH2 0x3067 DUP2 PUSH2 0x3052 JUMP JUMPDEST DUP2 EQ PUSH2 0x3072 JUMPI PUSH1 0x0 DUP1 REVERT JUMPDEST POP JUMP JUMPDEST PUSH1 0x0 DUP2 CALLDATALOAD SWAP1 POP PUSH2 0x3084 DUP2 PUSH2 0x305E JUMP JUMPDEST SWAP3 SWAP2 POP POP JUMP JUMPDEST PUSH1 0x0 DUP1 PUSH1 0x0 PUSH1 0x60 DUP5 DUP7 SUB SLT ISZERO PUSH2 0x30A3 JUMPI PUSH2 0x30A2 PUSH2 0x2E39 JUMP JUMPDEST JUMPDEST PUSH1 0x0 PUSH2 0x30B1 DUP7 DUP3 DUP8 ADD PUSH2 0x2EB3 JUMP JUMPDEST SWAP4 POP POP PUSH1 0x20 PUSH2 0x30C2 DUP7 DUP3 DUP8 ADD PUSH2 0x2EB3 JUMP JUMPDEST SWAP3 POP POP PUSH1 0x40 PUSH2 0x30D3 DUP7 DUP3 DUP8 ADD PUSH2 0x3075 JUMP JUMPDEST SWAP2 POP POP SWAP3 POP SWAP3 POP SWAP3 JUMP JUMPDEST PUSH1 0x0 DUP2 SWAP1 POP SWAP2 SWAP1 POP JUMP JUMPDEST PUSH1 0x0 PUSH2 0x3102 PUSH2 0x30FD PUSH2 0x30F8 DUP5 PUSH2 0x2E3E JUMP JUMPDEST PUSH2 0x30DD JUMP JUMPDEST PUSH2 0x2E3E JUMP JUMPDEST SWAP1 POP SWAP2 SWAP1 POP JUMP JUMPDEST PUSH1 0x0 PUSH2 0x3114 DUP3 PUSH2 0x30E7 JUMP JUMPDEST SWAP1 POP SWAP2 SWAP1 POP JUMP JUMPDEST PUSH1 0x0 PUSH2 0x3126 DUP3 PUSH2 0x3109 JUMP JUMPDEST SWAP1 POP SWAP2 SWAP1 POP JUMP JUMPDEST PUSH2 0x3136 DUP2 PUSH2 0x311B JUMP JUMPDEST DUP3 MSTORE POP POP JUMP JUMPDEST PUSH1 0x0 PUSH1 0x20 DUP3 ADD SWAP1 POP PUSH2 0x3151 PUSH1 0x0 DUP4 ADD DUP5 PUSH2 0x312D JUMP JUMPDEST SWAP3 SWAP2 POP POP JUMP JUMPDEST PUSH1 0x0 PUSH2 0x3162 DUP3 PUSH2 0x3109 JUMP JUMPDEST SWAP1 POP SWAP2 SWAP1 POP JUMP JUMPDEST PUSH2 0x3172 DUP2 PUSH2 0x3157 JUMP JUMPDEST DUP3 MSTORE POP POP JUMP JUMPDEST PUSH1 0x0 PUSH1 0x20 DUP3 ADD SWAP1 POP PUSH2 0x318D PUSH1 0x0 DUP4 ADD DUP5 PUSH2 0x3169 JUMP JUMPDEST SWAP3 SWAP2 POP POP JUMP JUMPDEST PUSH1 0x0 PUSH1 0xA0 DUP3 ADD SWAP1 POP PUSH2 0x31A8 PUSH1 0x0 DUP4 ADD DUP9 PUSH2 0x2E0F JUMP JUMPDEST PUSH2 0x31B5 PUSH1 0x20 DUP4 ADD DUP8 PUSH2 0x2E0F JUMP JUMPDEST PUSH2 0x31C2 PUSH1 0x40 DUP4 ADD DUP7 PUSH2 0x2E0F JUMP JUMPDEST PUSH2 0x31CF PUSH1 0x60 DUP4 ADD DUP6 PUSH2 0x2E0F JUMP JUMPDEST PUSH2 0x31DC PUSH1 0x80 DUP4 ADD DUP5 PUSH2 0x2E0F JUMP JUMPDEST SWAP7 SWAP6 POP POP POP POP POP POP JUMP JUMPDEST PUSH1 0x0 DUP1 PUSH1 0x40 DUP4 DUP6 SUB SLT ISZERO PUSH2 0x31FD JUMPI PUSH2 0x31FC PUSH2 0x2E39 JUMP JUMPDEST JUMPDEST PUSH1 0x0 PUSH2 0x320B DUP6 DUP3 DUP7 ADD PUSH2 0x2EB3 JUMP JUMPDEST SWAP3 POP POP PUSH1 0x20 PUSH2 0x321C DUP6 DUP3 DUP7 ADD PUSH2 0x2EB3 JUMP JUMPDEST SWAP2 POP POP SWAP3 POP SWAP3 SWAP1 POP JUMP JUMPDEST PUSH1 0x0 DUP2 MLOAD SWAP1 POP SWAP2 SWAP1 POP JUMP JUMPDEST PUSH1 0x0 DUP3 DUP3 MSTORE PUSH1 0x20 DUP3 ADD SWAP1 POP SWAP3 SWAP2 POP POP JUMP JUMPDEST PUSH1 0x0 DUP2 SWAP1 POP PUSH1 0x20 DUP3 ADD SWAP1 POP SWAP2 SWAP1 POP JUMP JUMPDEST PUSH2 0x325B DUP2 PUSH2 0x3052 JUMP JUMPDEST DUP3 MSTORE POP POP JUMP JUMPDEST PUSH1 0xA0 DUP3 ADD PUSH1 0x0 DUP3 ADD MLOAD PUSH2 0x3277 PUSH1 0x0 DUP6 ADD DUP3 PUSH2 0x2FC0 JUMP JUMPDEST POP PUSH1 0x20 DUP3 ADD MLOAD PUSH2 0x328A PUSH1 0x20 DUP6 ADD DUP3 PUSH2 0x2FC0 JUMP JUMPDEST POP PUSH1 0x40 DUP3 ADD MLOAD PUSH2 0x329D PUSH1 0x40 DUP6 ADD DUP3 PUSH2 0x2FC0 JUMP JUMPDEST POP PUSH1 0x60 DUP3 ADD MLOAD PUSH2 0x32B0 PUSH1 0x60 DUP6 ADD DUP3 PUSH2 0x2FC0 JUMP JUMPDEST POP PUSH1 0x80 DUP3 ADD MLOAD PUSH2 0x32C3 PUSH1 0x80 DUP6 ADD DUP3 PUSH2 0x3252 JUMP JUMPDEST POP POP POP POP JUMP JUMPDEST PUSH1 0x0 PUSH2 0x32D5 DUP4 DUP4 PUSH2 0x3261 JUMP JUMPDEST PUSH1 0xA0 DUP4 ADD SWAP1 POP SWAP3 SWAP2 POP POP JUMP JUMPDEST PUSH1 0x0 PUSH1 0x20 DUP3 ADD SWAP1 POP SWAP2 SWAP1 POP JUMP JUMPDEST PUSH1 0x0 PUSH2 0x32F9 DUP3 PUSH2 0x3226 JUMP JUMPDEST PUSH2 0x3303 DUP2 DUP6 PUSH2 0x3231 JUMP JUMPDEST SWAP4 POP PUSH2 0x330E DUP4 PUSH2 0x3242 JUMP JUMPDEST DUP1 PUSH1 0x0 JUMPDEST DUP4 DUP2 LT ISZERO PUSH2 0x333F JUMPI DUP2 MLOAD PUSH2 0x3326 DUP9 DUP3 PUSH2 0x32C9 JUMP JUMPDEST SWAP8 POP PUSH2 0x3331 DUP4 PUSH2 0x32E1 JUMP JUMPDEST SWAP3 POP POP PUSH1 0x1 DUP2 ADD SWAP1 POP PUSH2 0x3312 JUMP JUMPDEST POP DUP6 SWAP4 POP POP POP POP SWAP3 SWAP2 POP POP JUMP JUMPDEST PUSH1 0x0 PUSH1 0x20 DUP3 ADD SWAP1 POP DUP2 DUP2 SUB PUSH1 0x0 DUP4 ADD MSTORE PUSH2 0x3366 DUP2 DUP5 PUSH2 0x32EE JUMP JUMPDEST SWAP1 POP SWAP3 SWAP2 POP POP JUMP JUMPDEST PUSH1 0x0 DUP2 MLOAD SWAP1 POP SWAP2 SWAP1 POP JUMP JUMPDEST PUSH1 0x0 DUP3 DUP3 MSTORE PUSH1 0x20 DUP3 ADD SWAP1 POP SWAP3 SWAP2 POP POP JUMP JUMPDEST PUSH1 0x0 DUP2 SWAP1 POP PUSH1 0x20 DUP3 ADD SWAP1 POP SWAP2 SWAP1 POP JUMP JUMPDEST PUSH2 0x33A3 DUP2 PUSH2 0x2E5E JUMP JUMPDEST DUP3 MSTORE POP POP JUMP JUMPDEST PUSH2 0x140 DUP3 ADD PUSH1 0x0 DUP3 ADD MLOAD PUSH2 0x33C0 PUSH1 0x0 DUP6 ADD DUP3 PUSH2 0x339A JUMP JUMPDEST POP PUSH1 0x20 DUP3 ADD MLOAD PUSH2 0x33D3 PUSH1 0x20 DUP6 ADD DUP3 PUSH2 0x2FC0 JUMP JUMPDEST POP PUSH1 0x40 DUP3 ADD MLOAD PUSH2 0x33E6 PUSH1 0x40 DUP6 ADD DUP3 PUSH2 0x2FC0 JUMP JUMPDEST POP PUSH1 0x60 DUP3 ADD MLOAD PUSH2 0x33F9 PUSH1 0x60 DUP6 ADD DUP3 PUSH2 0x2FC0 JUMP JUMPDEST POP PUSH1 0x80 DUP3 ADD MLOAD PUSH2 0x340C PUSH1 0x80 DUP6 ADD DUP3 PUSH2 0x2FC0 JUMP JUMPDEST POP PUSH1 0xA0 DUP3 ADD MLOAD PUSH2 0x341F PUSH1 0xA0 DUP6 ADD DUP3 PUSH2 0x2FC0 JUMP JUMPDEST POP PUSH1 0xC0 DUP3 ADD MLOAD PUSH2 0x3432 PUSH1 0xC0 DUP6 ADD DUP3 PUSH2 0x2FC0 JUMP JUMPDEST POP PUSH1 0xE0 DUP3 ADD MLOAD PUSH2 0x3445 PUSH1 0xE0 DUP6 ADD DUP3 PUSH2 0x2FC0 JUMP JUMPDEST POP PUSH2 0x100 DUP3 ADD MLOAD PUSH2 0x345A PUSH2 0x100 DUP6 ADD DUP3 PUSH2 0x3252 JUMP JUMPDEST POP PUSH2 0x120 DUP3 ADD MLOAD PUSH2 0x346F PUSH2 0x120 DUP6 ADD DUP3 PUSH2 0x3252 JUMP JUMPDEST POP POP POP POP JUMP JUMPDEST PUSH1 0x0 PUSH2 0x3481 DUP4 DUP4 PUSH2 0x33A9 JUMP JUMPDEST PUSH2 0x140 DUP4 ADD SWAP1 POP SWAP3 SWAP2 POP POP JUMP JUMPDEST PUSH1 0x0 PUSH1 0x20 DUP3 ADD SWAP1 POP SWAP2 SWAP1 POP JUMP JUMPDEST PUSH1 0x0 PUSH2 0x34A6 DUP3 PUSH2 0x336E JUMP JUMPDEST PUSH2 0x34B0 DUP2 DUP6 PUSH2 0x3379 JUMP JUMPDEST SWAP4 POP PUSH2 0x34BB DUP4 PUSH2 0x338A JUMP JUMPDEST DUP1 PUSH1 0x0 JUMPDEST DUP4 DUP2 LT ISZERO PUSH2 0x34EC JUMPI DUP2 MLOAD PUSH2 0x34D3 DUP9 DUP3 PUSH2 0x3475 JUMP JUMPDEST SWAP8 POP PUSH2 0x34DE DUP4 PUSH2 0x348E JUMP JUMPDEST SWAP3 POP POP PUSH1 0x1 DUP2 ADD SWAP1 POP PUSH2 0x34BF JUMP JUMPDEST POP DUP6 SWAP4 POP POP POP POP SWAP3 SWAP2 POP POP JUMP JUMPDEST PUSH1 0x0 PUSH1 0x20 DUP3 ADD SWAP1 POP DUP2 DUP2 SUB PUSH1 0x0 DUP4 ADD MSTORE PUSH2 0x3513 DUP2 DUP5 PUSH2 0x349B JUMP JUMPDEST SWAP1 POP SWAP3 SWAP2 POP POP JUMP JUMPDEST PUSH2 0x3524 DUP2 PUSH2 0x3052 JUMP JUMPDEST DUP3 MSTORE POP POP JUMP JUMPDEST PUSH1 0x0 PUSH1 0xA0 DUP3 ADD SWAP1 POP PUSH2 0x353F PUSH1 0x0 DUP4 ADD DUP9 PUSH2 0x2E0F JUMP JUMPDEST PUSH2 0x354C PUSH1 0x20 DUP4 ADD DUP8 PUSH2 0x2E0F JUMP JUMPDEST PUSH2 0x3559 PUSH1 0x40 DUP4 ADD DUP7 PUSH2 0x2E0F JUMP JUMPDEST PUSH2 0x3566 PUSH1 0x60 DUP4 ADD DUP6 PUSH2 0x2E0F JUMP JUMPDEST PUSH2 0x3573 PUSH1 0x80 DUP4 ADD DUP5 PUSH2 0x351B JUMP JUMPDEST SWAP7 SWAP6 POP POP POP POP POP POP JUMP JUMPDEST PUSH1 0x0 PUSH2 0x140 DUP3 ADD SWAP1 POP PUSH2 0x3593 PUSH1 0x0 DUP4 ADD DUP14 PUSH2 0x2F69 JUMP JUMPDEST PUSH2 0x35A0 PUSH1 0x20 DUP4 ADD DUP13 PUSH2 0x2E0F JUMP JUMPDEST PUSH2 0x35AD PUSH1 0x40 DUP4 ADD DUP12 PUSH2 0x2E0F JUMP JUMPDEST PUSH2 0x35BA PUSH1 0x60 DUP4 ADD DUP11 PUSH2 0x2E0F JUMP JUMPDEST PUSH2 0x35C7 PUSH1 0x80 DUP4 ADD DUP10 PUSH2 0x2E0F JUMP JUMPDEST PUSH2 0x35D4 PUSH1 0xA0 DUP4 ADD DUP9 PUSH2 0x2E0F JUMP JUMPDEST PUSH2 0x35E1 PUSH1 0xC0 DUP4 ADD DUP8 PUSH2 0x2E0F JUMP JUMPDEST PUSH2 0x35EE PUSH1 0xE0 DUP4 ADD DUP7 PUSH2 0x2E0F JUMP JUMPDEST PUSH2 0x35FC PUSH2 0x100 DUP4 ADD DUP6 PUSH2 0x351B JUMP JUMPDEST PUSH2 0x360A PUSH2 0x120 DUP4 ADD DUP5 PUSH2 0x351B JUMP JUMPDEST SWAP12 SWAP11 POP POP POP POP POP POP POP POP POP POP POP JUMP JUMPDEST PUSH1 0x0 DUP3 DUP3 MSTORE PUSH1 0x20 DUP3 ADD SWAP1 POP SWAP3 SWAP2 POP POP JUMP JUMPDEST PUSH32 0x496E76616C696420706967677920696E64657800000000000000000000000000 PUSH1 0x0 DUP3 ADD MSTORE POP JUMP JUMPDEST PUSH1 0x0 PUSH2 0x3660 PUSH1 0x13 DUP4 PUSH2 0x3619 JUMP JUMPDEST SWAP2 POP PUSH2 0x366B DUP3 PUSH2 0x362A JUMP JUMPDEST PUSH1 0x20 DUP3 ADD SWAP1 POP SWAP2 SWAP1 POP JUMP JUMPDEST PUSH1 0x0 PUSH1 0x20 DUP3 ADD SWAP1 POP DUP2 DUP2 SUB PUSH1 0x0 DUP4 ADD MSTORE PUSH2 0x368F DUP2 PUSH2 0x3653 JUMP JUMPDEST SWAP1 POP SWAP2 SWAP1 POP JUMP JUMPDEST PUSH32 0x4E487B7100000000000000000000000000000000000000000000000000000000 PUSH1 0x0 MSTORE PUSH1 0x32 PUSH1 0x4 MSTORE PUSH1 0x24 PUSH1 0x0 REVERT JUMPDEST PUSH1 0x0 PUSH1 0xA0 DUP3 ADD SWAP1 POP PUSH2 0x36DA PUSH1 0x0 DUP4 ADD DUP9 PUSH2 0x2F69 JUMP JUMPDEST PUSH2 0x36E7 PUSH1 0x20 DUP4 ADD DUP8 PUSH2 0x2F12 JUMP JUMPDEST PUSH2 0x36F4 PUSH1 0x40 DUP4 ADD DUP7 PUSH2 0x2F69 JUMP JUMPDEST PUSH2 0x3701 PUSH1 0x60 DUP4 ADD DUP6 PUSH2 0x2F69 JUMP JUMPDEST PUSH2 0x370E PUSH1 0x80 DUP4 ADD DUP5 PUSH2 0x2E0F JUMP JUMPDEST SWAP7 SWAP6 POP POP POP POP POP POP JUMP JUMPDEST PUSH1 0x0 DUP2 MLOAD SWAP1 POP PUSH2 0x3727 DUP2 PUSH2 0x2E9C JUMP JUMPDEST SWAP3 SWAP2 POP POP JUMP JUMPDEST PUSH1 0x0 PUSH1 0x20 DUP3 DUP5 SUB SLT ISZERO PUSH2 0x3743 JUMPI PUSH2 0x3742 PUSH2 0x2E39 JUMP JUMPDEST JUMPDEST PUSH1 0x0 PUSH2 0x3751 DUP5 DUP3 DUP6 ADD PUSH2 0x3718 JUMP JUMPDEST SWAP2 POP POP SWAP3 SWAP2 POP POP JUMP JUMPDEST PUSH32 0x4E487B7100000000000000000000000000000000000000000000000000000000 PUSH1 0x0 MSTORE PUSH1 0x11 PUSH1 0x4 MSTORE PUSH1 0x24 PUSH1 0x0 REVERT JUMPDEST PUSH1 0x0 PUSH2 0x3794 DUP3 PUSH2 0x2E05 JUMP JUMPDEST SWAP2 POP PUSH2 0x379F DUP4 PUSH2 0x2E05 JUMP JUMPDEST SWAP3 POP DUP3 DUP3 ADD SWAP1 POP DUP1 DUP3 GT ISZERO PUSH2 0x37B7 JUMPI PUSH2 0x37B6 PUSH2 0x375A JUMP JUMPDEST JUMPDEST SWAP3 SWAP2 POP POP JUMP JUMPDEST PUSH32 0x496E76616C6964207374616B6520696E64657800000000000000000000000000 PUSH1 0x0 DUP3 ADD MSTORE POP JUMP JUMPDEST PUSH1 0x0 PUSH2 0x37F3 PUSH1 0x13 DUP4 PUSH2 0x3619 JUMP JUMPDEST SWAP2 POP PUSH2 0x37FE DUP3 PUSH2 0x37BD JUMP JUMPDEST PUSH1 0x20 DUP3 ADD SWAP1 POP SWAP2 SWAP1 POP JUMP JUMPDEST PUSH1 0x0 PUSH1 0x20 DUP3 ADD SWAP1 POP DUP2 DUP2 SUB PUSH1 0x0 DUP4 ADD MSTORE PUSH2 0x3822 DUP2 PUSH2 0x37E6 JUMP JUMPDEST SWAP1 POP SWAP2 SWAP1 POP JUMP JUMPDEST PUSH32 0x416C726561647920636C61696D65640000000000000000000000000000000000 PUSH1 0x0 DUP3 ADD MSTORE POP JUMP JUMPDEST PUSH1 0x0 PUSH2 0x385F PUSH1 0xF DUP4 PUSH2 0x3619 JUMP JUMPDEST SWAP2 POP PUSH2 0x386A DUP3 PUSH2 0x3829 JUMP JUMPDEST PUSH1 0x20 DUP3 ADD SWAP1 POP SWAP2 SWAP1 POP JUMP JUMPDEST PUSH1 0x0 PUSH1 0x20 DUP3 ADD SWAP1 POP DUP2 DUP2 SUB PUSH1 0x0 DUP4 ADD MSTORE PUSH2 0x388E DUP2 PUSH2 0x3852 JUMP JUMPDEST SWAP1 POP SWAP2 SWAP1 POP JUMP JUMPDEST PUSH1 0x0 PUSH2 0x38A0 DUP3 PUSH2 0x2E05 JUMP JUMPDEST SWAP2 POP PUSH2 0x38AB DUP4 PUSH2 0x2E05 JUMP JUMPDEST SWAP3 POP DUP3 DUP3 MUL PUSH2 0x38B9 DUP2 PUSH2 0x2E05 JUMP JUMPDEST SWAP2 POP DUP3 DUP3 DIV DUP5 EQ DUP4 ISZERO OR PUSH2 0x38D0 JUMPI PUSH2 0x38CF PUSH2 0x375A JUMP JUMPDEST JUMPDEST POP SWAP3 SWAP2 POP POP JUMP JUMPDEST PUSH32 0x4C6F636B20706572696F64206E6F7420656E6465640000000000000000000000 PUSH1 0x0 DUP3 ADD MSTORE POP JUMP JUMPDEST PUSH1 0x0 PUSH2 0x390D PUSH1 0x15 DUP4 PUSH2 0x3619 JUMP JUMPDEST SWAP2 POP PUSH2 0x3918 DUP3 PUSH2 0x38D7 JUMP JUMPDEST PUSH1 0x20 DUP3 ADD SWAP1 POP SWAP2 SWAP1 POP JUMP JUMPDEST PUSH1 0x0 PUSH1 0x20 DUP3 ADD SWAP1 POP DUP2 DUP2 SUB PUSH1 0x0 DUP4 ADD MSTORE PUSH2 0x393C DUP2 PUSH2 0x3900 JUMP JUMPDEST SWAP1 POP SWAP2 SWAP1 POP JUMP JUMPDEST PUSH32 0x4E487B7100000000000000000000000000000000000000000000000000000000 PUSH1 0x0 MSTORE PUSH1 0x12 PUSH1 0x4 MSTORE PUSH1 0x24 PUSH1 0x0 REVERT JUMPDEST PUSH1 0x0 PUSH2 0x397D DUP3 PUSH2 0x2E05 JUMP JUMPDEST SWAP2 POP PUSH2 0x3988 DUP4 PUSH2 0x2E05 JUMP JUMPDEST SWAP3 POP DUP3 PUSH2 0x3998 JUMPI PUSH2 0x3997 PUSH2 0x3943 JUMP JUMPDEST JUMPDEST DUP3 DUP3 DIV SWAP1 POP SWAP3 SWAP2 POP POP JUMP JUMPDEST PUSH1 0x0 PUSH2 0x39AE DUP3 PUSH2 0x2E05 JUMP JUMPDEST SWAP2 POP PUSH2 0x39B9 DUP4 PUSH2 0x2E05 JUMP JUMPDEST SWAP3 POP DUP3 DUP3 SUB SWAP1 POP DUP2 DUP2 GT ISZERO PUSH2 0x39D1 JUMPI PUSH2 0x39D0 PUSH2 0x375A JUMP JUMPDEST JUMPDEST SWAP3 SWAP2 POP POP JUMP JUMPDEST PUSH1 0x0 PUSH1 0x40 DUP3 ADD SWAP1 POP PUSH2 0x39EC PUSH1 0x0 DUP4 ADD DUP6 PUSH2 0x2F69 JUMP JUMPDEST PUSH2 0x39F9 PUSH1 0x20 DUP4 ADD DUP5 PUSH2 0x2E0F JUMP JUMPDEST SWAP4 SWAP3 POP POP POP JUMP JUMPDEST PUSH1 0x0 DUP2 MLOAD SWAP1 POP PUSH2 0x3A0F DUP2 PUSH2 0x305E JUMP JUMPDEST SWAP3 SWAP2 POP POP JUMP JUMPDEST PUSH1 0x0 PUSH1 0x20 DUP3 DUP5 SUB SLT ISZERO PUSH2 0x3A2B JUMPI PUSH2 0x3A2A PUSH2 0x2E39 JUMP JUMPDEST JUMPDEST PUSH1 0x0 PUSH2 0x3A39 DUP5 DUP3 DUP6 ADD PUSH2 0x3A00 JUMP JUMPDEST SWAP2 POP POP SWAP3 SWAP2 POP POP JUMP JUMPDEST PUSH1 0x0 PUSH1 0x80 DUP3 ADD SWAP1 POP PUSH2 0x3A57 PUSH1 0x0 DUP4 ADD DUP8 PUSH2 0x2E0F JUMP JUMPDEST PUSH2 0x3A64 PUSH1 0x20 DUP4 ADD DUP7 PUSH2 0x2E0F JUMP JUMPDEST PUSH2 0x3A71 PUSH1 0x40 DUP4 ADD DUP6 PUSH2 0x2E0F JUMP JUMPDEST PUSH2 0x3A7E PUSH1 0x60 DUP4 ADD DUP5 PUSH2 0x2E0F JUMP JUMPDEST SWAP6 SWAP5 POP POP POP POP POP JUMP JUMPDEST PUSH32 0x496E76616C6964206475726174696F6E00000000000000000000000000000000 PUSH1 0x0 DUP3 ADD MSTORE POP JUMP JUMPDEST PUSH1 0x0 PUSH2 0x3ABD PUSH1 0x10 DUP4 PUSH2 0x3619 JUMP JUMPDEST SWAP2 POP PUSH2 0x3AC8 DUP3 PUSH2 0x3A87 JUMP JUMPDEST PUSH1 0x20 DUP3 ADD SWAP1 POP SWAP2 SWAP1 POP JUMP JUMPDEST PUSH1 0x0 PUSH1 0x20 DUP3 ADD SWAP1 POP DUP2 DUP2 SUB PUSH1 0x0 DUP4 ADD MSTORE PUSH2 0x3AEC DUP2 PUSH2 0x3AB0 JUMP JUMPDEST SWAP1 POP SWAP2 SWAP1 POP JUMP JUMPDEST PUSH32 0x4C6F636B206E6F7420656E646564000000000000000000000000000000000000 PUSH1 0x0 DUP3 ADD MSTORE POP JUMP JUMPDEST PUSH1 0x0 PUSH2 0x3B29 PUSH1 0xE DUP4 PUSH2 0x3619 JUMP JUMPDEST SWAP2 POP PUSH2 0x3B34 DUP3 PUSH2 0x3AF3 JUMP JUMPDEST PUSH1 0x20 DUP3 ADD SWAP1 POP SWAP2 SWAP1 POP JUMP JUMPDEST PUSH1 0x0 PUSH1 0x20 DUP3 ADD SWAP1 POP DUP2 DUP2 SUB PUSH1 0x0 DUP4 ADD MSTORE PUSH2 0x3B58 DUP2 PUSH2 0x3B1C JUMP JUMPDEST SWAP1 POP SWAP2 SWAP1 POP JUMP JUMPDEST PUSH1 0x0 PUSH1 0x60 DUP3 ADD SWAP1 POP PUSH2 0x3B74 PUSH1 0x0 DUP4 ADD DUP7 PUSH2 0x2E0F JUMP JUMPDEST PUSH2 0x3B81 PUSH1 0x20 DUP4 ADD DUP6 PUSH2 0x2E0F JUMP JUMPDEST PUSH2 0x3B8E PUSH1 0x40 DUP4 ADD DUP5 PUSH2 0x2E0F JUMP JUMPDEST SWAP5 SWAP4 POP POP POP POP JUMP JUMPDEST PUSH32 0x416D6F756E74206D75737420626520706F736974697665000000000000000000 PUSH1 0x0 DUP3 ADD MSTORE POP JUMP JUMPDEST PUSH1 0x0 PUSH2 0x3BCC PUSH1 0x17 DUP4 PUSH2 0x3619 JUMP JUMPDEST SWAP2 POP PUSH2 0x3BD7 DUP3 PUSH2 0x3B96 JUMP JUMPDEST PUSH1 0x20 DUP3 ADD SWAP1 POP SWAP2 SWAP1 POP JUMP JUMPDEST PUSH1 0x0 PUSH1 0x20 DUP3 ADD SWAP1 POP DUP2 DUP2 SUB PUSH1 0x0 DUP4 ADD MSTORE PUSH2 0x3BFB DUP2 PUSH2 0x3BBF JUMP JUMPDEST SWAP1 POP SWAP2 SWAP1 POP JUMP JUMPDEST PUSH32 0x4475726174696F6E206D75737420626520706F73697469766500000000000000 PUSH1 0x0 DUP3 ADD MSTORE POP JUMP JUMPDEST PUSH1 0x0 PUSH2 0x3C38 PUSH1 0x19 DUP4 PUSH2 0x3619 JUMP JUMPDEST SWAP2 POP PUSH2 0x3C43 DUP3 PUSH2 0x3C02 JUMP JUMPDEST PUSH1 0x20 DUP3 ADD SWAP1 POP SWAP2 SWAP1 POP JUMP JUMPDEST PUSH1 0x0 PUSH1 0x20 DUP3 ADD SWAP1 POP DUP2 DUP2 SUB PUSH1 0x0 DUP4 ADD MSTORE PUSH2 0x3C67 DUP2 PUSH2 0x3C2B JUMP JUMPDEST SWAP1 POP SWAP2 SWAP1 POP JUMP JUMPDEST PUSH1 0x0 PUSH1 0x40 DUP3 ADD SWAP1 POP PUSH2 0x3C83 PUSH1 0x0 DUP4 ADD DUP6 PUSH2 0x2E0F JUMP JUMPDEST PUSH2 0x3C90 PUSH1 0x20 DUP4 ADD DUP5 PUSH2 0x351B JUMP JUMPDEST SWAP4 SWAP3 POP POP POP JUMP JUMPDEST PUSH1 0x0 DUP1 PUSH1 0x0 DUP1 PUSH1 0x80 DUP6 DUP8 SUB SLT ISZERO PUSH2 0x3CB1 JUMPI PUSH2 0x3CB0 PUSH2 0x2E39 JUMP JUMPDEST JUMPDEST PUSH1 0x0 PUSH2 0x3CBF DUP8 DUP3 DUP9 ADD PUSH2 0x3718 JUMP JUMPDEST SWAP5 POP POP PUSH1 0x20 PUSH2 0x3CD0 DUP8 DUP3 DUP9 ADD PUSH2 0x3718 JUMP JUMPDEST SWAP4 POP POP PUSH1 0x40 PUSH2 0x3CE1 DUP8 DUP3 DUP9 ADD PUSH2 0x3718 JUMP JUMPDEST SWAP3 POP POP PUSH1 0x60 PUSH2 0x3CF2 DUP8 DUP3 DUP9 ADD PUSH2 0x3718 JUMP JUMPDEST SWAP2 POP POP SWAP3 SWAP6 SWAP2 SWAP5 POP SWAP3 POP JUMP JUMPDEST PUSH1 0x0 PUSH1 0x60 DUP3 ADD SWAP1 POP PUSH2 0x3D13 PUSH1 0x0 DUP4 ADD DUP7 PUSH2 0x2F69 JUMP JUMPDEST PUSH2 0x3D20 PUSH1 0x20 DUP4 ADD DUP6 PUSH2 0x2F69 JUMP JUMPDEST PUSH2 0x3D2D PUSH1 0x40 DUP4 ADD DUP5 PUSH2 0x2E0F JUMP JUMPDEST SWAP5 SWAP4 POP POP POP POP JUMP JUMPDEST PUSH1 0x0 PUSH1 0xE0 DUP3 ADD SWAP1 POP PUSH2 0x3D4A PUSH1 0x0 DUP4 ADD DUP11 PUSH2 0x2E0F JUMP JUMPDEST PUSH2 0x3D57 PUSH1 0x20 DUP4 ADD DUP10 PUSH2 0x2E0F JUMP JUMPDEST PUSH2 0x3D64 PUSH1 0x40 DUP4 ADD DUP9 PUSH2 0x351B JUMP JUMPDEST PUSH2 0x3D71 PUSH1 0x60 DUP4 ADD DUP8 PUSH2 0x2E0F JUMP JUMPDEST PUSH2 0x3D7E PUSH1 0x80 DUP4 ADD DUP7 PUSH2 0x2E0F JUMP JUMPDEST PUSH2 0x3D8B PUSH1 0xA0 DUP4 ADD DUP6 PUSH2 0x2E0F JUMP JUMPDEST PUSH2 0x3D98 PUSH1 0xC0 DUP4 ADD DUP5 PUSH2 0x2E0F JUMP JUMPDEST SWAP9 SWAP8 POP POP POP POP POP POP POP POP JUMP JUMPDEST PUSH32 0x45786365656473206D61782077616C6C6574206465706F736974206C696D6974 PUSH1 0x0 DUP3 ADD MSTORE POP JUMP JUMPDEST PUSH1 0x0 PUSH2 0x3DDA PUSH1 0x20 DUP4 PUSH2 0x3619 JUMP JUMPDEST SWAP2 POP PUSH2 0x3DE5 DUP3 PUSH2 0x3DA4 JUMP JUMPDEST PUSH1 0x20 DUP3 ADD SWAP1 POP SWAP2 SWAP1 POP JUMP JUMPDEST PUSH1 0x0 PUSH1 0x20 DUP3 ADD SWAP1 POP DUP2 DUP2 SUB PUSH1 0x0 DUP4 ADD MSTORE PUSH2 0x3E09 DUP2 PUSH2 0x3DCD JUMP JUMPDEST SWAP1 POP SWAP2 SWAP1 POP JUMP JUMPDEST PUSH32 0x506F6F6C2069732066756C6C0000000000000000000000000000000000000000 PUSH1 0x0 DUP3 ADD MSTORE POP JUMP JUMPDEST PUSH1 0x0 PUSH2 0x3E46 PUSH1 0xC DUP4 PUSH2 0x3619 JUMP JUMPDEST SWAP2 POP PUSH2 0x3E51 DUP3 PUSH2 0x3E10 JUMP JUMPDEST PUSH1 0x20 DUP3 ADD SWAP1 POP SWAP2 SWAP1 POP JUMP JUMPDEST PUSH1 0x0 PUSH1 0x20 DUP3 ADD SWAP1 POP DUP2 DUP2 SUB PUSH1 0x0 DUP4 ADD MSTORE PUSH2 0x3E75 DUP2 PUSH2 0x3E39 JUMP JUMPDEST SWAP1 POP SWAP2 SWAP1 POP JUMP JUMPDEST PUSH32 0x4E6F7420656E6F75676820726577617264732066756E64656420696E20706F6F PUSH1 0x0 DUP3 ADD MSTORE PUSH32 0x6C00000000000000000000000000000000000000000000000000000000000000 PUSH1 0x20 DUP3 ADD MSTORE POP JUMP JUMPDEST PUSH1 0x0 PUSH2 0x3ED8 PUSH1 0x21 DUP4 PUSH2 0x3619 JUMP JUMPDEST SWAP2 POP PUSH2 0x3EE3 DUP3 PUSH2 0x3E7C JUMP JUMPDEST PUSH1 0x40 DUP3 ADD SWAP1 POP SWAP2 SWAP1 POP JUMP JUMPDEST PUSH1 0x0 PUSH1 0x20 DUP3 ADD SWAP1 POP DUP2 DUP2 SUB PUSH1 0x0 DUP4 ADD MSTORE PUSH2 0x3F07 DUP2 PUSH2 0x3ECB JUMP JUMPDEST SWAP1 POP SWAP2 SWAP1 POP JUMP JUMPDEST PUSH32 0x596F752063616E6E6F7420676574206F757420616E792066756E647320617320 PUSH1 0x0 DUP3 ADD MSTORE PUSH32 0x6974206973207A65726F00000000000000000000000000000000000000000000 PUSH1 0x20 DUP3 ADD MSTORE POP JUMP JUMPDEST PUSH1 0x0 PUSH2 0x3F6A PUSH1 0x2A DUP4 PUSH2 0x3619 JUMP JUMPDEST SWAP2 POP PUSH2 0x3F75 DUP3 PUSH2 0x3F0E JUMP JUMPDEST PUSH1 0x40 DUP3 ADD SWAP1 POP SWAP2 SWAP1 POP JUMP JUMPDEST PUSH1 0x0 PUSH1 0x20 DUP3 ADD SWAP1 POP DUP2 DUP2 SUB PUSH1 0x0 DUP4 ADD MSTORE PUSH2 0x3F99 DUP2 PUSH2 0x3F5D JUMP JUMPDEST SWAP1 POP SWAP2 SWAP1 POP JUMP JUMPDEST PUSH32 0x4D656E746F3A20496E73756666696369656E74206F7574707574000000000000 PUSH1 0x0 DUP3 ADD MSTORE POP JUMP JUMPDEST PUSH1 0x0 PUSH2 0x3FD6 PUSH1 0x1A DUP4 PUSH2 0x3619 JUMP JUMPDEST SWAP2 POP PUSH2 0x3FE1 DUP3 PUSH2 0x3FA0 JUMP JUMPDEST PUSH1 0x20 DUP3 ADD SWAP1 POP SWAP2 SWAP1 POP JUMP JUMPDEST PUSH1 0x0 PUSH1 0x20 DUP3 ADD SWAP1 POP DUP2 DUP2 SUB PUSH1 0x0 DUP4 ADD MSTORE PUSH2 0x4005 DUP2 PUSH2 0x3FC9 JUMP JUMPDEST SWAP1 POP SWAP2 SWAP1 POP JUMP JUMPDEST PUSH1 0x0 PUSH1 0xC0 DUP3 ADD SWAP1 POP PUSH2 0x4021 PUSH1 0x0 DUP4 ADD DUP10 PUSH2 0x2F69 JUMP JUMPDEST PUSH2 0x402E PUSH1 0x20 DUP4 ADD DUP9 PUSH2 0x2F12 JUMP JUMPDEST PUSH2 0x403B PUSH1 0x40 DUP4 ADD DUP8 PUSH2 0x2F69 JUMP JUMPDEST PUSH2 0x4048 PUSH1 0x60 DUP4 ADD DUP7 PUSH2 0x2F69 JUMP JUMPDEST PUSH2 0x4055 PUSH1 0x80 DUP4 ADD DUP6 PUSH2 0x2E0F JUMP JUMPDEST PUSH2 0x4062 PUSH1 0xA0 DUP4 ADD DUP5 PUSH2 0x2E0F JUMP JUMPDEST SWAP8 SWAP7 POP POP POP POP POP POP POP JUMP INVALID LOG2 PUSH5 0x6970667358 0x22 SLT KECCAK256 0xEC 0xF PUSH5 0x6B828A0866 0x26 PUSH16 0x88FADB04110C457B9CB1655450C8E92A LT LOG2 0xCA 0xB8 0xCB 0xC0 PUSH5 0x736F6C6343 STOP ADDMOD EQ STOP CALLER "},"methodIdentifiers":{"MAX_DEPOSIT_PER_WALLET()":"473e5b94","STAKING_DEV_FEE_PERCENTAGE()":"02a6bbca","cCOP()":"e7330627","cEUR()":"7d1f2de7","cGBP()":"63f68d5d","cUSD()":"1fccf672","claim(uint256)":"379607f5","deposit(uint256,uint256,bool)":"43a0d066","developer()":"ca4b208b","exchangeId_cCOP_cUSD()":"2a063b97","exchangeId_cUSD_cEUR()":"eff8ff0c","exchangeId_cUSD_cGBP()":"13178c3f","exchangeProvider()":"9efe1cd2","fundRewards(uint256)":"93707a19","getPiggyValue(address,uint256)":"08dae84d","getPoolInfo(uint256)":"2f380b35","getRewardsOut()":"80308f23","getUserPiggies(address)":"a5c7343c","getUserStakes(address)":"842e2981","iMentoBroker()":"537514a2","mentoOracle()":"591b0014","owner()":"8da5cb5b","piggies(address,uint256)":"d5238192","renounceOwnership()":"715018a6","stake(uint256,uint256)":"7b0472f0","stakingPools(uint256)":"5aad6cf0","totalStakedAmountByUser(address)":"1c803416","transferOwnership(address)":"f2fde38b","unstake(uint256)":"2e17de78","userStakes(address,uint256)":"b5d5b5fa"}}}}}