{"contracts/MentoOracleHandler.sol":{"MentoOracleHandler":{"abi":[{"inputs":[{"internalType":"uint256","name":"totalAmount","type":"uint256"},{"internalType":"bool","name":"isSafeMode","type":"bool"}],"name":"getSuggestedAllocation","outputs":[{"internalType":"uint256","name":"cCOPToKeep","type":"uint256"},{"internalType":"uint256","name":"cCOPForUSD","type":"uint256"},{"internalType":"uint256","name":"cCOPForEUR","type":"uint256"},{"internalType":"uint256","name":"cCOPForGBP","type":"uint256"}],"stateMutability":"pure","type":"function"}],"evm":{"bytecode":{"linkReferences":{},"object":"608060405234801561001057600080fd5b50610480806100206000396000f3fe608060405234801561001057600080fd5b506004361061002b5760003560e01c8063b4f35d5514610030575b600080fd5b61004a60048036038101906100459190610200565b610063565b60405161005a949392919061024f565b60405180910390f35b600080600080600086116100ac576040517f08c379a00000000000000000000000000000000000000000000000000000000081526004016100a3906102f1565b60405180910390fd5b84156101085760646028876100c19190610340565b6100cb91906103b1565b93506064601e876100dc9190610340565b6100e691906103b1565b925060646014876100f79190610340565b61010191906103b1565b915061015a565b60646014876101179190610340565b61012191906103b1565b935060646028876101329190610340565b61013c91906103b1565b92506064601e8761014d9190610340565b61015791906103b1565b91505b600082848661016991906103e2565b61017391906103e2565b905080876101819190610416565b91505092959194509250565b600080fd5b6000819050919050565b6101a581610192565b81146101b057600080fd5b50565b6000813590506101c28161019c565b92915050565b60008115159050919050565b6101dd816101c8565b81146101e857600080fd5b50565b6000813590506101fa816101d4565b92915050565b600080604083850312156102175761021661018d565b5b6000610225858286016101b3565b9250506020610236858286016101eb565b9150509250929050565b61024981610192565b82525050565b60006080820190506102646000830187610240565b6102716020830186610240565b61027e6040830185610240565b61028b6060830184610240565b95945050505050565b600082825260208201905092915050565b7f546f74616c20616d6f756e74206d75737420626520706f736974697665000000600082015250565b60006102db601d83610294565b91506102e6826102a5565b602082019050919050565b6000602082019050818103600083015261030a816102ce565b9050919050565b7f4e487b7100000000000000000000000000000000000000000000000000000000600052601160045260246000fd5b600061034b82610192565b915061035683610192565b925082820261036481610192565b9150828204841483151761037b5761037a610311565b5b5092915050565b7f4e487b7100000000000000000000000000000000000000000000000000000000600052601260045260246000fd5b60006103bc82610192565b91506103c783610192565b9250826103d7576103d6610382565b5b828204905092915050565b60006103ed82610192565b91506103f883610192565b92508282019050808211156104105761040f610311565b5b92915050565b600061042182610192565b915061042c83610192565b925082820390508181111561044457610443610311565b5b9291505056fea264697066735822122047738ec54e20043c9c4ee735b2626a2f01b7fd5519462c9dfb7618f3094ac83a64736f6c63430008140033","opcodes":"PUSH1 0x80 PUSH1 0x40 MSTORE CALLVALUE DUP1 ISZERO PUSH2 0x10 JUMPI PUSH1 0x0 DUP1 REVERT JUMPDEST POP PUSH2 0x480 DUP1 PUSH2 0x20 PUSH1 0x0 CODECOPY PUSH1 0x0 RETURN INVALID PUSH1 0x80 PUSH1 0x40 MSTORE CALLVALUE DUP1 ISZERO PUSH2 0x10 JUMPI PUSH1 0x0 DUP1 REVERT JUMPDEST POP PUSH1 0x4 CALLDATASIZE LT PUSH2 0x2B JUMPI PUSH1 0x0 CALLDATALOAD PUSH1 0xE0 SHR DUP1 PUSH4 0xB4F35D55 EQ PUSH2 0x30 JUMPI JUMPDEST PUSH1 0x0 DUP1 REVERT JUMPDEST PUSH2 0x4A PUSH1 0x4 DUP1 CALLDATASIZE SUB DUP2 ADD SWAP1 PUSH2 0x45 SWAP2 SWAP1 PUSH2 0x200 JUMP JUMPDEST PUSH2 0x63 JUMP JUMPDEST PUSH1 0x40 MLOAD PUSH2 0x5A SWAP5 SWAP4 SWAP3 SWAP2 SWAP1 PUSH2 0x24F JUMP JUMPDEST PUSH1 0x40 MLOAD DUP1 SWAP2 SUB SWAP1 RETURN JUMPDEST PUSH1 0x0 DUP1 PUSH1 0x0 DUP1 PUSH1 0x0 DUP7 GT PUSH2 0xAC JUMPI PUSH1 0x40 MLOAD PUSH32 0x8C379A000000000000000000000000000000000000000000000000000000000 DUP2 MSTORE PUSH1 0x4 ADD PUSH2 0xA3 SWAP1 PUSH2 0x2F1 JUMP JUMPDEST PUSH1 0x40 MLOAD DUP1 SWAP2 SUB SWAP1 REVERT JUMPDEST DUP5 ISZERO PUSH2 0x108 JUMPI PUSH1 0x64 PUSH1 0x28 DUP8 PUSH2 0xC1 SWAP2 SWAP1 PUSH2 0x340 JUMP JUMPDEST PUSH2 0xCB SWAP2 SWAP1 PUSH2 0x3B1 JUMP JUMPDEST SWAP4 POP PUSH1 0x64 PUSH1 0x1E DUP8 PUSH2 0xDC SWAP2 SWAP1 PUSH2 0x340 JUMP JUMPDEST PUSH2 0xE6 SWAP2 SWAP1 PUSH2 0x3B1 JUMP JUMPDEST SWAP3 POP PUSH1 0x64 PUSH1 0x14 DUP8 PUSH2 0xF7 SWAP2 SWAP1 PUSH2 0x340 JUMP JUMPDEST PUSH2 0x101 SWAP2 SWAP1 PUSH2 0x3B1 JUMP JUMPDEST SWAP2 POP PUSH2 0x15A JUMP JUMPDEST PUSH1 0x64 PUSH1 0x14 DUP8 PUSH2 0x117 SWAP2 SWAP1 PUSH2 0x340 JUMP JUMPDEST PUSH2 0x121 SWAP2 SWAP1 PUSH2 0x3B1 JUMP JUMPDEST SWAP4 POP PUSH1 0x64 PUSH1 0x28 DUP8 PUSH2 0x132 SWAP2 SWAP1 PUSH2 0x340 JUMP JUMPDEST PUSH2 0x13C SWAP2 SWAP1 PUSH2 0x3B1 JUMP JUMPDEST SWAP3 POP PUSH1 0x64 PUSH1 0x1E DUP8 PUSH2 0x14D SWAP2 SWAP1 PUSH2 0x340 JUMP JUMPDEST PUSH2 0x157 SWAP2 SWAP1 PUSH2 0x3B1 JUMP JUMPDEST SWAP2 POP JUMPDEST PUSH1 0x0 DUP3 DUP5 DUP7 PUSH2 0x169 SWAP2 SWAP1 PUSH2 0x3E2 JUMP JUMPDEST PUSH2 0x173 SWAP2 SWAP1 PUSH2 0x3E2 JUMP JUMPDEST SWAP1 POP DUP1 DUP8 PUSH2 0x181 SWAP2 SWAP1 PUSH2 0x416 JUMP JUMPDEST SWAP2 POP POP SWAP3 SWAP6 SWAP2 SWAP5 POP SWAP3 POP JUMP JUMPDEST PUSH1 0x0 DUP1 REVERT JUMPDEST PUSH1 0x0 DUP2 SWAP1 POP SWAP2 SWAP1 POP JUMP JUMPDEST PUSH2 0x1A5 DUP2 PUSH2 0x192 JUMP JUMPDEST DUP2 EQ PUSH2 0x1B0 JUMPI PUSH1 0x0 DUP1 REVERT JUMPDEST POP JUMP JUMPDEST PUSH1 0x0 DUP2 CALLDATALOAD SWAP1 POP PUSH2 0x1C2 DUP2 PUSH2 0x19C JUMP JUMPDEST SWAP3 SWAP2 POP POP JUMP JUMPDEST PUSH1 0x0 DUP2 ISZERO ISZERO SWAP1 POP SWAP2 SWAP1 POP JUMP JUMPDEST PUSH2 0x1DD DUP2 PUSH2 0x1C8 JUMP JUMPDEST DUP2 EQ PUSH2 0x1E8 JUMPI PUSH1 0x0 DUP1 REVERT JUMPDEST POP JUMP JUMPDEST PUSH1 0x0 DUP2 CALLDATALOAD SWAP1 POP PUSH2 0x1FA DUP2 PUSH2 0x1D4 JUMP JUMPDEST SWAP3 SWAP2 POP POP JUMP JUMPDEST PUSH1 0x0 DUP1 PUSH1 0x40 DUP4 DUP6 SUB SLT ISZERO PUSH2 0x217 JUMPI PUSH2 0x216 PUSH2 0x18D JUMP JUMPDEST JUMPDEST PUSH1 0x0 PUSH2 0x225 DUP6 DUP3 DUP7 ADD PUSH2 0x1B3 JUMP JUMPDEST SWAP3 POP POP PUSH1 0x20 PUSH2 0x236 DUP6 DUP3 DUP7 ADD PUSH2 0x1EB JUMP JUMPDEST SWAP2 POP POP SWAP3 POP SWAP3 SWAP1 POP JUMP JUMPDEST PUSH2 0x249 DUP2 PUSH2 0x192 JUMP JUMPDEST DUP3 MSTORE POP POP JUMP JUMPDEST PUSH1 0x0 PUSH1 0x80 DUP3 ADD SWAP1 POP PUSH2 0x264 PUSH1 0x0 DUP4 ADD DUP8 PUSH2 0x240 JUMP JUMPDEST PUSH2 0x271 PUSH1 0x20 DUP4 ADD DUP7 PUSH2 0x240 JUMP JUMPDEST PUSH2 0x27E PUSH1 0x40 DUP4 ADD DUP6 PUSH2 0x240 JUMP JUMPDEST PUSH2 0x28B PUSH1 0x60 DUP4 ADD DUP5 PUSH2 0x240 JUMP JUMPDEST SWAP6 SWAP5 POP POP POP POP POP JUMP JUMPDEST PUSH1 0x0 DUP3 DUP3 MSTORE PUSH1 0x20 DUP3 ADD SWAP1 POP SWAP3 SWAP2 POP POP JUMP JUMPDEST PUSH32 0x546F74616C20616D6F756E74206D75737420626520706F736974697665000000 PUSH1 0x0 DUP3 ADD MSTORE POP JUMP JUMPDEST PUSH1 0x0 PUSH2 0x2DB PUSH1 0x1D DUP4 PUSH2 0x294 JUMP JUMPDEST SWAP2 POP PUSH2 0x2E6 DUP3 PUSH2 0x2A5 JUMP JUMPDEST PUSH1 0x20 DUP3 ADD SWAP1 POP SWAP2 SWAP1 POP JUMP JUMPDEST PUSH1 0x0 PUSH1 0x20 DUP3 ADD SWAP1 POP DUP2 DUP2 SUB PUSH1 0x0 DUP4 ADD MSTORE PUSH2 0x30A DUP2 PUSH2 0x2CE JUMP JUMPDEST SWAP1 POP SWAP2 SWAP1 POP JUMP JUMPDEST PUSH32 0x4E487B7100000000000000000000000000000000000000000000000000000000 PUSH1 0x0 MSTORE PUSH1 0x11 PUSH1 0x4 MSTORE PUSH1 0x24 PUSH1 0x0 REVERT JUMPDEST PUSH1 0x0 PUSH2 0x34B DUP3 PUSH2 0x192 JUMP JUMPDEST SWAP2 POP PUSH2 0x356 DUP4 PUSH2 0x192 JUMP JUMPDEST SWAP3 POP DUP3 DUP3 MUL PUSH2 0x364 DUP2 PUSH2 0x192 JUMP JUMPDEST SWAP2 POP DUP3 DUP3 DIV DUP5 EQ DUP4 ISZERO OR PUSH2 0x37B JUMPI PUSH2 0x37A PUSH2 0x311 JUMP JUMPDEST JUMPDEST POP SWAP3 SWAP2 POP POP JUMP JUMPDEST PUSH32 0x4E487B7100000000000000000000000000000000000000000000000000000000 PUSH1 0x0 MSTORE PUSH1 0x12 PUSH1 0x4 MSTORE PUSH1 0x24 PUSH1 0x0 REVERT JUMPDEST PUSH1 0x0 PUSH2 0x3BC DUP3 PUSH2 0x192 JUMP JUMPDEST SWAP2 POP PUSH2 0x3C7 DUP4 PUSH2 0x192 JUMP JUMPDEST SWAP3 POP DUP3 PUSH2 0x3D7 JUMPI PUSH2 0x3D6 PUSH2 0x382 JUMP JUMPDEST JUMPDEST DUP3 DUP3 DIV SWAP1 POP SWAP3 SWAP2 POP POP JUMP JUMPDEST PUSH1 0x0 PUSH2 0x3ED DUP3 PUSH2 0x192 JUMP JUMPDEST SWAP2 POP PUSH2 0x3F8 DUP4 PUSH2 0x192 JUMP JUMPDEST SWAP3 POP DUP3 DUP3 ADD SWAP1 POP DUP1 DUP3 GT ISZERO PUSH2 0x410 JUMPI PUSH2 0x40F PUSH2 0x311 JUMP JUMPDEST JUMPDEST SWAP3 SWAP2 POP POP JUMP JUMPDEST PUSH1 0x0 PUSH2 0x421 DUP3 PUSH2 0x192 JUMP JUMPDEST SWAP2 POP PUSH2 0x42C DUP4 PUSH2 0x192 JUMP JUMPDEST SWAP3 POP DUP3 DUP3 SUB SWAP1 POP DUP2 DUP2 GT ISZERO PUSH2 0x444 JUMPI PUSH2 0x443 PUSH2 0x311 JUMP JUMPDEST JUMPDEST SWAP3 SWAP2 POP POP JUMP INVALID LOG2 PUSH5 0x6970667358 0x22 SLT KECCAK256 SELFBALANCE PUSH20 0x8EC54E20043C9C4EE735B2626A2F01B7FD551946 0x2C SWAP14 0xFB PUSH23 0x18F3094AC83A64736F6C63430008140033000000000000 "},"methodIdentifiers":{"getSuggestedAllocation(uint256,bool)":"b4f35d55"}}}}}