{"contracts/cPiggyBank.sol":{"PiggyBank":{"abi":[{"inputs":[{"internalType":"address","name":"_iMentoBroker","type":"address"},{"internalType":"address","name":"_mentoOracle","type":"address"},{"internalType":"address","name":"_exchangeProvider","type":"address"},{"internalType":"address","name":"_cCOP","type":"address"},{"internalType":"address","name":"_cUSD","type":"address"},{"internalType":"address","name":"_cEUR","type":"address"},{"internalType":"address","name":"_cGBP","type":"address"},{"internalType":"bytes32","name":"_exchangeId_cCOP_cUSD","type":"bytes32"},{"internalType":"bytes32","name":"_exchangeId_cUSD_cEUR","type":"bytes32"},{"internalType":"bytes32","name":"_exchangeId_cUSD_cGBP","type":"bytes32"},{"internalType":"address","name":"_developer","type":"address"}],"stateMutability":"nonpayable","type":"constructor"},{"anonymous":false,"inputs":[{"indexed":true,"internalType":"address","name":"user","type":"address"},{"indexed":false,"internalType":"uint256","name":"index","type":"uint256"},{"indexed":false,"internalType":"uint256","name":"userReturnAmount","type":"uint256"},{"indexed":false,"internalType":"uint256","name":"developerFee","type":"uint256"}],"name":"PiggyClaimed","type":"event"},{"anonymous":false,"inputs":[{"indexed":true,"internalType":"address","name":"user","type":"address"},{"indexed":false,"internalType":"uint256","name":"totalAmount","type":"uint256"},{"indexed":false,"internalType":"uint256","name":"duration","type":"uint256"},{"indexed":false,"internalType":"bool","name":"safeMode","type":"bool"},{"indexed":false,"internalType":"uint256","name":"cCOPAmount","type":"uint256"},{"indexed":false,"internalType":"uint256","name":"cUSDAmountReceived","type":"uint256"},{"indexed":false,"internalType":"uint256","name":"cEURAmountReceived","type":"uint256"},{"indexed":false,"internalType":"uint256","name":"cGBPAmountReceived","type":"uint256"}],"name":"PiggyCreated","type":"event"},{"inputs":[],"name":"cCOP","outputs":[{"internalType":"address","name":"","type":"address"}],"stateMutability":"view","type":"function"},{"inputs":[],"name":"cEUR","outputs":[{"internalType":"address","name":"","type":"address"}],"stateMutability":"view","type":"function"},{"inputs":[],"name":"cGBP","outputs":[{"internalType":"address","name":"","type":"address"}],"stateMutability":"view","type":"function"},{"inputs":[],"name":"cUSD","outputs":[{"internalType":"address","name":"","type":"address"}],"stateMutability":"view","type":"function"},{"inputs":[{"internalType":"uint256","name":"_index","type":"uint256"}],"name":"claim","outputs":[],"stateMutability":"nonpayable","type":"function"},{"inputs":[{"internalType":"uint256","name":"amount","type":"uint256"},{"internalType":"uint256","name":"lockDays","type":"uint256"},{"internalType":"bool","name":"safeMode","type":"bool"}],"name":"deposit","outputs":[],"stateMutability":"nonpayable","type":"function"},{"inputs":[],"name":"developer","outputs":[{"internalType":"address","name":"","type":"address"}],"stateMutability":"view","type":"function"},{"inputs":[],"name":"exchangeId_cCOP_cUSD","outputs":[{"internalType":"bytes32","name":"","type":"bytes32"}],"stateMutability":"view","type":"function"},{"inputs":[],"name":"exchangeId_cUSD_cEUR","outputs":[{"internalType":"bytes32","name":"","type":"bytes32"}],"stateMutability":"view","type":"function"},{"inputs":[],"name":"exchangeId_cUSD_cGBP","outputs":[{"internalType":"bytes32","name":"","type":"bytes32"}],"stateMutability":"view","type":"function"},{"inputs":[],"name":"exchangeProvider","outputs":[{"internalType":"address","name":"","type":"address"}],"stateMutability":"view","type":"function"},{"inputs":[{"internalType":"address","name":"_user","type":"address"},{"internalType":"uint256","name":"_index","type":"uint256"}],"name":"getPiggyValue","outputs":[{"internalType":"uint256","name":"","type":"uint256"}],"stateMutability":"view","type":"function"},{"inputs":[{"internalType":"address","name":"_user","type":"address"}],"name":"getUserPiggies","outputs":[{"components":[{"internalType":"address","name":"owner","type":"address"},{"internalType":"uint256","name":"initialAmount","type":"uint256"},{"internalType":"uint256","name":"cCOPAmount","type":"uint256"},{"internalType":"uint256","name":"cUSDAmount","type":"uint256"},{"internalType":"uint256","name":"cEURAmount","type":"uint256"},{"internalType":"uint256","name":"cGBPAmount","type":"uint256"},{"internalType":"uint256","name":"startTime","type":"uint256"},{"internalType":"uint256","name":"duration","type":"uint256"},{"internalType":"bool","name":"safeMode","type":"bool"},{"internalType":"bool","name":"claimed","type":"bool"}],"internalType":"struct PiggyBank.Piggy[]","name":"","type":"tuple[]"}],"stateMutability":"view","type":"function"},{"inputs":[],"name":"iMentoBroker","outputs":[{"internalType":"contract IMentoBroker","name":"","type":"address"}],"stateMutability":"view","type":"function"},{"inputs":[],"name":"mentoOracle","outputs":[{"internalType":"contract MentoOracleHandler","name":"","type":"address"}],"stateMutability":"view","type":"function"},{"inputs":[{"internalType":"address","name":"","type":"address"},{"internalType":"uint256","name":"","type":"uint256"}],"name":"piggies","outputs":[{"internalType":"address","name":"owner","type":"address"},{"internalType":"uint256","name":"initialAmount","type":"uint256"},{"internalType":"uint256","name":"cCOPAmount","type":"uint256"},{"internalType":"uint256","name":"cUSDAmount","type":"uint256"},{"internalType":"uint256","name":"cEURAmount","type":"uint256"},{"internalType":"uint256","name":"cGBPAmount","type":"uint256"},{"internalType":"uint256","name":"startTime","type":"uint256"},{"internalType":"uint256","name":"duration","type":"uint256"},{"internalType":"bool","name":"safeMode","type":"bool"},{"internalType":"bool","name":"claimed","type":"bool"}],"stateMutability":"view","type":"function"}],"evm":{"bytecode":{"linkReferences":{},"object":"6101806040523480156200001257600080fd5b5060405162002b1138038062002b118339818101604052810190620000389190620002d0565b8a600160006101000a81548173ffffffffffffffffffffffffffffffffffffffff021916908373ffffffffffffffffffffffffffffffffffffffff160217905550896000806101000a81548173ffffffffffffffffffffffffffffffffffffffff021916908373ffffffffffffffffffffffffffffffffffffffff1602179055508873ffffffffffffffffffffffffffffffffffffffff166101008173ffffffffffffffffffffffffffffffffffffffff16815250508773ffffffffffffffffffffffffffffffffffffffff1660808173ffffffffffffffffffffffffffffffffffffffff16815250508673ffffffffffffffffffffffffffffffffffffffff1660a08173ffffffffffffffffffffffffffffffffffffffff16815250508573ffffffffffffffffffffffffffffffffffffffff1660c08173ffffffffffffffffffffffffffffffffffffffff16815250508473ffffffffffffffffffffffffffffffffffffffff1660e08173ffffffffffffffffffffffffffffffffffffffff168152505083610120818152505082610140818152505081610160818152505080600260006101000a81548173ffffffffffffffffffffffffffffffffffffffff021916908373ffffffffffffffffffffffffffffffffffffffff1602179055505050505050505050505050620003dd565b600080fd5b600073ffffffffffffffffffffffffffffffffffffffff82169050919050565b60006200025d8262000230565b9050919050565b6200026f8162000250565b81146200027b57600080fd5b50565b6000815190506200028f8162000264565b92915050565b6000819050919050565b620002aa8162000295565b8114620002b657600080fd5b50565b600081519050620002ca816200029f565b92915050565b60008060008060008060008060008060006101608c8e031215620002f957620002f86200022b565b5b6000620003098e828f016200027e565b9b505060206200031c8e828f016200027e565b9a505060406200032f8e828f016200027e565b9950506060620003428e828f016200027e565b9850506080620003558e828f016200027e565b97505060a0620003688e828f016200027e565b96505060c06200037b8e828f016200027e565b95505060e06200038e8e828f01620002b9565b945050610100620003a28e828f01620002b9565b935050610120620003b68e828f01620002b9565b925050610140620003ca8e828f016200027e565b9150509295989b509295989b9093969950565b60805160a05160c05160e051610100516101205161014051610160516125d962000538600039600081816105ee0152818161080f01528181610aae015261110c0152600081816104aa01528181610a230152818161109401526116c001526000818161072e0152818161085701528181610b360152610fe7015260008181610489015281816105cd0152818161070d015281816114360152818161172501526118cf01526000818161060f01528181610acf0152818161114e01526113ee0152600081816104cb01528181610a44015281816110d601526114120152600081816104ec015281816106300152818161074f0152818161083301528181610a6501528181610af001528181610b5701528181611029015281816110b5015261112d01526000818161077001528181610b7801528181610c2b01528181610cef01528181610f1901528181611008015261169c01526125d96000f3fe608060405234801561001057600080fd5b50600436106101005760003560e01c806363f68d5d11610097578063ca4b208b11610066578063ca4b208b1461028d578063d5238192146102ab578063e7330627146102e4578063eff8ff0c1461030257610100565b806363f68d5d146102035780637d1f2de7146102215780639efe1cd21461023f578063a5c7343c1461025d57610100565b8063379607f5116100d3578063379607f51461018f57806343a0d066146101ab578063537514a2146101c7578063591b0014146101e557610100565b806308dae84d1461010557806313178c3f146101355780631fccf672146101535780632a063b9714610171575b600080fd5b61011f600480360381019061011a91906119fb565b610320565b60405161012c9190611a4a565b60405180910390f35b61013d61080d565b60405161014a9190611a7e565b60405180910390f35b61015b610831565b6040516101689190611aa8565b60405180910390f35b610179610855565b6040516101869190611a7e565b60405180910390f35b6101a960048036038101906101a49190611ac3565b610879565b005b6101c560048036038101906101c09190611b28565b610de7565b005b6101cf6113a2565b6040516101dc9190611bda565b60405180910390f35b6101ed6113c8565b6040516101fa9190611c16565b60405180910390f35b61020b6113ec565b6040516102189190611aa8565b60405180910390f35b610229611410565b6040516102369190611aa8565b60405180910390f35b610247611434565b6040516102549190611aa8565b60405180910390f35b61027760048036038101906102729190611c31565b611458565b6040516102849190611e07565b60405180910390f35b6102956115c9565b6040516102a29190611aa8565b60405180910390f35b6102c560048036038101906102c091906119fb565b6115ef565b6040516102db9a99989796959493929190611e38565b60405180910390f35b6102ec61169a565b6040516102f99190611aa8565b60405180910390f35b61030a6116be565b6040516103179190611a7e565b60405180910390f35b6000600360008473ffffffffffffffffffffffffffffffffffffffff1673ffffffffffffffffffffffffffffffffffffffff1681526020019081526020016000208054905082106103a6576040517f08c379a000000000000000000000000000000000000000000000000000000000815260040161039d90611f31565b60405180910390fd5b6000600360008573ffffffffffffffffffffffffffffffffffffffff1673ffffffffffffffffffffffffffffffffffffffff16815260200190815260200160002083815481106103f9576103f8611f51565b5b906000526020600020906009020190508060080160019054906101000a900460ff161561042a576000915050610807565b60008160020154905060008260030154905060008360040154111561058057600160009054906101000a900473ffffffffffffffffffffffffffffffffffffffff1673ffffffffffffffffffffffffffffffffffffffff1663a20f23057f00000000000000000000000000000000000000000000000000000000000000007f00000000000000000000000000000000000000000000000000000000000000007f00000000000000000000000000000000000000000000000000000000000000007f000000000000000000000000000000000000000000000000000000000000000088600401546040518663ffffffff1660e01b8152600401610530959493929190611f80565b602060405180830381865afa92505050801561056a57506040513d601f19601f820116820180604052508101906105679190611fe8565b60015b1561057f57808261057b9190612044565b9150505b5b6000836005015411156106c457600160009054906101000a900473ffffffffffffffffffffffffffffffffffffffff1673ffffffffffffffffffffffffffffffffffffffff1663a20f23057f00000000000000000000000000000000000000000000000000000000000000007f00000000000000000000000000000000000000000000000000000000000000007f00000000000000000000000000000000000000000000000000000000000000007f000000000000000000000000000000000000000000000000000000000000000088600501546040518663ffffffff1660e01b8152600401610674959493929190611f80565b602060405180830381865afa9250505080156106ae57506040513d601f19601f820116820180604052508101906106ab9190611fe8565b60015b156106c35780826106bf9190612044565b9150505b5b600081111561080057600160009054906101000a900473ffffffffffffffffffffffffffffffffffffffff1673ffffffffffffffffffffffffffffffffffffffff1663a20f23057f00000000000000000000000000000000000000000000000000000000000000007f00000000000000000000000000000000000000000000000000000000000000007f00000000000000000000000000000000000000000000000000000000000000007f0000000000000000000000000000000000000000000000000000000000000000866040518663ffffffff1660e01b81526004016107b0959493929190611f80565b602060405180830381865afa9250505080156107ea57506040513d601f19601f820116820180604052508101906107e79190611fe8565b60015b156107ff5780836107fb9190612044565b9250505b5b8193505050505b92915050565b7f000000000000000000000000000000000000000000000000000000000000000081565b7f000000000000000000000000000000000000000000000000000000000000000081565b7f000000000000000000000000000000000000000000000000000000000000000081565b600360003373ffffffffffffffffffffffffffffffffffffffff1673ffffffffffffffffffffffffffffffffffffffff1681526020019081526020016000208054905081106108fd576040517f08c379a00000000000000000000000000000000000000000000000000000000081526004016108f490611f31565b60405180910390fd5b6000600360003373ffffffffffffffffffffffffffffffffffffffff1673ffffffffffffffffffffffffffffffffffffffff16815260200190815260200160002082815481106109505761094f611f51565b5b906000526020600020906009020190508060080160019054906101000a900460ff16156109b2576040517f08c379a00000000000000000000000000000000000000000000000000000000081526004016109a9906120c4565b60405180910390fd5b806007015481600601546109c69190612044565b421015610a08576040517f08c379a00000000000000000000000000000000000000000000000000000000081526004016109ff90612130565b60405180910390fd5b600081600301549050600082600401541115610a9c57610a8e7f00000000000000000000000000000000000000000000000000000000000000007f00000000000000000000000000000000000000000000000000000000000000007f000000000000000000000000000000000000000000000000000000000000000085600401546116e2565b81610a999190612044565b90505b600082600501541115610b2757610b197f00000000000000000000000000000000000000000000000000000000000000007f00000000000000000000000000000000000000000000000000000000000000007f000000000000000000000000000000000000000000000000000000000000000085600501546116e2565b81610b249190612044565b90505b600080821115610ba057610b9d7f00000000000000000000000000000000000000000000000000000000000000007f00000000000000000000000000000000000000000000000000000000000000007f0000000000000000000000000000000000000000000000000000000000000000856116e2565b90505b6000818460020154610bb29190612044565b905060018460080160016101000a81548160ff0219169083151502179055506000808290508560010154831115610ced576000866001015484610bf59190612150565b90506064600182610c069190612184565b610c1091906121f5565b92508284610c1e9190612150565b91506000831115610ceb577f000000000000000000000000000000000000000000000000000000000000000073ffffffffffffffffffffffffffffffffffffffff1663a9059cbb600260009054906101000a900473ffffffffffffffffffffffffffffffffffffffff16856040518363ffffffff1660e01b8152600401610ca6929190612226565b6020604051808303816000875af1158015610cc5573d6000803e3d6000fd5b505050506040513d601f19601f82011682018060405250810190610ce99190612264565b505b505b7f000000000000000000000000000000000000000000000000000000000000000073ffffffffffffffffffffffffffffffffffffffff1663a9059cbb33836040518363ffffffff1660e01b8152600401610d48929190612226565b6020604051808303816000875af1158015610d67573d6000803e3d6000fd5b505050506040513d601f19601f82011682018060405250810190610d8b9190612264565b503373ffffffffffffffffffffffffffffffffffffffff167fd50a71d2f16af090d2c460d2671e33503e48d8b4af2fa44e1522750e94ec4df5888385604051610dd693929190612291565b60405180910390a250505050505050565b60008311610e2a576040517f08c379a0000000000000000000000000000000000000000000000000000000008152600401610e2190612314565b60405180910390fd5b60008211610e6d576040517f08c379a0000000000000000000000000000000000000000000000000000000008152600401610e6490612380565b60405180910390fd5b60008060008060008054906101000a900473ffffffffffffffffffffffffffffffffffffffff1673ffffffffffffffffffffffffffffffffffffffff1663b4f35d5588876040518363ffffffff1660e01b8152600401610ece9291906123a0565b608060405180830381865afa158015610eeb573d6000803e3d6000fd5b505050506040513d601f19601f82011682018060405250810190610f0f91906123c9565b93509350935093507f000000000000000000000000000000000000000000000000000000000000000073ffffffffffffffffffffffffffffffffffffffff166323b872dd33308a6040518463ffffffff1660e01b8152600401610f7493929190612430565b6020604051808303816000875af1158015610f93573d6000803e3d6000fd5b505050506040513d601f19601f82011682018060405250810190610fb79190612264565b50600080600080848688610fcb9190612044565b610fd59190612044565b9050600081111561119357600061104e7f00000000000000000000000000000000000000000000000000000000000000007f00000000000000000000000000000000000000000000000000000000000000007f0000000000000000000000000000000000000000000000000000000000000000856116e2565b9050600082888361105f9190612184565b61106991906121f5565b9050600083888461107a9190612184565b61108491906121f5565b905060008211156110fe576110fb7f00000000000000000000000000000000000000000000000000000000000000007f00000000000000000000000000000000000000000000000000000000000000007f0000000000000000000000000000000000000000000000000000000000000000856116e2565b95505b6000811115611176576111737f00000000000000000000000000000000000000000000000000000000000000007f00000000000000000000000000000000000000000000000000000000000000007f0000000000000000000000000000000000000000000000000000000000000000846116e2565b94505b8082846111839190612150565b61118d9190612150565b96505050505b600360003373ffffffffffffffffffffffffffffffffffffffff1673ffffffffffffffffffffffffffffffffffffffff1681526020019081526020016000206040518061014001604052803373ffffffffffffffffffffffffffffffffffffffff1681526020018d81526020018a8152602001868152602001858152602001848152602001428152602001620151808d61122d9190612184565b81526020018b1515815260200160001515815250908060018154018082558091505060019003906000526020600020906009020160009091909190915060008201518160000160006101000a81548173ffffffffffffffffffffffffffffffffffffffff021916908373ffffffffffffffffffffffffffffffffffffffff1602179055506020820151816001015560408201518160020155606082015181600301556080820151816004015560a0820151816005015560c0820151816006015560e082015181600701556101008201518160080160006101000a81548160ff0219169083151502179055506101208201518160080160016101000a81548160ff02191690831515021790555050503373ffffffffffffffffffffffffffffffffffffffff167f9c63b5a6081196a022f84a8c5f96ec6f357800e5be9d0d0e7be1a3ded19ae0708c8c8c8c89898960405161138d9796959493929190612467565b60405180910390a25050505050505050505050565b600160009054906101000a900473ffffffffffffffffffffffffffffffffffffffff1681565b60008054906101000a900473ffffffffffffffffffffffffffffffffffffffff1681565b7f000000000000000000000000000000000000000000000000000000000000000081565b7f000000000000000000000000000000000000000000000000000000000000000081565b7f000000000000000000000000000000000000000000000000000000000000000081565b6060600360008373ffffffffffffffffffffffffffffffffffffffff1673ffffffffffffffffffffffffffffffffffffffff168152602001908152602001600020805480602002602001604051908101604052809291908181526020016000905b828210156115be5783829060005260206000209060090201604051806101400160405290816000820160009054906101000a900473ffffffffffffffffffffffffffffffffffffffff1673ffffffffffffffffffffffffffffffffffffffff1673ffffffffffffffffffffffffffffffffffffffff168152602001600182015481526020016002820154815260200160038201548152602001600482015481526020016005820154815260200160068201548152602001600782015481526020016008820160009054906101000a900460ff161515151581526020016008820160019054906101000a900460ff161515151581525050815260200190600101906114b9565b505050509050919050565b600260009054906101000a900473ffffffffffffffffffffffffffffffffffffffff1681565b6003602052816000526040600020818154811061160b57600080fd5b9060005260206000209060090201600091509150508060000160009054906101000a900473ffffffffffffffffffffffffffffffffffffffff16908060010154908060020154908060030154908060040154908060050154908060060154908060070154908060080160009054906101000a900460ff16908060080160019054906101000a900460ff1690508a565b7f000000000000000000000000000000000000000000000000000000000000000081565b7f000000000000000000000000000000000000000000000000000000000000000081565b600080600160009054906101000a900473ffffffffffffffffffffffffffffffffffffffff1673ffffffffffffffffffffffffffffffffffffffff1663a20f23057f0000000000000000000000000000000000000000000000000000000000000000888888886040518663ffffffff1660e01b8152600401611768959493929190611f80565b602060405180830381865afa158015611785573d6000803e3d6000fd5b505050506040513d601f19601f820116820180604052508101906117a99190611fe8565b9050600081116117ee576040517f08c379a00000000000000000000000000000000000000000000000000000000081526004016117e590612522565b60405180910390fd5b8473ffffffffffffffffffffffffffffffffffffffff1663095ea7b3600160009054906101000a900473ffffffffffffffffffffffffffffffffffffffff16856040518363ffffffff1660e01b815260040161184b929190612226565b6020604051808303816000875af115801561186a573d6000803e3d6000fd5b505050506040513d601f19601f8201168201806040525081019061188e9190612264565b50600160009054906101000a900473ffffffffffffffffffffffffffffffffffffffff1673ffffffffffffffffffffffffffffffffffffffff1663ddbbe8507f000000000000000000000000000000000000000000000000000000000000000088888888876040518763ffffffff1660e01b815260040161191496959493929190612542565b6020604051808303816000875af1158015611933573d6000803e3d6000fd5b505050506040513d601f19601f820116820180604052508101906119579190611fe8565b915050949350505050565b600080fd5b600073ffffffffffffffffffffffffffffffffffffffff82169050919050565b600061199282611967565b9050919050565b6119a281611987565b81146119ad57600080fd5b50565b6000813590506119bf81611999565b92915050565b6000819050919050565b6119d8816119c5565b81146119e357600080fd5b50565b6000813590506119f5816119cf565b92915050565b60008060408385031215611a1257611a11611962565b5b6000611a20858286016119b0565b9250506020611a31858286016119e6565b9150509250929050565b611a44816119c5565b82525050565b6000602082019050611a5f6000830184611a3b565b92915050565b6000819050919050565b611a7881611a65565b82525050565b6000602082019050611a936000830184611a6f565b92915050565b611aa281611987565b82525050565b6000602082019050611abd6000830184611a99565b92915050565b600060208284031215611ad957611ad8611962565b5b6000611ae7848285016119e6565b91505092915050565b60008115159050919050565b611b0581611af0565b8114611b1057600080fd5b50565b600081359050611b2281611afc565b92915050565b600080600060608486031215611b4157611b40611962565b5b6000611b4f868287016119e6565b9350506020611b60868287016119e6565b9250506040611b7186828701611b13565b9150509250925092565b6000819050919050565b6000611ba0611b9b611b9684611967565b611b7b565b611967565b9050919050565b6000611bb282611b85565b9050919050565b6000611bc482611ba7565b9050919050565b611bd481611bb9565b82525050565b6000602082019050611bef6000830184611bcb565b92915050565b6000611c0082611ba7565b9050919050565b611c1081611bf5565b82525050565b6000602082019050611c2b6000830184611c07565b92915050565b600060208284031215611c4757611c46611962565b5b6000611c55848285016119b0565b91505092915050565b600081519050919050565b600082825260208201905092915050565b6000819050602082019050919050565b611c9381611987565b82525050565b611ca2816119c5565b82525050565b611cb181611af0565b82525050565b61014082016000820151611cce6000850182611c8a565b506020820151611ce16020850182611c99565b506040820151611cf46040850182611c99565b506060820151611d076060850182611c99565b506080820151611d1a6080850182611c99565b5060a0820151611d2d60a0850182611c99565b5060c0820151611d4060c0850182611c99565b5060e0820151611d5360e0850182611c99565b50610100820151611d68610100850182611ca8565b50610120820151611d7d610120850182611ca8565b50505050565b6000611d8f8383611cb7565b6101408301905092915050565b6000602082019050919050565b6000611db482611c5e565b611dbe8185611c69565b9350611dc983611c7a565b8060005b83811015611dfa578151611de18882611d83565b9750611dec83611d9c565b925050600181019050611dcd565b5085935050505092915050565b60006020820190508181036000830152611e218184611da9565b905092915050565b611e3281611af0565b82525050565b600061014082019050611e4e600083018d611a99565b611e5b602083018c611a3b565b611e68604083018b611a3b565b611e75606083018a611a3b565b611e826080830189611a3b565b611e8f60a0830188611a3b565b611e9c60c0830187611a3b565b611ea960e0830186611a3b565b611eb7610100830185611e29565b611ec5610120830184611e29565b9b9a5050505050505050505050565b600082825260208201905092915050565b7f496e76616c696420706967677920696e64657800000000000000000000000000600082015250565b6000611f1b601383611ed4565b9150611f2682611ee5565b602082019050919050565b60006020820190508181036000830152611f4a81611f0e565b9050919050565b7f4e487b7100000000000000000000000000000000000000000000000000000000600052603260045260246000fd5b600060a082019050611f956000830188611a99565b611fa26020830187611a6f565b611faf6040830186611a99565b611fbc6060830185611a99565b611fc96080830184611a3b565b9695505050505050565b600081519050611fe2816119cf565b92915050565b600060208284031215611ffe57611ffd611962565b5b600061200c84828501611fd3565b91505092915050565b7f4e487b7100000000000000000000000000000000000000000000000000000000600052601160045260246000fd5b600061204f826119c5565b915061205a836119c5565b925082820190508082111561207257612071612015565b5b92915050565b7f416c726561647920636c61696d65640000000000000000000000000000000000600082015250565b60006120ae600f83611ed4565b91506120b982612078565b602082019050919050565b600060208201905081810360008301526120dd816120a1565b9050919050565b7f4c6f636b206e6f7420656e646564000000000000000000000000000000000000600082015250565b600061211a600e83611ed4565b9150612125826120e4565b602082019050919050565b600060208201905081810360008301526121498161210d565b9050919050565b600061215b826119c5565b9150612166836119c5565b925082820390508181111561217e5761217d612015565b5b92915050565b600061218f826119c5565b915061219a836119c5565b92508282026121a8816119c5565b915082820484148315176121bf576121be612015565b5b5092915050565b7f4e487b7100000000000000000000000000000000000000000000000000000000600052601260045260246000fd5b6000612200826119c5565b915061220b836119c5565b92508261221b5761221a6121c6565b5b828204905092915050565b600060408201905061223b6000830185611a99565b6122486020830184611a3b565b9392505050565b60008151905061225e81611afc565b92915050565b60006020828403121561227a57612279611962565b5b60006122888482850161224f565b91505092915050565b60006060820190506122a66000830186611a3b565b6122b36020830185611a3b565b6122c06040830184611a3b565b949350505050565b7f416d6f756e74206d75737420626520706f736974697665000000000000000000600082015250565b60006122fe601783611ed4565b9150612309826122c8565b602082019050919050565b6000602082019050818103600083015261232d816122f1565b9050919050565b7f4475726174696f6e206d75737420626520706f73697469766500000000000000600082015250565b600061236a601983611ed4565b915061237582612334565b602082019050919050565b600060208201905081810360008301526123998161235d565b9050919050565b60006040820190506123b56000830185611a3b565b6123c26020830184611e29565b9392505050565b600080600080608085870312156123e3576123e2611962565b5b60006123f187828801611fd3565b945050602061240287828801611fd3565b935050604061241387828801611fd3565b925050606061242487828801611fd3565b91505092959194509250565b60006060820190506124456000830186611a99565b6124526020830185611a99565b61245f6040830184611a3b565b949350505050565b600060e08201905061247c600083018a611a3b565b6124896020830189611a3b565b6124966040830188611e29565b6124a36060830187611a3b565b6124b06080830186611a3b565b6124bd60a0830185611a3b565b6124ca60c0830184611a3b565b98975050505050505050565b7f4d656e746f3a20496e73756666696369656e74206f7574707574000000000000600082015250565b600061250c601a83611ed4565b9150612517826124d6565b602082019050919050565b6000602082019050818103600083015261253b816124ff565b9050919050565b600060c0820190506125576000830189611a99565b6125646020830188611a6f565b6125716040830187611a99565b61257e6060830186611a99565b61258b6080830185611a3b565b61259860a0830184611a3b565b97965050505050505056fea264697066735822122026850c9116ad483b2f04a7c38c84350c770efd2815ac2a8172b9c207628ff98e64736f6c63430008140033","opcodes":"PUSH2 0x180 PUSH1 0x40 MSTORE CALLVALUE DUP1 ISZERO PUSH3 0x12 JUMPI PUSH1 0x0 DUP1 REVERT JUMPDEST POP PUSH1 0x40 MLOAD PUSH3 0x2B11 CODESIZE SUB DUP1 PUSH3 0x2B11 DUP4 CODECOPY DUP2 DUP2 ADD PUSH1 0x40 MSTORE DUP2 ADD SWAP1 PUSH3 0x38 SWAP2 SWAP1 PUSH3 0x2D0 JUMP JUMPDEST DUP11 PUSH1 0x1 PUSH1 0x0 PUSH2 0x100 EXP DUP2 SLOAD DUP2 PUSH20 0xFFFFFFFFFFFFFFFFFFFFFFFFFFFFFFFFFFFFFFFF MUL NOT AND SWAP1 DUP4 PUSH20 0xFFFFFFFFFFFFFFFFFFFFFFFFFFFFFFFFFFFFFFFF AND MUL OR SWAP1 SSTORE POP DUP10 PUSH1 0x0 DUP1 PUSH2 0x100 EXP DUP2 SLOAD DUP2 PUSH20 0xFFFFFFFFFFFFFFFFFFFFFFFFFFFFFFFFFFFFFFFF MUL NOT AND SWAP1 DUP4 PUSH20 0xFFFFFFFFFFFFFFFFFFFFFFFFFFFFFFFFFFFFFFFF AND MUL OR SWAP1 SSTORE POP DUP9 PUSH20 0xFFFFFFFFFFFFFFFFFFFFFFFFFFFFFFFFFFFFFFFF AND PUSH2 0x100 DUP2 PUSH20 0xFFFFFFFFFFFFFFFFFFFFFFFFFFFFFFFFFFFFFFFF AND DUP2 MSTORE POP POP DUP8 PUSH20 0xFFFFFFFFFFFFFFFFFFFFFFFFFFFFFFFFFFFFFFFF AND PUSH1 0x80 DUP2 PUSH20 0xFFFFFFFFFFFFFFFFFFFFFFFFFFFFFFFFFFFFFFFF AND DUP2 MSTORE POP POP DUP7 PUSH20 0xFFFFFFFFFFFFFFFFFFFFFFFFFFFFFFFFFFFFFFFF AND PUSH1 0xA0 DUP2 PUSH20 0xFFFFFFFFFFFFFFFFFFFFFFFFFFFFFFFFFFFFFFFF AND DUP2 MSTORE POP POP DUP6 PUSH20 0xFFFFFFFFFFFFFFFFFFFFFFFFFFFFFFFFFFFFFFFF AND PUSH1 0xC0 DUP2 PUSH20 0xFFFFFFFFFFFFFFFFFFFFFFFFFFFFFFFFFFFFFFFF AND DUP2 MSTORE POP POP DUP5 PUSH20 0xFFFFFFFFFFFFFFFFFFFFFFFFFFFFFFFFFFFFFFFF AND PUSH1 0xE0 DUP2 PUSH20 0xFFFFFFFFFFFFFFFFFFFFFFFFFFFFFFFFFFFFFFFF AND DUP2 MSTORE POP POP DUP4 PUSH2 0x120 DUP2 DUP2 MSTORE POP POP DUP3 PUSH2 0x140 DUP2 DUP2 MSTORE POP POP DUP2 PUSH2 0x160 DUP2 DUP2 MSTORE POP POP DUP1 PUSH1 0x2 PUSH1 0x0 PUSH2 0x100 EXP DUP2 SLOAD DUP2 PUSH20 0xFFFFFFFFFFFFFFFFFFFFFFFFFFFFFFFFFFFFFFFF MUL NOT AND SWAP1 DUP4 PUSH20 0xFFFFFFFFFFFFFFFFFFFFFFFFFFFFFFFFFFFFFFFF AND MUL OR SWAP1 SSTORE POP POP POP POP POP POP POP POP POP POP POP POP PUSH3 0x3DD JUMP JUMPDEST PUSH1 0x0 DUP1 REVERT JUMPDEST PUSH1 0x0 PUSH20 0xFFFFFFFFFFFFFFFFFFFFFFFFFFFFFFFFFFFFFFFF DUP3 AND SWAP1 POP SWAP2 SWAP1 POP JUMP JUMPDEST PUSH1 0x0 PUSH3 0x25D DUP3 PUSH3 0x230 JUMP JUMPDEST SWAP1 POP SWAP2 SWAP1 POP JUMP JUMPDEST PUSH3 0x26F DUP2 PUSH3 0x250 JUMP JUMPDEST DUP2 EQ PUSH3 0x27B JUMPI PUSH1 0x0 DUP1 REVERT JUMPDEST POP JUMP JUMPDEST PUSH1 0x0 DUP2 MLOAD SWAP1 POP PUSH3 0x28F DUP2 PUSH3 0x264 JUMP JUMPDEST SWAP3 SWAP2 POP POP JUMP JUMPDEST PUSH1 0x0 DUP2 SWAP1 POP SWAP2 SWAP1 POP JUMP JUMPDEST PUSH3 0x2AA DUP2 PUSH3 0x295 JUMP JUMPDEST DUP2 EQ PUSH3 0x2B6 JUMPI PUSH1 0x0 DUP1 REVERT JUMPDEST POP JUMP JUMPDEST PUSH1 0x0 DUP2 MLOAD SWAP1 POP PUSH3 0x2CA DUP2 PUSH3 0x29F JUMP JUMPDEST SWAP3 SWAP2 POP POP JUMP JUMPDEST PUSH1 0x0 DUP1 PUSH1 0x0 DUP1 PUSH1 0x0 DUP1 PUSH1 0x0 DUP1 PUSH1 0x0 DUP1 PUSH1 0x0 PUSH2 0x160 DUP13 DUP15 SUB SLT ISZERO PUSH3 0x2F9 JUMPI PUSH3 0x2F8 PUSH3 0x22B JUMP JUMPDEST JUMPDEST PUSH1 0x0 PUSH3 0x309 DUP15 DUP3 DUP16 ADD PUSH3 0x27E JUMP JUMPDEST SWAP12 POP POP PUSH1 0x20 PUSH3 0x31C DUP15 DUP3 DUP16 ADD PUSH3 0x27E JUMP JUMPDEST SWAP11 POP POP PUSH1 0x40 PUSH3 0x32F DUP15 DUP3 DUP16 ADD PUSH3 0x27E JUMP JUMPDEST SWAP10 POP POP PUSH1 0x60 PUSH3 0x342 DUP15 DUP3 DUP16 ADD PUSH3 0x27E JUMP JUMPDEST SWAP9 POP POP PUSH1 0x80 PUSH3 0x355 DUP15 DUP3 DUP16 ADD PUSH3 0x27E JUMP JUMPDEST SWAP8 POP POP PUSH1 0xA0 PUSH3 0x368 DUP15 DUP3 DUP16 ADD PUSH3 0x27E JUMP JUMPDEST SWAP7 POP POP PUSH1 0xC0 PUSH3 0x37B DUP15 DUP3 DUP16 ADD PUSH3 0x27E JUMP JUMPDEST SWAP6 POP POP PUSH1 0xE0 PUSH3 0x38E DUP15 DUP3 DUP16 ADD PUSH3 0x2B9 JUMP JUMPDEST SWAP5 POP POP PUSH2 0x100 PUSH3 0x3A2 DUP15 DUP3 DUP16 ADD PUSH3 0x2B9 JUMP JUMPDEST SWAP4 POP POP PUSH2 0x120 PUSH3 0x3B6 DUP15 DUP3 DUP16 ADD PUSH3 0x2B9 JUMP JUMPDEST SWAP3 POP POP PUSH2 0x140 PUSH3 0x3CA DUP15 DUP3 DUP16 ADD PUSH3 0x27E JUMP JUMPDEST SWAP2 POP POP SWAP3 SWAP6 SWAP9 SWAP12 POP SWAP3 SWAP6 SWAP9 SWAP12 SWAP1 SWAP4 SWAP7 SWAP10 POP JUMP JUMPDEST PUSH1 0x80 MLOAD PUSH1 0xA0 MLOAD PUSH1 0xC0 MLOAD PUSH1 0xE0 MLOAD PUSH2 0x100 MLOAD PUSH2 0x120 MLOAD PUSH2 0x140 MLOAD PUSH2 0x160 MLOAD PUSH2 0x25D9 PUSH3 0x538 PUSH1 0x0 CODECOPY PUSH1 0x0 DUP2 DUP2 PUSH2 0x5EE ADD MSTORE DUP2 DUP2 PUSH2 0x80F ADD MSTORE DUP2 DUP2 PUSH2 0xAAE ADD MSTORE PUSH2 0x110C ADD MSTORE PUSH1 0x0 DUP2 DUP2 PUSH2 0x4AA ADD MSTORE DUP2 DUP2 PUSH2 0xA23 ADD MSTORE DUP2 DUP2 PUSH2 0x1094 ADD MSTORE PUSH2 0x16C0 ADD MSTORE PUSH1 0x0 DUP2 DUP2 PUSH2 0x72E ADD MSTORE DUP2 DUP2 PUSH2 0x857 ADD MSTORE DUP2 DUP2 PUSH2 0xB36 ADD MSTORE PUSH2 0xFE7 ADD MSTORE PUSH1 0x0 DUP2 DUP2 PUSH2 0x489 ADD MSTORE DUP2 DUP2 PUSH2 0x5CD ADD MSTORE DUP2 DUP2 PUSH2 0x70D ADD MSTORE DUP2 DUP2 PUSH2 0x1436 ADD MSTORE DUP2 DUP2 PUSH2 0x1725 ADD MSTORE PUSH2 0x18CF ADD MSTORE PUSH1 0x0 DUP2 DUP2 PUSH2 0x60F ADD MSTORE DUP2 DUP2 PUSH2 0xACF ADD MSTORE DUP2 DUP2 PUSH2 0x114E ADD MSTORE PUSH2 0x13EE ADD MSTORE PUSH1 0x0 DUP2 DUP2 PUSH2 0x4CB ADD MSTORE DUP2 DUP2 PUSH2 0xA44 ADD MSTORE DUP2 DUP2 PUSH2 0x10D6 ADD MSTORE PUSH2 0x1412 ADD MSTORE PUSH1 0x0 DUP2 DUP2 PUSH2 0x4EC ADD MSTORE DUP2 DUP2 PUSH2 0x630 ADD MSTORE DUP2 DUP2 PUSH2 0x74F ADD MSTORE DUP2 DUP2 PUSH2 0x833 ADD MSTORE DUP2 DUP2 PUSH2 0xA65 ADD MSTORE DUP2 DUP2 PUSH2 0xAF0 ADD MSTORE DUP2 DUP2 PUSH2 0xB57 ADD MSTORE DUP2 DUP2 PUSH2 0x1029 ADD MSTORE DUP2 DUP2 PUSH2 0x10B5 ADD MSTORE PUSH2 0x112D ADD MSTORE PUSH1 0x0 DUP2 DUP2 PUSH2 0x770 ADD MSTORE DUP2 DUP2 PUSH2 0xB78 ADD MSTORE DUP2 DUP2 PUSH2 0xC2B ADD MSTORE DUP2 DUP2 PUSH2 0xCEF ADD MSTORE DUP2 DUP2 PUSH2 0xF19 ADD MSTORE DUP2 DUP2 PUSH2 0x1008 ADD MSTORE PUSH2 0x169C ADD MSTORE PUSH2 0x25D9 PUSH1 0x0 RETURN INVALID PUSH1 0x80 PUSH1 0x40 MSTORE CALLVALUE DUP1 ISZERO PUSH2 0x10 JUMPI PUSH1 0x0 DUP1 REVERT JUMPDEST POP PUSH1 0x4 CALLDATASIZE LT PUSH2 0x100 JUMPI PUSH1 0x0 CALLDATALOAD PUSH1 0xE0 SHR DUP1 PUSH4 0x63F68D5D GT PUSH2 0x97 JUMPI DUP1 PUSH4 0xCA4B208B GT PUSH2 0x66 JUMPI DUP1 PUSH4 0xCA4B208B EQ PUSH2 0x28D JUMPI DUP1 PUSH4 0xD5238192 EQ PUSH2 0x2AB JUMPI DUP1 PUSH4 0xE7330627 EQ PUSH2 0x2E4 JUMPI DUP1 PUSH4 0xEFF8FF0C EQ PUSH2 0x302 JUMPI PUSH2 0x100 JUMP JUMPDEST DUP1 PUSH4 0x63F68D5D EQ PUSH2 0x203 JUMPI DUP1 PUSH4 0x7D1F2DE7 EQ PUSH2 0x221 JUMPI DUP1 PUSH4 0x9EFE1CD2 EQ PUSH2 0x23F JUMPI DUP1 PUSH4 0xA5C7343C EQ PUSH2 0x25D JUMPI PUSH2 0x100 JUMP JUMPDEST DUP1 PUSH4 0x379607F5 GT PUSH2 0xD3 JUMPI DUP1 PUSH4 0x379607F5 EQ PUSH2 0x18F JUMPI DUP1 PUSH4 0x43A0D066 EQ PUSH2 0x1AB JUMPI DUP1 PUSH4 0x537514A2 EQ PUSH2 0x1C7 JUMPI DUP1 PUSH4 0x591B0014 EQ PUSH2 0x1E5 JUMPI PUSH2 0x100 JUMP JUMPDEST DUP1 PUSH4 0x8DAE84D EQ PUSH2 0x105 JUMPI DUP1 PUSH4 0x13178C3F EQ PUSH2 0x135 JUMPI DUP1 PUSH4 0x1FCCF672 EQ PUSH2 0x153 JUMPI DUP1 PUSH4 0x2A063B97 EQ PUSH2 0x171 JUMPI JUMPDEST PUSH1 0x0 DUP1 REVERT JUMPDEST PUSH2 0x11F PUSH1 0x4 DUP1 CALLDATASIZE SUB DUP2 ADD SWAP1 PUSH2 0x11A SWAP2 SWAP1 PUSH2 0x19FB JUMP JUMPDEST PUSH2 0x320 JUMP JUMPDEST PUSH1 0x40 MLOAD PUSH2 0x12C SWAP2 SWAP1 PUSH2 0x1A4A JUMP JUMPDEST PUSH1 0x40 MLOAD DUP1 SWAP2 SUB SWAP1 RETURN JUMPDEST PUSH2 0x13D PUSH2 0x80D JUMP JUMPDEST PUSH1 0x40 MLOAD PUSH2 0x14A SWAP2 SWAP1 PUSH2 0x1A7E JUMP JUMPDEST PUSH1 0x40 MLOAD DUP1 SWAP2 SUB SWAP1 RETURN JUMPDEST PUSH2 0x15B PUSH2 0x831 JUMP JUMPDEST PUSH1 0x40 MLOAD PUSH2 0x168 SWAP2 SWAP1 PUSH2 0x1AA8 JUMP JUMPDEST PUSH1 0x40 MLOAD DUP1 SWAP2 SUB SWAP1 RETURN JUMPDEST PUSH2 0x179 PUSH2 0x855 JUMP JUMPDEST PUSH1 0x40 MLOAD PUSH2 0x186 SWAP2 SWAP1 PUSH2 0x1A7E JUMP JUMPDEST PUSH1 0x40 MLOAD DUP1 SWAP2 SUB SWAP1 RETURN JUMPDEST PUSH2 0x1A9 PUSH1 0x4 DUP1 CALLDATASIZE SUB DUP2 ADD SWAP1 PUSH2 0x1A4 SWAP2 SWAP1 PUSH2 0x1AC3 JUMP JUMPDEST PUSH2 0x879 JUMP JUMPDEST STOP JUMPDEST PUSH2 0x1C5 PUSH1 0x4 DUP1 CALLDATASIZE SUB DUP2 ADD SWAP1 PUSH2 0x1C0 SWAP2 SWAP1 PUSH2 0x1B28 JUMP JUMPDEST PUSH2 0xDE7 JUMP JUMPDEST STOP JUMPDEST PUSH2 0x1CF PUSH2 0x13A2 JUMP JUMPDEST PUSH1 0x40 MLOAD PUSH2 0x1DC SWAP2 SWAP1 PUSH2 0x1BDA JUMP JUMPDEST PUSH1 0x40 MLOAD DUP1 SWAP2 SUB SWAP1 RETURN JUMPDEST PUSH2 0x1ED PUSH2 0x13C8 JUMP JUMPDEST PUSH1 0x40 MLOAD PUSH2 0x1FA SWAP2 SWAP1 PUSH2 0x1C16 JUMP JUMPDEST PUSH1 0x40 MLOAD DUP1 SWAP2 SUB SWAP1 RETURN JUMPDEST PUSH2 0x20B PUSH2 0x13EC JUMP JUMPDEST PUSH1 0x40 MLOAD PUSH2 0x218 SWAP2 SWAP1 PUSH2 0x1AA8 JUMP JUMPDEST PUSH1 0x40 MLOAD DUP1 SWAP2 SUB SWAP1 RETURN JUMPDEST PUSH2 0x229 PUSH2 0x1410 JUMP JUMPDEST PUSH1 0x40 MLOAD PUSH2 0x236 SWAP2 SWAP1 PUSH2 0x1AA8 JUMP JUMPDEST PUSH1 0x40 MLOAD DUP1 SWAP2 SUB SWAP1 RETURN JUMPDEST PUSH2 0x247 PUSH2 0x1434 JUMP JUMPDEST PUSH1 0x40 MLOAD PUSH2 0x254 SWAP2 SWAP1 PUSH2 0x1AA8 JUMP JUMPDEST PUSH1 0x40 MLOAD DUP1 SWAP2 SUB SWAP1 RETURN JUMPDEST PUSH2 0x277 PUSH1 0x4 DUP1 CALLDATASIZE SUB DUP2 ADD SWAP1 PUSH2 0x272 SWAP2 SWAP1 PUSH2 0x1C31 JUMP JUMPDEST PUSH2 0x1458 JUMP JUMPDEST PUSH1 0x40 MLOAD PUSH2 0x284 SWAP2 SWAP1 PUSH2 0x1E07 JUMP JUMPDEST PUSH1 0x40 MLOAD DUP1 SWAP2 SUB SWAP1 RETURN JUMPDEST PUSH2 0x295 PUSH2 0x15C9 JUMP JUMPDEST PUSH1 0x40 MLOAD PUSH2 0x2A2 SWAP2 SWAP1 PUSH2 0x1AA8 JUMP JUMPDEST PUSH1 0x40 MLOAD DUP1 SWAP2 SUB SWAP1 RETURN JUMPDEST PUSH2 0x2C5 PUSH1 0x4 DUP1 CALLDATASIZE SUB DUP2 ADD SWAP1 PUSH2 0x2C0 SWAP2 SWAP1 PUSH2 0x19FB JUMP JUMPDEST PUSH2 0x15EF JUMP JUMPDEST PUSH1 0x40 MLOAD PUSH2 0x2DB SWAP11 SWAP10 SWAP9 SWAP8 SWAP7 SWAP6 SWAP5 SWAP4 SWAP3 SWAP2 SWAP1 PUSH2 0x1E38 JUMP JUMPDEST PUSH1 0x40 MLOAD DUP1 SWAP2 SUB SWAP1 RETURN JUMPDEST PUSH2 0x2EC PUSH2 0x169A JUMP JUMPDEST PUSH1 0x40 MLOAD PUSH2 0x2F9 SWAP2 SWAP1 PUSH2 0x1AA8 JUMP JUMPDEST PUSH1 0x40 MLOAD DUP1 SWAP2 SUB SWAP1 RETURN JUMPDEST PUSH2 0x30A PUSH2 0x16BE JUMP JUMPDEST PUSH1 0x40 MLOAD PUSH2 0x317 SWAP2 SWAP1 PUSH2 0x1A7E JUMP JUMPDEST PUSH1 0x40 MLOAD DUP1 SWAP2 SUB SWAP1 RETURN JUMPDEST PUSH1 0x0 PUSH1 0x3 PUSH1 0x0 DUP5 PUSH20 0xFFFFFFFFFFFFFFFFFFFFFFFFFFFFFFFFFFFFFFFF AND PUSH20 0xFFFFFFFFFFFFFFFFFFFFFFFFFFFFFFFFFFFFFFFF AND DUP2 MSTORE PUSH1 0x20 ADD SWAP1 DUP2 MSTORE PUSH1 0x20 ADD PUSH1 0x0 KECCAK256 DUP1 SLOAD SWAP1 POP DUP3 LT PUSH2 0x3A6 JUMPI PUSH1 0x40 MLOAD PUSH32 0x8C379A000000000000000000000000000000000000000000000000000000000 DUP2 MSTORE PUSH1 0x4 ADD PUSH2 0x39D SWAP1 PUSH2 0x1F31 JUMP JUMPDEST PUSH1 0x40 MLOAD DUP1 SWAP2 SUB SWAP1 REVERT JUMPDEST PUSH1 0x0 PUSH1 0x3 PUSH1 0x0 DUP6 PUSH20 0xFFFFFFFFFFFFFFFFFFFFFFFFFFFFFFFFFFFFFFFF AND PUSH20 0xFFFFFFFFFFFFFFFFFFFFFFFFFFFFFFFFFFFFFFFF AND DUP2 MSTORE PUSH1 0x20 ADD SWAP1 DUP2 MSTORE PUSH1 0x20 ADD PUSH1 0x0 KECCAK256 DUP4 DUP2 SLOAD DUP2 LT PUSH2 0x3F9 JUMPI PUSH2 0x3F8 PUSH2 0x1F51 JUMP JUMPDEST JUMPDEST SWAP1 PUSH1 0x0 MSTORE PUSH1 0x20 PUSH1 0x0 KECCAK256 SWAP1 PUSH1 0x9 MUL ADD SWAP1 POP DUP1 PUSH1 0x8 ADD PUSH1 0x1 SWAP1 SLOAD SWAP1 PUSH2 0x100 EXP SWAP1 DIV PUSH1 0xFF AND ISZERO PUSH2 0x42A JUMPI PUSH1 0x0 SWAP2 POP POP PUSH2 0x807 JUMP JUMPDEST PUSH1 0x0 DUP2 PUSH1 0x2 ADD SLOAD SWAP1 POP PUSH1 0x0 DUP3 PUSH1 0x3 ADD SLOAD SWAP1 POP PUSH1 0x0 DUP4 PUSH1 0x4 ADD SLOAD GT ISZERO PUSH2 0x580 JUMPI PUSH1 0x1 PUSH1 0x0 SWAP1 SLOAD SWAP1 PUSH2 0x100 EXP SWAP1 DIV PUSH20 0xFFFFFFFFFFFFFFFFFFFFFFFFFFFFFFFFFFFFFFFF AND PUSH20 0xFFFFFFFFFFFFFFFFFFFFFFFFFFFFFFFFFFFFFFFF AND PUSH4 0xA20F2305 PUSH32 0x0 PUSH32 0x0 PUSH32 0x0 PUSH32 0x0 DUP9 PUSH1 0x4 ADD SLOAD PUSH1 0x40 MLOAD DUP7 PUSH4 0xFFFFFFFF AND PUSH1 0xE0 SHL DUP2 MSTORE PUSH1 0x4 ADD PUSH2 0x530 SWAP6 SWAP5 SWAP4 SWAP3 SWAP2 SWAP1 PUSH2 0x1F80 JUMP JUMPDEST PUSH1 0x20 PUSH1 0x40 MLOAD DUP1 DUP4 SUB DUP2 DUP7 GAS STATICCALL SWAP3 POP POP POP DUP1 ISZERO PUSH2 0x56A JUMPI POP PUSH1 0x40 MLOAD RETURNDATASIZE PUSH1 0x1F NOT PUSH1 0x1F DUP3 ADD AND DUP3 ADD DUP1 PUSH1 0x40 MSTORE POP DUP2 ADD SWAP1 PUSH2 0x567 SWAP2 SWAP1 PUSH2 0x1FE8 JUMP JUMPDEST PUSH1 0x1 JUMPDEST ISZERO PUSH2 0x57F JUMPI DUP1 DUP3 PUSH2 0x57B SWAP2 SWAP1 PUSH2 0x2044 JUMP JUMPDEST SWAP2 POP POP JUMPDEST JUMPDEST PUSH1 0x0 DUP4 PUSH1 0x5 ADD SLOAD GT ISZERO PUSH2 0x6C4 JUMPI PUSH1 0x1 PUSH1 0x0 SWAP1 SLOAD SWAP1 PUSH2 0x100 EXP SWAP1 DIV PUSH20 0xFFFFFFFFFFFFFFFFFFFFFFFFFFFFFFFFFFFFFFFF AND PUSH20 0xFFFFFFFFFFFFFFFFFFFFFFFFFFFFFFFFFFFFFFFF AND PUSH4 0xA20F2305 PUSH32 0x0 PUSH32 0x0 PUSH32 0x0 PUSH32 0x0 DUP9 PUSH1 0x5 ADD SLOAD PUSH1 0x40 MLOAD DUP7 PUSH4 0xFFFFFFFF AND PUSH1 0xE0 SHL DUP2 MSTORE PUSH1 0x4 ADD PUSH2 0x674 SWAP6 SWAP5 SWAP4 SWAP3 SWAP2 SWAP1 PUSH2 0x1F80 JUMP JUMPDEST PUSH1 0x20 PUSH1 0x40 MLOAD DUP1 DUP4 SUB DUP2 DUP7 GAS STATICCALL SWAP3 POP POP POP DUP1 ISZERO PUSH2 0x6AE JUMPI POP PUSH1 0x40 MLOAD RETURNDATASIZE PUSH1 0x1F NOT PUSH1 0x1F DUP3 ADD AND DUP3 ADD DUP1 PUSH1 0x40 MSTORE POP DUP2 ADD SWAP1 PUSH2 0x6AB SWAP2 SWAP1 PUSH2 0x1FE8 JUMP JUMPDEST PUSH1 0x1 JUMPDEST ISZERO PUSH2 0x6C3 JUMPI DUP1 DUP3 PUSH2 0x6BF SWAP2 SWAP1 PUSH2 0x2044 JUMP JUMPDEST SWAP2 POP POP JUMPDEST JUMPDEST PUSH1 0x0 DUP2 GT ISZERO PUSH2 0x800 JUMPI PUSH1 0x1 PUSH1 0x0 SWAP1 SLOAD SWAP1 PUSH2 0x100 EXP SWAP1 DIV PUSH20 0xFFFFFFFFFFFFFFFFFFFFFFFFFFFFFFFFFFFFFFFF AND PUSH20 0xFFFFFFFFFFFFFFFFFFFFFFFFFFFFFFFFFFFFFFFF AND PUSH4 0xA20F2305 PUSH32 0x0 PUSH32 0x0 PUSH32 0x0 PUSH32 0x0 DUP7 PUSH1 0x40 MLOAD DUP7 PUSH4 0xFFFFFFFF AND PUSH1 0xE0 SHL DUP2 MSTORE PUSH1 0x4 ADD PUSH2 0x7B0 SWAP6 SWAP5 SWAP4 SWAP3 SWAP2 SWAP1 PUSH2 0x1F80 JUMP JUMPDEST PUSH1 0x20 PUSH1 0x40 MLOAD DUP1 DUP4 SUB DUP2 DUP7 GAS STATICCALL SWAP3 POP POP POP DUP1 ISZERO PUSH2 0x7EA JUMPI POP PUSH1 0x40 MLOAD RETURNDATASIZE PUSH1 0x1F NOT PUSH1 0x1F DUP3 ADD AND DUP3 ADD DUP1 PUSH1 0x40 MSTORE POP DUP2 ADD SWAP1 PUSH2 0x7E7 SWAP2 SWAP1 PUSH2 0x1FE8 JUMP JUMPDEST PUSH1 0x1 JUMPDEST ISZERO PUSH2 0x7FF JUMPI DUP1 DUP4 PUSH2 0x7FB SWAP2 SWAP1 PUSH2 0x2044 JUMP JUMPDEST SWAP3 POP POP JUMPDEST JUMPDEST DUP2 SWAP4 POP POP POP POP JUMPDEST SWAP3 SWAP2 POP POP JUMP JUMPDEST PUSH32 0x0 DUP2 JUMP JUMPDEST PUSH32 0x0 DUP2 JUMP JUMPDEST PUSH32 0x0 DUP2 JUMP JUMPDEST PUSH1 0x3 PUSH1 0x0 CALLER PUSH20 0xFFFFFFFFFFFFFFFFFFFFFFFFFFFFFFFFFFFFFFFF AND PUSH20 0xFFFFFFFFFFFFFFFFFFFFFFFFFFFFFFFFFFFFFFFF AND DUP2 MSTORE PUSH1 0x20 ADD SWAP1 DUP2 MSTORE PUSH1 0x20 ADD PUSH1 0x0 KECCAK256 DUP1 SLOAD SWAP1 POP DUP2 LT PUSH2 0x8FD JUMPI PUSH1 0x40 MLOAD PUSH32 0x8C379A000000000000000000000000000000000000000000000000000000000 DUP2 MSTORE PUSH1 0x4 ADD PUSH2 0x8F4 SWAP1 PUSH2 0x1F31 JUMP JUMPDEST PUSH1 0x40 MLOAD DUP1 SWAP2 SUB SWAP1 REVERT JUMPDEST PUSH1 0x0 PUSH1 0x3 PUSH1 0x0 CALLER PUSH20 0xFFFFFFFFFFFFFFFFFFFFFFFFFFFFFFFFFFFFFFFF AND PUSH20 0xFFFFFFFFFFFFFFFFFFFFFFFFFFFFFFFFFFFFFFFF AND DUP2 MSTORE PUSH1 0x20 ADD SWAP1 DUP2 MSTORE PUSH1 0x20 ADD PUSH1 0x0 KECCAK256 DUP3 DUP2 SLOAD DUP2 LT PUSH2 0x950 JUMPI PUSH2 0x94F PUSH2 0x1F51 JUMP JUMPDEST JUMPDEST SWAP1 PUSH1 0x0 MSTORE PUSH1 0x20 PUSH1 0x0 KECCAK256 SWAP1 PUSH1 0x9 MUL ADD SWAP1 POP DUP1 PUSH1 0x8 ADD PUSH1 0x1 SWAP1 SLOAD SWAP1 PUSH2 0x100 EXP SWAP1 DIV PUSH1 0xFF AND ISZERO PUSH2 0x9B2 JUMPI PUSH1 0x40 MLOAD PUSH32 0x8C379A000000000000000000000000000000000000000000000000000000000 DUP2 MSTORE PUSH1 0x4 ADD PUSH2 0x9A9 SWAP1 PUSH2 0x20C4 JUMP JUMPDEST PUSH1 0x40 MLOAD DUP1 SWAP2 SUB SWAP1 REVERT JUMPDEST DUP1 PUSH1 0x7 ADD SLOAD DUP2 PUSH1 0x6 ADD SLOAD PUSH2 0x9C6 SWAP2 SWAP1 PUSH2 0x2044 JUMP JUMPDEST TIMESTAMP LT ISZERO PUSH2 0xA08 JUMPI PUSH1 0x40 MLOAD PUSH32 0x8C379A000000000000000000000000000000000000000000000000000000000 DUP2 MSTORE PUSH1 0x4 ADD PUSH2 0x9FF SWAP1 PUSH2 0x2130 JUMP JUMPDEST PUSH1 0x40 MLOAD DUP1 SWAP2 SUB SWAP1 REVERT JUMPDEST PUSH1 0x0 DUP2 PUSH1 0x3 ADD SLOAD SWAP1 POP PUSH1 0x0 DUP3 PUSH1 0x4 ADD SLOAD GT ISZERO PUSH2 0xA9C JUMPI PUSH2 0xA8E PUSH32 0x0 PUSH32 0x0 PUSH32 0x0 DUP6 PUSH1 0x4 ADD SLOAD PUSH2 0x16E2 JUMP JUMPDEST DUP2 PUSH2 0xA99 SWAP2 SWAP1 PUSH2 0x2044 JUMP JUMPDEST SWAP1 POP JUMPDEST PUSH1 0x0 DUP3 PUSH1 0x5 ADD SLOAD GT ISZERO PUSH2 0xB27 JUMPI PUSH2 0xB19 PUSH32 0x0 PUSH32 0x0 PUSH32 0x0 DUP6 PUSH1 0x5 ADD SLOAD PUSH2 0x16E2 JUMP JUMPDEST DUP2 PUSH2 0xB24 SWAP2 SWAP1 PUSH2 0x2044 JUMP JUMPDEST SWAP1 POP JUMPDEST PUSH1 0x0 DUP1 DUP3 GT ISZERO PUSH2 0xBA0 JUMPI PUSH2 0xB9D PUSH32 0x0 PUSH32 0x0 PUSH32 0x0 DUP6 PUSH2 0x16E2 JUMP JUMPDEST SWAP1 POP JUMPDEST PUSH1 0x0 DUP2 DUP5 PUSH1 0x2 ADD SLOAD PUSH2 0xBB2 SWAP2 SWAP1 PUSH2 0x2044 JUMP JUMPDEST SWAP1 POP PUSH1 0x1 DUP5 PUSH1 0x8 ADD PUSH1 0x1 PUSH2 0x100 EXP DUP2 SLOAD DUP2 PUSH1 0xFF MUL NOT AND SWAP1 DUP4 ISZERO ISZERO MUL OR SWAP1 SSTORE POP PUSH1 0x0 DUP1 DUP3 SWAP1 POP DUP6 PUSH1 0x1 ADD SLOAD DUP4 GT ISZERO PUSH2 0xCED JUMPI PUSH1 0x0 DUP7 PUSH1 0x1 ADD SLOAD DUP5 PUSH2 0xBF5 SWAP2 SWAP1 PUSH2 0x2150 JUMP JUMPDEST SWAP1 POP PUSH1 0x64 PUSH1 0x1 DUP3 PUSH2 0xC06 SWAP2 SWAP1 PUSH2 0x2184 JUMP JUMPDEST PUSH2 0xC10 SWAP2 SWAP1 PUSH2 0x21F5 JUMP JUMPDEST SWAP3 POP DUP3 DUP5 PUSH2 0xC1E SWAP2 SWAP1 PUSH2 0x2150 JUMP JUMPDEST SWAP2 POP PUSH1 0x0 DUP4 GT ISZERO PUSH2 0xCEB JUMPI PUSH32 0x0 PUSH20 0xFFFFFFFFFFFFFFFFFFFFFFFFFFFFFFFFFFFFFFFF AND PUSH4 0xA9059CBB PUSH1 0x2 PUSH1 0x0 SWAP1 SLOAD SWAP1 PUSH2 0x100 EXP SWAP1 DIV PUSH20 0xFFFFFFFFFFFFFFFFFFFFFFFFFFFFFFFFFFFFFFFF AND DUP6 PUSH1 0x40 MLOAD DUP4 PUSH4 0xFFFFFFFF AND PUSH1 0xE0 SHL DUP2 MSTORE PUSH1 0x4 ADD PUSH2 0xCA6 SWAP3 SWAP2 SWAP1 PUSH2 0x2226 JUMP JUMPDEST PUSH1 0x20 PUSH1 0x40 MLOAD DUP1 DUP4 SUB DUP2 PUSH1 0x0 DUP8 GAS CALL ISZERO DUP1 ISZERO PUSH2 0xCC5 JUMPI RETURNDATASIZE PUSH1 0x0 DUP1 RETURNDATACOPY RETURNDATASIZE PUSH1 0x0 REVERT JUMPDEST POP POP POP POP PUSH1 0x40 MLOAD RETURNDATASIZE PUSH1 0x1F NOT PUSH1 0x1F DUP3 ADD AND DUP3 ADD DUP1 PUSH1 0x40 MSTORE POP DUP2 ADD SWAP1 PUSH2 0xCE9 SWAP2 SWAP1 PUSH2 0x2264 JUMP JUMPDEST POP JUMPDEST POP JUMPDEST PUSH32 0x0 PUSH20 0xFFFFFFFFFFFFFFFFFFFFFFFFFFFFFFFFFFFFFFFF AND PUSH4 0xA9059CBB CALLER DUP4 PUSH1 0x40 MLOAD DUP4 PUSH4 0xFFFFFFFF AND PUSH1 0xE0 SHL DUP2 MSTORE PUSH1 0x4 ADD PUSH2 0xD48 SWAP3 SWAP2 SWAP1 PUSH2 0x2226 JUMP JUMPDEST PUSH1 0x20 PUSH1 0x40 MLOAD DUP1 DUP4 SUB DUP2 PUSH1 0x0 DUP8 GAS CALL ISZERO DUP1 ISZERO PUSH2 0xD67 JUMPI RETURNDATASIZE PUSH1 0x0 DUP1 RETURNDATACOPY RETURNDATASIZE PUSH1 0x0 REVERT JUMPDEST POP POP POP POP PUSH1 0x40 MLOAD RETURNDATASIZE PUSH1 0x1F NOT PUSH1 0x1F DUP3 ADD AND DUP3 ADD DUP1 PUSH1 0x40 MSTORE POP DUP2 ADD SWAP1 PUSH2 0xD8B SWAP2 SWAP1 PUSH2 0x2264 JUMP JUMPDEST POP CALLER PUSH20 0xFFFFFFFFFFFFFFFFFFFFFFFFFFFFFFFFFFFFFFFF AND PUSH32 0xD50A71D2F16AF090D2C460D2671E33503E48D8B4AF2FA44E1522750E94EC4DF5 DUP9 DUP4 DUP6 PUSH1 0x40 MLOAD PUSH2 0xDD6 SWAP4 SWAP3 SWAP2 SWAP1 PUSH2 0x2291 JUMP JUMPDEST PUSH1 0x40 MLOAD DUP1 SWAP2 SUB SWAP1 LOG2 POP POP POP POP POP POP POP JUMP JUMPDEST PUSH1 0x0 DUP4 GT PUSH2 0xE2A JUMPI PUSH1 0x40 MLOAD PUSH32 0x8C379A000000000000000000000000000000000000000000000000000000000 DUP2 MSTORE PUSH1 0x4 ADD PUSH2 0xE21 SWAP1 PUSH2 0x2314 JUMP JUMPDEST PUSH1 0x40 MLOAD DUP1 SWAP2 SUB SWAP1 REVERT JUMPDEST PUSH1 0x0 DUP3 GT PUSH2 0xE6D JUMPI PUSH1 0x40 MLOAD PUSH32 0x8C379A000000000000000000000000000000000000000000000000000000000 DUP2 MSTORE PUSH1 0x4 ADD PUSH2 0xE64 SWAP1 PUSH2 0x2380 JUMP JUMPDEST PUSH1 0x40 MLOAD DUP1 SWAP2 SUB SWAP1 REVERT JUMPDEST PUSH1 0x0 DUP1 PUSH1 0x0 DUP1 PUSH1 0x0 DUP1 SLOAD SWAP1 PUSH2 0x100 EXP SWAP1 DIV PUSH20 0xFFFFFFFFFFFFFFFFFFFFFFFFFFFFFFFFFFFFFFFF AND PUSH20 0xFFFFFFFFFFFFFFFFFFFFFFFFFFFFFFFFFFFFFFFF AND PUSH4 0xB4F35D55 DUP9 DUP8 PUSH1 0x40 MLOAD DUP4 PUSH4 0xFFFFFFFF AND PUSH1 0xE0 SHL DUP2 MSTORE PUSH1 0x4 ADD PUSH2 0xECE SWAP3 SWAP2 SWAP1 PUSH2 0x23A0 JUMP JUMPDEST PUSH1 0x80 PUSH1 0x40 MLOAD DUP1 DUP4 SUB DUP2 DUP7 GAS STATICCALL ISZERO DUP1 ISZERO PUSH2 0xEEB JUMPI RETURNDATASIZE PUSH1 0x0 DUP1 RETURNDATACOPY RETURNDATASIZE PUSH1 0x0 REVERT JUMPDEST POP POP POP POP PUSH1 0x40 MLOAD RETURNDATASIZE PUSH1 0x1F NOT PUSH1 0x1F DUP3 ADD AND DUP3 ADD DUP1 PUSH1 0x40 MSTORE POP DUP2 ADD SWAP1 PUSH2 0xF0F SWAP2 SWAP1 PUSH2 0x23C9 JUMP JUMPDEST SWAP4 POP SWAP4 POP SWAP4 POP SWAP4 POP PUSH32 0x0 PUSH20 0xFFFFFFFFFFFFFFFFFFFFFFFFFFFFFFFFFFFFFFFF AND PUSH4 0x23B872DD CALLER ADDRESS DUP11 PUSH1 0x40 MLOAD DUP5 PUSH4 0xFFFFFFFF AND PUSH1 0xE0 SHL DUP2 MSTORE PUSH1 0x4 ADD PUSH2 0xF74 SWAP4 SWAP3 SWAP2 SWAP1 PUSH2 0x2430 JUMP JUMPDEST PUSH1 0x20 PUSH1 0x40 MLOAD DUP1 DUP4 SUB DUP2 PUSH1 0x0 DUP8 GAS CALL ISZERO DUP1 ISZERO PUSH2 0xF93 JUMPI RETURNDATASIZE PUSH1 0x0 DUP1 RETURNDATACOPY RETURNDATASIZE PUSH1 0x0 REVERT JUMPDEST POP POP POP POP PUSH1 0x40 MLOAD RETURNDATASIZE PUSH1 0x1F NOT PUSH1 0x1F DUP3 ADD AND DUP3 ADD DUP1 PUSH1 0x40 MSTORE POP DUP2 ADD SWAP1 PUSH2 0xFB7 SWAP2 SWAP1 PUSH2 0x2264 JUMP JUMPDEST POP PUSH1 0x0 DUP1 PUSH1 0x0 DUP1 DUP5 DUP7 DUP9 PUSH2 0xFCB SWAP2 SWAP1 PUSH2 0x2044 JUMP JUMPDEST PUSH2 0xFD5 SWAP2 SWAP1 PUSH2 0x2044 JUMP JUMPDEST SWAP1 POP PUSH1 0x0 DUP2 GT ISZERO PUSH2 0x1193 JUMPI PUSH1 0x0 PUSH2 0x104E PUSH32 0x0 PUSH32 0x0 PUSH32 0x0 DUP6 PUSH2 0x16E2 JUMP JUMPDEST SWAP1 POP PUSH1 0x0 DUP3 DUP9 DUP4 PUSH2 0x105F SWAP2 SWAP1 PUSH2 0x2184 JUMP JUMPDEST PUSH2 0x1069 SWAP2 SWAP1 PUSH2 0x21F5 JUMP JUMPDEST SWAP1 POP PUSH1 0x0 DUP4 DUP9 DUP5 PUSH2 0x107A SWAP2 SWAP1 PUSH2 0x2184 JUMP JUMPDEST PUSH2 0x1084 SWAP2 SWAP1 PUSH2 0x21F5 JUMP JUMPDEST SWAP1 POP PUSH1 0x0 DUP3 GT ISZERO PUSH2 0x10FE JUMPI PUSH2 0x10FB PUSH32 0x0 PUSH32 0x0 PUSH32 0x0 DUP6 PUSH2 0x16E2 JUMP JUMPDEST SWAP6 POP JUMPDEST PUSH1 0x0 DUP2 GT ISZERO PUSH2 0x1176 JUMPI PUSH2 0x1173 PUSH32 0x0 PUSH32 0x0 PUSH32 0x0 DUP5 PUSH2 0x16E2 JUMP JUMPDEST SWAP5 POP JUMPDEST DUP1 DUP3 DUP5 PUSH2 0x1183 SWAP2 SWAP1 PUSH2 0x2150 JUMP JUMPDEST PUSH2 0x118D SWAP2 SWAP1 PUSH2 0x2150 JUMP JUMPDEST SWAP7 POP POP POP POP JUMPDEST PUSH1 0x3 PUSH1 0x0 CALLER PUSH20 0xFFFFFFFFFFFFFFFFFFFFFFFFFFFFFFFFFFFFFFFF AND PUSH20 0xFFFFFFFFFFFFFFFFFFFFFFFFFFFFFFFFFFFFFFFF AND DUP2 MSTORE PUSH1 0x20 ADD SWAP1 DUP2 MSTORE PUSH1 0x20 ADD PUSH1 0x0 KECCAK256 PUSH1 0x40 MLOAD DUP1 PUSH2 0x140 ADD PUSH1 0x40 MSTORE DUP1 CALLER PUSH20 0xFFFFFFFFFFFFFFFFFFFFFFFFFFFFFFFFFFFFFFFF AND DUP2 MSTORE PUSH1 0x20 ADD DUP14 DUP2 MSTORE PUSH1 0x20 ADD DUP11 DUP2 MSTORE PUSH1 0x20 ADD DUP7 DUP2 MSTORE PUSH1 0x20 ADD DUP6 DUP2 MSTORE PUSH1 0x20 ADD DUP5 DUP2 MSTORE PUSH1 0x20 ADD TIMESTAMP DUP2 MSTORE PUSH1 0x20 ADD PUSH3 0x15180 DUP14 PUSH2 0x122D SWAP2 SWAP1 PUSH2 0x2184 JUMP JUMPDEST DUP2 MSTORE PUSH1 0x20 ADD DUP12 ISZERO ISZERO DUP2 MSTORE PUSH1 0x20 ADD PUSH1 0x0 ISZERO ISZERO DUP2 MSTORE POP SWAP1 DUP1 PUSH1 0x1 DUP2 SLOAD ADD DUP1 DUP3 SSTORE DUP1 SWAP2 POP POP PUSH1 0x1 SWAP1 SUB SWAP1 PUSH1 0x0 MSTORE PUSH1 0x20 PUSH1 0x0 KECCAK256 SWAP1 PUSH1 0x9 MUL ADD PUSH1 0x0 SWAP1 SWAP2 SWAP1 SWAP2 SWAP1 SWAP2 POP PUSH1 0x0 DUP3 ADD MLOAD DUP2 PUSH1 0x0 ADD PUSH1 0x0 PUSH2 0x100 EXP DUP2 SLOAD DUP2 PUSH20 0xFFFFFFFFFFFFFFFFFFFFFFFFFFFFFFFFFFFFFFFF MUL NOT AND SWAP1 DUP4 PUSH20 0xFFFFFFFFFFFFFFFFFFFFFFFFFFFFFFFFFFFFFFFF AND MUL OR SWAP1 SSTORE POP PUSH1 0x20 DUP3 ADD MLOAD DUP2 PUSH1 0x1 ADD SSTORE PUSH1 0x40 DUP3 ADD MLOAD DUP2 PUSH1 0x2 ADD SSTORE PUSH1 0x60 DUP3 ADD MLOAD DUP2 PUSH1 0x3 ADD SSTORE PUSH1 0x80 DUP3 ADD MLOAD DUP2 PUSH1 0x4 ADD SSTORE PUSH1 0xA0 DUP3 ADD MLOAD DUP2 PUSH1 0x5 ADD SSTORE PUSH1 0xC0 DUP3 ADD MLOAD DUP2 PUSH1 0x6 ADD SSTORE PUSH1 0xE0 DUP3 ADD MLOAD DUP2 PUSH1 0x7 ADD SSTORE PUSH2 0x100 DUP3 ADD MLOAD DUP2 PUSH1 0x8 ADD PUSH1 0x0 PUSH2 0x100 EXP DUP2 SLOAD DUP2 PUSH1 0xFF MUL NOT AND SWAP1 DUP4 ISZERO ISZERO MUL OR SWAP1 SSTORE POP PUSH2 0x120 DUP3 ADD MLOAD DUP2 PUSH1 0x8 ADD PUSH1 0x1 PUSH2 0x100 EXP DUP2 SLOAD DUP2 PUSH1 0xFF MUL NOT AND SWAP1 DUP4 ISZERO ISZERO MUL OR SWAP1 SSTORE POP POP POP CALLER PUSH20 0xFFFFFFFFFFFFFFFFFFFFFFFFFFFFFFFFFFFFFFFF AND PUSH32 0x9C63B5A6081196A022F84A8C5F96EC6F357800E5BE9D0D0E7BE1A3DED19AE070 DUP13 DUP13 DUP13 DUP13 DUP10 DUP10 DUP10 PUSH1 0x40 MLOAD PUSH2 0x138D SWAP8 SWAP7 SWAP6 SWAP5 SWAP4 SWAP3 SWAP2 SWAP1 PUSH2 0x2467 JUMP JUMPDEST PUSH1 0x40 MLOAD DUP1 SWAP2 SUB SWAP1 LOG2 POP POP POP POP POP POP POP POP POP POP POP JUMP JUMPDEST PUSH1 0x1 PUSH1 0x0 SWAP1 SLOAD SWAP1 PUSH2 0x100 EXP SWAP1 DIV PUSH20 0xFFFFFFFFFFFFFFFFFFFFFFFFFFFFFFFFFFFFFFFF AND DUP2 JUMP JUMPDEST PUSH1 0x0 DUP1 SLOAD SWAP1 PUSH2 0x100 EXP SWAP1 DIV PUSH20 0xFFFFFFFFFFFFFFFFFFFFFFFFFFFFFFFFFFFFFFFF AND DUP2 JUMP JUMPDEST PUSH32 0x0 DUP2 JUMP JUMPDEST PUSH32 0x0 DUP2 JUMP JUMPDEST PUSH32 0x0 DUP2 JUMP JUMPDEST PUSH1 0x60 PUSH1 0x3 PUSH1 0x0 DUP4 PUSH20 0xFFFFFFFFFFFFFFFFFFFFFFFFFFFFFFFFFFFFFFFF AND PUSH20 0xFFFFFFFFFFFFFFFFFFFFFFFFFFFFFFFFFFFFFFFF AND DUP2 MSTORE PUSH1 0x20 ADD SWAP1 DUP2 MSTORE PUSH1 0x20 ADD PUSH1 0x0 KECCAK256 DUP1 SLOAD DUP1 PUSH1 0x20 MUL PUSH1 0x20 ADD PUSH1 0x40 MLOAD SWAP1 DUP2 ADD PUSH1 0x40 MSTORE DUP1 SWAP3 SWAP2 SWAP1 DUP2 DUP2 MSTORE PUSH1 0x20 ADD PUSH1 0x0 SWAP1 JUMPDEST DUP3 DUP3 LT ISZERO PUSH2 0x15BE JUMPI DUP4 DUP3 SWAP1 PUSH1 0x0 MSTORE PUSH1 0x20 PUSH1 0x0 KECCAK256 SWAP1 PUSH1 0x9 MUL ADD PUSH1 0x40 MLOAD DUP1 PUSH2 0x140 ADD PUSH1 0x40 MSTORE SWAP1 DUP2 PUSH1 0x0 DUP3 ADD PUSH1 0x0 SWAP1 SLOAD SWAP1 PUSH2 0x100 EXP SWAP1 DIV PUSH20 0xFFFFFFFFFFFFFFFFFFFFFFFFFFFFFFFFFFFFFFFF AND PUSH20 0xFFFFFFFFFFFFFFFFFFFFFFFFFFFFFFFFFFFFFFFF AND PUSH20 0xFFFFFFFFFFFFFFFFFFFFFFFFFFFFFFFFFFFFFFFF AND DUP2 MSTORE PUSH1 0x20 ADD PUSH1 0x1 DUP3 ADD SLOAD DUP2 MSTORE PUSH1 0x20 ADD PUSH1 0x2 DUP3 ADD SLOAD DUP2 MSTORE PUSH1 0x20 ADD PUSH1 0x3 DUP3 ADD SLOAD DUP2 MSTORE PUSH1 0x20 ADD PUSH1 0x4 DUP3 ADD SLOAD DUP2 MSTORE PUSH1 0x20 ADD PUSH1 0x5 DUP3 ADD SLOAD DUP2 MSTORE PUSH1 0x20 ADD PUSH1 0x6 DUP3 ADD SLOAD DUP2 MSTORE PUSH1 0x20 ADD PUSH1 0x7 DUP3 ADD SLOAD DUP2 MSTORE PUSH1 0x20 ADD PUSH1 0x8 DUP3 ADD PUSH1 0x0 SWAP1 SLOAD SWAP1 PUSH2 0x100 EXP SWAP1 DIV PUSH1 0xFF AND ISZERO ISZERO ISZERO ISZERO DUP2 MSTORE PUSH1 0x20 ADD PUSH1 0x8 DUP3 ADD PUSH1 0x1 SWAP1 SLOAD SWAP1 PUSH2 0x100 EXP SWAP1 DIV PUSH1 0xFF AND ISZERO ISZERO ISZERO ISZERO DUP2 MSTORE POP POP DUP2 MSTORE PUSH1 0x20 ADD SWAP1 PUSH1 0x1 ADD SWAP1 PUSH2 0x14B9 JUMP JUMPDEST POP POP POP POP SWAP1 POP SWAP2 SWAP1 POP JUMP JUMPDEST PUSH1 0x2 PUSH1 0x0 SWAP1 SLOAD SWAP1 PUSH2 0x100 EXP SWAP1 DIV PUSH20 0xFFFFFFFFFFFFFFFFFFFFFFFFFFFFFFFFFFFFFFFF AND DUP2 JUMP JUMPDEST PUSH1 0x3 PUSH1 0x20 MSTORE DUP2 PUSH1 0x0 MSTORE PUSH1 0x40 PUSH1 0x0 KECCAK256 DUP2 DUP2 SLOAD DUP2 LT PUSH2 0x160B JUMPI PUSH1 0x0 DUP1 REVERT JUMPDEST SWAP1 PUSH1 0x0 MSTORE PUSH1 0x20 PUSH1 0x0 KECCAK256 SWAP1 PUSH1 0x9 MUL ADD PUSH1 0x0 SWAP2 POP SWAP2 POP POP DUP1 PUSH1 0x0 ADD PUSH1 0x0 SWAP1 SLOAD SWAP1 PUSH2 0x100 EXP SWAP1 DIV PUSH20 0xFFFFFFFFFFFFFFFFFFFFFFFFFFFFFFFFFFFFFFFF AND SWAP1 DUP1 PUSH1 0x1 ADD SLOAD SWAP1 DUP1 PUSH1 0x2 ADD SLOAD SWAP1 DUP1 PUSH1 0x3 ADD SLOAD SWAP1 DUP1 PUSH1 0x4 ADD SLOAD SWAP1 DUP1 PUSH1 0x5 ADD SLOAD SWAP1 DUP1 PUSH1 0x6 ADD SLOAD SWAP1 DUP1 PUSH1 0x7 ADD SLOAD SWAP1 DUP1 PUSH1 0x8 ADD PUSH1 0x0 SWAP1 SLOAD SWAP1 PUSH2 0x100 EXP SWAP1 DIV PUSH1 0xFF AND SWAP1 DUP1 PUSH1 0x8 ADD PUSH1 0x1 SWAP1 SLOAD SWAP1 PUSH2 0x100 EXP SWAP1 DIV PUSH1 0xFF AND SWAP1 POP DUP11 JUMP JUMPDEST PUSH32 0x0 DUP2 JUMP JUMPDEST PUSH32 0x0 DUP2 JUMP JUMPDEST PUSH1 0x0 DUP1 PUSH1 0x1 PUSH1 0x0 SWAP1 SLOAD SWAP1 PUSH2 0x100 EXP SWAP1 DIV PUSH20 0xFFFFFFFFFFFFFFFFFFFFFFFFFFFFFFFFFFFFFFFF AND PUSH20 0xFFFFFFFFFFFFFFFFFFFFFFFFFFFFFFFFFFFFFFFF AND PUSH4 0xA20F2305 PUSH32 0x0 DUP9 DUP9 DUP9 DUP9 PUSH1 0x40 MLOAD DUP7 PUSH4 0xFFFFFFFF AND PUSH1 0xE0 SHL DUP2 MSTORE PUSH1 0x4 ADD PUSH2 0x1768 SWAP6 SWAP5 SWAP4 SWAP3 SWAP2 SWAP1 PUSH2 0x1F80 JUMP JUMPDEST PUSH1 0x20 PUSH1 0x40 MLOAD DUP1 DUP4 SUB DUP2 DUP7 GAS STATICCALL ISZERO DUP1 ISZERO PUSH2 0x1785 JUMPI RETURNDATASIZE PUSH1 0x0 DUP1 RETURNDATACOPY RETURNDATASIZE PUSH1 0x0 REVERT JUMPDEST POP POP POP POP PUSH1 0x40 MLOAD RETURNDATASIZE PUSH1 0x1F NOT PUSH1 0x1F DUP3 ADD AND DUP3 ADD DUP1 PUSH1 0x40 MSTORE POP DUP2 ADD SWAP1 PUSH2 0x17A9 SWAP2 SWAP1 PUSH2 0x1FE8 JUMP JUMPDEST SWAP1 POP PUSH1 0x0 DUP2 GT PUSH2 0x17EE JUMPI PUSH1 0x40 MLOAD PUSH32 0x8C379A000000000000000000000000000000000000000000000000000000000 DUP2 MSTORE PUSH1 0x4 ADD PUSH2 0x17E5 SWAP1 PUSH2 0x2522 JUMP JUMPDEST PUSH1 0x40 MLOAD DUP1 SWAP2 SUB SWAP1 REVERT JUMPDEST DUP5 PUSH20 0xFFFFFFFFFFFFFFFFFFFFFFFFFFFFFFFFFFFFFFFF AND PUSH4 0x95EA7B3 PUSH1 0x1 PUSH1 0x0 SWAP1 SLOAD SWAP1 PUSH2 0x100 EXP SWAP1 DIV PUSH20 0xFFFFFFFFFFFFFFFFFFFFFFFFFFFFFFFFFFFFFFFF AND DUP6 PUSH1 0x40 MLOAD DUP4 PUSH4 0xFFFFFFFF AND PUSH1 0xE0 SHL DUP2 MSTORE PUSH1 0x4 ADD PUSH2 0x184B SWAP3 SWAP2 SWAP1 PUSH2 0x2226 JUMP JUMPDEST PUSH1 0x20 PUSH1 0x40 MLOAD DUP1 DUP4 SUB DUP2 PUSH1 0x0 DUP8 GAS CALL ISZERO DUP1 ISZERO PUSH2 0x186A JUMPI RETURNDATASIZE PUSH1 0x0 DUP1 RETURNDATACOPY RETURNDATASIZE PUSH1 0x0 REVERT JUMPDEST POP POP POP POP PUSH1 0x40 MLOAD RETURNDATASIZE PUSH1 0x1F NOT PUSH1 0x1F DUP3 ADD AND DUP3 ADD DUP1 PUSH1 0x40 MSTORE POP DUP2 ADD SWAP1 PUSH2 0x188E SWAP2 SWAP1 PUSH2 0x2264 JUMP JUMPDEST POP PUSH1 0x1 PUSH1 0x0 SWAP1 SLOAD SWAP1 PUSH2 0x100 EXP SWAP1 DIV PUSH20 0xFFFFFFFFFFFFFFFFFFFFFFFFFFFFFFFFFFFFFFFF AND PUSH20 0xFFFFFFFFFFFFFFFFFFFFFFFFFFFFFFFFFFFFFFFF AND PUSH4 0xDDBBE850 PUSH32 0x0 DUP9 DUP9 DUP9 DUP9 DUP8 PUSH1 0x40 MLOAD DUP8 PUSH4 0xFFFFFFFF AND PUSH1 0xE0 SHL DUP2 MSTORE PUSH1 0x4 ADD PUSH2 0x1914 SWAP7 SWAP6 SWAP5 SWAP4 SWAP3 SWAP2 SWAP1 PUSH2 0x2542 JUMP JUMPDEST PUSH1 0x20 PUSH1 0x40 MLOAD DUP1 DUP4 SUB DUP2 PUSH1 0x0 DUP8 GAS CALL ISZERO DUP1 ISZERO PUSH2 0x1933 JUMPI RETURNDATASIZE PUSH1 0x0 DUP1 RETURNDATACOPY RETURNDATASIZE PUSH1 0x0 REVERT JUMPDEST POP POP POP POP PUSH1 0x40 MLOAD RETURNDATASIZE PUSH1 0x1F NOT PUSH1 0x1F DUP3 ADD AND DUP3 ADD DUP1 PUSH1 0x40 MSTORE POP DUP2 ADD SWAP1 PUSH2 0x1957 SWAP2 SWAP1 PUSH2 0x1FE8 JUMP JUMPDEST SWAP2 POP POP SWAP5 SWAP4 POP POP POP POP JUMP JUMPDEST PUSH1 0x0 DUP1 REVERT JUMPDEST PUSH1 0x0 PUSH20 0xFFFFFFFFFFFFFFFFFFFFFFFFFFFFFFFFFFFFFFFF DUP3 AND SWAP1 POP SWAP2 SWAP1 POP JUMP JUMPDEST PUSH1 0x0 PUSH2 0x1992 DUP3 PUSH2 0x1967 JUMP JUMPDEST SWAP1 POP SWAP2 SWAP1 POP JUMP JUMPDEST PUSH2 0x19A2 DUP2 PUSH2 0x1987 JUMP JUMPDEST DUP2 EQ PUSH2 0x19AD JUMPI PUSH1 0x0 DUP1 REVERT JUMPDEST POP JUMP JUMPDEST PUSH1 0x0 DUP2 CALLDATALOAD SWAP1 POP PUSH2 0x19BF DUP2 PUSH2 0x1999 JUMP JUMPDEST SWAP3 SWAP2 POP POP JUMP JUMPDEST PUSH1 0x0 DUP2 SWAP1 POP SWAP2 SWAP1 POP JUMP JUMPDEST PUSH2 0x19D8 DUP2 PUSH2 0x19C5 JUMP JUMPDEST DUP2 EQ PUSH2 0x19E3 JUMPI PUSH1 0x0 DUP1 REVERT JUMPDEST POP JUMP JUMPDEST PUSH1 0x0 DUP2 CALLDATALOAD SWAP1 POP PUSH2 0x19F5 DUP2 PUSH2 0x19CF JUMP JUMPDEST SWAP3 SWAP2 POP POP JUMP JUMPDEST PUSH1 0x0 DUP1 PUSH1 0x40 DUP4 DUP6 SUB SLT ISZERO PUSH2 0x1A12 JUMPI PUSH2 0x1A11 PUSH2 0x1962 JUMP JUMPDEST JUMPDEST PUSH1 0x0 PUSH2 0x1A20 DUP6 DUP3 DUP7 ADD PUSH2 0x19B0 JUMP JUMPDEST SWAP3 POP POP PUSH1 0x20 PUSH2 0x1A31 DUP6 DUP3 DUP7 ADD PUSH2 0x19E6 JUMP JUMPDEST SWAP2 POP POP SWAP3 POP SWAP3 SWAP1 POP JUMP JUMPDEST PUSH2 0x1A44 DUP2 PUSH2 0x19C5 JUMP JUMPDEST DUP3 MSTORE POP POP JUMP JUMPDEST PUSH1 0x0 PUSH1 0x20 DUP3 ADD SWAP1 POP PUSH2 0x1A5F PUSH1 0x0 DUP4 ADD DUP5 PUSH2 0x1A3B JUMP JUMPDEST SWAP3 SWAP2 POP POP JUMP JUMPDEST PUSH1 0x0 DUP2 SWAP1 POP SWAP2 SWAP1 POP JUMP JUMPDEST PUSH2 0x1A78 DUP2 PUSH2 0x1A65 JUMP JUMPDEST DUP3 MSTORE POP POP JUMP JUMPDEST PUSH1 0x0 PUSH1 0x20 DUP3 ADD SWAP1 POP PUSH2 0x1A93 PUSH1 0x0 DUP4 ADD DUP5 PUSH2 0x1A6F JUMP JUMPDEST SWAP3 SWAP2 POP POP JUMP JUMPDEST PUSH2 0x1AA2 DUP2 PUSH2 0x1987 JUMP JUMPDEST DUP3 MSTORE POP POP JUMP JUMPDEST PUSH1 0x0 PUSH1 0x20 DUP3 ADD SWAP1 POP PUSH2 0x1ABD PUSH1 0x0 DUP4 ADD DUP5 PUSH2 0x1A99 JUMP JUMPDEST SWAP3 SWAP2 POP POP JUMP JUMPDEST PUSH1 0x0 PUSH1 0x20 DUP3 DUP5 SUB SLT ISZERO PUSH2 0x1AD9 JUMPI PUSH2 0x1AD8 PUSH2 0x1962 JUMP JUMPDEST JUMPDEST PUSH1 0x0 PUSH2 0x1AE7 DUP5 DUP3 DUP6 ADD PUSH2 0x19E6 JUMP JUMPDEST SWAP2 POP POP SWAP3 SWAP2 POP POP JUMP JUMPDEST PUSH1 0x0 DUP2 ISZERO ISZERO SWAP1 POP SWAP2 SWAP1 POP JUMP JUMPDEST PUSH2 0x1B05 DUP2 PUSH2 0x1AF0 JUMP JUMPDEST DUP2 EQ PUSH2 0x1B10 JUMPI PUSH1 0x0 DUP1 REVERT JUMPDEST POP JUMP JUMPDEST PUSH1 0x0 DUP2 CALLDATALOAD SWAP1 POP PUSH2 0x1B22 DUP2 PUSH2 0x1AFC JUMP JUMPDEST SWAP3 SWAP2 POP POP JUMP JUMPDEST PUSH1 0x0 DUP1 PUSH1 0x0 PUSH1 0x60 DUP5 DUP7 SUB SLT ISZERO PUSH2 0x1B41 JUMPI PUSH2 0x1B40 PUSH2 0x1962 JUMP JUMPDEST JUMPDEST PUSH1 0x0 PUSH2 0x1B4F DUP7 DUP3 DUP8 ADD PUSH2 0x19E6 JUMP JUMPDEST SWAP4 POP POP PUSH1 0x20 PUSH2 0x1B60 DUP7 DUP3 DUP8 ADD PUSH2 0x19E6 JUMP JUMPDEST SWAP3 POP POP PUSH1 0x40 PUSH2 0x1B71 DUP7 DUP3 DUP8 ADD PUSH2 0x1B13 JUMP JUMPDEST SWAP2 POP POP SWAP3 POP SWAP3 POP SWAP3 JUMP JUMPDEST PUSH1 0x0 DUP2 SWAP1 POP SWAP2 SWAP1 POP JUMP JUMPDEST PUSH1 0x0 PUSH2 0x1BA0 PUSH2 0x1B9B PUSH2 0x1B96 DUP5 PUSH2 0x1967 JUMP JUMPDEST PUSH2 0x1B7B JUMP JUMPDEST PUSH2 0x1967 JUMP JUMPDEST SWAP1 POP SWAP2 SWAP1 POP JUMP JUMPDEST PUSH1 0x0 PUSH2 0x1BB2 DUP3 PUSH2 0x1B85 JUMP JUMPDEST SWAP1 POP SWAP2 SWAP1 POP JUMP JUMPDEST PUSH1 0x0 PUSH2 0x1BC4 DUP3 PUSH2 0x1BA7 JUMP JUMPDEST SWAP1 POP SWAP2 SWAP1 POP JUMP JUMPDEST PUSH2 0x1BD4 DUP2 PUSH2 0x1BB9 JUMP JUMPDEST DUP3 MSTORE POP POP JUMP JUMPDEST PUSH1 0x0 PUSH1 0x20 DUP3 ADD SWAP1 POP PUSH2 0x1BEF PUSH1 0x0 DUP4 ADD DUP5 PUSH2 0x1BCB JUMP JUMPDEST SWAP3 SWAP2 POP POP JUMP JUMPDEST PUSH1 0x0 PUSH2 0x1C00 DUP3 PUSH2 0x1BA7 JUMP JUMPDEST SWAP1 POP SWAP2 SWAP1 POP JUMP JUMPDEST PUSH2 0x1C10 DUP2 PUSH2 0x1BF5 JUMP JUMPDEST DUP3 MSTORE POP POP JUMP JUMPDEST PUSH1 0x0 PUSH1 0x20 DUP3 ADD SWAP1 POP PUSH2 0x1C2B PUSH1 0x0 DUP4 ADD DUP5 PUSH2 0x1C07 JUMP JUMPDEST SWAP3 SWAP2 POP POP JUMP JUMPDEST PUSH1 0x0 PUSH1 0x20 DUP3 DUP5 SUB SLT ISZERO PUSH2 0x1C47 JUMPI PUSH2 0x1C46 PUSH2 0x1962 JUMP JUMPDEST JUMPDEST PUSH1 0x0 PUSH2 0x1C55 DUP5 DUP3 DUP6 ADD PUSH2 0x19B0 JUMP JUMPDEST SWAP2 POP POP SWAP3 SWAP2 POP POP JUMP JUMPDEST PUSH1 0x0 DUP2 MLOAD SWAP1 POP SWAP2 SWAP1 POP JUMP JUMPDEST PUSH1 0x0 DUP3 DUP3 MSTORE PUSH1 0x20 DUP3 ADD SWAP1 POP SWAP3 SWAP2 POP POP JUMP JUMPDEST PUSH1 0x0 DUP2 SWAP1 POP PUSH1 0x20 DUP3 ADD SWAP1 POP SWAP2 SWAP1 POP JUMP JUMPDEST PUSH2 0x1C93 DUP2 PUSH2 0x1987 JUMP JUMPDEST DUP3 MSTORE POP POP JUMP JUMPDEST PUSH2 0x1CA2 DUP2 PUSH2 0x19C5 JUMP JUMPDEST DUP3 MSTORE POP POP JUMP JUMPDEST PUSH2 0x1CB1 DUP2 PUSH2 0x1AF0 JUMP JUMPDEST DUP3 MSTORE POP POP JUMP JUMPDEST PUSH2 0x140 DUP3 ADD PUSH1 0x0 DUP3 ADD MLOAD PUSH2 0x1CCE PUSH1 0x0 DUP6 ADD DUP3 PUSH2 0x1C8A JUMP JUMPDEST POP PUSH1 0x20 DUP3 ADD MLOAD PUSH2 0x1CE1 PUSH1 0x20 DUP6 ADD DUP3 PUSH2 0x1C99 JUMP JUMPDEST POP PUSH1 0x40 DUP3 ADD MLOAD PUSH2 0x1CF4 PUSH1 0x40 DUP6 ADD DUP3 PUSH2 0x1C99 JUMP JUMPDEST POP PUSH1 0x60 DUP3 ADD MLOAD PUSH2 0x1D07 PUSH1 0x60 DUP6 ADD DUP3 PUSH2 0x1C99 JUMP JUMPDEST POP PUSH1 0x80 DUP3 ADD MLOAD PUSH2 0x1D1A PUSH1 0x80 DUP6 ADD DUP3 PUSH2 0x1C99 JUMP JUMPDEST POP PUSH1 0xA0 DUP3 ADD MLOAD PUSH2 0x1D2D PUSH1 0xA0 DUP6 ADD DUP3 PUSH2 0x1C99 JUMP JUMPDEST POP PUSH1 0xC0 DUP3 ADD MLOAD PUSH2 0x1D40 PUSH1 0xC0 DUP6 ADD DUP3 PUSH2 0x1C99 JUMP JUMPDEST POP PUSH1 0xE0 DUP3 ADD MLOAD PUSH2 0x1D53 PUSH1 0xE0 DUP6 ADD DUP3 PUSH2 0x1C99 JUMP JUMPDEST POP PUSH2 0x100 DUP3 ADD MLOAD PUSH2 0x1D68 PUSH2 0x100 DUP6 ADD DUP3 PUSH2 0x1CA8 JUMP JUMPDEST POP PUSH2 0x120 DUP3 ADD MLOAD PUSH2 0x1D7D PUSH2 0x120 DUP6 ADD DUP3 PUSH2 0x1CA8 JUMP JUMPDEST POP POP POP POP JUMP JUMPDEST PUSH1 0x0 PUSH2 0x1D8F DUP4 DUP4 PUSH2 0x1CB7 JUMP JUMPDEST PUSH2 0x140 DUP4 ADD SWAP1 POP SWAP3 SWAP2 POP POP JUMP JUMPDEST PUSH1 0x0 PUSH1 0x20 DUP3 ADD SWAP1 POP SWAP2 SWAP1 POP JUMP JUMPDEST PUSH1 0x0 PUSH2 0x1DB4 DUP3 PUSH2 0x1C5E JUMP JUMPDEST PUSH2 0x1DBE DUP2 DUP6 PUSH2 0x1C69 JUMP JUMPDEST SWAP4 POP PUSH2 0x1DC9 DUP4 PUSH2 0x1C7A JUMP JUMPDEST DUP1 PUSH1 0x0 JUMPDEST DUP4 DUP2 LT ISZERO PUSH2 0x1DFA JUMPI DUP2 MLOAD PUSH2 0x1DE1 DUP9 DUP3 PUSH2 0x1D83 JUMP JUMPDEST SWAP8 POP PUSH2 0x1DEC DUP4 PUSH2 0x1D9C JUMP JUMPDEST SWAP3 POP POP PUSH1 0x1 DUP2 ADD SWAP1 POP PUSH2 0x1DCD JUMP JUMPDEST POP DUP6 SWAP4 POP POP POP POP SWAP3 SWAP2 POP POP JUMP JUMPDEST PUSH1 0x0 PUSH1 0x20 DUP3 ADD SWAP1 POP DUP2 DUP2 SUB PUSH1 0x0 DUP4 ADD MSTORE PUSH2 0x1E21 DUP2 DUP5 PUSH2 0x1DA9 JUMP JUMPDEST SWAP1 POP SWAP3 SWAP2 POP POP JUMP JUMPDEST PUSH2 0x1E32 DUP2 PUSH2 0x1AF0 JUMP JUMPDEST DUP3 MSTORE POP POP JUMP JUMPDEST PUSH1 0x0 PUSH2 0x140 DUP3 ADD SWAP1 POP PUSH2 0x1E4E PUSH1 0x0 DUP4 ADD DUP14 PUSH2 0x1A99 JUMP JUMPDEST PUSH2 0x1E5B PUSH1 0x20 DUP4 ADD DUP13 PUSH2 0x1A3B JUMP JUMPDEST PUSH2 0x1E68 PUSH1 0x40 DUP4 ADD DUP12 PUSH2 0x1A3B JUMP JUMPDEST PUSH2 0x1E75 PUSH1 0x60 DUP4 ADD DUP11 PUSH2 0x1A3B JUMP JUMPDEST PUSH2 0x1E82 PUSH1 0x80 DUP4 ADD DUP10 PUSH2 0x1A3B JUMP JUMPDEST PUSH2 0x1E8F PUSH1 0xA0 DUP4 ADD DUP9 PUSH2 0x1A3B JUMP JUMPDEST PUSH2 0x1E9C PUSH1 0xC0 DUP4 ADD DUP8 PUSH2 0x1A3B JUMP JUMPDEST PUSH2 0x1EA9 PUSH1 0xE0 DUP4 ADD DUP7 PUSH2 0x1A3B JUMP JUMPDEST PUSH2 0x1EB7 PUSH2 0x100 DUP4 ADD DUP6 PUSH2 0x1E29 JUMP JUMPDEST PUSH2 0x1EC5 PUSH2 0x120 DUP4 ADD DUP5 PUSH2 0x1E29 JUMP JUMPDEST SWAP12 SWAP11 POP POP POP POP POP POP POP POP POP POP POP JUMP JUMPDEST PUSH1 0x0 DUP3 DUP3 MSTORE PUSH1 0x20 DUP3 ADD SWAP1 POP SWAP3 SWAP2 POP POP JUMP JUMPDEST PUSH32 0x496E76616C696420706967677920696E64657800000000000000000000000000 PUSH1 0x0 DUP3 ADD MSTORE POP JUMP JUMPDEST PUSH1 0x0 PUSH2 0x1F1B PUSH1 0x13 DUP4 PUSH2 0x1ED4 JUMP JUMPDEST SWAP2 POP PUSH2 0x1F26 DUP3 PUSH2 0x1EE5 JUMP JUMPDEST PUSH1 0x20 DUP3 ADD SWAP1 POP SWAP2 SWAP1 POP JUMP JUMPDEST PUSH1 0x0 PUSH1 0x20 DUP3 ADD SWAP1 POP DUP2 DUP2 SUB PUSH1 0x0 DUP4 ADD MSTORE PUSH2 0x1F4A DUP2 PUSH2 0x1F0E JUMP JUMPDEST SWAP1 POP SWAP2 SWAP1 POP JUMP JUMPDEST PUSH32 0x4E487B7100000000000000000000000000000000000000000000000000000000 PUSH1 0x0 MSTORE PUSH1 0x32 PUSH1 0x4 MSTORE PUSH1 0x24 PUSH1 0x0 REVERT JUMPDEST PUSH1 0x0 PUSH1 0xA0 DUP3 ADD SWAP1 POP PUSH2 0x1F95 PUSH1 0x0 DUP4 ADD DUP9 PUSH2 0x1A99 JUMP JUMPDEST PUSH2 0x1FA2 PUSH1 0x20 DUP4 ADD DUP8 PUSH2 0x1A6F JUMP JUMPDEST PUSH2 0x1FAF PUSH1 0x40 DUP4 ADD DUP7 PUSH2 0x1A99 JUMP JUMPDEST PUSH2 0x1FBC PUSH1 0x60 DUP4 ADD DUP6 PUSH2 0x1A99 JUMP JUMPDEST PUSH2 0x1FC9 PUSH1 0x80 DUP4 ADD DUP5 PUSH2 0x1A3B JUMP JUMPDEST SWAP7 SWAP6 POP POP POP POP POP POP JUMP JUMPDEST PUSH1 0x0 DUP2 MLOAD SWAP1 POP PUSH2 0x1FE2 DUP2 PUSH2 0x19CF JUMP JUMPDEST SWAP3 SWAP2 POP POP JUMP JUMPDEST PUSH1 0x0 PUSH1 0x20 DUP3 DUP5 SUB SLT ISZERO PUSH2 0x1FFE JUMPI PUSH2 0x1FFD PUSH2 0x1962 JUMP JUMPDEST JUMPDEST PUSH1 0x0 PUSH2 0x200C DUP5 DUP3 DUP6 ADD PUSH2 0x1FD3 JUMP JUMPDEST SWAP2 POP POP SWAP3 SWAP2 POP POP JUMP JUMPDEST PUSH32 0x4E487B7100000000000000000000000000000000000000000000000000000000 PUSH1 0x0 MSTORE PUSH1 0x11 PUSH1 0x4 MSTORE PUSH1 0x24 PUSH1 0x0 REVERT JUMPDEST PUSH1 0x0 PUSH2 0x204F DUP3 PUSH2 0x19C5 JUMP JUMPDEST SWAP2 POP PUSH2 0x205A DUP4 PUSH2 0x19C5 JUMP JUMPDEST SWAP3 POP DUP3 DUP3 ADD SWAP1 POP DUP1 DUP3 GT ISZERO PUSH2 0x2072 JUMPI PUSH2 0x2071 PUSH2 0x2015 JUMP JUMPDEST JUMPDEST SWAP3 SWAP2 POP POP JUMP JUMPDEST PUSH32 0x416C726561647920636C61696D65640000000000000000000000000000000000 PUSH1 0x0 DUP3 ADD MSTORE POP JUMP JUMPDEST PUSH1 0x0 PUSH2 0x20AE PUSH1 0xF DUP4 PUSH2 0x1ED4 JUMP JUMPDEST SWAP2 POP PUSH2 0x20B9 DUP3 PUSH2 0x2078 JUMP JUMPDEST PUSH1 0x20 DUP3 ADD SWAP1 POP SWAP2 SWAP1 POP JUMP JUMPDEST PUSH1 0x0 PUSH1 0x20 DUP3 ADD SWAP1 POP DUP2 DUP2 SUB PUSH1 0x0 DUP4 ADD MSTORE PUSH2 0x20DD DUP2 PUSH2 0x20A1 JUMP JUMPDEST SWAP1 POP SWAP2 SWAP1 POP JUMP JUMPDEST PUSH32 0x4C6F636B206E6F7420656E646564000000000000000000000000000000000000 PUSH1 0x0 DUP3 ADD MSTORE POP JUMP JUMPDEST PUSH1 0x0 PUSH2 0x211A PUSH1 0xE DUP4 PUSH2 0x1ED4 JUMP JUMPDEST SWAP2 POP PUSH2 0x2125 DUP3 PUSH2 0x20E4 JUMP JUMPDEST PUSH1 0x20 DUP3 ADD SWAP1 POP SWAP2 SWAP1 POP JUMP JUMPDEST PUSH1 0x0 PUSH1 0x20 DUP3 ADD SWAP1 POP DUP2 DUP2 SUB PUSH1 0x0 DUP4 ADD MSTORE PUSH2 0x2149 DUP2 PUSH2 0x210D JUMP JUMPDEST SWAP1 POP SWAP2 SWAP1 POP JUMP JUMPDEST PUSH1 0x0 PUSH2 0x215B DUP3 PUSH2 0x19C5 JUMP JUMPDEST SWAP2 POP PUSH2 0x2166 DUP4 PUSH2 0x19C5 JUMP JUMPDEST SWAP3 POP DUP3 DUP3 SUB SWAP1 POP DUP2 DUP2 GT ISZERO PUSH2 0x217E JUMPI PUSH2 0x217D PUSH2 0x2015 JUMP JUMPDEST JUMPDEST SWAP3 SWAP2 POP POP JUMP JUMPDEST PUSH1 0x0 PUSH2 0x218F DUP3 PUSH2 0x19C5 JUMP JUMPDEST SWAP2 POP PUSH2 0x219A DUP4 PUSH2 0x19C5 JUMP JUMPDEST SWAP3 POP DUP3 DUP3 MUL PUSH2 0x21A8 DUP2 PUSH2 0x19C5 JUMP JUMPDEST SWAP2 POP DUP3 DUP3 DIV DUP5 EQ DUP4 ISZERO OR PUSH2 0x21BF JUMPI PUSH2 0x21BE PUSH2 0x2015 JUMP JUMPDEST JUMPDEST POP SWAP3 SWAP2 POP POP JUMP JUMPDEST PUSH32 0x4E487B7100000000000000000000000000000000000000000000000000000000 PUSH1 0x0 MSTORE PUSH1 0x12 PUSH1 0x4 MSTORE PUSH1 0x24 PUSH1 0x0 REVERT JUMPDEST PUSH1 0x0 PUSH2 0x2200 DUP3 PUSH2 0x19C5 JUMP JUMPDEST SWAP2 POP PUSH2 0x220B DUP4 PUSH2 0x19C5 JUMP JUMPDEST SWAP3 POP DUP3 PUSH2 0x221B JUMPI PUSH2 0x221A PUSH2 0x21C6 JUMP JUMPDEST JUMPDEST DUP3 DUP3 DIV SWAP1 POP SWAP3 SWAP2 POP POP JUMP JUMPDEST PUSH1 0x0 PUSH1 0x40 DUP3 ADD SWAP1 POP PUSH2 0x223B PUSH1 0x0 DUP4 ADD DUP6 PUSH2 0x1A99 JUMP JUMPDEST PUSH2 0x2248 PUSH1 0x20 DUP4 ADD DUP5 PUSH2 0x1A3B JUMP JUMPDEST SWAP4 SWAP3 POP POP POP JUMP JUMPDEST PUSH1 0x0 DUP2 MLOAD SWAP1 POP PUSH2 0x225E DUP2 PUSH2 0x1AFC JUMP JUMPDEST SWAP3 SWAP2 POP POP JUMP JUMPDEST PUSH1 0x0 PUSH1 0x20 DUP3 DUP5 SUB SLT ISZERO PUSH2 0x227A JUMPI PUSH2 0x2279 PUSH2 0x1962 JUMP JUMPDEST JUMPDEST PUSH1 0x0 PUSH2 0x2288 DUP5 DUP3 DUP6 ADD PUSH2 0x224F JUMP JUMPDEST SWAP2 POP POP SWAP3 SWAP2 POP POP JUMP JUMPDEST PUSH1 0x0 PUSH1 0x60 DUP3 ADD SWAP1 POP PUSH2 0x22A6 PUSH1 0x0 DUP4 ADD DUP7 PUSH2 0x1A3B JUMP JUMPDEST PUSH2 0x22B3 PUSH1 0x20 DUP4 ADD DUP6 PUSH2 0x1A3B JUMP JUMPDEST PUSH2 0x22C0 PUSH1 0x40 DUP4 ADD DUP5 PUSH2 0x1A3B JUMP JUMPDEST SWAP5 SWAP4 POP POP POP POP JUMP JUMPDEST PUSH32 0x416D6F756E74206D75737420626520706F736974697665000000000000000000 PUSH1 0x0 DUP3 ADD MSTORE POP JUMP JUMPDEST PUSH1 0x0 PUSH2 0x22FE PUSH1 0x17 DUP4 PUSH2 0x1ED4 JUMP JUMPDEST SWAP2 POP PUSH2 0x2309 DUP3 PUSH2 0x22C8 JUMP JUMPDEST PUSH1 0x20 DUP3 ADD SWAP1 POP SWAP2 SWAP1 POP JUMP JUMPDEST PUSH1 0x0 PUSH1 0x20 DUP3 ADD SWAP1 POP DUP2 DUP2 SUB PUSH1 0x0 DUP4 ADD MSTORE PUSH2 0x232D DUP2 PUSH2 0x22F1 JUMP JUMPDEST SWAP1 POP SWAP2 SWAP1 POP JUMP JUMPDEST PUSH32 0x4475726174696F6E206D75737420626520706F73697469766500000000000000 PUSH1 0x0 DUP3 ADD MSTORE POP JUMP JUMPDEST PUSH1 0x0 PUSH2 0x236A PUSH1 0x19 DUP4 PUSH2 0x1ED4 JUMP JUMPDEST SWAP2 POP PUSH2 0x2375 DUP3 PUSH2 0x2334 JUMP JUMPDEST PUSH1 0x20 DUP3 ADD SWAP1 POP SWAP2 SWAP1 POP JUMP JUMPDEST PUSH1 0x0 PUSH1 0x20 DUP3 ADD SWAP1 POP DUP2 DUP2 SUB PUSH1 0x0 DUP4 ADD MSTORE PUSH2 0x2399 DUP2 PUSH2 0x235D JUMP JUMPDEST SWAP1 POP SWAP2 SWAP1 POP JUMP JUMPDEST PUSH1 0x0 PUSH1 0x40 DUP3 ADD SWAP1 POP PUSH2 0x23B5 PUSH1 0x0 DUP4 ADD DUP6 PUSH2 0x1A3B JUMP JUMPDEST PUSH2 0x23C2 PUSH1 0x20 DUP4 ADD DUP5 PUSH2 0x1E29 JUMP JUMPDEST SWAP4 SWAP3 POP POP POP JUMP JUMPDEST PUSH1 0x0 DUP1 PUSH1 0x0 DUP1 PUSH1 0x80 DUP6 DUP8 SUB SLT ISZERO PUSH2 0x23E3 JUMPI PUSH2 0x23E2 PUSH2 0x1962 JUMP JUMPDEST JUMPDEST PUSH1 0x0 PUSH2 0x23F1 DUP8 DUP3 DUP9 ADD PUSH2 0x1FD3 JUMP JUMPDEST SWAP5 POP POP PUSH1 0x20 PUSH2 0x2402 DUP8 DUP3 DUP9 ADD PUSH2 0x1FD3 JUMP JUMPDEST SWAP4 POP POP PUSH1 0x40 PUSH2 0x2413 DUP8 DUP3 DUP9 ADD PUSH2 0x1FD3 JUMP JUMPDEST SWAP3 POP POP PUSH1 0x60 PUSH2 0x2424 DUP8 DUP3 DUP9 ADD PUSH2 0x1FD3 JUMP JUMPDEST SWAP2 POP POP SWAP3 SWAP6 SWAP2 SWAP5 POP SWAP3 POP JUMP JUMPDEST PUSH1 0x0 PUSH1 0x60 DUP3 ADD SWAP1 POP PUSH2 0x2445 PUSH1 0x0 DUP4 ADD DUP7 PUSH2 0x1A99 JUMP JUMPDEST PUSH2 0x2452 PUSH1 0x20 DUP4 ADD DUP6 PUSH2 0x1A99 JUMP JUMPDEST PUSH2 0x245F PUSH1 0x40 DUP4 ADD DUP5 PUSH2 0x1A3B JUMP JUMPDEST SWAP5 SWAP4 POP POP POP POP JUMP JUMPDEST PUSH1 0x0 PUSH1 0xE0 DUP3 ADD SWAP1 POP PUSH2 0x247C PUSH1 0x0 DUP4 ADD DUP11 PUSH2 0x1A3B JUMP JUMPDEST PUSH2 0x2489 PUSH1 0x20 DUP4 ADD DUP10 PUSH2 0x1A3B JUMP JUMPDEST PUSH2 0x2496 PUSH1 0x40 DUP4 ADD DUP9 PUSH2 0x1E29 JUMP JUMPDEST PUSH2 0x24A3 PUSH1 0x60 DUP4 ADD DUP8 PUSH2 0x1A3B JUMP JUMPDEST PUSH2 0x24B0 PUSH1 0x80 DUP4 ADD DUP7 PUSH2 0x1A3B JUMP JUMPDEST PUSH2 0x24BD PUSH1 0xA0 DUP4 ADD DUP6 PUSH2 0x1A3B JUMP JUMPDEST PUSH2 0x24CA PUSH1 0xC0 DUP4 ADD DUP5 PUSH2 0x1A3B JUMP JUMPDEST SWAP9 SWAP8 POP POP POP POP POP POP POP POP JUMP JUMPDEST PUSH32 0x4D656E746F3A20496E73756666696369656E74206F7574707574000000000000 PUSH1 0x0 DUP3 ADD MSTORE POP JUMP JUMPDEST PUSH1 0x0 PUSH2 0x250C PUSH1 0x1A DUP4 PUSH2 0x1ED4 JUMP JUMPDEST SWAP2 POP PUSH2 0x2517 DUP3 PUSH2 0x24D6 JUMP JUMPDEST PUSH1 0x20 DUP3 ADD SWAP1 POP SWAP2 SWAP1 POP JUMP JUMPDEST PUSH1 0x0 PUSH1 0x20 DUP3 ADD SWAP1 POP DUP2 DUP2 SUB PUSH1 0x0 DUP4 ADD MSTORE PUSH2 0x253B DUP2 PUSH2 0x24FF JUMP JUMPDEST SWAP1 POP SWAP2 SWAP1 POP JUMP JUMPDEST PUSH1 0x0 PUSH1 0xC0 DUP3 ADD SWAP1 POP PUSH2 0x2557 PUSH1 0x0 DUP4 ADD DUP10 PUSH2 0x1A99 JUMP JUMPDEST PUSH2 0x2564 PUSH1 0x20 DUP4 ADD DUP9 PUSH2 0x1A6F JUMP JUMPDEST PUSH2 0x2571 PUSH1 0x40 DUP4 ADD DUP8 PUSH2 0x1A99 JUMP JUMPDEST PUSH2 0x257E PUSH1 0x60 DUP4 ADD DUP7 PUSH2 0x1A99 JUMP JUMPDEST PUSH2 0x258B PUSH1 0x80 DUP4 ADD DUP6 PUSH2 0x1A3B JUMP JUMPDEST PUSH2 0x2598 PUSH1 0xA0 DUP4 ADD DUP5 PUSH2 0x1A3B JUMP JUMPDEST SWAP8 SWAP7 POP POP POP POP POP POP POP JUMP INVALID LOG2 PUSH5 0x6970667358 0x22 SLT KECCAK256 0x26 DUP6 0xC SWAP2 AND 0xAD BASEFEE EXTCODESIZE 0x2F DIV 0xA7 0xC3 DUP13 DUP5 CALLDATALOAD 0xC PUSH24 0xEFD2815AC2A8172B9C207628FF98E64736F6C6343000814 STOP CALLER "},"methodIdentifiers":{"cCOP()":"e7330627","cEUR()":"7d1f2de7","cGBP()":"63f68d5d","cUSD()":"1fccf672","claim(uint256)":"379607f5","deposit(uint256,uint256,bool)":"43a0d066","developer()":"ca4b208b","exchangeId_cCOP_cUSD()":"2a063b97","exchangeId_cUSD_cEUR()":"eff8ff0c","exchangeId_cUSD_cGBP()":"13178c3f","exchangeProvider()":"9efe1cd2","getPiggyValue(address,uint256)":"08dae84d","getUserPiggies(address)":"a5c7343c","iMentoBroker()":"537514a2","mentoOracle()":"591b0014","piggies(address,uint256)":"d5238192"}}}}}