{"contracts/MentoOracleHandler.sol":{"MentoOracleHandler":{"abi":[{"inputs":[{"internalType":"uint256","name":"totalAmount","type":"uint256"},{"internalType":"bool","name":"isSafeMode","type":"bool"}],"name":"getSuggestedAllocation","outputs":[{"internalType":"uint256","name":"cCOPToKeep","type":"uint256"},{"internalType":"uint256","name":"cCOPForUSD","type":"uint256"},{"internalType":"uint256","name":"cCOPForEUR","type":"uint256"}],"stateMutability":"pure","type":"function"}],"evm":{"bytecode":{"linkReferences":{},"object":"608060405234801561001057600080fd5b5061042c806100206000396000f3fe608060405234801561001057600080fd5b506004361061002b5760003560e01c8063b4f35d5514610030575b600080fd5b61004a600480360381019061004591906101ba565b610062565b60405161005993929190610209565b60405180910390f35b60008060008085116100a9576040517f08c379a00000000000000000000000000000000000000000000000000000000081526004016100a09061029d565b60405180910390fd5b83156100ea5760646032866100be91906102ec565b6100c8919061035d565b92506064601e866100d991906102ec565b6100e3919061035d565b9150610121565b6064601e866100f991906102ec565b610103919061035d565b9250606460288661011491906102ec565b61011e919061035d565b91505b6000828461012f919061038e565b9050808661013d91906103c2565b9150509250925092565b600080fd5b6000819050919050565b61015f8161014c565b811461016a57600080fd5b50565b60008135905061017c81610156565b92915050565b60008115159050919050565b61019781610182565b81146101a257600080fd5b50565b6000813590506101b48161018e565b92915050565b600080604083850312156101d1576101d0610147565b5b60006101df8582860161016d565b92505060206101f0858286016101a5565b9150509250929050565b6102038161014c565b82525050565b600060608201905061021e60008301866101fa565b61022b60208301856101fa565b61023860408301846101fa565b949350505050565b600082825260208201905092915050565b7f546f74616c20616d6f756e74206d75737420626520706f736974697665000000600082015250565b6000610287601d83610240565b915061029282610251565b602082019050919050565b600060208201905081810360008301526102b68161027a565b9050919050565b7f4e487b7100000000000000000000000000000000000000000000000000000000600052601160045260246000fd5b60006102f78261014c565b91506103028361014c565b92508282026103108161014c565b91508282048414831517610327576103266102bd565b5b5092915050565b7f4e487b7100000000000000000000000000000000000000000000000000000000600052601260045260246000fd5b60006103688261014c565b91506103738361014c565b9250826103835761038261032e565b5b828204905092915050565b60006103998261014c565b91506103a48361014c565b92508282019050808211156103bc576103bb6102bd565b5b92915050565b60006103cd8261014c565b91506103d88361014c565b92508282039050818111156103f0576103ef6102bd565b5b9291505056fea26469706673582212200ae447b266ad1eb01cd585a0fab47b013d439a63de0fd45acc5b32bb1b2f705c64736f6c63430008140033","opcodes":"PUSH1 0x80 PUSH1 0x40 MSTORE CALLVALUE DUP1 ISZERO PUSH2 0x10 JUMPI PUSH1 0x0 DUP1 REVERT JUMPDEST POP PUSH2 0x42C DUP1 PUSH2 0x20 PUSH1 0x0 CODECOPY PUSH1 0x0 RETURN INVALID PUSH1 0x80 PUSH1 0x40 MSTORE CALLVALUE DUP1 ISZERO PUSH2 0x10 JUMPI PUSH1 0x0 DUP1 REVERT JUMPDEST POP PUSH1 0x4 CALLDATASIZE LT PUSH2 0x2B JUMPI PUSH1 0x0 CALLDATALOAD PUSH1 0xE0 SHR DUP1 PUSH4 0xB4F35D55 EQ PUSH2 0x30 JUMPI JUMPDEST PUSH1 0x0 DUP1 REVERT JUMPDEST PUSH2 0x4A PUSH1 0x4 DUP1 CALLDATASIZE SUB DUP2 ADD SWAP1 PUSH2 0x45 SWAP2 SWAP1 PUSH2 0x1BA JUMP JUMPDEST PUSH2 0x62 JUMP JUMPDEST PUSH1 0x40 MLOAD PUSH2 0x59 SWAP4 SWAP3 SWAP2 SWAP1 PUSH2 0x209 JUMP JUMPDEST PUSH1 0x40 MLOAD DUP1 SWAP2 SUB SWAP1 RETURN JUMPDEST PUSH1 0x0 DUP1 PUSH1 0x0 DUP1 DUP6 GT PUSH2 0xA9 JUMPI PUSH1 0x40 MLOAD PUSH32 0x8C379A000000000000000000000000000000000000000000000000000000000 DUP2 MSTORE PUSH1 0x4 ADD PUSH2 0xA0 SWAP1 PUSH2 0x29D JUMP JUMPDEST PUSH1 0x40 MLOAD DUP1 SWAP2 SUB SWAP1 REVERT JUMPDEST DUP4 ISZERO PUSH2 0xEA JUMPI PUSH1 0x64 PUSH1 0x32 DUP7 PUSH2 0xBE SWAP2 SWAP1 PUSH2 0x2EC JUMP JUMPDEST PUSH2 0xC8 SWAP2 SWAP1 PUSH2 0x35D JUMP JUMPDEST SWAP3 POP PUSH1 0x64 PUSH1 0x1E DUP7 PUSH2 0xD9 SWAP2 SWAP1 PUSH2 0x2EC JUMP JUMPDEST PUSH2 0xE3 SWAP2 SWAP1 PUSH2 0x35D JUMP JUMPDEST SWAP2 POP PUSH2 0x121 JUMP JUMPDEST PUSH1 0x64 PUSH1 0x1E DUP7 PUSH2 0xF9 SWAP2 SWAP1 PUSH2 0x2EC JUMP JUMPDEST PUSH2 0x103 SWAP2 SWAP1 PUSH2 0x35D JUMP JUMPDEST SWAP3 POP PUSH1 0x64 PUSH1 0x28 DUP7 PUSH2 0x114 SWAP2 SWAP1 PUSH2 0x2EC JUMP JUMPDEST PUSH2 0x11E SWAP2 SWAP1 PUSH2 0x35D JUMP JUMPDEST SWAP2 POP JUMPDEST PUSH1 0x0 DUP3 DUP5 PUSH2 0x12F SWAP2 SWAP1 PUSH2 0x38E JUMP JUMPDEST SWAP1 POP DUP1 DUP7 PUSH2 0x13D SWAP2 SWAP1 PUSH2 0x3C2 JUMP JUMPDEST SWAP2 POP POP SWAP3 POP SWAP3 POP SWAP3 JUMP JUMPDEST PUSH1 0x0 DUP1 REVERT JUMPDEST PUSH1 0x0 DUP2 SWAP1 POP SWAP2 SWAP1 POP JUMP JUMPDEST PUSH2 0x15F DUP2 PUSH2 0x14C JUMP JUMPDEST DUP2 EQ PUSH2 0x16A JUMPI PUSH1 0x0 DUP1 REVERT JUMPDEST POP JUMP JUMPDEST PUSH1 0x0 DUP2 CALLDATALOAD SWAP1 POP PUSH2 0x17C DUP2 PUSH2 0x156 JUMP JUMPDEST SWAP3 SWAP2 POP POP JUMP JUMPDEST PUSH1 0x0 DUP2 ISZERO ISZERO SWAP1 POP SWAP2 SWAP1 POP JUMP JUMPDEST PUSH2 0x197 DUP2 PUSH2 0x182 JUMP JUMPDEST DUP2 EQ PUSH2 0x1A2 JUMPI PUSH1 0x0 DUP1 REVERT JUMPDEST POP JUMP JUMPDEST PUSH1 0x0 DUP2 CALLDATALOAD SWAP1 POP PUSH2 0x1B4 DUP2 PUSH2 0x18E JUMP JUMPDEST SWAP3 SWAP2 POP POP JUMP JUMPDEST PUSH1 0x0 DUP1 PUSH1 0x40 DUP4 DUP6 SUB SLT ISZERO PUSH2 0x1D1 JUMPI PUSH2 0x1D0 PUSH2 0x147 JUMP JUMPDEST JUMPDEST PUSH1 0x0 PUSH2 0x1DF DUP6 DUP3 DUP7 ADD PUSH2 0x16D JUMP JUMPDEST SWAP3 POP POP PUSH1 0x20 PUSH2 0x1F0 DUP6 DUP3 DUP7 ADD PUSH2 0x1A5 JUMP JUMPDEST SWAP2 POP POP SWAP3 POP SWAP3 SWAP1 POP JUMP JUMPDEST PUSH2 0x203 DUP2 PUSH2 0x14C JUMP JUMPDEST DUP3 MSTORE POP POP JUMP JUMPDEST PUSH1 0x0 PUSH1 0x60 DUP3 ADD SWAP1 POP PUSH2 0x21E PUSH1 0x0 DUP4 ADD DUP7 PUSH2 0x1FA JUMP JUMPDEST PUSH2 0x22B PUSH1 0x20 DUP4 ADD DUP6 PUSH2 0x1FA JUMP JUMPDEST PUSH2 0x238 PUSH1 0x40 DUP4 ADD DUP5 PUSH2 0x1FA JUMP JUMPDEST SWAP5 SWAP4 POP POP POP POP JUMP JUMPDEST PUSH1 0x0 DUP3 DUP3 MSTORE PUSH1 0x20 DUP3 ADD SWAP1 POP SWAP3 SWAP2 POP POP JUMP JUMPDEST PUSH32 0x546F74616C20616D6F756E74206D75737420626520706F736974697665000000 PUSH1 0x0 DUP3 ADD MSTORE POP JUMP JUMPDEST PUSH1 0x0 PUSH2 0x287 PUSH1 0x1D DUP4 PUSH2 0x240 JUMP JUMPDEST SWAP2 POP PUSH2 0x292 DUP3 PUSH2 0x251 JUMP JUMPDEST PUSH1 0x20 DUP3 ADD SWAP1 POP SWAP2 SWAP1 POP JUMP JUMPDEST PUSH1 0x0 PUSH1 0x20 DUP3 ADD SWAP1 POP DUP2 DUP2 SUB PUSH1 0x0 DUP4 ADD MSTORE PUSH2 0x2B6 DUP2 PUSH2 0x27A JUMP JUMPDEST SWAP1 POP SWAP2 SWAP1 POP JUMP JUMPDEST PUSH32 0x4E487B7100000000000000000000000000000000000000000000000000000000 PUSH1 0x0 MSTORE PUSH1 0x11 PUSH1 0x4 MSTORE PUSH1 0x24 PUSH1 0x0 REVERT JUMPDEST PUSH1 0x0 PUSH2 0x2F7 DUP3 PUSH2 0x14C JUMP JUMPDEST SWAP2 POP PUSH2 0x302 DUP4 PUSH2 0x14C JUMP JUMPDEST SWAP3 POP DUP3 DUP3 MUL PUSH2 0x310 DUP2 PUSH2 0x14C JUMP JUMPDEST SWAP2 POP DUP3 DUP3 DIV DUP5 EQ DUP4 ISZERO OR PUSH2 0x327 JUMPI PUSH2 0x326 PUSH2 0x2BD JUMP JUMPDEST JUMPDEST POP SWAP3 SWAP2 POP POP JUMP JUMPDEST PUSH32 0x4E487B7100000000000000000000000000000000000000000000000000000000 PUSH1 0x0 MSTORE PUSH1 0x12 PUSH1 0x4 MSTORE PUSH1 0x24 PUSH1 0x0 REVERT JUMPDEST PUSH1 0x0 PUSH2 0x368 DUP3 PUSH2 0x14C JUMP JUMPDEST SWAP2 POP PUSH2 0x373 DUP4 PUSH2 0x14C JUMP JUMPDEST SWAP3 POP DUP3 PUSH2 0x383 JUMPI PUSH2 0x382 PUSH2 0x32E JUMP JUMPDEST JUMPDEST DUP3 DUP3 DIV SWAP1 POP SWAP3 SWAP2 POP POP JUMP JUMPDEST PUSH1 0x0 PUSH2 0x399 DUP3 PUSH2 0x14C JUMP JUMPDEST SWAP2 POP PUSH2 0x3A4 DUP4 PUSH2 0x14C JUMP JUMPDEST SWAP3 POP DUP3 DUP3 ADD SWAP1 POP DUP1 DUP3 GT ISZERO PUSH2 0x3BC JUMPI PUSH2 0x3BB PUSH2 0x2BD JUMP JUMPDEST JUMPDEST SWAP3 SWAP2 POP POP JUMP JUMPDEST PUSH1 0x0 PUSH2 0x3CD DUP3 PUSH2 0x14C JUMP JUMPDEST SWAP2 POP PUSH2 0x3D8 DUP4 PUSH2 0x14C JUMP JUMPDEST SWAP3 POP DUP3 DUP3 SUB SWAP1 POP DUP2 DUP2 GT ISZERO PUSH2 0x3F0 JUMPI PUSH2 0x3EF PUSH2 0x2BD JUMP JUMPDEST JUMPDEST SWAP3 SWAP2 POP POP JUMP INVALID LOG2 PUSH5 0x6970667358 0x22 SLT KECCAK256 EXP 0xE4 SELFBALANCE 0xB2 PUSH7 0xAD1EB01CD585A0 STATICCALL 0xB4 PUSH28 0x13D439A63DE0FD45ACC5B32BB1B2F705C64736F6C63430008140033 "},"methodIdentifiers":{"getSuggestedAllocation(uint256,bool)":"b4f35d55"}}}}}