{"contracts/cPiggyBank.sol":{"PiggyBank":{"abi":[{"inputs":[{"internalType":"address","name":"_iMentoBroker","type":"address"},{"internalType":"address","name":"_mentoOracle","type":"address"},{"internalType":"address","name":"_exchangeProvider","type":"address"},{"internalType":"address","name":"_cCOP","type":"address"},{"internalType":"address","name":"_cUSD","type":"address"},{"internalType":"address","name":"_cEUR","type":"address"},{"internalType":"bytes32","name":"_exchangeId_cCOP_cUSD","type":"bytes32"},{"internalType":"bytes32","name":"_exchangeId_cUSD_cEUR","type":"bytes32"}],"stateMutability":"nonpayable","type":"constructor"},{"anonymous":false,"inputs":[{"indexed":true,"internalType":"address","name":"user","type":"address"},{"indexed":false,"internalType":"uint256","name":"index","type":"uint256"},{"indexed":false,"internalType":"uint256","name":"finalCCOPReturn","type":"uint256"}],"name":"PiggyClaimed","type":"event"},{"anonymous":false,"inputs":[{"indexed":true,"internalType":"address","name":"user","type":"address"},{"indexed":false,"internalType":"uint256","name":"totalAmount","type":"uint256"},{"indexed":false,"internalType":"uint256","name":"duration","type":"uint256"},{"indexed":false,"internalType":"bool","name":"safeMode","type":"bool"},{"indexed":false,"internalType":"uint256","name":"cCOPAmount","type":"uint256"},{"indexed":false,"internalType":"uint256","name":"cUSDAmountReceived","type":"uint256"},{"indexed":false,"internalType":"uint256","name":"cEURAmountReceived","type":"uint256"}],"name":"PiggyCreated","type":"event"},{"inputs":[],"name":"cCOP","outputs":[{"internalType":"address","name":"","type":"address"}],"stateMutability":"view","type":"function"},{"inputs":[],"name":"cEUR","outputs":[{"internalType":"address","name":"","type":"address"}],"stateMutability":"view","type":"function"},{"inputs":[],"name":"cUSD","outputs":[{"internalType":"address","name":"","type":"address"}],"stateMutability":"view","type":"function"},{"inputs":[{"internalType":"uint256","name":"_index","type":"uint256"}],"name":"claim","outputs":[],"stateMutability":"nonpayable","type":"function"},{"inputs":[{"internalType":"uint256","name":"amount","type":"uint256"},{"internalType":"uint256","name":"lockDays","type":"uint256"},{"internalType":"bool","name":"safeMode","type":"bool"}],"name":"deposit","outputs":[],"stateMutability":"nonpayable","type":"function"},{"inputs":[],"name":"exchangeId_cCOP_cUSD","outputs":[{"internalType":"bytes32","name":"","type":"bytes32"}],"stateMutability":"view","type":"function"},{"inputs":[],"name":"exchangeId_cUSD_cEUR","outputs":[{"internalType":"bytes32","name":"","type":"bytes32"}],"stateMutability":"view","type":"function"},{"inputs":[],"name":"exchangeProvider","outputs":[{"internalType":"address","name":"","type":"address"}],"stateMutability":"view","type":"function"},{"inputs":[{"internalType":"address","name":"_user","type":"address"},{"internalType":"uint256","name":"_index","type":"uint256"}],"name":"getPiggyValue","outputs":[{"internalType":"uint256","name":"","type":"uint256"}],"stateMutability":"view","type":"function"},{"inputs":[{"internalType":"address","name":"_user","type":"address"}],"name":"getUserPiggies","outputs":[{"components":[{"internalType":"address","name":"owner","type":"address"},{"internalType":"uint256","name":"cCOPAmount","type":"uint256"},{"internalType":"uint256","name":"cUSDAmount","type":"uint256"},{"internalType":"uint256","name":"cEURAmount","type":"uint256"},{"internalType":"uint256","name":"startTime","type":"uint256"},{"internalType":"uint256","name":"duration","type":"uint256"},{"internalType":"bool","name":"safeMode","type":"bool"},{"internalType":"bool","name":"claimed","type":"bool"}],"internalType":"struct PiggyBank.Piggy[]","name":"","type":"tuple[]"}],"stateMutability":"view","type":"function"},{"inputs":[],"name":"iMentoBroker","outputs":[{"internalType":"contract IMentoBroker","name":"","type":"address"}],"stateMutability":"view","type":"function"},{"inputs":[],"name":"mentoOracle","outputs":[{"internalType":"contract MentoOracleHandler","name":"","type":"address"}],"stateMutability":"view","type":"function"},{"inputs":[{"internalType":"address","name":"","type":"address"},{"internalType":"uint256","name":"","type":"uint256"}],"name":"piggies","outputs":[{"internalType":"address","name":"owner","type":"address"},{"internalType":"uint256","name":"cCOPAmount","type":"uint256"},{"internalType":"uint256","name":"cUSDAmount","type":"uint256"},{"internalType":"uint256","name":"cEURAmount","type":"uint256"},{"internalType":"uint256","name":"startTime","type":"uint256"},{"internalType":"uint256","name":"duration","type":"uint256"},{"internalType":"bool","name":"safeMode","type":"bool"},{"internalType":"bool","name":"claimed","type":"bool"}],"stateMutability":"view","type":"function"}],"evm":{"bytecode":{"linkReferences":{},"object":"6101406040523480156200001257600080fd5b50604051620024993803806200249983398181016040528101906200003891906200024e565b87600160006101000a81548173ffffffffffffffffffffffffffffffffffffffff021916908373ffffffffffffffffffffffffffffffffffffffff160217905550866000806101000a81548173ffffffffffffffffffffffffffffffffffffffff021916908373ffffffffffffffffffffffffffffffffffffffff1602179055508573ffffffffffffffffffffffffffffffffffffffff1660e08173ffffffffffffffffffffffffffffffffffffffff16815250508473ffffffffffffffffffffffffffffffffffffffff1660808173ffffffffffffffffffffffffffffffffffffffff16815250508373ffffffffffffffffffffffffffffffffffffffff1660a08173ffffffffffffffffffffffffffffffffffffffff16815250508273ffffffffffffffffffffffffffffffffffffffff1660c08173ffffffffffffffffffffffffffffffffffffffff1681525050816101008181525050806101208181525050505050505050505062000317565b600080fd5b600073ffffffffffffffffffffffffffffffffffffffff82169050919050565b6000620001db82620001ae565b9050919050565b620001ed81620001ce565b8114620001f957600080fd5b50565b6000815190506200020d81620001e2565b92915050565b6000819050919050565b620002288162000213565b81146200023457600080fd5b50565b60008151905062000248816200021d565b92915050565b600080600080600080600080610100898b031215620002725762000271620001a9565b5b6000620002828b828c01620001fc565b9850506020620002958b828c01620001fc565b9750506040620002a88b828c01620001fc565b9650506060620002bb8b828c01620001fc565b9550506080620002ce8b828c01620001fc565b94505060a0620002e18b828c01620001fc565b93505060c0620002f48b828c0162000237565b92505060e0620003078b828c0162000237565b9150509295985092959890939650565b60805160a05160c05160e051610100516101205161208a6200040f6000396000818161041d0152818161083001528181610cd101526111e901526000818161055d01528181610662015281816108bc0152610c3f0152600081816103fc0152818161053c01528181610fa50152818161124e01526113f801526000818161043e0152818161085101528181610d130152610f8101526000818161045f0152818161057e0152818161063e01528181610872015281816108dd01528181610c810152610cf201526000818161059f015281816108fe0152818161095901528181610b7d01528181610c6001526111c5015261208a6000f3fe608060405234801561001057600080fd5b50600436106100cf5760003560e01c8063591b00141161008c578063a5c7343c11610066578063a5c7343c146101f0578063d523819214610220578063e733062714610257578063eff8ff0c14610275576100cf565b8063591b0014146101965780637d1f2de7146101b45780639efe1cd2146101d2576100cf565b806308dae84d146100d45780631fccf672146101045780632a063b9714610122578063379607f51461014057806343a0d0661461015c578063537514a214610178575b600080fd5b6100ee60048036038101906100e99190611524565b610293565b6040516100fb9190611573565b60405180910390f35b61010c61063c565b604051610119919061159d565b60405180910390f35b61012a610660565b60405161013791906115d1565b60405180910390f35b61015a600480360381019061015591906115ec565b610684565b005b61017660048036038101906101719190611651565b610a4d565b005b610180610f35565b60405161018d9190611703565b60405180910390f35b61019e610f5b565b6040516101ab919061173f565b60405180910390f35b6101bc610f7f565b6040516101c9919061159d565b60405180910390f35b6101da610fa3565b6040516101e7919061159d565b60405180910390f35b61020a6004803603810190610205919061175a565b610fc7565b6040516102179190611906565b60405180910390f35b61023a60048036038101906102359190611524565b611124565b60405161024e989796959493929190611937565b60405180910390f35b61025f6111c3565b60405161026c919061159d565b60405180910390f35b61027d6111e7565b60405161028a91906115d1565b60405180910390f35b6000600260008473ffffffffffffffffffffffffffffffffffffffff1673ffffffffffffffffffffffffffffffffffffffff168152602001908152602001600020805490508210610319576040517f08c379a000000000000000000000000000000000000000000000000000000000815260040161031090611a12565b60405180910390fd5b6000600260008573ffffffffffffffffffffffffffffffffffffffff1673ffffffffffffffffffffffffffffffffffffffff168152602001908152602001600020838154811061036c5761036b611a32565b5b906000526020600020906007020190508060060160019054906101000a900460ff161561039d576000915050610636565b6000816001015490506000826002015490506000836003015411156104f357600160009054906101000a900473ffffffffffffffffffffffffffffffffffffffff1673ffffffffffffffffffffffffffffffffffffffff1663a20f23057f00000000000000000000000000000000000000000000000000000000000000007f00000000000000000000000000000000000000000000000000000000000000007f00000000000000000000000000000000000000000000000000000000000000007f000000000000000000000000000000000000000000000000000000000000000088600301546040518663ffffffff1660e01b81526004016104a3959493929190611a61565b602060405180830381865afa9250505080156104dd57506040513d601f19601f820116820180604052508101906104da9190611ac9565b60015b156104f25780826104ee9190611b25565b9150505b5b600081111561062f57600160009054906101000a900473ffffffffffffffffffffffffffffffffffffffff1673ffffffffffffffffffffffffffffffffffffffff1663a20f23057f00000000000000000000000000000000000000000000000000000000000000007f00000000000000000000000000000000000000000000000000000000000000007f00000000000000000000000000000000000000000000000000000000000000007f0000000000000000000000000000000000000000000000000000000000000000866040518663ffffffff1660e01b81526004016105df959493929190611a61565b602060405180830381865afa92505050801561061957506040513d601f19601f820116820180604052508101906106169190611ac9565b60015b1561062e57808361062a9190611b25565b9250505b5b8193505050505b92915050565b7f000000000000000000000000000000000000000000000000000000000000000081565b7f000000000000000000000000000000000000000000000000000000000000000081565b600260003373ffffffffffffffffffffffffffffffffffffffff1673ffffffffffffffffffffffffffffffffffffffff168152602001908152602001600020805490508110610708576040517f08c379a00000000000000000000000000000000000000000000000000000000081526004016106ff90611a12565b60405180910390fd5b6000600260003373ffffffffffffffffffffffffffffffffffffffff1673ffffffffffffffffffffffffffffffffffffffff168152602001908152602001600020828154811061075b5761075a611a32565b5b906000526020600020906007020190508060060160019054906101000a900460ff16156107bd576040517f08c379a00000000000000000000000000000000000000000000000000000000081526004016107b490611ba5565b60405180910390fd5b806005015481600401546107d19190611b25565b421015610813576040517f08c379a000000000000000000000000000000000000000000000000000000000815260040161080a90611c11565b60405180910390fd5b6000816002015490506000826003015411156108ad57600061089b7f00000000000000000000000000000000000000000000000000000000000000007f00000000000000000000000000000000000000000000000000000000000000007f0000000000000000000000000000000000000000000000000000000000000000866003015461120b565b905080826108a99190611b25565b9150505b600080821115610926576109237f00000000000000000000000000000000000000000000000000000000000000007f00000000000000000000000000000000000000000000000000000000000000007f00000000000000000000000000000000000000000000000000000000000000008561120b565b90505b60008184600101546109389190611b25565b905060018460060160016101000a81548160ff0219169083151502179055507f000000000000000000000000000000000000000000000000000000000000000073ffffffffffffffffffffffffffffffffffffffff1663a9059cbb33836040518363ffffffff1660e01b81526004016109b2929190611c31565b6020604051808303816000875af11580156109d1573d6000803e3d6000fd5b505050506040513d601f19601f820116820180604052508101906109f59190611c6f565b503373ffffffffffffffffffffffffffffffffffffffff167f2d37796ca173574817be1543691c0bfc987858e98dc7aed381809472d265752f8683604051610a3e929190611c9c565b60405180910390a25050505050565b60008311610a90576040517f08c379a0000000000000000000000000000000000000000000000000000000008152600401610a8790611d11565b60405180910390fd5b60008211610ad3576040517f08c379a0000000000000000000000000000000000000000000000000000000008152600401610aca90611d7d565b60405180910390fd5b60008060008060009054906101000a900473ffffffffffffffffffffffffffffffffffffffff1673ffffffffffffffffffffffffffffffffffffffff1663b4f35d5587866040518363ffffffff1660e01b8152600401610b34929190611d9d565b606060405180830381865afa158015610b51573d6000803e3d6000fd5b505050506040513d601f19601f82011682018060405250810190610b759190611dc6565b9250925092507f000000000000000000000000000000000000000000000000000000000000000073ffffffffffffffffffffffffffffffffffffffff166323b872dd3330896040518463ffffffff1660e01b8152600401610bd893929190611e19565b6020604051808303816000875af1158015610bf7573d6000803e3d6000fd5b505050506040513d601f19601f82011682018060405250810190610c1b9190611c6f565b5060008060008385610c2d9190611b25565b90506000811115610d4c576000610ca67f00000000000000000000000000000000000000000000000000000000000000007f00000000000000000000000000000000000000000000000000000000000000007f00000000000000000000000000000000000000000000000000000000000000008561120b565b90506000828683610cb79190611e50565b610cc19190611ec1565b90506000811115610d3b57610d387f00000000000000000000000000000000000000000000000000000000000000007f00000000000000000000000000000000000000000000000000000000000000007f00000000000000000000000000000000000000000000000000000000000000008461120b565b93505b8082610d479190611ef2565b945050505b600260003373ffffffffffffffffffffffffffffffffffffffff1673ffffffffffffffffffffffffffffffffffffffff1681526020019081526020016000206040518061010001604052803373ffffffffffffffffffffffffffffffffffffffff168152602001888152602001858152602001848152602001428152602001620151808b610dda9190611e50565b8152602001891515815260200160001515815250908060018154018082558091505060019003906000526020600020906007020160009091909190915060008201518160000160006101000a81548173ffffffffffffffffffffffffffffffffffffffff021916908373ffffffffffffffffffffffffffffffffffffffff1602179055506020820151816001015560408201518160020155606082015181600301556080820151816004015560a0820151816005015560c08201518160060160006101000a81548160ff02191690831515021790555060e08201518160060160016101000a81548160ff02191690831515021790555050503373ffffffffffffffffffffffffffffffffffffffff167fcf85d7470b991149c4cee947b432e9f4f36d5176787b8710334cdc20b6061bd58a8a8a8a8888604051610f2296959493929190611f26565b60405180910390a2505050505050505050565b600160009054906101000a900473ffffffffffffffffffffffffffffffffffffffff1681565b60008054906101000a900473ffffffffffffffffffffffffffffffffffffffff1681565b7f000000000000000000000000000000000000000000000000000000000000000081565b7f000000000000000000000000000000000000000000000000000000000000000081565b6060600260008373ffffffffffffffffffffffffffffffffffffffff1673ffffffffffffffffffffffffffffffffffffffff168152602001908152602001600020805480602002602001604051908101604052809291908181526020016000905b828210156111195783829060005260206000209060070201604051806101000160405290816000820160009054906101000a900473ffffffffffffffffffffffffffffffffffffffff1673ffffffffffffffffffffffffffffffffffffffff1673ffffffffffffffffffffffffffffffffffffffff16815260200160018201548152602001600282015481526020016003820154815260200160048201548152602001600582015481526020016006820160009054906101000a900460ff161515151581526020016006820160019054906101000a900460ff16151515158152505081526020019060010190611028565b505050509050919050565b6002602052816000526040600020818154811061114057600080fd5b9060005260206000209060070201600091509150508060000160009054906101000a900473ffffffffffffffffffffffffffffffffffffffff16908060010154908060020154908060030154908060040154908060050154908060060160009054906101000a900460ff16908060060160019054906101000a900460ff16905088565b7f000000000000000000000000000000000000000000000000000000000000000081565b7f000000000000000000000000000000000000000000000000000000000000000081565b600080600160009054906101000a900473ffffffffffffffffffffffffffffffffffffffff1673ffffffffffffffffffffffffffffffffffffffff1663a20f23057f0000000000000000000000000000000000000000000000000000000000000000888888886040518663ffffffff1660e01b8152600401611291959493929190611a61565b602060405180830381865afa1580156112ae573d6000803e3d6000fd5b505050506040513d601f19601f820116820180604052508101906112d29190611ac9565b905060008111611317576040517f08c379a000000000000000000000000000000000000000000000000000000000815260040161130e90611fd3565b60405180910390fd5b8473ffffffffffffffffffffffffffffffffffffffff1663095ea7b3600160009054906101000a900473ffffffffffffffffffffffffffffffffffffffff16856040518363ffffffff1660e01b8152600401611374929190611c31565b6020604051808303816000875af1158015611393573d6000803e3d6000fd5b505050506040513d601f19601f820116820180604052508101906113b79190611c6f565b50600160009054906101000a900473ffffffffffffffffffffffffffffffffffffffff1673ffffffffffffffffffffffffffffffffffffffff1663ddbbe8507f000000000000000000000000000000000000000000000000000000000000000088888888876040518763ffffffff1660e01b815260040161143d96959493929190611ff3565b6020604051808303816000875af115801561145c573d6000803e3d6000fd5b505050506040513d601f19601f820116820180604052508101906114809190611ac9565b915050949350505050565b600080fd5b600073ffffffffffffffffffffffffffffffffffffffff82169050919050565b60006114bb82611490565b9050919050565b6114cb816114b0565b81146114d657600080fd5b50565b6000813590506114e8816114c2565b92915050565b6000819050919050565b611501816114ee565b811461150c57600080fd5b50565b60008135905061151e816114f8565b92915050565b6000806040838503121561153b5761153a61148b565b5b6000611549858286016114d9565b925050602061155a8582860161150f565b9150509250929050565b61156d816114ee565b82525050565b60006020820190506115886000830184611564565b92915050565b611597816114b0565b82525050565b60006020820190506115b2600083018461158e565b92915050565b6000819050919050565b6115cb816115b8565b82525050565b60006020820190506115e660008301846115c2565b92915050565b6000602082840312156116025761160161148b565b5b60006116108482850161150f565b91505092915050565b60008115159050919050565b61162e81611619565b811461163957600080fd5b50565b60008135905061164b81611625565b92915050565b60008060006060848603121561166a5761166961148b565b5b60006116788682870161150f565b93505060206116898682870161150f565b925050604061169a8682870161163c565b9150509250925092565b6000819050919050565b60006116c96116c46116bf84611490565b6116a4565b611490565b9050919050565b60006116db826116ae565b9050919050565b60006116ed826116d0565b9050919050565b6116fd816116e2565b82525050565b600060208201905061171860008301846116f4565b92915050565b6000611729826116d0565b9050919050565b6117398161171e565b82525050565b60006020820190506117546000830184611730565b92915050565b6000602082840312156117705761176f61148b565b5b600061177e848285016114d9565b91505092915050565b600081519050919050565b600082825260208201905092915050565b6000819050602082019050919050565b6117bc816114b0565b82525050565b6117cb816114ee565b82525050565b6117da81611619565b82525050565b610100820160008201516117f760008501826117b3565b50602082015161180a60208501826117c2565b50604082015161181d60408501826117c2565b50606082015161183060608501826117c2565b50608082015161184360808501826117c2565b5060a082015161185660a08501826117c2565b5060c082015161186960c08501826117d1565b5060e082015161187c60e08501826117d1565b50505050565b600061188e83836117e0565b6101008301905092915050565b6000602082019050919050565b60006118b382611787565b6118bd8185611792565b93506118c8836117a3565b8060005b838110156118f95781516118e08882611882565b97506118eb8361189b565b9250506001810190506118cc565b5085935050505092915050565b6000602082019050818103600083015261192081846118a8565b905092915050565b61193181611619565b82525050565b60006101008201905061194d600083018b61158e565b61195a602083018a611564565b6119676040830189611564565b6119746060830188611564565b6119816080830187611564565b61198e60a0830186611564565b61199b60c0830185611928565b6119a860e0830184611928565b9998505050505050505050565b600082825260208201905092915050565b7f496e76616c696420706967677920696e64657800000000000000000000000000600082015250565b60006119fc6013836119b5565b9150611a07826119c6565b602082019050919050565b60006020820190508181036000830152611a2b816119ef565b9050919050565b7f4e487b7100000000000000000000000000000000000000000000000000000000600052603260045260246000fd5b600060a082019050611a76600083018861158e565b611a8360208301876115c2565b611a90604083018661158e565b611a9d606083018561158e565b611aaa6080830184611564565b9695505050505050565b600081519050611ac3816114f8565b92915050565b600060208284031215611adf57611ade61148b565b5b6000611aed84828501611ab4565b91505092915050565b7f4e487b7100000000000000000000000000000000000000000000000000000000600052601160045260246000fd5b6000611b30826114ee565b9150611b3b836114ee565b9250828201905080821115611b5357611b52611af6565b5b92915050565b7f416c726561647920636c61696d65640000000000000000000000000000000000600082015250565b6000611b8f600f836119b5565b9150611b9a82611b59565b602082019050919050565b60006020820190508181036000830152611bbe81611b82565b9050919050565b7f4c6f636b206e6f7420656e646564000000000000000000000000000000000000600082015250565b6000611bfb600e836119b5565b9150611c0682611bc5565b602082019050919050565b60006020820190508181036000830152611c2a81611bee565b9050919050565b6000604082019050611c46600083018561158e565b611c536020830184611564565b9392505050565b600081519050611c6981611625565b92915050565b600060208284031215611c8557611c8461148b565b5b6000611c9384828501611c5a565b91505092915050565b6000604082019050611cb16000830185611564565b611cbe6020830184611564565b9392505050565b7f416d6f756e74206d75737420626520706f736974697665000000000000000000600082015250565b6000611cfb6017836119b5565b9150611d0682611cc5565b602082019050919050565b60006020820190508181036000830152611d2a81611cee565b9050919050565b7f4475726174696f6e206d75737420626520706f73697469766500000000000000600082015250565b6000611d676019836119b5565b9150611d7282611d31565b602082019050919050565b60006020820190508181036000830152611d9681611d5a565b9050919050565b6000604082019050611db26000830185611564565b611dbf6020830184611928565b9392505050565b600080600060608486031215611ddf57611dde61148b565b5b6000611ded86828701611ab4565b9350506020611dfe86828701611ab4565b9250506040611e0f86828701611ab4565b9150509250925092565b6000606082019050611e2e600083018661158e565b611e3b602083018561158e565b611e486040830184611564565b949350505050565b6000611e5b826114ee565b9150611e66836114ee565b9250828202611e74816114ee565b91508282048414831517611e8b57611e8a611af6565b5b5092915050565b7f4e487b7100000000000000000000000000000000000000000000000000000000600052601260045260246000fd5b6000611ecc826114ee565b9150611ed7836114ee565b925082611ee757611ee6611e92565b5b828204905092915050565b6000611efd826114ee565b9150611f08836114ee565b9250828203905081811115611f2057611f1f611af6565b5b92915050565b600060c082019050611f3b6000830189611564565b611f486020830188611564565b611f556040830187611928565b611f626060830186611564565b611f6f6080830185611564565b611f7c60a0830184611564565b979650505050505050565b7f4d656e746f3a20496e73756666696369656e74206f7574707574000000000000600082015250565b6000611fbd601a836119b5565b9150611fc882611f87565b602082019050919050565b60006020820190508181036000830152611fec81611fb0565b9050919050565b600060c082019050612008600083018961158e565b61201560208301886115c2565b612022604083018761158e565b61202f606083018661158e565b61203c6080830185611564565b61204960a0830184611564565b97965050505050505056fea26469706673582212205c32646d1ba070295c4d83f393521ceb8ecb77ef3551ae9a254f5d0d62db4e5564736f6c63430008140033","opcodes":"PUSH2 0x140 PUSH1 0x40 MSTORE CALLVALUE DUP1 ISZERO PUSH3 0x12 JUMPI PUSH1 0x0 DUP1 REVERT JUMPDEST POP PUSH1 0x40 MLOAD PUSH3 0x2499 CODESIZE SUB DUP1 PUSH3 0x2499 DUP4 CODECOPY DUP2 DUP2 ADD PUSH1 0x40 MSTORE DUP2 ADD SWAP1 PUSH3 0x38 SWAP2 SWAP1 PUSH3 0x24E JUMP JUMPDEST DUP8 PUSH1 0x1 PUSH1 0x0 PUSH2 0x100 EXP DUP2 SLOAD DUP2 PUSH20 0xFFFFFFFFFFFFFFFFFFFFFFFFFFFFFFFFFFFFFFFF MUL NOT AND SWAP1 DUP4 PUSH20 0xFFFFFFFFFFFFFFFFFFFFFFFFFFFFFFFFFFFFFFFF AND MUL OR SWAP1 SSTORE POP DUP7 PUSH1 0x0 DUP1 PUSH2 0x100 EXP DUP2 SLOAD DUP2 PUSH20 0xFFFFFFFFFFFFFFFFFFFFFFFFFFFFFFFFFFFFFFFF MUL NOT AND SWAP1 DUP4 PUSH20 0xFFFFFFFFFFFFFFFFFFFFFFFFFFFFFFFFFFFFFFFF AND MUL OR SWAP1 SSTORE POP DUP6 PUSH20 0xFFFFFFFFFFFFFFFFFFFFFFFFFFFFFFFFFFFFFFFF AND PUSH1 0xE0 DUP2 PUSH20 0xFFFFFFFFFFFFFFFFFFFFFFFFFFFFFFFFFFFFFFFF AND DUP2 MSTORE POP POP DUP5 PUSH20 0xFFFFFFFFFFFFFFFFFFFFFFFFFFFFFFFFFFFFFFFF AND PUSH1 0x80 DUP2 PUSH20 0xFFFFFFFFFFFFFFFFFFFFFFFFFFFFFFFFFFFFFFFF AND DUP2 MSTORE POP POP DUP4 PUSH20 0xFFFFFFFFFFFFFFFFFFFFFFFFFFFFFFFFFFFFFFFF AND PUSH1 0xA0 DUP2 PUSH20 0xFFFFFFFFFFFFFFFFFFFFFFFFFFFFFFFFFFFFFFFF AND DUP2 MSTORE POP POP DUP3 PUSH20 0xFFFFFFFFFFFFFFFFFFFFFFFFFFFFFFFFFFFFFFFF AND PUSH1 0xC0 DUP2 PUSH20 0xFFFFFFFFFFFFFFFFFFFFFFFFFFFFFFFFFFFFFFFF AND DUP2 MSTORE POP POP DUP2 PUSH2 0x100 DUP2 DUP2 MSTORE POP POP DUP1 PUSH2 0x120 DUP2 DUP2 MSTORE POP POP POP POP POP POP POP POP POP POP PUSH3 0x317 JUMP JUMPDEST PUSH1 0x0 DUP1 REVERT JUMPDEST PUSH1 0x0 PUSH20 0xFFFFFFFFFFFFFFFFFFFFFFFFFFFFFFFFFFFFFFFF DUP3 AND SWAP1 POP SWAP2 SWAP1 POP JUMP JUMPDEST PUSH1 0x0 PUSH3 0x1DB DUP3 PUSH3 0x1AE JUMP JUMPDEST SWAP1 POP SWAP2 SWAP1 POP JUMP JUMPDEST PUSH3 0x1ED DUP2 PUSH3 0x1CE JUMP JUMPDEST DUP2 EQ PUSH3 0x1F9 JUMPI PUSH1 0x0 DUP1 REVERT JUMPDEST POP JUMP JUMPDEST PUSH1 0x0 DUP2 MLOAD SWAP1 POP PUSH3 0x20D DUP2 PUSH3 0x1E2 JUMP JUMPDEST SWAP3 SWAP2 POP POP JUMP JUMPDEST PUSH1 0x0 DUP2 SWAP1 POP SWAP2 SWAP1 POP JUMP JUMPDEST PUSH3 0x228 DUP2 PUSH3 0x213 JUMP JUMPDEST DUP2 EQ PUSH3 0x234 JUMPI PUSH1 0x0 DUP1 REVERT JUMPDEST POP JUMP JUMPDEST PUSH1 0x0 DUP2 MLOAD SWAP1 POP PUSH3 0x248 DUP2 PUSH3 0x21D JUMP JUMPDEST SWAP3 SWAP2 POP POP JUMP JUMPDEST PUSH1 0x0 DUP1 PUSH1 0x0 DUP1 PUSH1 0x0 DUP1 PUSH1 0x0 DUP1 PUSH2 0x100 DUP10 DUP12 SUB SLT ISZERO PUSH3 0x272 JUMPI PUSH3 0x271 PUSH3 0x1A9 JUMP JUMPDEST JUMPDEST PUSH1 0x0 PUSH3 0x282 DUP12 DUP3 DUP13 ADD PUSH3 0x1FC JUMP JUMPDEST SWAP9 POP POP PUSH1 0x20 PUSH3 0x295 DUP12 DUP3 DUP13 ADD PUSH3 0x1FC JUMP JUMPDEST SWAP8 POP POP PUSH1 0x40 PUSH3 0x2A8 DUP12 DUP3 DUP13 ADD PUSH3 0x1FC JUMP JUMPDEST SWAP7 POP POP PUSH1 0x60 PUSH3 0x2BB DUP12 DUP3 DUP13 ADD PUSH3 0x1FC JUMP JUMPDEST SWAP6 POP POP PUSH1 0x80 PUSH3 0x2CE DUP12 DUP3 DUP13 ADD PUSH3 0x1FC JUMP JUMPDEST SWAP5 POP POP PUSH1 0xA0 PUSH3 0x2E1 DUP12 DUP3 DUP13 ADD PUSH3 0x1FC JUMP JUMPDEST SWAP4 POP POP PUSH1 0xC0 PUSH3 0x2F4 DUP12 DUP3 DUP13 ADD PUSH3 0x237 JUMP JUMPDEST SWAP3 POP POP PUSH1 0xE0 PUSH3 0x307 DUP12 DUP3 DUP13 ADD PUSH3 0x237 JUMP JUMPDEST SWAP2 POP POP SWAP3 SWAP6 SWAP9 POP SWAP3 SWAP6 SWAP9 SWAP1 SWAP4 SWAP7 POP JUMP JUMPDEST PUSH1 0x80 MLOAD PUSH1 0xA0 MLOAD PUSH1 0xC0 MLOAD PUSH1 0xE0 MLOAD PUSH2 0x100 MLOAD PUSH2 0x120 MLOAD PUSH2 0x208A PUSH3 0x40F PUSH1 0x0 CODECOPY PUSH1 0x0 DUP2 DUP2 PUSH2 0x41D ADD MSTORE DUP2 DUP2 PUSH2 0x830 ADD MSTORE DUP2 DUP2 PUSH2 0xCD1 ADD MSTORE PUSH2 0x11E9 ADD MSTORE PUSH1 0x0 DUP2 DUP2 PUSH2 0x55D ADD MSTORE DUP2 DUP2 PUSH2 0x662 ADD MSTORE DUP2 DUP2 PUSH2 0x8BC ADD MSTORE PUSH2 0xC3F ADD MSTORE PUSH1 0x0 DUP2 DUP2 PUSH2 0x3FC ADD MSTORE DUP2 DUP2 PUSH2 0x53C ADD MSTORE DUP2 DUP2 PUSH2 0xFA5 ADD MSTORE DUP2 DUP2 PUSH2 0x124E ADD MSTORE PUSH2 0x13F8 ADD MSTORE PUSH1 0x0 DUP2 DUP2 PUSH2 0x43E ADD MSTORE DUP2 DUP2 PUSH2 0x851 ADD MSTORE DUP2 DUP2 PUSH2 0xD13 ADD MSTORE PUSH2 0xF81 ADD MSTORE PUSH1 0x0 DUP2 DUP2 PUSH2 0x45F ADD MSTORE DUP2 DUP2 PUSH2 0x57E ADD MSTORE DUP2 DUP2 PUSH2 0x63E ADD MSTORE DUP2 DUP2 PUSH2 0x872 ADD MSTORE DUP2 DUP2 PUSH2 0x8DD ADD MSTORE DUP2 DUP2 PUSH2 0xC81 ADD MSTORE PUSH2 0xCF2 ADD MSTORE PUSH1 0x0 DUP2 DUP2 PUSH2 0x59F ADD MSTORE DUP2 DUP2 PUSH2 0x8FE ADD MSTORE DUP2 DUP2 PUSH2 0x959 ADD MSTORE DUP2 DUP2 PUSH2 0xB7D ADD MSTORE DUP2 DUP2 PUSH2 0xC60 ADD MSTORE PUSH2 0x11C5 ADD MSTORE PUSH2 0x208A PUSH1 0x0 RETURN INVALID PUSH1 0x80 PUSH1 0x40 MSTORE CALLVALUE DUP1 ISZERO PUSH2 0x10 JUMPI PUSH1 0x0 DUP1 REVERT JUMPDEST POP PUSH1 0x4 CALLDATASIZE LT PUSH2 0xCF JUMPI PUSH1 0x0 CALLDATALOAD PUSH1 0xE0 SHR DUP1 PUSH4 0x591B0014 GT PUSH2 0x8C JUMPI DUP1 PUSH4 0xA5C7343C GT PUSH2 0x66 JUMPI DUP1 PUSH4 0xA5C7343C EQ PUSH2 0x1F0 JUMPI DUP1 PUSH4 0xD5238192 EQ PUSH2 0x220 JUMPI DUP1 PUSH4 0xE7330627 EQ PUSH2 0x257 JUMPI DUP1 PUSH4 0xEFF8FF0C EQ PUSH2 0x275 JUMPI PUSH2 0xCF JUMP JUMPDEST DUP1 PUSH4 0x591B0014 EQ PUSH2 0x196 JUMPI DUP1 PUSH4 0x7D1F2DE7 EQ PUSH2 0x1B4 JUMPI DUP1 PUSH4 0x9EFE1CD2 EQ PUSH2 0x1D2 JUMPI PUSH2 0xCF JUMP JUMPDEST DUP1 PUSH4 0x8DAE84D EQ PUSH2 0xD4 JUMPI DUP1 PUSH4 0x1FCCF672 EQ PUSH2 0x104 JUMPI DUP1 PUSH4 0x2A063B97 EQ PUSH2 0x122 JUMPI DUP1 PUSH4 0x379607F5 EQ PUSH2 0x140 JUMPI DUP1 PUSH4 0x43A0D066 EQ PUSH2 0x15C JUMPI DUP1 PUSH4 0x537514A2 EQ PUSH2 0x178 JUMPI JUMPDEST PUSH1 0x0 DUP1 REVERT JUMPDEST PUSH2 0xEE PUSH1 0x4 DUP1 CALLDATASIZE SUB DUP2 ADD SWAP1 PUSH2 0xE9 SWAP2 SWAP1 PUSH2 0x1524 JUMP JUMPDEST PUSH2 0x293 JUMP JUMPDEST PUSH1 0x40 MLOAD PUSH2 0xFB SWAP2 SWAP1 PUSH2 0x1573 JUMP JUMPDEST PUSH1 0x40 MLOAD DUP1 SWAP2 SUB SWAP1 RETURN JUMPDEST PUSH2 0x10C PUSH2 0x63C JUMP JUMPDEST PUSH1 0x40 MLOAD PUSH2 0x119 SWAP2 SWAP1 PUSH2 0x159D JUMP JUMPDEST PUSH1 0x40 MLOAD DUP1 SWAP2 SUB SWAP1 RETURN JUMPDEST PUSH2 0x12A PUSH2 0x660 JUMP JUMPDEST PUSH1 0x40 MLOAD PUSH2 0x137 SWAP2 SWAP1 PUSH2 0x15D1 JUMP JUMPDEST PUSH1 0x40 MLOAD DUP1 SWAP2 SUB SWAP1 RETURN JUMPDEST PUSH2 0x15A PUSH1 0x4 DUP1 CALLDATASIZE SUB DUP2 ADD SWAP1 PUSH2 0x155 SWAP2 SWAP1 PUSH2 0x15EC JUMP JUMPDEST PUSH2 0x684 JUMP JUMPDEST STOP JUMPDEST PUSH2 0x176 PUSH1 0x4 DUP1 CALLDATASIZE SUB DUP2 ADD SWAP1 PUSH2 0x171 SWAP2 SWAP1 PUSH2 0x1651 JUMP JUMPDEST PUSH2 0xA4D JUMP JUMPDEST STOP JUMPDEST PUSH2 0x180 PUSH2 0xF35 JUMP JUMPDEST PUSH1 0x40 MLOAD PUSH2 0x18D SWAP2 SWAP1 PUSH2 0x1703 JUMP JUMPDEST PUSH1 0x40 MLOAD DUP1 SWAP2 SUB SWAP1 RETURN JUMPDEST PUSH2 0x19E PUSH2 0xF5B JUMP JUMPDEST PUSH1 0x40 MLOAD PUSH2 0x1AB SWAP2 SWAP1 PUSH2 0x173F JUMP JUMPDEST PUSH1 0x40 MLOAD DUP1 SWAP2 SUB SWAP1 RETURN JUMPDEST PUSH2 0x1BC PUSH2 0xF7F JUMP JUMPDEST PUSH1 0x40 MLOAD PUSH2 0x1C9 SWAP2 SWAP1 PUSH2 0x159D JUMP JUMPDEST PUSH1 0x40 MLOAD DUP1 SWAP2 SUB SWAP1 RETURN JUMPDEST PUSH2 0x1DA PUSH2 0xFA3 JUMP JUMPDEST PUSH1 0x40 MLOAD PUSH2 0x1E7 SWAP2 SWAP1 PUSH2 0x159D JUMP JUMPDEST PUSH1 0x40 MLOAD DUP1 SWAP2 SUB SWAP1 RETURN JUMPDEST PUSH2 0x20A PUSH1 0x4 DUP1 CALLDATASIZE SUB DUP2 ADD SWAP1 PUSH2 0x205 SWAP2 SWAP1 PUSH2 0x175A JUMP JUMPDEST PUSH2 0xFC7 JUMP JUMPDEST PUSH1 0x40 MLOAD PUSH2 0x217 SWAP2 SWAP1 PUSH2 0x1906 JUMP JUMPDEST PUSH1 0x40 MLOAD DUP1 SWAP2 SUB SWAP1 RETURN JUMPDEST PUSH2 0x23A PUSH1 0x4 DUP1 CALLDATASIZE SUB DUP2 ADD SWAP1 PUSH2 0x235 SWAP2 SWAP1 PUSH2 0x1524 JUMP JUMPDEST PUSH2 0x1124 JUMP JUMPDEST PUSH1 0x40 MLOAD PUSH2 0x24E SWAP9 SWAP8 SWAP7 SWAP6 SWAP5 SWAP4 SWAP3 SWAP2 SWAP1 PUSH2 0x1937 JUMP JUMPDEST PUSH1 0x40 MLOAD DUP1 SWAP2 SUB SWAP1 RETURN JUMPDEST PUSH2 0x25F PUSH2 0x11C3 JUMP JUMPDEST PUSH1 0x40 MLOAD PUSH2 0x26C SWAP2 SWAP1 PUSH2 0x159D JUMP JUMPDEST PUSH1 0x40 MLOAD DUP1 SWAP2 SUB SWAP1 RETURN JUMPDEST PUSH2 0x27D PUSH2 0x11E7 JUMP JUMPDEST PUSH1 0x40 MLOAD PUSH2 0x28A SWAP2 SWAP1 PUSH2 0x15D1 JUMP JUMPDEST PUSH1 0x40 MLOAD DUP1 SWAP2 SUB SWAP1 RETURN JUMPDEST PUSH1 0x0 PUSH1 0x2 PUSH1 0x0 DUP5 PUSH20 0xFFFFFFFFFFFFFFFFFFFFFFFFFFFFFFFFFFFFFFFF AND PUSH20 0xFFFFFFFFFFFFFFFFFFFFFFFFFFFFFFFFFFFFFFFF AND DUP2 MSTORE PUSH1 0x20 ADD SWAP1 DUP2 MSTORE PUSH1 0x20 ADD PUSH1 0x0 KECCAK256 DUP1 SLOAD SWAP1 POP DUP3 LT PUSH2 0x319 JUMPI PUSH1 0x40 MLOAD PUSH32 0x8C379A000000000000000000000000000000000000000000000000000000000 DUP2 MSTORE PUSH1 0x4 ADD PUSH2 0x310 SWAP1 PUSH2 0x1A12 JUMP JUMPDEST PUSH1 0x40 MLOAD DUP1 SWAP2 SUB SWAP1 REVERT JUMPDEST PUSH1 0x0 PUSH1 0x2 PUSH1 0x0 DUP6 PUSH20 0xFFFFFFFFFFFFFFFFFFFFFFFFFFFFFFFFFFFFFFFF AND PUSH20 0xFFFFFFFFFFFFFFFFFFFFFFFFFFFFFFFFFFFFFFFF AND DUP2 MSTORE PUSH1 0x20 ADD SWAP1 DUP2 MSTORE PUSH1 0x20 ADD PUSH1 0x0 KECCAK256 DUP4 DUP2 SLOAD DUP2 LT PUSH2 0x36C JUMPI PUSH2 0x36B PUSH2 0x1A32 JUMP JUMPDEST JUMPDEST SWAP1 PUSH1 0x0 MSTORE PUSH1 0x20 PUSH1 0x0 KECCAK256 SWAP1 PUSH1 0x7 MUL ADD SWAP1 POP DUP1 PUSH1 0x6 ADD PUSH1 0x1 SWAP1 SLOAD SWAP1 PUSH2 0x100 EXP SWAP1 DIV PUSH1 0xFF AND ISZERO PUSH2 0x39D JUMPI PUSH1 0x0 SWAP2 POP POP PUSH2 0x636 JUMP JUMPDEST PUSH1 0x0 DUP2 PUSH1 0x1 ADD SLOAD SWAP1 POP PUSH1 0x0 DUP3 PUSH1 0x2 ADD SLOAD SWAP1 POP PUSH1 0x0 DUP4 PUSH1 0x3 ADD SLOAD GT ISZERO PUSH2 0x4F3 JUMPI PUSH1 0x1 PUSH1 0x0 SWAP1 SLOAD SWAP1 PUSH2 0x100 EXP SWAP1 DIV PUSH20 0xFFFFFFFFFFFFFFFFFFFFFFFFFFFFFFFFFFFFFFFF AND PUSH20 0xFFFFFFFFFFFFFFFFFFFFFFFFFFFFFFFFFFFFFFFF AND PUSH4 0xA20F2305 PUSH32 0x0 PUSH32 0x0 PUSH32 0x0 PUSH32 0x0 DUP9 PUSH1 0x3 ADD SLOAD PUSH1 0x40 MLOAD DUP7 PUSH4 0xFFFFFFFF AND PUSH1 0xE0 SHL DUP2 MSTORE PUSH1 0x4 ADD PUSH2 0x4A3 SWAP6 SWAP5 SWAP4 SWAP3 SWAP2 SWAP1 PUSH2 0x1A61 JUMP JUMPDEST PUSH1 0x20 PUSH1 0x40 MLOAD DUP1 DUP4 SUB DUP2 DUP7 GAS STATICCALL SWAP3 POP POP POP DUP1 ISZERO PUSH2 0x4DD JUMPI POP PUSH1 0x40 MLOAD RETURNDATASIZE PUSH1 0x1F NOT PUSH1 0x1F DUP3 ADD AND DUP3 ADD DUP1 PUSH1 0x40 MSTORE POP DUP2 ADD SWAP1 PUSH2 0x4DA SWAP2 SWAP1 PUSH2 0x1AC9 JUMP JUMPDEST PUSH1 0x1 JUMPDEST ISZERO PUSH2 0x4F2 JUMPI DUP1 DUP3 PUSH2 0x4EE SWAP2 SWAP1 PUSH2 0x1B25 JUMP JUMPDEST SWAP2 POP POP JUMPDEST JUMPDEST PUSH1 0x0 DUP2 GT ISZERO PUSH2 0x62F JUMPI PUSH1 0x1 PUSH1 0x0 SWAP1 SLOAD SWAP1 PUSH2 0x100 EXP SWAP1 DIV PUSH20 0xFFFFFFFFFFFFFFFFFFFFFFFFFFFFFFFFFFFFFFFF AND PUSH20 0xFFFFFFFFFFFFFFFFFFFFFFFFFFFFFFFFFFFFFFFF AND PUSH4 0xA20F2305 PUSH32 0x0 PUSH32 0x0 PUSH32 0x0 PUSH32 0x0 DUP7 PUSH1 0x40 MLOAD DUP7 PUSH4 0xFFFFFFFF AND PUSH1 0xE0 SHL DUP2 MSTORE PUSH1 0x4 ADD PUSH2 0x5DF SWAP6 SWAP5 SWAP4 SWAP3 SWAP2 SWAP1 PUSH2 0x1A61 JUMP JUMPDEST PUSH1 0x20 PUSH1 0x40 MLOAD DUP1 DUP4 SUB DUP2 DUP7 GAS STATICCALL SWAP3 POP POP POP DUP1 ISZERO PUSH2 0x619 JUMPI POP PUSH1 0x40 MLOAD RETURNDATASIZE PUSH1 0x1F NOT PUSH1 0x1F DUP3 ADD AND DUP3 ADD DUP1 PUSH1 0x40 MSTORE POP DUP2 ADD SWAP1 PUSH2 0x616 SWAP2 SWAP1 PUSH2 0x1AC9 JUMP JUMPDEST PUSH1 0x1 JUMPDEST ISZERO PUSH2 0x62E JUMPI DUP1 DUP4 PUSH2 0x62A SWAP2 SWAP1 PUSH2 0x1B25 JUMP JUMPDEST SWAP3 POP POP JUMPDEST JUMPDEST DUP2 SWAP4 POP POP POP POP JUMPDEST SWAP3 SWAP2 POP POP JUMP JUMPDEST PUSH32 0x0 DUP2 JUMP JUMPDEST PUSH32 0x0 DUP2 JUMP JUMPDEST PUSH1 0x2 PUSH1 0x0 CALLER PUSH20 0xFFFFFFFFFFFFFFFFFFFFFFFFFFFFFFFFFFFFFFFF AND PUSH20 0xFFFFFFFFFFFFFFFFFFFFFFFFFFFFFFFFFFFFFFFF AND DUP2 MSTORE PUSH1 0x20 ADD SWAP1 DUP2 MSTORE PUSH1 0x20 ADD PUSH1 0x0 KECCAK256 DUP1 SLOAD SWAP1 POP DUP2 LT PUSH2 0x708 JUMPI PUSH1 0x40 MLOAD PUSH32 0x8C379A000000000000000000000000000000000000000000000000000000000 DUP2 MSTORE PUSH1 0x4 ADD PUSH2 0x6FF SWAP1 PUSH2 0x1A12 JUMP JUMPDEST PUSH1 0x40 MLOAD DUP1 SWAP2 SUB SWAP1 REVERT JUMPDEST PUSH1 0x0 PUSH1 0x2 PUSH1 0x0 CALLER PUSH20 0xFFFFFFFFFFFFFFFFFFFFFFFFFFFFFFFFFFFFFFFF AND PUSH20 0xFFFFFFFFFFFFFFFFFFFFFFFFFFFFFFFFFFFFFFFF AND DUP2 MSTORE PUSH1 0x20 ADD SWAP1 DUP2 MSTORE PUSH1 0x20 ADD PUSH1 0x0 KECCAK256 DUP3 DUP2 SLOAD DUP2 LT PUSH2 0x75B JUMPI PUSH2 0x75A PUSH2 0x1A32 JUMP JUMPDEST JUMPDEST SWAP1 PUSH1 0x0 MSTORE PUSH1 0x20 PUSH1 0x0 KECCAK256 SWAP1 PUSH1 0x7 MUL ADD SWAP1 POP DUP1 PUSH1 0x6 ADD PUSH1 0x1 SWAP1 SLOAD SWAP1 PUSH2 0x100 EXP SWAP1 DIV PUSH1 0xFF AND ISZERO PUSH2 0x7BD JUMPI PUSH1 0x40 MLOAD PUSH32 0x8C379A000000000000000000000000000000000000000000000000000000000 DUP2 MSTORE PUSH1 0x4 ADD PUSH2 0x7B4 SWAP1 PUSH2 0x1BA5 JUMP JUMPDEST PUSH1 0x40 MLOAD DUP1 SWAP2 SUB SWAP1 REVERT JUMPDEST DUP1 PUSH1 0x5 ADD SLOAD DUP2 PUSH1 0x4 ADD SLOAD PUSH2 0x7D1 SWAP2 SWAP1 PUSH2 0x1B25 JUMP JUMPDEST TIMESTAMP LT ISZERO PUSH2 0x813 JUMPI PUSH1 0x40 MLOAD PUSH32 0x8C379A000000000000000000000000000000000000000000000000000000000 DUP2 MSTORE PUSH1 0x4 ADD PUSH2 0x80A SWAP1 PUSH2 0x1C11 JUMP JUMPDEST PUSH1 0x40 MLOAD DUP1 SWAP2 SUB SWAP1 REVERT JUMPDEST PUSH1 0x0 DUP2 PUSH1 0x2 ADD SLOAD SWAP1 POP PUSH1 0x0 DUP3 PUSH1 0x3 ADD SLOAD GT ISZERO PUSH2 0x8AD JUMPI PUSH1 0x0 PUSH2 0x89B PUSH32 0x0 PUSH32 0x0 PUSH32 0x0 DUP7 PUSH1 0x3 ADD SLOAD PUSH2 0x120B JUMP JUMPDEST SWAP1 POP DUP1 DUP3 PUSH2 0x8A9 SWAP2 SWAP1 PUSH2 0x1B25 JUMP JUMPDEST SWAP2 POP POP JUMPDEST PUSH1 0x0 DUP1 DUP3 GT ISZERO PUSH2 0x926 JUMPI PUSH2 0x923 PUSH32 0x0 PUSH32 0x0 PUSH32 0x0 DUP6 PUSH2 0x120B JUMP JUMPDEST SWAP1 POP JUMPDEST PUSH1 0x0 DUP2 DUP5 PUSH1 0x1 ADD SLOAD PUSH2 0x938 SWAP2 SWAP1 PUSH2 0x1B25 JUMP JUMPDEST SWAP1 POP PUSH1 0x1 DUP5 PUSH1 0x6 ADD PUSH1 0x1 PUSH2 0x100 EXP DUP2 SLOAD DUP2 PUSH1 0xFF MUL NOT AND SWAP1 DUP4 ISZERO ISZERO MUL OR SWAP1 SSTORE POP PUSH32 0x0 PUSH20 0xFFFFFFFFFFFFFFFFFFFFFFFFFFFFFFFFFFFFFFFF AND PUSH4 0xA9059CBB CALLER DUP4 PUSH1 0x40 MLOAD DUP4 PUSH4 0xFFFFFFFF AND PUSH1 0xE0 SHL DUP2 MSTORE PUSH1 0x4 ADD PUSH2 0x9B2 SWAP3 SWAP2 SWAP1 PUSH2 0x1C31 JUMP JUMPDEST PUSH1 0x20 PUSH1 0x40 MLOAD DUP1 DUP4 SUB DUP2 PUSH1 0x0 DUP8 GAS CALL ISZERO DUP1 ISZERO PUSH2 0x9D1 JUMPI RETURNDATASIZE PUSH1 0x0 DUP1 RETURNDATACOPY RETURNDATASIZE PUSH1 0x0 REVERT JUMPDEST POP POP POP POP PUSH1 0x40 MLOAD RETURNDATASIZE PUSH1 0x1F NOT PUSH1 0x1F DUP3 ADD AND DUP3 ADD DUP1 PUSH1 0x40 MSTORE POP DUP2 ADD SWAP1 PUSH2 0x9F5 SWAP2 SWAP1 PUSH2 0x1C6F JUMP JUMPDEST POP CALLER PUSH20 0xFFFFFFFFFFFFFFFFFFFFFFFFFFFFFFFFFFFFFFFF AND PUSH32 0x2D37796CA173574817BE1543691C0BFC987858E98DC7AED381809472D265752F DUP7 DUP4 PUSH1 0x40 MLOAD PUSH2 0xA3E SWAP3 SWAP2 SWAP1 PUSH2 0x1C9C JUMP JUMPDEST PUSH1 0x40 MLOAD DUP1 SWAP2 SUB SWAP1 LOG2 POP POP POP POP POP JUMP JUMPDEST PUSH1 0x0 DUP4 GT PUSH2 0xA90 JUMPI PUSH1 0x40 MLOAD PUSH32 0x8C379A000000000000000000000000000000000000000000000000000000000 DUP2 MSTORE PUSH1 0x4 ADD PUSH2 0xA87 SWAP1 PUSH2 0x1D11 JUMP JUMPDEST PUSH1 0x40 MLOAD DUP1 SWAP2 SUB SWAP1 REVERT JUMPDEST PUSH1 0x0 DUP3 GT PUSH2 0xAD3 JUMPI PUSH1 0x40 MLOAD PUSH32 0x8C379A000000000000000000000000000000000000000000000000000000000 DUP2 MSTORE PUSH1 0x4 ADD PUSH2 0xACA SWAP1 PUSH2 0x1D7D JUMP JUMPDEST PUSH1 0x40 MLOAD DUP1 SWAP2 SUB SWAP1 REVERT JUMPDEST PUSH1 0x0 DUP1 PUSH1 0x0 DUP1 PUSH1 0x0 SWAP1 SLOAD SWAP1 PUSH2 0x100 EXP SWAP1 DIV PUSH20 0xFFFFFFFFFFFFFFFFFFFFFFFFFFFFFFFFFFFFFFFF AND PUSH20 0xFFFFFFFFFFFFFFFFFFFFFFFFFFFFFFFFFFFFFFFF AND PUSH4 0xB4F35D55 DUP8 DUP7 PUSH1 0x40 MLOAD DUP4 PUSH4 0xFFFFFFFF AND PUSH1 0xE0 SHL DUP2 MSTORE PUSH1 0x4 ADD PUSH2 0xB34 SWAP3 SWAP2 SWAP1 PUSH2 0x1D9D JUMP JUMPDEST PUSH1 0x60 PUSH1 0x40 MLOAD DUP1 DUP4 SUB DUP2 DUP7 GAS STATICCALL ISZERO DUP1 ISZERO PUSH2 0xB51 JUMPI RETURNDATASIZE PUSH1 0x0 DUP1 RETURNDATACOPY RETURNDATASIZE PUSH1 0x0 REVERT JUMPDEST POP POP POP POP PUSH1 0x40 MLOAD RETURNDATASIZE PUSH1 0x1F NOT PUSH1 0x1F DUP3 ADD AND DUP3 ADD DUP1 PUSH1 0x40 MSTORE POP DUP2 ADD SWAP1 PUSH2 0xB75 SWAP2 SWAP1 PUSH2 0x1DC6 JUMP JUMPDEST SWAP3 POP SWAP3 POP SWAP3 POP PUSH32 0x0 PUSH20 0xFFFFFFFFFFFFFFFFFFFFFFFFFFFFFFFFFFFFFFFF AND PUSH4 0x23B872DD CALLER ADDRESS DUP10 PUSH1 0x40 MLOAD DUP5 PUSH4 0xFFFFFFFF AND PUSH1 0xE0 SHL DUP2 MSTORE PUSH1 0x4 ADD PUSH2 0xBD8 SWAP4 SWAP3 SWAP2 SWAP1 PUSH2 0x1E19 JUMP JUMPDEST PUSH1 0x20 PUSH1 0x40 MLOAD DUP1 DUP4 SUB DUP2 PUSH1 0x0 DUP8 GAS CALL ISZERO DUP1 ISZERO PUSH2 0xBF7 JUMPI RETURNDATASIZE PUSH1 0x0 DUP1 RETURNDATACOPY RETURNDATASIZE PUSH1 0x0 REVERT JUMPDEST POP POP POP POP PUSH1 0x40 MLOAD RETURNDATASIZE PUSH1 0x1F NOT PUSH1 0x1F DUP3 ADD AND DUP3 ADD DUP1 PUSH1 0x40 MSTORE POP DUP2 ADD SWAP1 PUSH2 0xC1B SWAP2 SWAP1 PUSH2 0x1C6F JUMP JUMPDEST POP PUSH1 0x0 DUP1 PUSH1 0x0 DUP4 DUP6 PUSH2 0xC2D SWAP2 SWAP1 PUSH2 0x1B25 JUMP JUMPDEST SWAP1 POP PUSH1 0x0 DUP2 GT ISZERO PUSH2 0xD4C JUMPI PUSH1 0x0 PUSH2 0xCA6 PUSH32 0x0 PUSH32 0x0 PUSH32 0x0 DUP6 PUSH2 0x120B JUMP JUMPDEST SWAP1 POP PUSH1 0x0 DUP3 DUP7 DUP4 PUSH2 0xCB7 SWAP2 SWAP1 PUSH2 0x1E50 JUMP JUMPDEST PUSH2 0xCC1 SWAP2 SWAP1 PUSH2 0x1EC1 JUMP JUMPDEST SWAP1 POP PUSH1 0x0 DUP2 GT ISZERO PUSH2 0xD3B JUMPI PUSH2 0xD38 PUSH32 0x0 PUSH32 0x0 PUSH32 0x0 DUP5 PUSH2 0x120B JUMP JUMPDEST SWAP4 POP JUMPDEST DUP1 DUP3 PUSH2 0xD47 SWAP2 SWAP1 PUSH2 0x1EF2 JUMP JUMPDEST SWAP5 POP POP POP JUMPDEST PUSH1 0x2 PUSH1 0x0 CALLER PUSH20 0xFFFFFFFFFFFFFFFFFFFFFFFFFFFFFFFFFFFFFFFF AND PUSH20 0xFFFFFFFFFFFFFFFFFFFFFFFFFFFFFFFFFFFFFFFF AND DUP2 MSTORE PUSH1 0x20 ADD SWAP1 DUP2 MSTORE PUSH1 0x20 ADD PUSH1 0x0 KECCAK256 PUSH1 0x40 MLOAD DUP1 PUSH2 0x100 ADD PUSH1 0x40 MSTORE DUP1 CALLER PUSH20 0xFFFFFFFFFFFFFFFFFFFFFFFFFFFFFFFFFFFFFFFF AND DUP2 MSTORE PUSH1 0x20 ADD DUP9 DUP2 MSTORE PUSH1 0x20 ADD DUP6 DUP2 MSTORE PUSH1 0x20 ADD DUP5 DUP2 MSTORE PUSH1 0x20 ADD TIMESTAMP DUP2 MSTORE PUSH1 0x20 ADD PUSH3 0x15180 DUP12 PUSH2 0xDDA SWAP2 SWAP1 PUSH2 0x1E50 JUMP JUMPDEST DUP2 MSTORE PUSH1 0x20 ADD DUP10 ISZERO ISZERO DUP2 MSTORE PUSH1 0x20 ADD PUSH1 0x0 ISZERO ISZERO DUP2 MSTORE POP SWAP1 DUP1 PUSH1 0x1 DUP2 SLOAD ADD DUP1 DUP3 SSTORE DUP1 SWAP2 POP POP PUSH1 0x1 SWAP1 SUB SWAP1 PUSH1 0x0 MSTORE PUSH1 0x20 PUSH1 0x0 KECCAK256 SWAP1 PUSH1 0x7 MUL ADD PUSH1 0x0 SWAP1 SWAP2 SWAP1 SWAP2 SWAP1 SWAP2 POP PUSH1 0x0 DUP3 ADD MLOAD DUP2 PUSH1 0x0 ADD PUSH1 0x0 PUSH2 0x100 EXP DUP2 SLOAD DUP2 PUSH20 0xFFFFFFFFFFFFFFFFFFFFFFFFFFFFFFFFFFFFFFFF MUL NOT AND SWAP1 DUP4 PUSH20 0xFFFFFFFFFFFFFFFFFFFFFFFFFFFFFFFFFFFFFFFF AND MUL OR SWAP1 SSTORE POP PUSH1 0x20 DUP3 ADD MLOAD DUP2 PUSH1 0x1 ADD SSTORE PUSH1 0x40 DUP3 ADD MLOAD DUP2 PUSH1 0x2 ADD SSTORE PUSH1 0x60 DUP3 ADD MLOAD DUP2 PUSH1 0x3 ADD SSTORE PUSH1 0x80 DUP3 ADD MLOAD DUP2 PUSH1 0x4 ADD SSTORE PUSH1 0xA0 DUP3 ADD MLOAD DUP2 PUSH1 0x5 ADD SSTORE PUSH1 0xC0 DUP3 ADD MLOAD DUP2 PUSH1 0x6 ADD PUSH1 0x0 PUSH2 0x100 EXP DUP2 SLOAD DUP2 PUSH1 0xFF MUL NOT AND SWAP1 DUP4 ISZERO ISZERO MUL OR SWAP1 SSTORE POP PUSH1 0xE0 DUP3 ADD MLOAD DUP2 PUSH1 0x6 ADD PUSH1 0x1 PUSH2 0x100 EXP DUP2 SLOAD DUP2 PUSH1 0xFF MUL NOT AND SWAP1 DUP4 ISZERO ISZERO MUL OR SWAP1 SSTORE POP POP POP CALLER PUSH20 0xFFFFFFFFFFFFFFFFFFFFFFFFFFFFFFFFFFFFFFFF AND PUSH32 0xCF85D7470B991149C4CEE947B432E9F4F36D5176787B8710334CDC20B6061BD5 DUP11 DUP11 DUP11 DUP11 DUP9 DUP9 PUSH1 0x40 MLOAD PUSH2 0xF22 SWAP7 SWAP6 SWAP5 SWAP4 SWAP3 SWAP2 SWAP1 PUSH2 0x1F26 JUMP JUMPDEST PUSH1 0x40 MLOAD DUP1 SWAP2 SUB SWAP1 LOG2 POP POP POP POP POP POP POP POP POP JUMP JUMPDEST PUSH1 0x1 PUSH1 0x0 SWAP1 SLOAD SWAP1 PUSH2 0x100 EXP SWAP1 DIV PUSH20 0xFFFFFFFFFFFFFFFFFFFFFFFFFFFFFFFFFFFFFFFF AND DUP2 JUMP JUMPDEST PUSH1 0x0 DUP1 SLOAD SWAP1 PUSH2 0x100 EXP SWAP1 DIV PUSH20 0xFFFFFFFFFFFFFFFFFFFFFFFFFFFFFFFFFFFFFFFF AND DUP2 JUMP JUMPDEST PUSH32 0x0 DUP2 JUMP JUMPDEST PUSH32 0x0 DUP2 JUMP JUMPDEST PUSH1 0x60 PUSH1 0x2 PUSH1 0x0 DUP4 PUSH20 0xFFFFFFFFFFFFFFFFFFFFFFFFFFFFFFFFFFFFFFFF AND PUSH20 0xFFFFFFFFFFFFFFFFFFFFFFFFFFFFFFFFFFFFFFFF AND DUP2 MSTORE PUSH1 0x20 ADD SWAP1 DUP2 MSTORE PUSH1 0x20 ADD PUSH1 0x0 KECCAK256 DUP1 SLOAD DUP1 PUSH1 0x20 MUL PUSH1 0x20 ADD PUSH1 0x40 MLOAD SWAP1 DUP2 ADD PUSH1 0x40 MSTORE DUP1 SWAP3 SWAP2 SWAP1 DUP2 DUP2 MSTORE PUSH1 0x20 ADD PUSH1 0x0 SWAP1 JUMPDEST DUP3 DUP3 LT ISZERO PUSH2 0x1119 JUMPI DUP4 DUP3 SWAP1 PUSH1 0x0 MSTORE PUSH1 0x20 PUSH1 0x0 KECCAK256 SWAP1 PUSH1 0x7 MUL ADD PUSH1 0x40 MLOAD DUP1 PUSH2 0x100 ADD PUSH1 0x40 MSTORE SWAP1 DUP2 PUSH1 0x0 DUP3 ADD PUSH1 0x0 SWAP1 SLOAD SWAP1 PUSH2 0x100 EXP SWAP1 DIV PUSH20 0xFFFFFFFFFFFFFFFFFFFFFFFFFFFFFFFFFFFFFFFF AND PUSH20 0xFFFFFFFFFFFFFFFFFFFFFFFFFFFFFFFFFFFFFFFF AND PUSH20 0xFFFFFFFFFFFFFFFFFFFFFFFFFFFFFFFFFFFFFFFF AND DUP2 MSTORE PUSH1 0x20 ADD PUSH1 0x1 DUP3 ADD SLOAD DUP2 MSTORE PUSH1 0x20 ADD PUSH1 0x2 DUP3 ADD SLOAD DUP2 MSTORE PUSH1 0x20 ADD PUSH1 0x3 DUP3 ADD SLOAD DUP2 MSTORE PUSH1 0x20 ADD PUSH1 0x4 DUP3 ADD SLOAD DUP2 MSTORE PUSH1 0x20 ADD PUSH1 0x5 DUP3 ADD SLOAD DUP2 MSTORE PUSH1 0x20 ADD PUSH1 0x6 DUP3 ADD PUSH1 0x0 SWAP1 SLOAD SWAP1 PUSH2 0x100 EXP SWAP1 DIV PUSH1 0xFF AND ISZERO ISZERO ISZERO ISZERO DUP2 MSTORE PUSH1 0x20 ADD PUSH1 0x6 DUP3 ADD PUSH1 0x1 SWAP1 SLOAD SWAP1 PUSH2 0x100 EXP SWAP1 DIV PUSH1 0xFF AND ISZERO ISZERO ISZERO ISZERO DUP2 MSTORE POP POP DUP2 MSTORE PUSH1 0x20 ADD SWAP1 PUSH1 0x1 ADD SWAP1 PUSH2 0x1028 JUMP JUMPDEST POP POP POP POP SWAP1 POP SWAP2 SWAP1 POP JUMP JUMPDEST PUSH1 0x2 PUSH1 0x20 MSTORE DUP2 PUSH1 0x0 MSTORE PUSH1 0x40 PUSH1 0x0 KECCAK256 DUP2 DUP2 SLOAD DUP2 LT PUSH2 0x1140 JUMPI PUSH1 0x0 DUP1 REVERT JUMPDEST SWAP1 PUSH1 0x0 MSTORE PUSH1 0x20 PUSH1 0x0 KECCAK256 SWAP1 PUSH1 0x7 MUL ADD PUSH1 0x0 SWAP2 POP SWAP2 POP POP DUP1 PUSH1 0x0 ADD PUSH1 0x0 SWAP1 SLOAD SWAP1 PUSH2 0x100 EXP SWAP1 DIV PUSH20 0xFFFFFFFFFFFFFFFFFFFFFFFFFFFFFFFFFFFFFFFF AND SWAP1 DUP1 PUSH1 0x1 ADD SLOAD SWAP1 DUP1 PUSH1 0x2 ADD SLOAD SWAP1 DUP1 PUSH1 0x3 ADD SLOAD SWAP1 DUP1 PUSH1 0x4 ADD SLOAD SWAP1 DUP1 PUSH1 0x5 ADD SLOAD SWAP1 DUP1 PUSH1 0x6 ADD PUSH1 0x0 SWAP1 SLOAD SWAP1 PUSH2 0x100 EXP SWAP1 DIV PUSH1 0xFF AND SWAP1 DUP1 PUSH1 0x6 ADD PUSH1 0x1 SWAP1 SLOAD SWAP1 PUSH2 0x100 EXP SWAP1 DIV PUSH1 0xFF AND SWAP1 POP DUP9 JUMP JUMPDEST PUSH32 0x0 DUP2 JUMP JUMPDEST PUSH32 0x0 DUP2 JUMP JUMPDEST PUSH1 0x0 DUP1 PUSH1 0x1 PUSH1 0x0 SWAP1 SLOAD SWAP1 PUSH2 0x100 EXP SWAP1 DIV PUSH20 0xFFFFFFFFFFFFFFFFFFFFFFFFFFFFFFFFFFFFFFFF AND PUSH20 0xFFFFFFFFFFFFFFFFFFFFFFFFFFFFFFFFFFFFFFFF AND PUSH4 0xA20F2305 PUSH32 0x0 DUP9 DUP9 DUP9 DUP9 PUSH1 0x40 MLOAD DUP7 PUSH4 0xFFFFFFFF AND PUSH1 0xE0 SHL DUP2 MSTORE PUSH1 0x4 ADD PUSH2 0x1291 SWAP6 SWAP5 SWAP4 SWAP3 SWAP2 SWAP1 PUSH2 0x1A61 JUMP JUMPDEST PUSH1 0x20 PUSH1 0x40 MLOAD DUP1 DUP4 SUB DUP2 DUP7 GAS STATICCALL ISZERO DUP1 ISZERO PUSH2 0x12AE JUMPI RETURNDATASIZE PUSH1 0x0 DUP1 RETURNDATACOPY RETURNDATASIZE PUSH1 0x0 REVERT JUMPDEST POP POP POP POP PUSH1 0x40 MLOAD RETURNDATASIZE PUSH1 0x1F NOT PUSH1 0x1F DUP3 ADD AND DUP3 ADD DUP1 PUSH1 0x40 MSTORE POP DUP2 ADD SWAP1 PUSH2 0x12D2 SWAP2 SWAP1 PUSH2 0x1AC9 JUMP JUMPDEST SWAP1 POP PUSH1 0x0 DUP2 GT PUSH2 0x1317 JUMPI PUSH1 0x40 MLOAD PUSH32 0x8C379A000000000000000000000000000000000000000000000000000000000 DUP2 MSTORE PUSH1 0x4 ADD PUSH2 0x130E SWAP1 PUSH2 0x1FD3 JUMP JUMPDEST PUSH1 0x40 MLOAD DUP1 SWAP2 SUB SWAP1 REVERT JUMPDEST DUP5 PUSH20 0xFFFFFFFFFFFFFFFFFFFFFFFFFFFFFFFFFFFFFFFF AND PUSH4 0x95EA7B3 PUSH1 0x1 PUSH1 0x0 SWAP1 SLOAD SWAP1 PUSH2 0x100 EXP SWAP1 DIV PUSH20 0xFFFFFFFFFFFFFFFFFFFFFFFFFFFFFFFFFFFFFFFF AND DUP6 PUSH1 0x40 MLOAD DUP4 PUSH4 0xFFFFFFFF AND PUSH1 0xE0 SHL DUP2 MSTORE PUSH1 0x4 ADD PUSH2 0x1374 SWAP3 SWAP2 SWAP1 PUSH2 0x1C31 JUMP JUMPDEST PUSH1 0x20 PUSH1 0x40 MLOAD DUP1 DUP4 SUB DUP2 PUSH1 0x0 DUP8 GAS CALL ISZERO DUP1 ISZERO PUSH2 0x1393 JUMPI RETURNDATASIZE PUSH1 0x0 DUP1 RETURNDATACOPY RETURNDATASIZE PUSH1 0x0 REVERT JUMPDEST POP POP POP POP PUSH1 0x40 MLOAD RETURNDATASIZE PUSH1 0x1F NOT PUSH1 0x1F DUP3 ADD AND DUP3 ADD DUP1 PUSH1 0x40 MSTORE POP DUP2 ADD SWAP1 PUSH2 0x13B7 SWAP2 SWAP1 PUSH2 0x1C6F JUMP JUMPDEST POP PUSH1 0x1 PUSH1 0x0 SWAP1 SLOAD SWAP1 PUSH2 0x100 EXP SWAP1 DIV PUSH20 0xFFFFFFFFFFFFFFFFFFFFFFFFFFFFFFFFFFFFFFFF AND PUSH20 0xFFFFFFFFFFFFFFFFFFFFFFFFFFFFFFFFFFFFFFFF AND PUSH4 0xDDBBE850 PUSH32 0x0 DUP9 DUP9 DUP9 DUP9 DUP8 PUSH1 0x40 MLOAD DUP8 PUSH4 0xFFFFFFFF AND PUSH1 0xE0 SHL DUP2 MSTORE PUSH1 0x4 ADD PUSH2 0x143D SWAP7 SWAP6 SWAP5 SWAP4 SWAP3 SWAP2 SWAP1 PUSH2 0x1FF3 JUMP JUMPDEST PUSH1 0x20 PUSH1 0x40 MLOAD DUP1 DUP4 SUB DUP2 PUSH1 0x0 DUP8 GAS CALL ISZERO DUP1 ISZERO PUSH2 0x145C JUMPI RETURNDATASIZE PUSH1 0x0 DUP1 RETURNDATACOPY RETURNDATASIZE PUSH1 0x0 REVERT JUMPDEST POP POP POP POP PUSH1 0x40 MLOAD RETURNDATASIZE PUSH1 0x1F NOT PUSH1 0x1F DUP3 ADD AND DUP3 ADD DUP1 PUSH1 0x40 MSTORE POP DUP2 ADD SWAP1 PUSH2 0x1480 SWAP2 SWAP1 PUSH2 0x1AC9 JUMP JUMPDEST SWAP2 POP POP SWAP5 SWAP4 POP POP POP POP JUMP JUMPDEST PUSH1 0x0 DUP1 REVERT JUMPDEST PUSH1 0x0 PUSH20 0xFFFFFFFFFFFFFFFFFFFFFFFFFFFFFFFFFFFFFFFF DUP3 AND SWAP1 POP SWAP2 SWAP1 POP JUMP JUMPDEST PUSH1 0x0 PUSH2 0x14BB DUP3 PUSH2 0x1490 JUMP JUMPDEST SWAP1 POP SWAP2 SWAP1 POP JUMP JUMPDEST PUSH2 0x14CB DUP2 PUSH2 0x14B0 JUMP JUMPDEST DUP2 EQ PUSH2 0x14D6 JUMPI PUSH1 0x0 DUP1 REVERT JUMPDEST POP JUMP JUMPDEST PUSH1 0x0 DUP2 CALLDATALOAD SWAP1 POP PUSH2 0x14E8 DUP2 PUSH2 0x14C2 JUMP JUMPDEST SWAP3 SWAP2 POP POP JUMP JUMPDEST PUSH1 0x0 DUP2 SWAP1 POP SWAP2 SWAP1 POP JUMP JUMPDEST PUSH2 0x1501 DUP2 PUSH2 0x14EE JUMP JUMPDEST DUP2 EQ PUSH2 0x150C JUMPI PUSH1 0x0 DUP1 REVERT JUMPDEST POP JUMP JUMPDEST PUSH1 0x0 DUP2 CALLDATALOAD SWAP1 POP PUSH2 0x151E DUP2 PUSH2 0x14F8 JUMP JUMPDEST SWAP3 SWAP2 POP POP JUMP JUMPDEST PUSH1 0x0 DUP1 PUSH1 0x40 DUP4 DUP6 SUB SLT ISZERO PUSH2 0x153B JUMPI PUSH2 0x153A PUSH2 0x148B JUMP JUMPDEST JUMPDEST PUSH1 0x0 PUSH2 0x1549 DUP6 DUP3 DUP7 ADD PUSH2 0x14D9 JUMP JUMPDEST SWAP3 POP POP PUSH1 0x20 PUSH2 0x155A DUP6 DUP3 DUP7 ADD PUSH2 0x150F JUMP JUMPDEST SWAP2 POP POP SWAP3 POP SWAP3 SWAP1 POP JUMP JUMPDEST PUSH2 0x156D DUP2 PUSH2 0x14EE JUMP JUMPDEST DUP3 MSTORE POP POP JUMP JUMPDEST PUSH1 0x0 PUSH1 0x20 DUP3 ADD SWAP1 POP PUSH2 0x1588 PUSH1 0x0 DUP4 ADD DUP5 PUSH2 0x1564 JUMP JUMPDEST SWAP3 SWAP2 POP POP JUMP JUMPDEST PUSH2 0x1597 DUP2 PUSH2 0x14B0 JUMP JUMPDEST DUP3 MSTORE POP POP JUMP JUMPDEST PUSH1 0x0 PUSH1 0x20 DUP3 ADD SWAP1 POP PUSH2 0x15B2 PUSH1 0x0 DUP4 ADD DUP5 PUSH2 0x158E JUMP JUMPDEST SWAP3 SWAP2 POP POP JUMP JUMPDEST PUSH1 0x0 DUP2 SWAP1 POP SWAP2 SWAP1 POP JUMP JUMPDEST PUSH2 0x15CB DUP2 PUSH2 0x15B8 JUMP JUMPDEST DUP3 MSTORE POP POP JUMP JUMPDEST PUSH1 0x0 PUSH1 0x20 DUP3 ADD SWAP1 POP PUSH2 0x15E6 PUSH1 0x0 DUP4 ADD DUP5 PUSH2 0x15C2 JUMP JUMPDEST SWAP3 SWAP2 POP POP JUMP JUMPDEST PUSH1 0x0 PUSH1 0x20 DUP3 DUP5 SUB SLT ISZERO PUSH2 0x1602 JUMPI PUSH2 0x1601 PUSH2 0x148B JUMP JUMPDEST JUMPDEST PUSH1 0x0 PUSH2 0x1610 DUP5 DUP3 DUP6 ADD PUSH2 0x150F JUMP JUMPDEST SWAP2 POP POP SWAP3 SWAP2 POP POP JUMP JUMPDEST PUSH1 0x0 DUP2 ISZERO ISZERO SWAP1 POP SWAP2 SWAP1 POP JUMP JUMPDEST PUSH2 0x162E DUP2 PUSH2 0x1619 JUMP JUMPDEST DUP2 EQ PUSH2 0x1639 JUMPI PUSH1 0x0 DUP1 REVERT JUMPDEST POP JUMP JUMPDEST PUSH1 0x0 DUP2 CALLDATALOAD SWAP1 POP PUSH2 0x164B DUP2 PUSH2 0x1625 JUMP JUMPDEST SWAP3 SWAP2 POP POP JUMP JUMPDEST PUSH1 0x0 DUP1 PUSH1 0x0 PUSH1 0x60 DUP5 DUP7 SUB SLT ISZERO PUSH2 0x166A JUMPI PUSH2 0x1669 PUSH2 0x148B JUMP JUMPDEST JUMPDEST PUSH1 0x0 PUSH2 0x1678 DUP7 DUP3 DUP8 ADD PUSH2 0x150F JUMP JUMPDEST SWAP4 POP POP PUSH1 0x20 PUSH2 0x1689 DUP7 DUP3 DUP8 ADD PUSH2 0x150F JUMP JUMPDEST SWAP3 POP POP PUSH1 0x40 PUSH2 0x169A DUP7 DUP3 DUP8 ADD PUSH2 0x163C JUMP JUMPDEST SWAP2 POP POP SWAP3 POP SWAP3 POP SWAP3 JUMP JUMPDEST PUSH1 0x0 DUP2 SWAP1 POP SWAP2 SWAP1 POP JUMP JUMPDEST PUSH1 0x0 PUSH2 0x16C9 PUSH2 0x16C4 PUSH2 0x16BF DUP5 PUSH2 0x1490 JUMP JUMPDEST PUSH2 0x16A4 JUMP JUMPDEST PUSH2 0x1490 JUMP JUMPDEST SWAP1 POP SWAP2 SWAP1 POP JUMP JUMPDEST PUSH1 0x0 PUSH2 0x16DB DUP3 PUSH2 0x16AE JUMP JUMPDEST SWAP1 POP SWAP2 SWAP1 POP JUMP JUMPDEST PUSH1 0x0 PUSH2 0x16ED DUP3 PUSH2 0x16D0 JUMP JUMPDEST SWAP1 POP SWAP2 SWAP1 POP JUMP JUMPDEST PUSH2 0x16FD DUP2 PUSH2 0x16E2 JUMP JUMPDEST DUP3 MSTORE POP POP JUMP JUMPDEST PUSH1 0x0 PUSH1 0x20 DUP3 ADD SWAP1 POP PUSH2 0x1718 PUSH1 0x0 DUP4 ADD DUP5 PUSH2 0x16F4 JUMP JUMPDEST SWAP3 SWAP2 POP POP JUMP JUMPDEST PUSH1 0x0 PUSH2 0x1729 DUP3 PUSH2 0x16D0 JUMP JUMPDEST SWAP1 POP SWAP2 SWAP1 POP JUMP JUMPDEST PUSH2 0x1739 DUP2 PUSH2 0x171E JUMP JUMPDEST DUP3 MSTORE POP POP JUMP JUMPDEST PUSH1 0x0 PUSH1 0x20 DUP3 ADD SWAP1 POP PUSH2 0x1754 PUSH1 0x0 DUP4 ADD DUP5 PUSH2 0x1730 JUMP JUMPDEST SWAP3 SWAP2 POP POP JUMP JUMPDEST PUSH1 0x0 PUSH1 0x20 DUP3 DUP5 SUB SLT ISZERO PUSH2 0x1770 JUMPI PUSH2 0x176F PUSH2 0x148B JUMP JUMPDEST JUMPDEST PUSH1 0x0 PUSH2 0x177E DUP5 DUP3 DUP6 ADD PUSH2 0x14D9 JUMP JUMPDEST SWAP2 POP POP SWAP3 SWAP2 POP POP JUMP JUMPDEST PUSH1 0x0 DUP2 MLOAD SWAP1 POP SWAP2 SWAP1 POP JUMP JUMPDEST PUSH1 0x0 DUP3 DUP3 MSTORE PUSH1 0x20 DUP3 ADD SWAP1 POP SWAP3 SWAP2 POP POP JUMP JUMPDEST PUSH1 0x0 DUP2 SWAP1 POP PUSH1 0x20 DUP3 ADD SWAP1 POP SWAP2 SWAP1 POP JUMP JUMPDEST PUSH2 0x17BC DUP2 PUSH2 0x14B0 JUMP JUMPDEST DUP3 MSTORE POP POP JUMP JUMPDEST PUSH2 0x17CB DUP2 PUSH2 0x14EE JUMP JUMPDEST DUP3 MSTORE POP POP JUMP JUMPDEST PUSH2 0x17DA DUP2 PUSH2 0x1619 JUMP JUMPDEST DUP3 MSTORE POP POP JUMP JUMPDEST PUSH2 0x100 DUP3 ADD PUSH1 0x0 DUP3 ADD MLOAD PUSH2 0x17F7 PUSH1 0x0 DUP6 ADD DUP3 PUSH2 0x17B3 JUMP JUMPDEST POP PUSH1 0x20 DUP3 ADD MLOAD PUSH2 0x180A PUSH1 0x20 DUP6 ADD DUP3 PUSH2 0x17C2 JUMP JUMPDEST POP PUSH1 0x40 DUP3 ADD MLOAD PUSH2 0x181D PUSH1 0x40 DUP6 ADD DUP3 PUSH2 0x17C2 JUMP JUMPDEST POP PUSH1 0x60 DUP3 ADD MLOAD PUSH2 0x1830 PUSH1 0x60 DUP6 ADD DUP3 PUSH2 0x17C2 JUMP JUMPDEST POP PUSH1 0x80 DUP3 ADD MLOAD PUSH2 0x1843 PUSH1 0x80 DUP6 ADD DUP3 PUSH2 0x17C2 JUMP JUMPDEST POP PUSH1 0xA0 DUP3 ADD MLOAD PUSH2 0x1856 PUSH1 0xA0 DUP6 ADD DUP3 PUSH2 0x17C2 JUMP JUMPDEST POP PUSH1 0xC0 DUP3 ADD MLOAD PUSH2 0x1869 PUSH1 0xC0 DUP6 ADD DUP3 PUSH2 0x17D1 JUMP JUMPDEST POP PUSH1 0xE0 DUP3 ADD MLOAD PUSH2 0x187C PUSH1 0xE0 DUP6 ADD DUP3 PUSH2 0x17D1 JUMP JUMPDEST POP POP POP POP JUMP JUMPDEST PUSH1 0x0 PUSH2 0x188E DUP4 DUP4 PUSH2 0x17E0 JUMP JUMPDEST PUSH2 0x100 DUP4 ADD SWAP1 POP SWAP3 SWAP2 POP POP JUMP JUMPDEST PUSH1 0x0 PUSH1 0x20 DUP3 ADD SWAP1 POP SWAP2 SWAP1 POP JUMP JUMPDEST PUSH1 0x0 PUSH2 0x18B3 DUP3 PUSH2 0x1787 JUMP JUMPDEST PUSH2 0x18BD DUP2 DUP6 PUSH2 0x1792 JUMP JUMPDEST SWAP4 POP PUSH2 0x18C8 DUP4 PUSH2 0x17A3 JUMP JUMPDEST DUP1 PUSH1 0x0 JUMPDEST DUP4 DUP2 LT ISZERO PUSH2 0x18F9 JUMPI DUP2 MLOAD PUSH2 0x18E0 DUP9 DUP3 PUSH2 0x1882 JUMP JUMPDEST SWAP8 POP PUSH2 0x18EB DUP4 PUSH2 0x189B JUMP JUMPDEST SWAP3 POP POP PUSH1 0x1 DUP2 ADD SWAP1 POP PUSH2 0x18CC JUMP JUMPDEST POP DUP6 SWAP4 POP POP POP POP SWAP3 SWAP2 POP POP JUMP JUMPDEST PUSH1 0x0 PUSH1 0x20 DUP3 ADD SWAP1 POP DUP2 DUP2 SUB PUSH1 0x0 DUP4 ADD MSTORE PUSH2 0x1920 DUP2 DUP5 PUSH2 0x18A8 JUMP JUMPDEST SWAP1 POP SWAP3 SWAP2 POP POP JUMP JUMPDEST PUSH2 0x1931 DUP2 PUSH2 0x1619 JUMP JUMPDEST DUP3 MSTORE POP POP JUMP JUMPDEST PUSH1 0x0 PUSH2 0x100 DUP3 ADD SWAP1 POP PUSH2 0x194D PUSH1 0x0 DUP4 ADD DUP12 PUSH2 0x158E JUMP JUMPDEST PUSH2 0x195A PUSH1 0x20 DUP4 ADD DUP11 PUSH2 0x1564 JUMP JUMPDEST PUSH2 0x1967 PUSH1 0x40 DUP4 ADD DUP10 PUSH2 0x1564 JUMP JUMPDEST PUSH2 0x1974 PUSH1 0x60 DUP4 ADD DUP9 PUSH2 0x1564 JUMP JUMPDEST PUSH2 0x1981 PUSH1 0x80 DUP4 ADD DUP8 PUSH2 0x1564 JUMP JUMPDEST PUSH2 0x198E PUSH1 0xA0 DUP4 ADD DUP7 PUSH2 0x1564 JUMP JUMPDEST PUSH2 0x199B PUSH1 0xC0 DUP4 ADD DUP6 PUSH2 0x1928 JUMP JUMPDEST PUSH2 0x19A8 PUSH1 0xE0 DUP4 ADD DUP5 PUSH2 0x1928 JUMP JUMPDEST SWAP10 SWAP9 POP POP POP POP POP POP POP POP POP JUMP JUMPDEST PUSH1 0x0 DUP3 DUP3 MSTORE PUSH1 0x20 DUP3 ADD SWAP1 POP SWAP3 SWAP2 POP POP JUMP JUMPDEST PUSH32 0x496E76616C696420706967677920696E64657800000000000000000000000000 PUSH1 0x0 DUP3 ADD MSTORE POP JUMP JUMPDEST PUSH1 0x0 PUSH2 0x19FC PUSH1 0x13 DUP4 PUSH2 0x19B5 JUMP JUMPDEST SWAP2 POP PUSH2 0x1A07 DUP3 PUSH2 0x19C6 JUMP JUMPDEST PUSH1 0x20 DUP3 ADD SWAP1 POP SWAP2 SWAP1 POP JUMP JUMPDEST PUSH1 0x0 PUSH1 0x20 DUP3 ADD SWAP1 POP DUP2 DUP2 SUB PUSH1 0x0 DUP4 ADD MSTORE PUSH2 0x1A2B DUP2 PUSH2 0x19EF JUMP JUMPDEST SWAP1 POP SWAP2 SWAP1 POP JUMP JUMPDEST PUSH32 0x4E487B7100000000000000000000000000000000000000000000000000000000 PUSH1 0x0 MSTORE PUSH1 0x32 PUSH1 0x4 MSTORE PUSH1 0x24 PUSH1 0x0 REVERT JUMPDEST PUSH1 0x0 PUSH1 0xA0 DUP3 ADD SWAP1 POP PUSH2 0x1A76 PUSH1 0x0 DUP4 ADD DUP9 PUSH2 0x158E JUMP JUMPDEST PUSH2 0x1A83 PUSH1 0x20 DUP4 ADD DUP8 PUSH2 0x15C2 JUMP JUMPDEST PUSH2 0x1A90 PUSH1 0x40 DUP4 ADD DUP7 PUSH2 0x158E JUMP JUMPDEST PUSH2 0x1A9D PUSH1 0x60 DUP4 ADD DUP6 PUSH2 0x158E JUMP JUMPDEST PUSH2 0x1AAA PUSH1 0x80 DUP4 ADD DUP5 PUSH2 0x1564 JUMP JUMPDEST SWAP7 SWAP6 POP POP POP POP POP POP JUMP JUMPDEST PUSH1 0x0 DUP2 MLOAD SWAP1 POP PUSH2 0x1AC3 DUP2 PUSH2 0x14F8 JUMP JUMPDEST SWAP3 SWAP2 POP POP JUMP JUMPDEST PUSH1 0x0 PUSH1 0x20 DUP3 DUP5 SUB SLT ISZERO PUSH2 0x1ADF JUMPI PUSH2 0x1ADE PUSH2 0x148B JUMP JUMPDEST JUMPDEST PUSH1 0x0 PUSH2 0x1AED DUP5 DUP3 DUP6 ADD PUSH2 0x1AB4 JUMP JUMPDEST SWAP2 POP POP SWAP3 SWAP2 POP POP JUMP JUMPDEST PUSH32 0x4E487B7100000000000000000000000000000000000000000000000000000000 PUSH1 0x0 MSTORE PUSH1 0x11 PUSH1 0x4 MSTORE PUSH1 0x24 PUSH1 0x0 REVERT JUMPDEST PUSH1 0x0 PUSH2 0x1B30 DUP3 PUSH2 0x14EE JUMP JUMPDEST SWAP2 POP PUSH2 0x1B3B DUP4 PUSH2 0x14EE JUMP JUMPDEST SWAP3 POP DUP3 DUP3 ADD SWAP1 POP DUP1 DUP3 GT ISZERO PUSH2 0x1B53 JUMPI PUSH2 0x1B52 PUSH2 0x1AF6 JUMP JUMPDEST JUMPDEST SWAP3 SWAP2 POP POP JUMP JUMPDEST PUSH32 0x416C726561647920636C61696D65640000000000000000000000000000000000 PUSH1 0x0 DUP3 ADD MSTORE POP JUMP JUMPDEST PUSH1 0x0 PUSH2 0x1B8F PUSH1 0xF DUP4 PUSH2 0x19B5 JUMP JUMPDEST SWAP2 POP PUSH2 0x1B9A DUP3 PUSH2 0x1B59 JUMP JUMPDEST PUSH1 0x20 DUP3 ADD SWAP1 POP SWAP2 SWAP1 POP JUMP JUMPDEST PUSH1 0x0 PUSH1 0x20 DUP3 ADD SWAP1 POP DUP2 DUP2 SUB PUSH1 0x0 DUP4 ADD MSTORE PUSH2 0x1BBE DUP2 PUSH2 0x1B82 JUMP JUMPDEST SWAP1 POP SWAP2 SWAP1 POP JUMP JUMPDEST PUSH32 0x4C6F636B206E6F7420656E646564000000000000000000000000000000000000 PUSH1 0x0 DUP3 ADD MSTORE POP JUMP JUMPDEST PUSH1 0x0 PUSH2 0x1BFB PUSH1 0xE DUP4 PUSH2 0x19B5 JUMP JUMPDEST SWAP2 POP PUSH2 0x1C06 DUP3 PUSH2 0x1BC5 JUMP JUMPDEST PUSH1 0x20 DUP3 ADD SWAP1 POP SWAP2 SWAP1 POP JUMP JUMPDEST PUSH1 0x0 PUSH1 0x20 DUP3 ADD SWAP1 POP DUP2 DUP2 SUB PUSH1 0x0 DUP4 ADD MSTORE PUSH2 0x1C2A DUP2 PUSH2 0x1BEE JUMP JUMPDEST SWAP1 POP SWAP2 SWAP1 POP JUMP JUMPDEST PUSH1 0x0 PUSH1 0x40 DUP3 ADD SWAP1 POP PUSH2 0x1C46 PUSH1 0x0 DUP4 ADD DUP6 PUSH2 0x158E JUMP JUMPDEST PUSH2 0x1C53 PUSH1 0x20 DUP4 ADD DUP5 PUSH2 0x1564 JUMP JUMPDEST SWAP4 SWAP3 POP POP POP JUMP JUMPDEST PUSH1 0x0 DUP2 MLOAD SWAP1 POP PUSH2 0x1C69 DUP2 PUSH2 0x1625 JUMP JUMPDEST SWAP3 SWAP2 POP POP JUMP JUMPDEST PUSH1 0x0 PUSH1 0x20 DUP3 DUP5 SUB SLT ISZERO PUSH2 0x1C85 JUMPI PUSH2 0x1C84 PUSH2 0x148B JUMP JUMPDEST JUMPDEST PUSH1 0x0 PUSH2 0x1C93 DUP5 DUP3 DUP6 ADD PUSH2 0x1C5A JUMP JUMPDEST SWAP2 POP POP SWAP3 SWAP2 POP POP JUMP JUMPDEST PUSH1 0x0 PUSH1 0x40 DUP3 ADD SWAP1 POP PUSH2 0x1CB1 PUSH1 0x0 DUP4 ADD DUP6 PUSH2 0x1564 JUMP JUMPDEST PUSH2 0x1CBE PUSH1 0x20 DUP4 ADD DUP5 PUSH2 0x1564 JUMP JUMPDEST SWAP4 SWAP3 POP POP POP JUMP JUMPDEST PUSH32 0x416D6F756E74206D75737420626520706F736974697665000000000000000000 PUSH1 0x0 DUP3 ADD MSTORE POP JUMP JUMPDEST PUSH1 0x0 PUSH2 0x1CFB PUSH1 0x17 DUP4 PUSH2 0x19B5 JUMP JUMPDEST SWAP2 POP PUSH2 0x1D06 DUP3 PUSH2 0x1CC5 JUMP JUMPDEST PUSH1 0x20 DUP3 ADD SWAP1 POP SWAP2 SWAP1 POP JUMP JUMPDEST PUSH1 0x0 PUSH1 0x20 DUP3 ADD SWAP1 POP DUP2 DUP2 SUB PUSH1 0x0 DUP4 ADD MSTORE PUSH2 0x1D2A DUP2 PUSH2 0x1CEE JUMP JUMPDEST SWAP1 POP SWAP2 SWAP1 POP JUMP JUMPDEST PUSH32 0x4475726174696F6E206D75737420626520706F73697469766500000000000000 PUSH1 0x0 DUP3 ADD MSTORE POP JUMP JUMPDEST PUSH1 0x0 PUSH2 0x1D67 PUSH1 0x19 DUP4 PUSH2 0x19B5 JUMP JUMPDEST SWAP2 POP PUSH2 0x1D72 DUP3 PUSH2 0x1D31 JUMP JUMPDEST PUSH1 0x20 DUP3 ADD SWAP1 POP SWAP2 SWAP1 POP JUMP JUMPDEST PUSH1 0x0 PUSH1 0x20 DUP3 ADD SWAP1 POP DUP2 DUP2 SUB PUSH1 0x0 DUP4 ADD MSTORE PUSH2 0x1D96 DUP2 PUSH2 0x1D5A JUMP JUMPDEST SWAP1 POP SWAP2 SWAP1 POP JUMP JUMPDEST PUSH1 0x0 PUSH1 0x40 DUP3 ADD SWAP1 POP PUSH2 0x1DB2 PUSH1 0x0 DUP4 ADD DUP6 PUSH2 0x1564 JUMP JUMPDEST PUSH2 0x1DBF PUSH1 0x20 DUP4 ADD DUP5 PUSH2 0x1928 JUMP JUMPDEST SWAP4 SWAP3 POP POP POP JUMP JUMPDEST PUSH1 0x0 DUP1 PUSH1 0x0 PUSH1 0x60 DUP5 DUP7 SUB SLT ISZERO PUSH2 0x1DDF JUMPI PUSH2 0x1DDE PUSH2 0x148B JUMP JUMPDEST JUMPDEST PUSH1 0x0 PUSH2 0x1DED DUP7 DUP3 DUP8 ADD PUSH2 0x1AB4 JUMP JUMPDEST SWAP4 POP POP PUSH1 0x20 PUSH2 0x1DFE DUP7 DUP3 DUP8 ADD PUSH2 0x1AB4 JUMP JUMPDEST SWAP3 POP POP PUSH1 0x40 PUSH2 0x1E0F DUP7 DUP3 DUP8 ADD PUSH2 0x1AB4 JUMP JUMPDEST SWAP2 POP POP SWAP3 POP SWAP3 POP SWAP3 JUMP JUMPDEST PUSH1 0x0 PUSH1 0x60 DUP3 ADD SWAP1 POP PUSH2 0x1E2E PUSH1 0x0 DUP4 ADD DUP7 PUSH2 0x158E JUMP JUMPDEST PUSH2 0x1E3B PUSH1 0x20 DUP4 ADD DUP6 PUSH2 0x158E JUMP JUMPDEST PUSH2 0x1E48 PUSH1 0x40 DUP4 ADD DUP5 PUSH2 0x1564 JUMP JUMPDEST SWAP5 SWAP4 POP POP POP POP JUMP JUMPDEST PUSH1 0x0 PUSH2 0x1E5B DUP3 PUSH2 0x14EE JUMP JUMPDEST SWAP2 POP PUSH2 0x1E66 DUP4 PUSH2 0x14EE JUMP JUMPDEST SWAP3 POP DUP3 DUP3 MUL PUSH2 0x1E74 DUP2 PUSH2 0x14EE JUMP JUMPDEST SWAP2 POP DUP3 DUP3 DIV DUP5 EQ DUP4 ISZERO OR PUSH2 0x1E8B JUMPI PUSH2 0x1E8A PUSH2 0x1AF6 JUMP JUMPDEST JUMPDEST POP SWAP3 SWAP2 POP POP JUMP JUMPDEST PUSH32 0x4E487B7100000000000000000000000000000000000000000000000000000000 PUSH1 0x0 MSTORE PUSH1 0x12 PUSH1 0x4 MSTORE PUSH1 0x24 PUSH1 0x0 REVERT JUMPDEST PUSH1 0x0 PUSH2 0x1ECC DUP3 PUSH2 0x14EE JUMP JUMPDEST SWAP2 POP PUSH2 0x1ED7 DUP4 PUSH2 0x14EE JUMP JUMPDEST SWAP3 POP DUP3 PUSH2 0x1EE7 JUMPI PUSH2 0x1EE6 PUSH2 0x1E92 JUMP JUMPDEST JUMPDEST DUP3 DUP3 DIV SWAP1 POP SWAP3 SWAP2 POP POP JUMP JUMPDEST PUSH1 0x0 PUSH2 0x1EFD DUP3 PUSH2 0x14EE JUMP JUMPDEST SWAP2 POP PUSH2 0x1F08 DUP4 PUSH2 0x14EE JUMP JUMPDEST SWAP3 POP DUP3 DUP3 SUB SWAP1 POP DUP2 DUP2 GT ISZERO PUSH2 0x1F20 JUMPI PUSH2 0x1F1F PUSH2 0x1AF6 JUMP JUMPDEST JUMPDEST SWAP3 SWAP2 POP POP JUMP JUMPDEST PUSH1 0x0 PUSH1 0xC0 DUP3 ADD SWAP1 POP PUSH2 0x1F3B PUSH1 0x0 DUP4 ADD DUP10 PUSH2 0x1564 JUMP JUMPDEST PUSH2 0x1F48 PUSH1 0x20 DUP4 ADD DUP9 PUSH2 0x1564 JUMP JUMPDEST PUSH2 0x1F55 PUSH1 0x40 DUP4 ADD DUP8 PUSH2 0x1928 JUMP JUMPDEST PUSH2 0x1F62 PUSH1 0x60 DUP4 ADD DUP7 PUSH2 0x1564 JUMP JUMPDEST PUSH2 0x1F6F PUSH1 0x80 DUP4 ADD DUP6 PUSH2 0x1564 JUMP JUMPDEST PUSH2 0x1F7C PUSH1 0xA0 DUP4 ADD DUP5 PUSH2 0x1564 JUMP JUMPDEST SWAP8 SWAP7 POP POP POP POP POP POP POP JUMP JUMPDEST PUSH32 0x4D656E746F3A20496E73756666696369656E74206F7574707574000000000000 PUSH1 0x0 DUP3 ADD MSTORE POP JUMP JUMPDEST PUSH1 0x0 PUSH2 0x1FBD PUSH1 0x1A DUP4 PUSH2 0x19B5 JUMP JUMPDEST SWAP2 POP PUSH2 0x1FC8 DUP3 PUSH2 0x1F87 JUMP JUMPDEST PUSH1 0x20 DUP3 ADD SWAP1 POP SWAP2 SWAP1 POP JUMP JUMPDEST PUSH1 0x0 PUSH1 0x20 DUP3 ADD SWAP1 POP DUP2 DUP2 SUB PUSH1 0x0 DUP4 ADD MSTORE PUSH2 0x1FEC DUP2 PUSH2 0x1FB0 JUMP JUMPDEST SWAP1 POP SWAP2 SWAP1 POP JUMP JUMPDEST PUSH1 0x0 PUSH1 0xC0 DUP3 ADD SWAP1 POP PUSH2 0x2008 PUSH1 0x0 DUP4 ADD DUP10 PUSH2 0x158E JUMP JUMPDEST PUSH2 0x2015 PUSH1 0x20 DUP4 ADD DUP9 PUSH2 0x15C2 JUMP JUMPDEST PUSH2 0x2022 PUSH1 0x40 DUP4 ADD DUP8 PUSH2 0x158E JUMP JUMPDEST PUSH2 0x202F PUSH1 0x60 DUP4 ADD DUP7 PUSH2 0x158E JUMP JUMPDEST PUSH2 0x203C PUSH1 0x80 DUP4 ADD DUP6 PUSH2 0x1564 JUMP JUMPDEST PUSH2 0x2049 PUSH1 0xA0 DUP4 ADD DUP5 PUSH2 0x1564 JUMP JUMPDEST SWAP8 SWAP7 POP POP POP POP POP POP POP JUMP INVALID LOG2 PUSH5 0x6970667358 0x22 SLT KECCAK256 0x5C ORIGIN PUSH5 0x6D1BA07029 0x5C 0x4D DUP4 RETURN SWAP4 MSTORE SHR 0xEB DUP15 0xCB PUSH24 0xEF3551AE9A254F5D0D62DB4E5564736F6C63430008140033 "},"methodIdentifiers":{"cCOP()":"e7330627","cEUR()":"7d1f2de7","cUSD()":"1fccf672","claim(uint256)":"379607f5","deposit(uint256,uint256,bool)":"43a0d066","exchangeId_cCOP_cUSD()":"2a063b97","exchangeId_cUSD_cEUR()":"eff8ff0c","exchangeProvider()":"9efe1cd2","getPiggyValue(address,uint256)":"08dae84d","getUserPiggies(address)":"a5c7343c","iMentoBroker()":"537514a2","mentoOracle()":"591b0014","piggies(address,uint256)":"d5238192"}}}}}