{
  "_format": "hh-sol-artifact-1",
  "contractName": "MockSortedOracles",
  "sourceName": "contracts/test/MockSortedOracles.sol",
  "abi": [
    {
      "inputs": [
        {
          "internalType": "address",
          "name": "token",
          "type": "address"
        }
      ],
      "name": "getMedianRate",
      "outputs": [
        {
          "internalType": "uint256",
          "name": "",
          "type": "uint256"
        },
        {
          "internalType": "uint256",
          "name": "",
          "type": "uint256"
        }
      ],
      "stateMutability": "view",
      "type": "function"
    },
    {
      "inputs": [
        {
          "internalType": "address",
          "name": "",
          "type": "address"
        }
      ],
      "name": "rates",
      "outputs": [
        {
          "internalType": "uint256",
          "name": "",
          "type": "uint256"
        }
      ],
      "stateMutability": "view",
      "type": "function"
    },
    {
      "inputs": [
        {
          "internalType": "address",
          "name": "token",
          "type": "address"
        },
        {
          "internalType": "uint256",
          "name": "rate",
          "type": "uint256"
        }
      ],
      "name": "setRate",
      "outputs": [],
      "stateMutability": "nonpayable",
      "type": "function"
    }
  ],
  "bytecode": "0x608060405234801561001057600080fd5b506102fd806100206000396000f3fe608060405234801561001057600080fd5b50600436106100415760003560e01c8063013eef65146100465780632bdb709714610077578063a8734f0b14610093575b600080fd5b610060600480360381019061005b91906101d1565b6100c3565b60405161006e929190610217565b60405180910390f35b610091600480360381019061008c919061026c565b61010f565b005b6100ad60048036038101906100a891906101d1565b610156565b6040516100ba91906102ac565b60405180910390f35b6000806000808473ffffffffffffffffffffffffffffffffffffffff1673ffffffffffffffffffffffffffffffffffffffff168152602001908152602001600020544291509150915091565b806000808473ffffffffffffffffffffffffffffffffffffffff1673ffffffffffffffffffffffffffffffffffffffff168152602001908152602001600020819055505050565b60006020528060005260406000206000915090505481565b600080fd5b600073ffffffffffffffffffffffffffffffffffffffff82169050919050565b600061019e82610173565b9050919050565b6101ae81610193565b81146101b957600080fd5b50565b6000813590506101cb816101a5565b92915050565b6000602082840312156101e7576101e661016e565b5b60006101f5848285016101bc565b91505092915050565b6000819050919050565b610211816101fe565b82525050565b600060408201905061022c6000830185610208565b6102396020830184610208565b9392505050565b610249816101fe565b811461025457600080fd5b50565b60008135905061026681610240565b92915050565b600080604083850312156102835761028261016e565b5b6000610291858286016101bc565b92505060206102a285828601610257565b9150509250929050565b60006020820190506102c16000830184610208565b9291505056fea2646970667358221220910dd3c2fa368b2d8f32f178091459d9fb89b84c77b3ab36d5402a00d35b545e64736f6c63430008140033",
  "linkReferences": {},
  "deployedLinkReferences": {}
}