{
  "_format": "hh-sol-artifact-1",
  "contractName": "MentoOracleHandler",
  "sourceName": "contracts/MentoOracleHandler.sol",
  "abi": [
    {
      "inputs": [
        {
          "internalType": "uint256",
          "name": "totalAmount",
          "type": "uint256"
        },
        {
          "internalType": "bool",
          "name": "isSafeMode",
          "type": "bool"
        }
      ],
      "name": "getSuggestedAllocation",
      "outputs": [
        {
          "internalType": "uint256",
          "name": "cCOPToKeep",
          "type": "uint256"
        },
        {
          "internalType": "uint256",
          "name": "cCOPForUSD",
          "type": "uint256"
        },
        {
          "internalType": "uint256",
          "name": "cCOPForEUR",
          "type": "uint256"
        }
      ],
      "stateMutability": "pure",
      "type": "function"
    }
  ],
  "bytecode": "0x608060405234801561001057600080fd5b5061042c806100206000396000f3fe608060405234801561001057600080fd5b506004361061002b5760003560e01c8063b4f35d5514610030575b600080fd5b61004a600480360381019061004591906101ba565b610062565b60405161005993929190610209565b60405180910390f35b60008060008085116100a9576040517f08c379a00000000000000000000000000000000000000000000000000000000081526004016100a09061029d565b60405180910390fd5b83156100ea5760646032866100be91906102ec565b6100c8919061035d565b92506064601e866100d991906102ec565b6100e3919061035d565b9150610121565b6064601e866100f991906102ec565b610103919061035d565b9250606460288661011491906102ec565b61011e919061035d565b91505b6000828461012f919061038e565b9050808661013d91906103c2565b9150509250925092565b600080fd5b6000819050919050565b61015f8161014c565b811461016a57600080fd5b50565b60008135905061017c81610156565b92915050565b60008115159050919050565b61019781610182565b81146101a257600080fd5b50565b6000813590506101b48161018e565b92915050565b600080604083850312156101d1576101d0610147565b5b60006101df8582860161016d565b92505060206101f0858286016101a5565b9150509250929050565b6102038161014c565b82525050565b600060608201905061021e60008301866101fa565b61022b60208301856101fa565b61023860408301846101fa565b949350505050565b600082825260208201905092915050565b7f546f74616c20616d6f756e74206d75737420626520706f736974697665000000600082015250565b6000610287601d83610240565b915061029282610251565b602082019050919050565b600060208201905081810360008301526102b68161027a565b9050919050565b7f4e487b7100000000000000000000000000000000000000000000000000000000600052601160045260246000fd5b60006102f78261014c565b91506103028361014c565b92508282026103108161014c565b91508282048414831517610327576103266102bd565b5b5092915050565b7f4e487b7100000000000000000000000000000000000000000000000000000000600052601260045260246000fd5b60006103688261014c565b91506103738361014c565b9250826103835761038261032e565b5b828204905092915050565b60006103998261014c565b91506103a48361014c565b92508282019050808211156103bc576103bb6102bd565b5b92915050565b60006103cd8261014c565b91506103d88361014c565b92508282039050818111156103f0576103ef6102bd565b5b9291505056fea26469706673582212200ae447b266ad1eb01cd585a0fab47b013d439a63de0fd45acc5b32bb1b2f705c64736f6c63430008140033",
  "linkReferences": {},
  "deployedLinkReferences": {}
}