{
  "_format": "hh-sol-artifact-1",
  "contractName": "MentoOracleHandler",
  "sourceName": "contracts/MentoOracleHandler.sol",
  "abi": [
    {
      "inputs": [
        {
          "internalType": "uint256",
          "name": "totalAmount",
          "type": "uint256"
        },
        {
          "internalType": "bool",
          "name": "isSafeMode",
          "type": "bool"
        }
      ],
      "name": "getSuggestedAllocation",
      "outputs": [
        {
          "internalType": "uint256",
          "name": "cCOPToKeep",
          "type": "uint256"
        },
        {
          "internalType": "uint256",
          "name": "cCOPForUSD",
          "type": "uint256"
        },
        {
          "internalType": "uint256",
          "name": "cCOPForEUR",
          "type": "uint256"
        },
        {
          "internalType": "uint256",
          "name": "cCOPForGBP",
          "type": "uint256"
        }
      ],
      "stateMutability": "pure",
      "type": "function"
    }
  ],
  "bytecode": "0x608060405234801561001057600080fd5b50610480806100206000396000f3fe608060405234801561001057600080fd5b506004361061002b5760003560e01c8063b4f35d5514610030575b600080fd5b61004a60048036038101906100459190610200565b610063565b60405161005a949392919061024f565b60405180910390f35b600080600080600086116100ac576040517f08c379a00000000000000000000000000000000000000000000000000000000081526004016100a3906102f1565b60405180910390fd5b84156101085760646028876100c19190610340565b6100cb91906103b1565b93506064601e876100dc9190610340565b6100e691906103b1565b925060646014876100f79190610340565b61010191906103b1565b915061015a565b60646014876101179190610340565b61012191906103b1565b935060646028876101329190610340565b61013c91906103b1565b92506064601e8761014d9190610340565b61015791906103b1565b91505b600082848661016991906103e2565b61017391906103e2565b905080876101819190610416565b91505092959194509250565b600080fd5b6000819050919050565b6101a581610192565b81146101b057600080fd5b50565b6000813590506101c28161019c565b92915050565b60008115159050919050565b6101dd816101c8565b81146101e857600080fd5b50565b6000813590506101fa816101d4565b92915050565b600080604083850312156102175761021661018d565b5b6000610225858286016101b3565b9250506020610236858286016101eb565b9150509250929050565b61024981610192565b82525050565b60006080820190506102646000830187610240565b6102716020830186610240565b61027e6040830185610240565b61028b6060830184610240565b95945050505050565b600082825260208201905092915050565b7f546f74616c20616d6f756e74206d75737420626520706f736974697665000000600082015250565b60006102db601d83610294565b91506102e6826102a5565b602082019050919050565b6000602082019050818103600083015261030a816102ce565b9050919050565b7f4e487b7100000000000000000000000000000000000000000000000000000000600052601160045260246000fd5b600061034b82610192565b915061035683610192565b925082820261036481610192565b9150828204841483151761037b5761037a610311565b5b5092915050565b7f4e487b7100000000000000000000000000000000000000000000000000000000600052601260045260246000fd5b60006103bc82610192565b91506103c783610192565b9250826103d7576103d6610382565b5b828204905092915050565b60006103ed82610192565b91506103f883610192565b92508282019050808211156104105761040f610311565b5b92915050565b600061042182610192565b915061042c83610192565b925082820390508181111561044457610443610311565b5b9291505056fea264697066735822122047738ec54e20043c9c4ee735b2626a2f01b7fd5519462c9dfb7618f3094ac83a64736f6c63430008140033",
  "linkReferences": {},
  "deployedLinkReferences": {}
}