{"contracts/test/MockSortedOracles.sol":{"MockSortedOracles":{"abi":[{"inputs":[{"internalType":"address","name":"token","type":"address"}],"name":"getMedianRate","outputs":[{"internalType":"uint256","name":"","type":"uint256"},{"internalType":"uint256","name":"","type":"uint256"}],"stateMutability":"view","type":"function"},{"inputs":[{"internalType":"address","name":"","type":"address"}],"name":"rates","outputs":[{"internalType":"uint256","name":"","type":"uint256"}],"stateMutability":"view","type":"function"},{"inputs":[{"internalType":"address","name":"token","type":"address"},{"internalType":"uint256","name":"rate","type":"uint256"}],"name":"setRate","outputs":[],"stateMutability":"nonpayable","type":"function"}],"evm":{"bytecode":{"linkReferences":{},"object":"608060405234801561001057600080fd5b506102fd806100206000396000f3fe608060405234801561001057600080fd5b50600436106100415760003560e01c8063013eef65146100465780632bdb709714610077578063a8734f0b14610093575b600080fd5b610060600480360381019061005b91906101d1565b6100c3565b60405161006e929190610217565b60405180910390f35b610091600480360381019061008c919061026c565b61010f565b005b6100ad60048036038101906100a891906101d1565b610156565b6040516100ba91906102ac565b60405180910390f35b6000806000808473ffffffffffffffffffffffffffffffffffffffff1673ffffffffffffffffffffffffffffffffffffffff168152602001908152602001600020544291509150915091565b806000808473ffffffffffffffffffffffffffffffffffffffff1673ffffffffffffffffffffffffffffffffffffffff168152602001908152602001600020819055505050565b60006020528060005260406000206000915090505481565b600080fd5b600073ffffffffffffffffffffffffffffffffffffffff82169050919050565b600061019e82610173565b9050919050565b6101ae81610193565b81146101b957600080fd5b50565b6000813590506101cb816101a5565b92915050565b6000602082840312156101e7576101e661016e565b5b60006101f5848285016101bc565b91505092915050565b6000819050919050565b610211816101fe565b82525050565b600060408201905061022c6000830185610208565b6102396020830184610208565b9392505050565b610249816101fe565b811461025457600080fd5b50565b60008135905061026681610240565b92915050565b600080604083850312156102835761028261016e565b5b6000610291858286016101bc565b92505060206102a285828601610257565b9150509250929050565b60006020820190506102c16000830184610208565b9291505056fea2646970667358221220910dd3c2fa368b2d8f32f178091459d9fb89b84c77b3ab36d5402a00d35b545e64736f6c63430008140033","opcodes":"PUSH1 0x80 PUSH1 0x40 MSTORE CALLVALUE DUP1 ISZERO PUSH2 0x10 JUMPI PUSH1 0x0 DUP1 REVERT JUMPDEST POP PUSH2 0x2FD DUP1 PUSH2 0x20 PUSH1 0x0 CODECOPY PUSH1 0x0 RETURN INVALID PUSH1 0x80 PUSH1 0x40 MSTORE CALLVALUE DUP1 ISZERO PUSH2 0x10 JUMPI PUSH1 0x0 DUP1 REVERT JUMPDEST POP PUSH1 0x4 CALLDATASIZE LT PUSH2 0x41 JUMPI PUSH1 0x0 CALLDATALOAD PUSH1 0xE0 SHR DUP1 PUSH4 0x13EEF65 EQ PUSH2 0x46 JUMPI DUP1 PUSH4 0x2BDB7097 EQ PUSH2 0x77 JUMPI DUP1 PUSH4 0xA8734F0B EQ PUSH2 0x93 JUMPI JUMPDEST PUSH1 0x0 DUP1 REVERT JUMPDEST PUSH2 0x60 PUSH1 0x4 DUP1 CALLDATASIZE SUB DUP2 ADD SWAP1 PUSH2 0x5B SWAP2 SWAP1 PUSH2 0x1D1 JUMP JUMPDEST PUSH2 0xC3 JUMP JUMPDEST PUSH1 0x40 MLOAD PUSH2 0x6E SWAP3 SWAP2 SWAP1 PUSH2 0x217 JUMP JUMPDEST PUSH1 0x40 MLOAD DUP1 SWAP2 SUB SWAP1 RETURN JUMPDEST PUSH2 0x91 PUSH1 0x4 DUP1 CALLDATASIZE SUB DUP2 ADD SWAP1 PUSH2 0x8C SWAP2 SWAP1 PUSH2 0x26C JUMP JUMPDEST PUSH2 0x10F JUMP JUMPDEST STOP JUMPDEST PUSH2 0xAD PUSH1 0x4 DUP1 CALLDATASIZE SUB DUP2 ADD SWAP1 PUSH2 0xA8 SWAP2 SWAP1 PUSH2 0x1D1 JUMP JUMPDEST PUSH2 0x156 JUMP JUMPDEST PUSH1 0x40 MLOAD PUSH2 0xBA SWAP2 SWAP1 PUSH2 0x2AC JUMP JUMPDEST PUSH1 0x40 MLOAD DUP1 SWAP2 SUB SWAP1 RETURN JUMPDEST PUSH1 0x0 DUP1 PUSH1 0x0 DUP1 DUP5 PUSH20 0xFFFFFFFFFFFFFFFFFFFFFFFFFFFFFFFFFFFFFFFF AND PUSH20 0xFFFFFFFFFFFFFFFFFFFFFFFFFFFFFFFFFFFFFFFF AND DUP2 MSTORE PUSH1 0x20 ADD SWAP1 DUP2 MSTORE PUSH1 0x20 ADD PUSH1 0x0 KECCAK256 SLOAD TIMESTAMP SWAP2 POP SWAP2 POP SWAP2 POP SWAP2 JUMP JUMPDEST DUP1 PUSH1 0x0 DUP1 DUP5 PUSH20 0xFFFFFFFFFFFFFFFFFFFFFFFFFFFFFFFFFFFFFFFF AND PUSH20 0xFFFFFFFFFFFFFFFFFFFFFFFFFFFFFFFFFFFFFFFF AND DUP2 MSTORE PUSH1 0x20 ADD SWAP1 DUP2 MSTORE PUSH1 0x20 ADD PUSH1 0x0 KECCAK256 DUP2 SWAP1 SSTORE POP POP POP JUMP JUMPDEST PUSH1 0x0 PUSH1 0x20 MSTORE DUP1 PUSH1 0x0 MSTORE PUSH1 0x40 PUSH1 0x0 KECCAK256 PUSH1 0x0 SWAP2 POP SWAP1 POP SLOAD DUP2 JUMP JUMPDEST PUSH1 0x0 DUP1 REVERT JUMPDEST PUSH1 0x0 PUSH20 0xFFFFFFFFFFFFFFFFFFFFFFFFFFFFFFFFFFFFFFFF DUP3 AND SWAP1 POP SWAP2 SWAP1 POP JUMP JUMPDEST PUSH1 0x0 PUSH2 0x19E DUP3 PUSH2 0x173 JUMP JUMPDEST SWAP1 POP SWAP2 SWAP1 POP JUMP JUMPDEST PUSH2 0x1AE DUP2 PUSH2 0x193 JUMP JUMPDEST DUP2 EQ PUSH2 0x1B9 JUMPI PUSH1 0x0 DUP1 REVERT JUMPDEST POP JUMP JUMPDEST PUSH1 0x0 DUP2 CALLDATALOAD SWAP1 POP PUSH2 0x1CB DUP2 PUSH2 0x1A5 JUMP JUMPDEST SWAP3 SWAP2 POP POP JUMP JUMPDEST PUSH1 0x0 PUSH1 0x20 DUP3 DUP5 SUB SLT ISZERO PUSH2 0x1E7 JUMPI PUSH2 0x1E6 PUSH2 0x16E JUMP JUMPDEST JUMPDEST PUSH1 0x0 PUSH2 0x1F5 DUP5 DUP3 DUP6 ADD PUSH2 0x1BC JUMP JUMPDEST SWAP2 POP POP SWAP3 SWAP2 POP POP JUMP JUMPDEST PUSH1 0x0 DUP2 SWAP1 POP SWAP2 SWAP1 POP JUMP JUMPDEST PUSH2 0x211 DUP2 PUSH2 0x1FE JUMP JUMPDEST DUP3 MSTORE POP POP JUMP JUMPDEST PUSH1 0x0 PUSH1 0x40 DUP3 ADD SWAP1 POP PUSH2 0x22C PUSH1 0x0 DUP4 ADD DUP6 PUSH2 0x208 JUMP JUMPDEST PUSH2 0x239 PUSH1 0x20 DUP4 ADD DUP5 PUSH2 0x208 JUMP JUMPDEST SWAP4 SWAP3 POP POP POP JUMP JUMPDEST PUSH2 0x249 DUP2 PUSH2 0x1FE JUMP JUMPDEST DUP2 EQ PUSH2 0x254 JUMPI PUSH1 0x0 DUP1 REVERT JUMPDEST POP JUMP JUMPDEST PUSH1 0x0 DUP2 CALLDATALOAD SWAP1 POP PUSH2 0x266 DUP2 PUSH2 0x240 JUMP JUMPDEST SWAP3 SWAP2 POP POP JUMP JUMPDEST PUSH1 0x0 DUP1 PUSH1 0x40 DUP4 DUP6 SUB SLT ISZERO PUSH2 0x283 JUMPI PUSH2 0x282 PUSH2 0x16E JUMP JUMPDEST JUMPDEST PUSH1 0x0 PUSH2 0x291 DUP6 DUP3 DUP7 ADD PUSH2 0x1BC JUMP JUMPDEST SWAP3 POP POP PUSH1 0x20 PUSH2 0x2A2 DUP6 DUP3 DUP7 ADD PUSH2 0x257 JUMP JUMPDEST SWAP2 POP POP SWAP3 POP SWAP3 SWAP1 POP JUMP JUMPDEST PUSH1 0x0 PUSH1 0x20 DUP3 ADD SWAP1 POP PUSH2 0x2C1 PUSH1 0x0 DUP4 ADD DUP5 PUSH2 0x208 JUMP JUMPDEST SWAP3 SWAP2 POP POP JUMP INVALID LOG2 PUSH5 0x6970667358 0x22 SLT KECCAK256 SWAP2 0xD 0xD3 0xC2 STATICCALL CALLDATASIZE DUP12 0x2D DUP16 ORIGIN CALL PUSH25 0x91459D9FB89B84C77B3AB36D5402A00D35B545E64736F6C63 NUMBER STOP ADDMOD EQ STOP CALLER "},"methodIdentifiers":{"getMedianRate(address)":"013eef65","rates(address)":"a8734f0b","setRate(address,uint256)":"2bdb7097"}}}}}