{
  "_format": "hh-sol-artifact-1",
  "contractName": "MentoBrokerMock",
  "sourceName": "contracts/mocks/MentoBrokerMock.sol",
  "abi": [
    {
      "inputs": [
        {
          "internalType": "address",
          "name": "",
          "type": "address"
        },
        {
          "internalType": "bytes32",
          "name": "",
          "type": "bytes32"
        },
        {
          "internalType": "address",
          "name": "",
          "type": "address"
        },
        {
          "internalType": "address",
          "name": "",
          "type": "address"
        },
        {
          "internalType": "uint256",
          "name": "amountIn",
          "type": "uint256"
        }
      ],
      "name": "getAmountOut",
      "outputs": [
        {
          "internalType": "uint256",
          "name": "",
          "type": "uint256"
        }
      ],
      "stateMutability": "view",
      "type": "function"
    },
    {
      "inputs": [
        {
          "internalType": "uint256",
          "name": "_multiplier",
          "type": "uint256"
        }
      ],
      "name": "setSwapMultiplier",
      "outputs": [],
      "stateMutability": "nonpayable",
      "type": "function"
    },
    {
      "inputs": [
        {
          "internalType": "address",
          "name": "",
          "type": "address"
        },
        {
          "internalType": "bytes32",
          "name": "",
          "type": "bytes32"
        },
        {
          "internalType": "address",
          "name": "tokenIn",
          "type": "address"
        },
        {
          "internalType": "address",
          "name": "tokenOut",
          "type": "address"
        },
        {
          "internalType": "uint256",
          "name": "amountIn",
          "type": "uint256"
        },
        {
          "internalType": "uint256",
          "name": "",
          "type": "uint256"
        }
      ],
      "name": "swapIn",
      "outputs": [
        {
          "internalType": "uint256",
          "name": "",
          "type": "uint256"
        }
      ],
      "stateMutability": "nonpayable",
      "type": "function"
    },
    {
      "inputs": [],
      "name": "swapMultiplier",
      "outputs": [
        {
          "internalType": "uint256",
          "name": "",
          "type": "uint256"
        }
      ],
      "stateMutability": "view",
      "type": "function"
    }
  ],
  "bytecode": "0x6080604052606460005534801561001557600080fd5b50610658806100256000396000f3fe608060405234801561001057600080fd5b506004361061004c5760003560e01c806345dc16e0146100515780639858b4881461006d578063a20f23051461008b578063ddbbe850146100bb575b600080fd5b61006b6004803603810190610066919061028a565b6100eb565b005b6100756100f5565b60405161008291906102c6565b60405180910390f35b6100a560048036038101906100a09190610375565b6100fb565b6040516100b291906102c6565b60405180910390f35b6100d560048036038101906100d091906103f0565b610122565b6040516100e291906102c6565b60405180910390f35b8060008190555050565b60005481565b600060646000548361010d91906104ac565b610117919061051d565b905095945050505050565b60008060646000548561013591906104ac565b61013f919061051d565b90508573ffffffffffffffffffffffffffffffffffffffff166323b872dd3330876040518463ffffffff1660e01b815260040161017e9392919061055d565b6020604051808303816000875af115801561019d573d6000803e3d6000fd5b505050506040513d601f19601f820116820180604052508101906101c191906105cc565b508473ffffffffffffffffffffffffffffffffffffffff1663a9059cbb33836040518363ffffffff1660e01b81526004016101fd9291906105f9565b6020604051808303816000875af115801561021c573d6000803e3d6000fd5b505050506040513d601f19601f8201168201806040525081019061024091906105cc565b50809150509695505050505050565b600080fd5b6000819050919050565b61026781610254565b811461027257600080fd5b50565b6000813590506102848161025e565b92915050565b6000602082840312156102a05761029f61024f565b5b60006102ae84828501610275565b91505092915050565b6102c081610254565b82525050565b60006020820190506102db60008301846102b7565b92915050565b600073ffffffffffffffffffffffffffffffffffffffff82169050919050565b600061030c826102e1565b9050919050565b61031c81610301565b811461032757600080fd5b50565b60008135905061033981610313565b92915050565b6000819050919050565b6103528161033f565b811461035d57600080fd5b50565b60008135905061036f81610349565b92915050565b600080600080600060a086880312156103915761039061024f565b5b600061039f8882890161032a565b95505060206103b088828901610360565b94505060406103c18882890161032a565b93505060606103d28882890161032a565b92505060806103e388828901610275565b9150509295509295909350565b60008060008060008060c0878903121561040d5761040c61024f565b5b600061041b89828a0161032a565b965050602061042c89828a01610360565b955050604061043d89828a0161032a565b945050606061044e89828a0161032a565b935050608061045f89828a01610275565b92505060a061047089828a01610275565b9150509295509295509295565b7f4e487b7100000000000000000000000000000000000000000000000000000000600052601160045260246000fd5b60006104b782610254565b91506104c283610254565b92508282026104d081610254565b915082820484148315176104e7576104e661047d565b5b5092915050565b7f4e487b7100000000000000000000000000000000000000000000000000000000600052601260045260246000fd5b600061052882610254565b915061053383610254565b925082610543576105426104ee565b5b828204905092915050565b61055781610301565b82525050565b6000606082019050610572600083018661054e565b61057f602083018561054e565b61058c60408301846102b7565b949350505050565b60008115159050919050565b6105a981610594565b81146105b457600080fd5b50565b6000815190506105c6816105a0565b92915050565b6000602082840312156105e2576105e161024f565b5b60006105f0848285016105b7565b91505092915050565b600060408201905061060e600083018561054e565b61061b60208301846102b7565b939250505056fea26469706673582212201ae07fe402d1c8c0dafed779a11211fdb42ffe5d24f143f8be57d009402e0cdd64736f6c63430008140033",
  "linkReferences": {},
  "deployedLinkReferences": {}
}