{
  "_format": "hh-sol-artifact-1",
  "contractName": "PiggyBank",
  "sourceName": "contracts/cPiggyBank.sol",
  "abi": [
    {
      "inputs": [
        {
          "internalType": "address",
          "name": "_iMentoBroker",
          "type": "address"
        },
        {
          "internalType": "address",
          "name": "_mentoOracle",
          "type": "address"
        },
        {
          "internalType": "address",
          "name": "_exchangeProvider",
          "type": "address"
        },
        {
          "internalType": "address",
          "name": "_cCOP",
          "type": "address"
        },
        {
          "internalType": "address",
          "name": "_cUSD",
          "type": "address"
        },
        {
          "internalType": "address",
          "name": "_cEUR",
          "type": "address"
        },
        {
          "internalType": "address",
          "name": "_cGBP",
          "type": "address"
        },
        {
          "internalType": "bytes32",
          "name": "_exchangeId_cCOP_cUSD",
          "type": "bytes32"
        },
        {
          "internalType": "bytes32",
          "name": "_exchangeId_cUSD_cEUR",
          "type": "bytes32"
        },
        {
          "internalType": "bytes32",
          "name": "_exchangeId_cUSD_cGBP",
          "type": "bytes32"
        },
        {
          "internalType": "address",
          "name": "_developer",
          "type": "address"
        }
      ],
      "stateMutability": "nonpayable",
      "type": "constructor"
    },
    {
      "inputs": [
        {
          "internalType": "address",
          "name": "owner",
          "type": "address"
        }
      ],
      "name": "OwnableInvalidOwner",
      "type": "error"
    },
    {
      "inputs": [
        {
          "internalType": "address",
          "name": "account",
          "type": "address"
        }
      ],
      "name": "OwnableUnauthorizedAccount",
      "type": "error"
    },
    {
      "anonymous": false,
      "inputs": [
        {
          "indexed": true,
          "internalType": "address",
          "name": "previousOwner",
          "type": "address"
        },
        {
          "indexed": true,
          "internalType": "address",
          "name": "newOwner",
          "type": "address"
        }
      ],
      "name": "OwnershipTransferred",
      "type": "event"
    },
    {
      "anonymous": false,
      "inputs": [
        {
          "indexed": true,
          "internalType": "address",
          "name": "user",
          "type": "address"
        },
        {
          "indexed": false,
          "internalType": "uint256",
          "name": "index",
          "type": "uint256"
        },
        {
          "indexed": false,
          "internalType": "uint256",
          "name": "userReturnAmount",
          "type": "uint256"
        },
        {
          "indexed": false,
          "internalType": "uint256",
          "name": "developerFee",
          "type": "uint256"
        }
      ],
      "name": "PiggyClaimed",
      "type": "event"
    },
    {
      "anonymous": false,
      "inputs": [
        {
          "indexed": true,
          "internalType": "address",
          "name": "user",
          "type": "address"
        },
        {
          "indexed": false,
          "internalType": "uint256",
          "name": "totalAmount",
          "type": "uint256"
        },
        {
          "indexed": false,
          "internalType": "uint256",
          "name": "duration",
          "type": "uint256"
        },
        {
          "indexed": false,
          "internalType": "bool",
          "name": "safeMode",
          "type": "bool"
        },
        {
          "indexed": false,
          "internalType": "uint256",
          "name": "cCOPAmount",
          "type": "uint256"
        },
        {
          "indexed": false,
          "internalType": "uint256",
          "name": "cUSDAmountReceived",
          "type": "uint256"
        },
        {
          "indexed": false,
          "internalType": "uint256",
          "name": "cEURAmountReceived",
          "type": "uint256"
        },
        {
          "indexed": false,
          "internalType": "uint256",
          "name": "cGBPAmountReceived",
          "type": "uint256"
        }
      ],
      "name": "PiggyCreated",
      "type": "event"
    },
    {
      "anonymous": false,
      "inputs": [
        {
          "indexed": true,
          "internalType": "address",
          "name": "funder",
          "type": "address"
        },
        {
          "indexed": false,
          "internalType": "uint256",
          "name": "totalAmount",
          "type": "uint256"
        }
      ],
      "name": "RewardsFunded",
      "type": "event"
    },
    {
      "anonymous": false,
      "inputs": [
        {
          "indexed": true,
          "internalType": "address",
          "name": "user",
          "type": "address"
        },
        {
          "indexed": false,
          "internalType": "uint256",
          "name": "index",
          "type": "uint256"
        },
        {
          "indexed": false,
          "internalType": "uint256",
          "name": "principal",
          "type": "uint256"
        },
        {
          "indexed": false,
          "internalType": "uint256",
          "name": "reward",
          "type": "uint256"
        },
        {
          "indexed": false,
          "internalType": "uint256",
          "name": "developerFee",
          "type": "uint256"
        }
      ],
      "name": "StakeClaimed",
      "type": "event"
    },
    {
      "anonymous": false,
      "inputs": [
        {
          "indexed": true,
          "internalType": "address",
          "name": "user",
          "type": "address"
        },
        {
          "indexed": false,
          "internalType": "uint256",
          "name": "amount",
          "type": "uint256"
        },
        {
          "indexed": false,
          "internalType": "uint256",
          "name": "duration",
          "type": "uint256"
        },
        {
          "indexed": false,
          "internalType": "uint256",
          "name": "reward",
          "type": "uint256"
        }
      ],
      "name": "StakeCreated",
      "type": "event"
    },
    {
      "inputs": [],
      "name": "MAX_DEPOSIT_PER_WALLET",
      "outputs": [
        {
          "internalType": "uint256",
          "name": "",
          "type": "uint256"
        }
      ],
      "stateMutability": "view",
      "type": "function"
    },
    {
      "inputs": [],
      "name": "STAKING_DEV_FEE_PERCENTAGE",
      "outputs": [
        {
          "internalType": "uint256",
          "name": "",
          "type": "uint256"
        }
      ],
      "stateMutability": "view",
      "type": "function"
    },
    {
      "inputs": [],
      "name": "cCOP",
      "outputs": [
        {
          "internalType": "address",
          "name": "",
          "type": "address"
        }
      ],
      "stateMutability": "view",
      "type": "function"
    },
    {
      "inputs": [],
      "name": "cEUR",
      "outputs": [
        {
          "internalType": "address",
          "name": "",
          "type": "address"
        }
      ],
      "stateMutability": "view",
      "type": "function"
    },
    {
      "inputs": [],
      "name": "cGBP",
      "outputs": [
        {
          "internalType": "address",
          "name": "",
          "type": "address"
        }
      ],
      "stateMutability": "view",
      "type": "function"
    },
    {
      "inputs": [],
      "name": "cUSD",
      "outputs": [
        {
          "internalType": "address",
          "name": "",
          "type": "address"
        }
      ],
      "stateMutability": "view",
      "type": "function"
    },
    {
      "inputs": [
        {
          "internalType": "uint256",
          "name": "_index",
          "type": "uint256"
        }
      ],
      "name": "claim",
      "outputs": [],
      "stateMutability": "nonpayable",
      "type": "function"
    },
    {
      "inputs": [
        {
          "internalType": "uint256",
          "name": "amount",
          "type": "uint256"
        },
        {
          "internalType": "uint256",
          "name": "lockDays",
          "type": "uint256"
        },
        {
          "internalType": "bool",
          "name": "safeMode",
          "type": "bool"
        }
      ],
      "name": "deposit",
      "outputs": [],
      "stateMutability": "nonpayable",
      "type": "function"
    },
    {
      "inputs": [],
      "name": "developer",
      "outputs": [
        {
          "internalType": "address",
          "name": "",
          "type": "address"
        }
      ],
      "stateMutability": "view",
      "type": "function"
    },
    {
      "inputs": [],
      "name": "exchangeId_cCOP_cUSD",
      "outputs": [
        {
          "internalType": "bytes32",
          "name": "",
          "type": "bytes32"
        }
      ],
      "stateMutability": "view",
      "type": "function"
    },
    {
      "inputs": [],
      "name": "exchangeId_cUSD_cEUR",
      "outputs": [
        {
          "internalType": "bytes32",
          "name": "",
          "type": "bytes32"
        }
      ],
      "stateMutability": "view",
      "type": "function"
    },
    {
      "inputs": [],
      "name": "exchangeId_cUSD_cGBP",
      "outputs": [
        {
          "internalType": "bytes32",
          "name": "",
          "type": "bytes32"
        }
      ],
      "stateMutability": "view",
      "type": "function"
    },
    {
      "inputs": [],
      "name": "exchangeProvider",
      "outputs": [
        {
          "internalType": "address",
          "name": "",
          "type": "address"
        }
      ],
      "stateMutability": "view",
      "type": "function"
    },
    {
      "inputs": [
        {
          "internalType": "uint256",
          "name": "_amount",
          "type": "uint256"
        }
      ],
      "name": "fundRewards",
      "outputs": [],
      "stateMutability": "nonpayable",
      "type": "function"
    },
    {
      "inputs": [
        {
          "internalType": "address",
          "name": "_user",
          "type": "address"
        },
        {
          "internalType": "uint256",
          "name": "_index",
          "type": "uint256"
        }
      ],
      "name": "getPiggyValue",
      "outputs": [
        {
          "internalType": "uint256",
          "name": "",
          "type": "uint256"
        }
      ],
      "stateMutability": "view",
      "type": "function"
    },
    {
      "inputs": [
        {
          "internalType": "uint256",
          "name": "_duration",
          "type": "uint256"
        }
      ],
      "name": "getPoolInfo",
      "outputs": [
        {
          "components": [
            {
              "internalType": "uint256",
              "name": "totalStaked",
              "type": "uint256"
            },
            {
              "internalType": "uint256",
              "name": "maxTotalStake",
              "type": "uint256"
            },
            {
              "internalType": "uint256",
              "name": "totalRewardsFunded",
              "type": "uint256"
            },
            {
              "internalType": "uint256",
              "name": "totalRewardsPromised",
              "type": "uint256"
            },
            {
              "internalType": "uint256",
              "name": "duration",
              "type": "uint256"
            }
          ],
          "internalType": "struct PiggyBank.StakingPool",
          "name": "",
          "type": "tuple"
        }
      ],
      "stateMutability": "view",
      "type": "function"
    },
    {
      "inputs": [],
      "name": "getRewardsOut",
      "outputs": [],
      "stateMutability": "nonpayable",
      "type": "function"
    },
    {
      "inputs": [
        {
          "internalType": "address",
          "name": "_user",
          "type": "address"
        }
      ],
      "name": "getUserPiggies",
      "outputs": [
        {
          "components": [
            {
              "internalType": "address",
              "name": "owner",
              "type": "address"
            },
            {
              "internalType": "uint256",
              "name": "initialAmount",
              "type": "uint256"
            },
            {
              "internalType": "uint256",
              "name": "cCOPAmount",
              "type": "uint256"
            },
            {
              "internalType": "uint256",
              "name": "cUSDAmount",
              "type": "uint256"
            },
            {
              "internalType": "uint256",
              "name": "cEURAmount",
              "type": "uint256"
            },
            {
              "internalType": "uint256",
              "name": "cGBPAmount",
              "type": "uint256"
            },
            {
              "internalType": "uint256",
              "name": "startTime",
              "type": "uint256"
            },
            {
              "internalType": "uint256",
              "name": "duration",
              "type": "uint256"
            },
            {
              "internalType": "bool",
              "name": "safeMode",
              "type": "bool"
            },
            {
              "internalType": "bool",
              "name": "claimed",
              "type": "bool"
            }
          ],
          "internalType": "struct PiggyBank.Piggy[]",
          "name": "",
          "type": "tuple[]"
        }
      ],
      "stateMutability": "view",
      "type": "function"
    },
    {
      "inputs": [
        {
          "internalType": "address",
          "name": "_user",
          "type": "address"
        }
      ],
      "name": "getUserStakes",
      "outputs": [
        {
          "components": [
            {
              "internalType": "uint256",
              "name": "amount",
              "type": "uint256"
            },
            {
              "internalType": "uint256",
              "name": "startTime",
              "type": "uint256"
            },
            {
              "internalType": "uint256",
              "name": "duration",
              "type": "uint256"
            },
            {
              "internalType": "uint256",
              "name": "reward",
              "type": "uint256"
            },
            {
              "internalType": "bool",
              "name": "claimed",
              "type": "bool"
            }
          ],
          "internalType": "struct PiggyBank.StakingPosition[]",
          "name": "",
          "type": "tuple[]"
        }
      ],
      "stateMutability": "view",
      "type": "function"
    },
    {
      "inputs": [],
      "name": "iMentoBroker",
      "outputs": [
        {
          "internalType": "contract IMentoBroker",
          "name": "",
          "type": "address"
        }
      ],
      "stateMutability": "view",
      "type": "function"
    },
    {
      "inputs": [],
      "name": "mentoOracle",
      "outputs": [
        {
          "internalType": "contract MentoOracleHandler",
          "name": "",
          "type": "address"
        }
      ],
      "stateMutability": "view",
      "type": "function"
    },
    {
      "inputs": [],
      "name": "owner",
      "outputs": [
        {
          "internalType": "address",
          "name": "",
          "type": "address"
        }
      ],
      "stateMutability": "view",
      "type": "function"
    },
    {
      "inputs": [
        {
          "internalType": "address",
          "name": "",
          "type": "address"
        },
        {
          "internalType": "uint256",
          "name": "",
          "type": "uint256"
        }
      ],
      "name": "piggies",
      "outputs": [
        {
          "internalType": "address",
          "name": "owner",
          "type": "address"
        },
        {
          "internalType": "uint256",
          "name": "initialAmount",
          "type": "uint256"
        },
        {
          "internalType": "uint256",
          "name": "cCOPAmount",
          "type": "uint256"
        },
        {
          "internalType": "uint256",
          "name": "cUSDAmount",
          "type": "uint256"
        },
        {
          "internalType": "uint256",
          "name": "cEURAmount",
          "type": "uint256"
        },
        {
          "internalType": "uint256",
          "name": "cGBPAmount",
          "type": "uint256"
        },
        {
          "internalType": "uint256",
          "name": "startTime",
          "type": "uint256"
        },
        {
          "internalType": "uint256",
          "name": "duration",
          "type": "uint256"
        },
        {
          "internalType": "bool",
          "name": "safeMode",
          "type": "bool"
        },
        {
          "internalType": "bool",
          "name": "claimed",
          "type": "bool"
        }
      ],
      "stateMutability": "view",
      "type": "function"
    },
    {
      "inputs": [],
      "name": "renounceOwnership",
      "outputs": [],
      "stateMutability": "nonpayable",
      "type": "function"
    },
    {
      "inputs": [
        {
          "internalType": "uint256",
          "name": "_amount",
          "type": "uint256"
        },
        {
          "internalType": "uint256",
          "name": "_duration",
          "type": "uint256"
        }
      ],
      "name": "stake",
      "outputs": [],
      "stateMutability": "nonpayable",
      "type": "function"
    },
    {
      "inputs": [
        {
          "internalType": "uint256",
          "name": "",
          "type": "uint256"
        }
      ],
      "name": "stakingPools",
      "outputs": [
        {
          "internalType": "uint256",
          "name": "totalStaked",
          "type": "uint256"
        },
        {
          "internalType": "uint256",
          "name": "maxTotalStake",
          "type": "uint256"
        },
        {
          "internalType": "uint256",
          "name": "totalRewardsFunded",
          "type": "uint256"
        },
        {
          "internalType": "uint256",
          "name": "totalRewardsPromised",
          "type": "uint256"
        },
        {
          "internalType": "uint256",
          "name": "duration",
          "type": "uint256"
        }
      ],
      "stateMutability": "view",
      "type": "function"
    },
    {
      "inputs": [
        {
          "internalType": "address",
          "name": "",
          "type": "address"
        }
      ],
      "name": "totalStakedAmountByUser",
      "outputs": [
        {
          "internalType": "uint256",
          "name": "",
          "type": "uint256"
        }
      ],
      "stateMutability": "view",
      "type": "function"
    },
    {
      "inputs": [
        {
          "internalType": "address",
          "name": "newOwner",
          "type": "address"
        }
      ],
      "name": "transferOwnership",
      "outputs": [],
      "stateMutability": "nonpayable",
      "type": "function"
    },
    {
      "inputs": [
        {
          "internalType": "uint256",
          "name": "_index",
          "type": "uint256"
        }
      ],
      "name": "unstake",
      "outputs": [],
      "stateMutability": "nonpayable",
      "type": "function"
    },
    {
      "inputs": [
        {
          "internalType": "address",
          "name": "",
          "type": "address"
        },
        {
          "internalType": "uint256",
          "name": "",
          "type": "uint256"
        }
      ],
      "name": "userStakes",
      "outputs": [
        {
          "internalType": "uint256",
          "name": "amount",
          "type": "uint256"
        },
        {
          "internalType": "uint256",
          "name": "startTime",
          "type": "uint256"
        },
        {
          "internalType": "uint256",
          "name": "duration",
          "type": "uint256"
        },
        {
          "internalType": "uint256",
          "name": "reward",
          "type": "uint256"
        },
        {
          "internalType": "bool",
          "name": "claimed",
          "type": "bool"
        }
      ],
      "stateMutability": "view",
      "type": "function"
    }
  ],
  "bytecode": "0x6101806040523480156200001257600080fd5b50604051620049003803806200490083398181016040528101906200003891906200059d565b33600073ffffffffffffffffffffffffffffffffffffffff168173ffffffffffffffffffffffffffffffffffffffff1603620000ae5760006040517f1e4fbdf7000000000000000000000000000000000000000000000000000000008152600401620000a59190620006bb565b60405180910390fd5b620000bf816200043460201b60201c565b508a600260006101000a81548173ffffffffffffffffffffffffffffffffffffffff021916908373ffffffffffffffffffffffffffffffffffffffff16021790555089600160006101000a81548173ffffffffffffffffffffffffffffffffffffffff021916908373ffffffffffffffffffffffffffffffffffffffff1602179055508873ffffffffffffffffffffffffffffffffffffffff166101008173ffffffffffffffffffffffffffffffffffffffff16815250508773ffffffffffffffffffffffffffffffffffffffff1660808173ffffffffffffffffffffffffffffffffffffffff16815250508673ffffffffffffffffffffffffffffffffffffffff1660a08173ffffffffffffffffffffffffffffffffffffffff16815250508573ffffffffffffffffffffffffffffffffffffffff1660c08173ffffffffffffffffffffffffffffffffffffffff16815250508473ffffffffffffffffffffffffffffffffffffffff1660e08173ffffffffffffffffffffffffffffffffffffffff168152505083610120818152505082610140818152505081610160818152505080600360006101000a81548173ffffffffffffffffffffffffffffffffffffffff021916908373ffffffffffffffffffffffffffffffffffffffff1602179055506040518060a00160405280600081526020016b0a56fa5b99019a5c8000000081526020016000815260200160008152602001601e81525060056000601e815260200190815260200160002060008201518160000155602082015181600101556040820151816002015560608201518160030155608082015181600401559050506040518060a00160405280600081526020016b03bddc2f53582abccecc000081526020016000815260200160008152602001603c81525060056000603c815260200190815260200160002060008201518160000155602082015181600101556040820151816002015560608201518160030155608082015181600401559050506040518060a00160405280600081526020016b0151db3de1e9ad6ecf14000081526020016000815260200160008152602001605a81525060056000605a815260200190815260200160002060008201518160000155602082015181600101556040820151816002015560608201518160030155608082015181600401559050505050505050505050505050620006d8565b60008060009054906101000a900473ffffffffffffffffffffffffffffffffffffffff169050816000806101000a81548173ffffffffffffffffffffffffffffffffffffffff021916908373ffffffffffffffffffffffffffffffffffffffff1602179055508173ffffffffffffffffffffffffffffffffffffffff168173ffffffffffffffffffffffffffffffffffffffff167f8be0079c531659141344cd1fd0a4f28419497f9722a3daafe3b4186f6b6457e060405160405180910390a35050565b600080fd5b600073ffffffffffffffffffffffffffffffffffffffff82169050919050565b60006200052a82620004fd565b9050919050565b6200053c816200051d565b81146200054857600080fd5b50565b6000815190506200055c8162000531565b92915050565b6000819050919050565b620005778162000562565b81146200058357600080fd5b50565b60008151905062000597816200056c565b92915050565b60008060008060008060008060008060006101608c8e031215620005c657620005c5620004f8565b5b6000620005d68e828f016200054b565b9b50506020620005e98e828f016200054b565b9a50506040620005fc8e828f016200054b565b99505060606200060f8e828f016200054b565b9850506080620006228e828f016200054b565b97505060a0620006358e828f016200054b565b96505060c0620006488e828f016200054b565b95505060e06200065b8e828f0162000586565b9450506101006200066f8e828f0162000586565b935050610120620006838e828f0162000586565b925050610140620006978e828f016200054b565b9150509295989b509295989b9093969950565b620006b5816200051d565b82525050565b6000602082019050620006d26000830184620006aa565b92915050565b60805160a05160c05160e051610100516101205161014051610160516140a36200085d600039600081816108a301528181610ac40152818161128e01526118ee01526000818161075f0152818161120301528181611876015261295b0152600081816109e301528181610b240152818161131601526117c901526000818161073e01528181610882015281816109c20152818161267101528181612a460152612bf00152600081816108c4015281816112af015281816119300152611c1701526000818161078001528181611224015281816118b801526121990152600081816107a1015281816108e501528181610a0401528181610b0001528181611245015281816112d0015281816113370152818161180b01528181611897015261190f015260008181610a2501528181610de301528181610ea5015281816113580152818161140b015281816114cf015281816116fb015281816117ea01528181611fc2015281816121c7015281816122a60152818161249d015261293701526140a36000f3fe608060405234801561001057600080fd5b50600436106101da5760003560e01c8063715018a6116101045780639efe1cd2116100a2578063d523819211610071578063d52381921461053f578063e733062714610578578063eff8ff0c14610596578063f2fde38b146105b4576101da565b80639efe1cd21461049f578063a5c7343c146104bd578063b5d5b5fa146104ed578063ca4b208b14610521576101da565b806380308f23116100de57806380308f231461042b578063842e2981146104355780638da5cb5b1461046557806393707a1914610483576101da565b8063715018a6146103e75780637b0472f0146103f15780637d1f2de71461040d576101da565b80632f380b351161017c578063537514a21161014b578063537514a214610359578063591b0014146103775780635aad6cf01461039557806363f68d5d146103c9576101da565b80632f380b35146102d3578063379607f51461030357806343a0d0661461031f578063473e5b941461033b576101da565b80631c803416116101b85780631c8034161461024b5780631fccf6721461027b5780632a063b97146102995780632e17de78146102b7576101da565b806302a6bbca146101df57806308dae84d146101fd57806313178c3f1461022d575b600080fd5b6101e76105d0565b6040516101f49190612e1e565b60405180910390f35b61021760048036038101906102129190612ec8565b6105d5565b6040516102249190612e1e565b60405180910390f35b610235610ac2565b6040516102429190612f21565b60405180910390f35b61026560048036038101906102609190612f3c565b610ae6565b6040516102729190612e1e565b60405180910390f35b610283610afe565b6040516102909190612f78565b60405180910390f35b6102a1610b22565b6040516102ae9190612f21565b60405180910390f35b6102d160048036038101906102cc9190612f93565b610b46565b005b6102ed60048036038101906102e89190612f93565b610fa1565b6040516102fa9190613037565b60405180910390f35b61031d60048036038101906103189190612f93565b611059565b005b6103396004803603810190610334919061308a565b6115c7565b005b610343611b84565b6040516103509190612e1e565b60405180910390f35b610361611b93565b60405161036e919061313c565b60405180910390f35b61037f611bb9565b60405161038c9190613178565b60405180910390f35b6103af60048036038101906103aa9190612f93565b611bdf565b6040516103c0959493929190613193565b60405180910390f35b6103d1611c15565b6040516103de9190612f78565b60405180910390f35b6103ef611c39565b005b61040b600480360381019061040691906131e6565b611c4d565b005b610415612197565b6040516104229190612f78565b60405180910390f35b6104336121bb565b005b61044f600480360381019061044a9190612f3c565b612346565b60405161045c919061334c565b60405180910390f35b61046d612427565b60405161047a9190612f78565b60405180910390f35b61049d60048036038101906104989190612f93565b612450565b005b6104a761266f565b6040516104b49190612f78565b60405180910390f35b6104d760048036038101906104d29190612f3c565b612693565b6040516104e491906134f9565b60405180910390f35b61050760048036038101906105029190612ec8565b612804565b60405161051895949392919061352a565b60405180910390f35b610529612864565b6040516105369190612f78565b60405180910390f35b61055960048036038101906105549190612ec8565b61288a565b60405161056f9a9998979695949392919061357d565b60405180910390f35b610580612935565b60405161058d9190612f78565b60405180910390f35b61059e612959565b6040516105ab9190612f21565b60405180910390f35b6105ce60048036038101906105c99190612f3c565b61297d565b005b600581565b6000600460008473ffffffffffffffffffffffffffffffffffffffff1673ffffffffffffffffffffffffffffffffffffffff16815260200190815260200160002080549050821061065b576040517f08c379a000000000000000000000000000000000000000000000000000000000815260040161065290613676565b60405180910390fd5b6000600460008573ffffffffffffffffffffffffffffffffffffffff1673ffffffffffffffffffffffffffffffffffffffff16815260200190815260200160002083815481106106ae576106ad613696565b5b906000526020600020906009020190508060080160019054906101000a900460ff16156106df576000915050610abc565b60008160020154905060008260030154905060008360040154111561083557600260009054906101000a900473ffffffffffffffffffffffffffffffffffffffff1673ffffffffffffffffffffffffffffffffffffffff1663a20f23057f00000000000000000000000000000000000000000000000000000000000000007f00000000000000000000000000000000000000000000000000000000000000007f00000000000000000000000000000000000000000000000000000000000000007f000000000000000000000000000000000000000000000000000000000000000088600401546040518663ffffffff1660e01b81526004016107e59594939291906136c5565b602060405180830381865afa92505050801561081f57506040513d601f19601f8201168201806040525081019061081c919061372d565b60015b156108345780826108309190613789565b9150505b5b60008360050154111561097957600260009054906101000a900473ffffffffffffffffffffffffffffffffffffffff1673ffffffffffffffffffffffffffffffffffffffff1663a20f23057f00000000000000000000000000000000000000000000000000000000000000007f00000000000000000000000000000000000000000000000000000000000000007f00000000000000000000000000000000000000000000000000000000000000007f000000000000000000000000000000000000000000000000000000000000000088600501546040518663ffffffff1660e01b81526004016109299594939291906136c5565b602060405180830381865afa92505050801561096357506040513d601f19601f82011682018060405250810190610960919061372d565b60015b156109785780826109749190613789565b9150505b5b6000811115610ab557600260009054906101000a900473ffffffffffffffffffffffffffffffffffffffff1673ffffffffffffffffffffffffffffffffffffffff1663a20f23057f00000000000000000000000000000000000000000000000000000000000000007f00000000000000000000000000000000000000000000000000000000000000007f00000000000000000000000000000000000000000000000000000000000000007f0000000000000000000000000000000000000000000000000000000000000000866040518663ffffffff1660e01b8152600401610a659594939291906136c5565b602060405180830381865afa925050508015610a9f57506040513d601f19601f82011682018060405250810190610a9c919061372d565b60015b15610ab4578083610ab09190613789565b9250505b5b8193505050505b92915050565b7f000000000000000000000000000000000000000000000000000000000000000081565b60076020528060005260406000206000915090505481565b7f000000000000000000000000000000000000000000000000000000000000000081565b7f000000000000000000000000000000000000000000000000000000000000000081565b600660003373ffffffffffffffffffffffffffffffffffffffff1673ffffffffffffffffffffffffffffffffffffffff168152602001908152602001600020805490508110610bca576040517f08c379a0000000000000000000000000000000000000000000000000000000008152600401610bc190613809565b60405180910390fd5b6000600660003373ffffffffffffffffffffffffffffffffffffffff1673ffffffffffffffffffffffffffffffffffffffff1681526020019081526020016000208281548110610c1d57610c1c613696565b5b906000526020600020906005020190508060040160009054906101000a900460ff1615610c7f576040517f08c379a0000000000000000000000000000000000000000000000000000000008152600401610c7690613875565b60405180910390fd5b620151808160020154610c929190613895565b8160010154610ca19190613789565b421015610ce3576040517f08c379a0000000000000000000000000000000000000000000000000000000008152600401610cda90613923565b60405180910390fd5b60018160040160006101000a81548160ff0219169083151502179055506000606460058360030154610d159190613895565b610d1f9190613972565b90506000818360030154610d3391906139a3565b90506000818460000154610d479190613789565b90508360000154600760003373ffffffffffffffffffffffffffffffffffffffff1673ffffffffffffffffffffffffffffffffffffffff1681526020019081526020016000206000828254610d9c91906139a3565b92505081905550836000015460056000866002015481526020019081526020016000206000016000828254610dd191906139a3565b925050819055506000831115610ea3577f000000000000000000000000000000000000000000000000000000000000000073ffffffffffffffffffffffffffffffffffffffff1663a9059cbb600360009054906101000a900473ffffffffffffffffffffffffffffffffffffffff16856040518363ffffffff1660e01b8152600401610e5e9291906139d7565b6020604051808303816000875af1158015610e7d573d6000803e3d6000fd5b505050506040513d601f19601f82011682018060405250810190610ea19190613a15565b505b7f000000000000000000000000000000000000000000000000000000000000000073ffffffffffffffffffffffffffffffffffffffff1663a9059cbb33836040518363ffffffff1660e01b8152600401610efe9291906139d7565b6020604051808303816000875af1158015610f1d573d6000803e3d6000fd5b505050506040513d601f19601f82011682018060405250810190610f419190613a15565b503373ffffffffffffffffffffffffffffffffffffffff167f3f0d7efee16f032b58c9ead61368473e4e8d9849606765453906bc92cdb82b308686600001548587604051610f929493929190613a42565b60405180910390a25050505050565b610fa9612dd6565b601e821480610fb85750603c82145b80610fc35750605a82145b611002576040517f08c379a0000000000000000000000000000000000000000000000000000000008152600401610ff990613ad3565b60405180910390fd5b600560008381526020019081526020016000206040518060a0016040529081600082015481526020016001820154815260200160028201548152602001600382015481526020016004820154815250509050919050565b600460003373ffffffffffffffffffffffffffffffffffffffff1673ffffffffffffffffffffffffffffffffffffffff1681526020019081526020016000208054905081106110dd576040517f08c379a00000000000000000000000000000000000000000000000000000000081526004016110d490613676565b60405180910390fd5b6000600460003373ffffffffffffffffffffffffffffffffffffffff1673ffffffffffffffffffffffffffffffffffffffff16815260200190815260200160002082815481106111305761112f613696565b5b906000526020600020906009020190508060080160019054906101000a900460ff1615611192576040517f08c379a000000000000000000000000000000000000000000000000000000000815260040161118990613875565b60405180910390fd5b806007015481600601546111a69190613789565b4210156111e8576040517f08c379a00000000000000000000000000000000000000000000000000000000081526004016111df90613b3f565b60405180910390fd5b60008160030154905060008260040154111561127c5761126e7f00000000000000000000000000000000000000000000000000000000000000007f00000000000000000000000000000000000000000000000000000000000000007f00000000000000000000000000000000000000000000000000000000000000008560040154612a03565b816112799190613789565b90505b600082600501541115611307576112f97f00000000000000000000000000000000000000000000000000000000000000007f00000000000000000000000000000000000000000000000000000000000000007f00000000000000000000000000000000000000000000000000000000000000008560050154612a03565b816113049190613789565b90505b6000808211156113805761137d7f00000000000000000000000000000000000000000000000000000000000000007f00000000000000000000000000000000000000000000000000000000000000007f000000000000000000000000000000000000000000000000000000000000000085612a03565b90505b60008184600201546113929190613789565b905060018460080160016101000a81548160ff02191690831515021790555060008082905085600101548311156114cd5760008660010154846113d591906139a3565b905060646001826113e69190613895565b6113f09190613972565b925082846113fe91906139a3565b915060008311156114cb577f000000000000000000000000000000000000000000000000000000000000000073ffffffffffffffffffffffffffffffffffffffff1663a9059cbb600360009054906101000a900473ffffffffffffffffffffffffffffffffffffffff16856040518363ffffffff1660e01b81526004016114869291906139d7565b6020604051808303816000875af11580156114a5573d6000803e3d6000fd5b505050506040513d601f19601f820116820180604052508101906114c99190613a15565b505b505b7f000000000000000000000000000000000000000000000000000000000000000073ffffffffffffffffffffffffffffffffffffffff1663a9059cbb33836040518363ffffffff1660e01b81526004016115289291906139d7565b6020604051808303816000875af1158015611547573d6000803e3d6000fd5b505050506040513d601f19601f8201168201806040525081019061156b9190613a15565b503373ffffffffffffffffffffffffffffffffffffffff167fd50a71d2f16af090d2c460d2671e33503e48d8b4af2fa44e1522750e94ec4df58883856040516115b693929190613b5f565b60405180910390a250505050505050565b6000831161160a576040517f08c379a000000000000000000000000000000000000000000000000000000000815260040161160190613be2565b60405180910390fd5b6000821161164d576040517f08c379a000000000000000000000000000000000000000000000000000000000815260040161164490613c4e565b60405180910390fd5b600080600080600160009054906101000a900473ffffffffffffffffffffffffffffffffffffffff1673ffffffffffffffffffffffffffffffffffffffff1663b4f35d5588876040518363ffffffff1660e01b81526004016116b0929190613c6e565b608060405180830381865afa1580156116cd573d6000803e3d6000fd5b505050506040513d601f19601f820116820180604052508101906116f19190613c97565b93509350935093507f000000000000000000000000000000000000000000000000000000000000000073ffffffffffffffffffffffffffffffffffffffff166323b872dd33308a6040518463ffffffff1660e01b815260040161175693929190613cfe565b6020604051808303816000875af1158015611775573d6000803e3d6000fd5b505050506040513d601f19601f820116820180604052508101906117999190613a15565b506000806000808486886117ad9190613789565b6117b79190613789565b905060008111156119755760006118307f00000000000000000000000000000000000000000000000000000000000000007f00000000000000000000000000000000000000000000000000000000000000007f000000000000000000000000000000000000000000000000000000000000000085612a03565b905060008288836118419190613895565b61184b9190613972565b9050600083888461185c9190613895565b6118669190613972565b905060008211156118e0576118dd7f00000000000000000000000000000000000000000000000000000000000000007f00000000000000000000000000000000000000000000000000000000000000007f000000000000000000000000000000000000000000000000000000000000000085612a03565b95505b6000811115611958576119557f00000000000000000000000000000000000000000000000000000000000000007f00000000000000000000000000000000000000000000000000000000000000007f000000000000000000000000000000000000000000000000000000000000000084612a03565b94505b80828461196591906139a3565b61196f91906139a3565b96505050505b600460003373ffffffffffffffffffffffffffffffffffffffff1673ffffffffffffffffffffffffffffffffffffffff1681526020019081526020016000206040518061014001604052803373ffffffffffffffffffffffffffffffffffffffff1681526020018d81526020018a8152602001868152602001858152602001848152602001428152602001620151808d611a0f9190613895565b81526020018b1515815260200160001515815250908060018154018082558091505060019003906000526020600020906009020160009091909190915060008201518160000160006101000a81548173ffffffffffffffffffffffffffffffffffffffff021916908373ffffffffffffffffffffffffffffffffffffffff1602179055506020820151816001015560408201518160020155606082015181600301556080820151816004015560a0820151816005015560c0820151816006015560e082015181600701556101008201518160080160006101000a81548160ff0219169083151502179055506101208201518160080160016101000a81548160ff02191690831515021790555050503373ffffffffffffffffffffffffffffffffffffffff167f9c63b5a6081196a022f84a8c5f96ec6f357800e5be9d0d0e7be1a3ded19ae0708c8c8c8c898989604051611b6f9796959493929190613d35565b60405180910390a25050505050505050505050565b6a084595161401484a00000081565b600260009054906101000a900473ffffffffffffffffffffffffffffffffffffffff1681565b600160009054906101000a900473ffffffffffffffffffffffffffffffffffffffff1681565b60056020528060005260406000206000915090508060000154908060010154908060020154908060030154908060040154905085565b7f000000000000000000000000000000000000000000000000000000000000000081565b611c41612c83565b611c4b6000612d0a565b565b60008211611c90576040517f08c379a0000000000000000000000000000000000000000000000000000000008152600401611c8790613be2565b60405180910390fd5b601e811480611c9f5750603c81145b80611caa5750605a81145b611ce9576040517f08c379a0000000000000000000000000000000000000000000000000000000008152600401611ce090613ad3565b60405180910390fd5b60006005600083815260200190815260200160002090506a084595161401484a00000083600760003373ffffffffffffffffffffffffffffffffffffffff1673ffffffffffffffffffffffffffffffffffffffff16815260200190815260200160002054611d579190613789565b1115611d98576040517f08c379a0000000000000000000000000000000000000000000000000000000008152600401611d8f90613df0565b60405180910390fd5b8060010154838260000154611dad9190613789565b1115611dee576040517f08c379a0000000000000000000000000000000000000000000000000000000008152600401611de590613e5c565b60405180910390fd5b60006008606460288460010154611e059190613895565b611e0f9190613972565b611e199190613972565b9050603c8303611e4f576004606460238460010154611e389190613895565b611e429190613972565b611e4c9190613972565b90505b605a8303611e83576004606460198460010154611e6c9190613895565b611e769190613972565b611e809190613972565b90505b6000601e8403611e9657607d9050611ec1565b603c8403611ea85761012e9050611ec0565b605a8403611eba576102649050611ebf565b600090505b5b5b60006127108287611ed29190613895565b611edc9190613972565b90508360020154818560030154611ef39190613789565b1115611f34576040517f08c379a0000000000000000000000000000000000000000000000000000000008152600401611f2b90613eee565b60405180910390fd5b85846000016000828254611f489190613789565b9250508190555080846003016000828254611f639190613789565b9250508190555085600760003373ffffffffffffffffffffffffffffffffffffffff1673ffffffffffffffffffffffffffffffffffffffff1681526020019081526020016000206000828254611fb99190613789565b925050819055507f000000000000000000000000000000000000000000000000000000000000000073ffffffffffffffffffffffffffffffffffffffff166323b872dd3330896040518463ffffffff1660e01b815260040161201d93929190613cfe565b6020604051808303816000875af115801561203c573d6000803e3d6000fd5b505050506040513d601f19601f820116820180604052508101906120609190613a15565b50600660003373ffffffffffffffffffffffffffffffffffffffff1673ffffffffffffffffffffffffffffffffffffffff1681526020019081526020016000206040518060a001604052808881526020014281526020018781526020018381526020016000151581525090806001815401808255809150506001900390600052602060002090600502016000909190919091506000820151816000015560208201518160010155604082015181600201556060820151816003015560808201518160040160006101000a81548160ff02191690831515021790555050503373ffffffffffffffffffffffffffffffffffffffff167f20400db7cf9bdfcb8b13ccfb8a7b4bb447c3244efdbc2336e6f6e1673d7bd84587878460405161218793929190613b5f565b60405180910390a2505050505050565b7f000000000000000000000000000000000000000000000000000000000000000081565b6121c3612c83565b60007f000000000000000000000000000000000000000000000000000000000000000073ffffffffffffffffffffffffffffffffffffffff166370a08231306040518263ffffffff1660e01b815260040161221e9190612f78565b602060405180830381865afa15801561223b573d6000803e3d6000fd5b505050506040513d601f19601f8201168201806040525081019061225f919061372d565b9050600081116122a4576040517f08c379a000000000000000000000000000000000000000000000000000000000815260040161229b90613f80565b60405180910390fd5b7f000000000000000000000000000000000000000000000000000000000000000073ffffffffffffffffffffffffffffffffffffffff1663a9059cbb33836040518363ffffffff1660e01b81526004016122ff9291906139d7565b6020604051808303816000875af115801561231e573d6000803e3d6000fd5b505050506040513d601f19601f820116820180604052508101906123429190613a15565b5050565b6060600660008373ffffffffffffffffffffffffffffffffffffffff1673ffffffffffffffffffffffffffffffffffffffff168152602001908152602001600020805480602002602001604051908101604052809291908181526020016000905b8282101561241c57838290600052602060002090600502016040518060a0016040529081600082015481526020016001820154815260200160028201548152602001600382015481526020016004820160009054906101000a900460ff161515151581525050815260200190600101906123a7565b505050509050919050565b60008060009054906101000a900473ffffffffffffffffffffffffffffffffffffffff16905090565b612458612c83565b6000811161249b576040517f08c379a000000000000000000000000000000000000000000000000000000000815260040161249290613be2565b60405180910390fd5b7f000000000000000000000000000000000000000000000000000000000000000073ffffffffffffffffffffffffffffffffffffffff166323b872dd3330846040518463ffffffff1660e01b81526004016124f893929190613cfe565b6020604051808303816000875af1158015612517573d6000803e3d6000fd5b505050506040513d601f19601f8201168201806040525081019061253b9190613a15565b506000606460288361254d9190613895565b6125579190613972565b90506000606460238461256a9190613895565b6125749190613972565b9050600081838561258591906139a3565b61258f91906139a3565b90508260056000601e815260200190815260200160002060020160008282546125b89190613789565b925050819055508160056000603c815260200190815260200160002060020160008282546125e69190613789565b925050819055508060056000605a815260200190815260200160002060020160008282546126149190613789565b925050819055503373ffffffffffffffffffffffffffffffffffffffff167fd53214ca07be5520e229c395f05a3e5c0697ec6279184ffbe2758d304fd322cc856040516126619190612e1e565b60405180910390a250505050565b7f000000000000000000000000000000000000000000000000000000000000000081565b6060600460008373ffffffffffffffffffffffffffffffffffffffff1673ffffffffffffffffffffffffffffffffffffffff168152602001908152602001600020805480602002602001604051908101604052809291908181526020016000905b828210156127f95783829060005260206000209060090201604051806101400160405290816000820160009054906101000a900473ffffffffffffffffffffffffffffffffffffffff1673ffffffffffffffffffffffffffffffffffffffff1673ffffffffffffffffffffffffffffffffffffffff168152602001600182015481526020016002820154815260200160038201548152602001600482015481526020016005820154815260200160068201548152602001600782015481526020016008820160009054906101000a900460ff161515151581526020016008820160019054906101000a900460ff161515151581525050815260200190600101906126f4565b505050509050919050565b6006602052816000526040600020818154811061282057600080fd5b9060005260206000209060050201600091509150508060000154908060010154908060020154908060030154908060040160009054906101000a900460ff16905085565b600360009054906101000a900473ffffffffffffffffffffffffffffffffffffffff1681565b600460205281600052604060002081815481106128a657600080fd5b9060005260206000209060090201600091509150508060000160009054906101000a900473ffffffffffffffffffffffffffffffffffffffff16908060010154908060020154908060030154908060040154908060050154908060060154908060070154908060080160009054906101000a900460ff16908060080160019054906101000a900460ff1690508a565b7f000000000000000000000000000000000000000000000000000000000000000081565b7f000000000000000000000000000000000000000000000000000000000000000081565b612985612c83565b600073ffffffffffffffffffffffffffffffffffffffff168173ffffffffffffffffffffffffffffffffffffffff16036129f75760006040517f1e4fbdf70000000000000000000000000000000000000000000000000000000081526004016129ee9190612f78565b60405180910390fd5b612a0081612d0a565b50565b600080600260009054906101000a900473ffffffffffffffffffffffffffffffffffffffff1673ffffffffffffffffffffffffffffffffffffffff1663a20f23057f0000000000000000000000000000000000000000000000000000000000000000888888886040518663ffffffff1660e01b8152600401612a899594939291906136c5565b602060405180830381865afa158015612aa6573d6000803e3d6000fd5b505050506040513d601f19601f82011682018060405250810190612aca919061372d565b905060008111612b0f576040517f08c379a0000000000000000000000000000000000000000000000000000000008152600401612b0690613fec565b60405180910390fd5b8473ffffffffffffffffffffffffffffffffffffffff1663095ea7b3600260009054906101000a900473ffffffffffffffffffffffffffffffffffffffff16856040518363ffffffff1660e01b8152600401612b6c9291906139d7565b6020604051808303816000875af1158015612b8b573d6000803e3d6000fd5b505050506040513d601f19601f82011682018060405250810190612baf9190613a15565b50600260009054906101000a900473ffffffffffffffffffffffffffffffffffffffff1673ffffffffffffffffffffffffffffffffffffffff1663ddbbe8507f000000000000000000000000000000000000000000000000000000000000000088888888876040518763ffffffff1660e01b8152600401612c359695949392919061400c565b6020604051808303816000875af1158015612c54573d6000803e3d6000fd5b505050506040513d601f19601f82011682018060405250810190612c78919061372d565b915050949350505050565b612c8b612dce565b73ffffffffffffffffffffffffffffffffffffffff16612ca9612427565b73ffffffffffffffffffffffffffffffffffffffff1614612d0857612ccc612dce565b6040517f118cdaa7000000000000000000000000000000000000000000000000000000008152600401612cff9190612f78565b60405180910390fd5b565b60008060009054906101000a900473ffffffffffffffffffffffffffffffffffffffff169050816000806101000a81548173ffffffffffffffffffffffffffffffffffffffff021916908373ffffffffffffffffffffffffffffffffffffffff1602179055508173ffffffffffffffffffffffffffffffffffffffff168173ffffffffffffffffffffffffffffffffffffffff167f8be0079c531659141344cd1fd0a4f28419497f9722a3daafe3b4186f6b6457e060405160405180910390a35050565b600033905090565b6040518060a0016040528060008152602001600081526020016000815260200160008152602001600081525090565b6000819050919050565b612e1881612e05565b82525050565b6000602082019050612e336000830184612e0f565b92915050565b600080fd5b600073ffffffffffffffffffffffffffffffffffffffff82169050919050565b6000612e6982612e3e565b9050919050565b612e7981612e5e565b8114612e8457600080fd5b50565b600081359050612e9681612e70565b92915050565b612ea581612e05565b8114612eb057600080fd5b50565b600081359050612ec281612e9c565b92915050565b60008060408385031215612edf57612ede612e39565b5b6000612eed85828601612e87565b9250506020612efe85828601612eb3565b9150509250929050565b6000819050919050565b612f1b81612f08565b82525050565b6000602082019050612f366000830184612f12565b92915050565b600060208284031215612f5257612f51612e39565b5b6000612f6084828501612e87565b91505092915050565b612f7281612e5e565b82525050565b6000602082019050612f8d6000830184612f69565b92915050565b600060208284031215612fa957612fa8612e39565b5b6000612fb784828501612eb3565b91505092915050565b612fc981612e05565b82525050565b60a082016000820151612fe56000850182612fc0565b506020820151612ff86020850182612fc0565b50604082015161300b6040850182612fc0565b50606082015161301e6060850182612fc0565b5060808201516130316080850182612fc0565b50505050565b600060a08201905061304c6000830184612fcf565b92915050565b60008115159050919050565b61306781613052565b811461307257600080fd5b50565b6000813590506130848161305e565b92915050565b6000806000606084860312156130a3576130a2612e39565b5b60006130b186828701612eb3565b93505060206130c286828701612eb3565b92505060406130d386828701613075565b9150509250925092565b6000819050919050565b60006131026130fd6130f884612e3e565b6130dd565b612e3e565b9050919050565b6000613114826130e7565b9050919050565b600061312682613109565b9050919050565b6131368161311b565b82525050565b6000602082019050613151600083018461312d565b92915050565b600061316282613109565b9050919050565b61317281613157565b82525050565b600060208201905061318d6000830184613169565b92915050565b600060a0820190506131a86000830188612e0f565b6131b56020830187612e0f565b6131c26040830186612e0f565b6131cf6060830185612e0f565b6131dc6080830184612e0f565b9695505050505050565b600080604083850312156131fd576131fc612e39565b5b600061320b85828601612eb3565b925050602061321c85828601612eb3565b9150509250929050565b600081519050919050565b600082825260208201905092915050565b6000819050602082019050919050565b61325b81613052565b82525050565b60a0820160008201516132776000850182612fc0565b50602082015161328a6020850182612fc0565b50604082015161329d6040850182612fc0565b5060608201516132b06060850182612fc0565b5060808201516132c36080850182613252565b50505050565b60006132d58383613261565b60a08301905092915050565b6000602082019050919050565b60006132f982613226565b6133038185613231565b935061330e83613242565b8060005b8381101561333f57815161332688826132c9565b9750613331836132e1565b925050600181019050613312565b5085935050505092915050565b6000602082019050818103600083015261336681846132ee565b905092915050565b600081519050919050565b600082825260208201905092915050565b6000819050602082019050919050565b6133a381612e5e565b82525050565b610140820160008201516133c0600085018261339a565b5060208201516133d36020850182612fc0565b5060408201516133e66040850182612fc0565b5060608201516133f96060850182612fc0565b50608082015161340c6080850182612fc0565b5060a082015161341f60a0850182612fc0565b5060c082015161343260c0850182612fc0565b5060e082015161344560e0850182612fc0565b5061010082015161345a610100850182613252565b5061012082015161346f610120850182613252565b50505050565b600061348183836133a9565b6101408301905092915050565b6000602082019050919050565b60006134a68261336e565b6134b08185613379565b93506134bb8361338a565b8060005b838110156134ec5781516134d38882613475565b97506134de8361348e565b9250506001810190506134bf565b5085935050505092915050565b60006020820190508181036000830152613513818461349b565b905092915050565b61352481613052565b82525050565b600060a08201905061353f6000830188612e0f565b61354c6020830187612e0f565b6135596040830186612e0f565b6135666060830185612e0f565b613573608083018461351b565b9695505050505050565b600061014082019050613593600083018d612f69565b6135a0602083018c612e0f565b6135ad604083018b612e0f565b6135ba606083018a612e0f565b6135c76080830189612e0f565b6135d460a0830188612e0f565b6135e160c0830187612e0f565b6135ee60e0830186612e0f565b6135fc61010083018561351b565b61360a61012083018461351b565b9b9a5050505050505050505050565b600082825260208201905092915050565b7f496e76616c696420706967677920696e64657800000000000000000000000000600082015250565b6000613660601383613619565b915061366b8261362a565b602082019050919050565b6000602082019050818103600083015261368f81613653565b9050919050565b7f4e487b7100000000000000000000000000000000000000000000000000000000600052603260045260246000fd5b600060a0820190506136da6000830188612f69565b6136e76020830187612f12565b6136f46040830186612f69565b6137016060830185612f69565b61370e6080830184612e0f565b9695505050505050565b60008151905061372781612e9c565b92915050565b60006020828403121561374357613742612e39565b5b600061375184828501613718565b91505092915050565b7f4e487b7100000000000000000000000000000000000000000000000000000000600052601160045260246000fd5b600061379482612e05565b915061379f83612e05565b92508282019050808211156137b7576137b661375a565b5b92915050565b7f496e76616c6964207374616b6520696e64657800000000000000000000000000600082015250565b60006137f3601383613619565b91506137fe826137bd565b602082019050919050565b60006020820190508181036000830152613822816137e6565b9050919050565b7f416c726561647920636c61696d65640000000000000000000000000000000000600082015250565b600061385f600f83613619565b915061386a82613829565b602082019050919050565b6000602082019050818103600083015261388e81613852565b9050919050565b60006138a082612e05565b91506138ab83612e05565b92508282026138b981612e05565b915082820484148315176138d0576138cf61375a565b5b5092915050565b7f4c6f636b20706572696f64206e6f7420656e6465640000000000000000000000600082015250565b600061390d601583613619565b9150613918826138d7565b602082019050919050565b6000602082019050818103600083015261393c81613900565b9050919050565b7f4e487b7100000000000000000000000000000000000000000000000000000000600052601260045260246000fd5b600061397d82612e05565b915061398883612e05565b92508261399857613997613943565b5b828204905092915050565b60006139ae82612e05565b91506139b983612e05565b92508282039050818111156139d1576139d061375a565b5b92915050565b60006040820190506139ec6000830185612f69565b6139f96020830184612e0f565b9392505050565b600081519050613a0f8161305e565b92915050565b600060208284031215613a2b57613a2a612e39565b5b6000613a3984828501613a00565b91505092915050565b6000608082019050613a576000830187612e0f565b613a646020830186612e0f565b613a716040830185612e0f565b613a7e6060830184612e0f565b95945050505050565b7f496e76616c6964206475726174696f6e00000000000000000000000000000000600082015250565b6000613abd601083613619565b9150613ac882613a87565b602082019050919050565b60006020820190508181036000830152613aec81613ab0565b9050919050565b7f4c6f636b206e6f7420656e646564000000000000000000000000000000000000600082015250565b6000613b29600e83613619565b9150613b3482613af3565b602082019050919050565b60006020820190508181036000830152613b5881613b1c565b9050919050565b6000606082019050613b746000830186612e0f565b613b816020830185612e0f565b613b8e6040830184612e0f565b949350505050565b7f416d6f756e74206d75737420626520706f736974697665000000000000000000600082015250565b6000613bcc601783613619565b9150613bd782613b96565b602082019050919050565b60006020820190508181036000830152613bfb81613bbf565b9050919050565b7f4475726174696f6e206d75737420626520706f73697469766500000000000000600082015250565b6000613c38601983613619565b9150613c4382613c02565b602082019050919050565b60006020820190508181036000830152613c6781613c2b565b9050919050565b6000604082019050613c836000830185612e0f565b613c90602083018461351b565b9392505050565b60008060008060808587031215613cb157613cb0612e39565b5b6000613cbf87828801613718565b9450506020613cd087828801613718565b9350506040613ce187828801613718565b9250506060613cf287828801613718565b91505092959194509250565b6000606082019050613d136000830186612f69565b613d206020830185612f69565b613d2d6040830184612e0f565b949350505050565b600060e082019050613d4a600083018a612e0f565b613d576020830189612e0f565b613d64604083018861351b565b613d716060830187612e0f565b613d7e6080830186612e0f565b613d8b60a0830185612e0f565b613d9860c0830184612e0f565b98975050505050505050565b7f45786365656473206d61782077616c6c6574206465706f736974206c696d6974600082015250565b6000613dda602083613619565b9150613de582613da4565b602082019050919050565b60006020820190508181036000830152613e0981613dcd565b9050919050565b7f506f6f6c2069732066756c6c0000000000000000000000000000000000000000600082015250565b6000613e46600c83613619565b9150613e5182613e10565b602082019050919050565b60006020820190508181036000830152613e7581613e39565b9050919050565b7f4e6f7420656e6f75676820726577617264732066756e64656420696e20706f6f60008201527f6c00000000000000000000000000000000000000000000000000000000000000602082015250565b6000613ed8602183613619565b9150613ee382613e7c565b604082019050919050565b60006020820190508181036000830152613f0781613ecb565b9050919050565b7f596f752063616e6e6f7420676574206f757420616e792066756e64732061732060008201527f6974206973207a65726f00000000000000000000000000000000000000000000602082015250565b6000613f6a602a83613619565b9150613f7582613f0e565b604082019050919050565b60006020820190508181036000830152613f9981613f5d565b9050919050565b7f4d656e746f3a20496e73756666696369656e74206f7574707574000000000000600082015250565b6000613fd6601a83613619565b9150613fe182613fa0565b602082019050919050565b6000602082019050818103600083015261400581613fc9565b9050919050565b600060c0820190506140216000830189612f69565b61402e6020830188612f12565b61403b6040830187612f69565b6140486060830186612f69565b6140556080830185612e0f565b61406260a0830184612e0f565b97965050505050505056fea2646970667358221220ec0f646b828a0866266f88fadb04110c457b9cb1655450c8e92a10a2cab8cbc064736f6c63430008140033",
  "linkReferences": {},
  "deployedLinkReferences": {}
}