{
  "_format": "hh-sol-artifact-1",
  "contractName": "PiggyBank",
  "sourceName": "contracts/cPiggyBank.sol",
  "abi": [
    {
      "inputs": [
        {
          "internalType": "address",
          "name": "_iMentoBroker",
          "type": "address"
        },
        {
          "internalType": "address",
          "name": "_mentoOracle",
          "type": "address"
        },
        {
          "internalType": "address",
          "name": "_exchangeProvider",
          "type": "address"
        },
        {
          "internalType": "address",
          "name": "_cCOP",
          "type": "address"
        },
        {
          "internalType": "address",
          "name": "_cUSD",
          "type": "address"
        },
        {
          "internalType": "address",
          "name": "_cEUR",
          "type": "address"
        },
        {
          "internalType": "bytes32",
          "name": "_exchangeId_cCOP_cUSD",
          "type": "bytes32"
        },
        {
          "internalType": "bytes32",
          "name": "_exchangeId_cUSD_cEUR",
          "type": "bytes32"
        }
      ],
      "stateMutability": "nonpayable",
      "type": "constructor"
    },
    {
      "anonymous": false,
      "inputs": [
        {
          "indexed": true,
          "internalType": "address",
          "name": "user",
          "type": "address"
        },
        {
          "indexed": false,
          "internalType": "uint256",
          "name": "index",
          "type": "uint256"
        },
        {
          "indexed": false,
          "internalType": "uint256",
          "name": "finalCCOPReturn",
          "type": "uint256"
        }
      ],
      "name": "PiggyClaimed",
      "type": "event"
    },
    {
      "anonymous": false,
      "inputs": [
        {
          "indexed": true,
          "internalType": "address",
          "name": "user",
          "type": "address"
        },
        {
          "indexed": false,
          "internalType": "uint256",
          "name": "totalAmount",
          "type": "uint256"
        },
        {
          "indexed": false,
          "internalType": "uint256",
          "name": "duration",
          "type": "uint256"
        },
        {
          "indexed": false,
          "internalType": "bool",
          "name": "safeMode",
          "type": "bool"
        },
        {
          "indexed": false,
          "internalType": "uint256",
          "name": "cCOPAmount",
          "type": "uint256"
        },
        {
          "indexed": false,
          "internalType": "uint256",
          "name": "cUSDAmountReceived",
          "type": "uint256"
        },
        {
          "indexed": false,
          "internalType": "uint256",
          "name": "cEURAmountReceived",
          "type": "uint256"
        }
      ],
      "name": "PiggyCreated",
      "type": "event"
    },
    {
      "inputs": [],
      "name": "cCOP",
      "outputs": [
        {
          "internalType": "address",
          "name": "",
          "type": "address"
        }
      ],
      "stateMutability": "view",
      "type": "function"
    },
    {
      "inputs": [],
      "name": "cEUR",
      "outputs": [
        {
          "internalType": "address",
          "name": "",
          "type": "address"
        }
      ],
      "stateMutability": "view",
      "type": "function"
    },
    {
      "inputs": [],
      "name": "cUSD",
      "outputs": [
        {
          "internalType": "address",
          "name": "",
          "type": "address"
        }
      ],
      "stateMutability": "view",
      "type": "function"
    },
    {
      "inputs": [
        {
          "internalType": "uint256",
          "name": "_index",
          "type": "uint256"
        }
      ],
      "name": "claim",
      "outputs": [],
      "stateMutability": "nonpayable",
      "type": "function"
    },
    {
      "inputs": [
        {
          "internalType": "uint256",
          "name": "amount",
          "type": "uint256"
        },
        {
          "internalType": "uint256",
          "name": "lockDays",
          "type": "uint256"
        },
        {
          "internalType": "bool",
          "name": "safeMode",
          "type": "bool"
        }
      ],
      "name": "deposit",
      "outputs": [],
      "stateMutability": "nonpayable",
      "type": "function"
    },
    {
      "inputs": [],
      "name": "exchangeId_cCOP_cUSD",
      "outputs": [
        {
          "internalType": "bytes32",
          "name": "",
          "type": "bytes32"
        }
      ],
      "stateMutability": "view",
      "type": "function"
    },
    {
      "inputs": [],
      "name": "exchangeId_cUSD_cEUR",
      "outputs": [
        {
          "internalType": "bytes32",
          "name": "",
          "type": "bytes32"
        }
      ],
      "stateMutability": "view",
      "type": "function"
    },
    {
      "inputs": [],
      "name": "exchangeProvider",
      "outputs": [
        {
          "internalType": "address",
          "name": "",
          "type": "address"
        }
      ],
      "stateMutability": "view",
      "type": "function"
    },
    {
      "inputs": [
        {
          "internalType": "address",
          "name": "_user",
          "type": "address"
        },
        {
          "internalType": "uint256",
          "name": "_index",
          "type": "uint256"
        }
      ],
      "name": "getPiggyValue",
      "outputs": [
        {
          "internalType": "uint256",
          "name": "",
          "type": "uint256"
        }
      ],
      "stateMutability": "view",
      "type": "function"
    },
    {
      "inputs": [
        {
          "internalType": "address",
          "name": "_user",
          "type": "address"
        }
      ],
      "name": "getUserPiggies",
      "outputs": [
        {
          "components": [
            {
              "internalType": "address",
              "name": "owner",
              "type": "address"
            },
            {
              "internalType": "uint256",
              "name": "cCOPAmount",
              "type": "uint256"
            },
            {
              "internalType": "uint256",
              "name": "cUSDAmount",
              "type": "uint256"
            },
            {
              "internalType": "uint256",
              "name": "cEURAmount",
              "type": "uint256"
            },
            {
              "internalType": "uint256",
              "name": "startTime",
              "type": "uint256"
            },
            {
              "internalType": "uint256",
              "name": "duration",
              "type": "uint256"
            },
            {
              "internalType": "bool",
              "name": "safeMode",
              "type": "bool"
            },
            {
              "internalType": "bool",
              "name": "claimed",
              "type": "bool"
            }
          ],
          "internalType": "struct PiggyBank.Piggy[]",
          "name": "",
          "type": "tuple[]"
        }
      ],
      "stateMutability": "view",
      "type": "function"
    },
    {
      "inputs": [],
      "name": "iMentoBroker",
      "outputs": [
        {
          "internalType": "contract IMentoBroker",
          "name": "",
          "type": "address"
        }
      ],
      "stateMutability": "view",
      "type": "function"
    },
    {
      "inputs": [],
      "name": "mentoOracle",
      "outputs": [
        {
          "internalType": "contract MentoOracleHandler",
          "name": "",
          "type": "address"
        }
      ],
      "stateMutability": "view",
      "type": "function"
    },
    {
      "inputs": [
        {
          "internalType": "address",
          "name": "",
          "type": "address"
        },
        {
          "internalType": "uint256",
          "name": "",
          "type": "uint256"
        }
      ],
      "name": "piggies",
      "outputs": [
        {
          "internalType": "address",
          "name": "owner",
          "type": "address"
        },
        {
          "internalType": "uint256",
          "name": "cCOPAmount",
          "type": "uint256"
        },
        {
          "internalType": "uint256",
          "name": "cUSDAmount",
          "type": "uint256"
        },
        {
          "internalType": "uint256",
          "name": "cEURAmount",
          "type": "uint256"
        },
        {
          "internalType": "uint256",
          "name": "startTime",
          "type": "uint256"
        },
        {
          "internalType": "uint256",
          "name": "duration",
          "type": "uint256"
        },
        {
          "internalType": "bool",
          "name": "safeMode",
          "type": "bool"
        },
        {
          "internalType": "bool",
          "name": "claimed",
          "type": "bool"
        }
      ],
      "stateMutability": "view",
      "type": "function"
    }
  ],
  "bytecode": "0x6101406040523480156200001257600080fd5b50604051620024993803806200249983398181016040528101906200003891906200024e565b87600160006101000a81548173ffffffffffffffffffffffffffffffffffffffff021916908373ffffffffffffffffffffffffffffffffffffffff160217905550866000806101000a81548173ffffffffffffffffffffffffffffffffffffffff021916908373ffffffffffffffffffffffffffffffffffffffff1602179055508573ffffffffffffffffffffffffffffffffffffffff1660e08173ffffffffffffffffffffffffffffffffffffffff16815250508473ffffffffffffffffffffffffffffffffffffffff1660808173ffffffffffffffffffffffffffffffffffffffff16815250508373ffffffffffffffffffffffffffffffffffffffff1660a08173ffffffffffffffffffffffffffffffffffffffff16815250508273ffffffffffffffffffffffffffffffffffffffff1660c08173ffffffffffffffffffffffffffffffffffffffff1681525050816101008181525050806101208181525050505050505050505062000317565b600080fd5b600073ffffffffffffffffffffffffffffffffffffffff82169050919050565b6000620001db82620001ae565b9050919050565b620001ed81620001ce565b8114620001f957600080fd5b50565b6000815190506200020d81620001e2565b92915050565b6000819050919050565b620002288162000213565b81146200023457600080fd5b50565b60008151905062000248816200021d565b92915050565b600080600080600080600080610100898b031215620002725762000271620001a9565b5b6000620002828b828c01620001fc565b9850506020620002958b828c01620001fc565b9750506040620002a88b828c01620001fc565b9650506060620002bb8b828c01620001fc565b9550506080620002ce8b828c01620001fc565b94505060a0620002e18b828c01620001fc565b93505060c0620002f48b828c0162000237565b92505060e0620003078b828c0162000237565b9150509295985092959890939650565b60805160a05160c05160e051610100516101205161208a6200040f600039600081816104160152818161083001528181610cd101526111e901526000818161055a01528181610662015281816108bc0152610c3f0152600081816103f50152818161053901528181610fa50152818161124e01526113f80152600081816104370152818161085101528181610d130152610f810152600081816104580152818161057b0152818161063e01528181610872015281816108dd01528181610c810152610cf201526000818161059c015281816108fe0152818161095901528181610b7d01528181610c6001526111c5015261208a6000f3fe608060405234801561001057600080fd5b50600436106100cf5760003560e01c8063591b00141161008c578063a5c7343c11610066578063a5c7343c146101f0578063d523819214610220578063e733062714610257578063eff8ff0c14610275576100cf565b8063591b0014146101965780637d1f2de7146101b45780639efe1cd2146101d2576100cf565b806308dae84d146100d45780631fccf672146101045780632a063b9714610122578063379607f51461014057806343a0d0661461015c578063537514a214610178575b600080fd5b6100ee60048036038101906100e99190611524565b610293565b6040516100fb9190611573565b60405180910390f35b61010c61063c565b604051610119919061159d565b60405180910390f35b61012a610660565b60405161013791906115d1565b60405180910390f35b61015a600480360381019061015591906115ec565b610684565b005b61017660048036038101906101719190611651565b610a4d565b005b610180610f35565b60405161018d9190611703565b60405180910390f35b61019e610f5b565b6040516101ab919061173f565b60405180910390f35b6101bc610f7f565b6040516101c9919061159d565b60405180910390f35b6101da610fa3565b6040516101e7919061159d565b60405180910390f35b61020a6004803603810190610205919061175a565b610fc7565b6040516102179190611906565b60405180910390f35b61023a60048036038101906102359190611524565b611124565b60405161024e989796959493929190611937565b60405180910390f35b61025f6111c3565b60405161026c919061159d565b60405180910390f35b61027d6111e7565b60405161028a91906115d1565b60405180910390f35b6000600260003373ffffffffffffffffffffffffffffffffffffffff1673ffffffffffffffffffffffffffffffffffffffff168152602001908152602001600020805490508210610319576040517f08c379a000000000000000000000000000000000000000000000000000000000815260040161031090611a12565b60405180910390fd5b6000600260008573ffffffffffffffffffffffffffffffffffffffff1673ffffffffffffffffffffffffffffffffffffffff168152602001908152602001600020838154811061036c5761036b611a32565b5b906000526020600020906007020190508060060160019054906101000a900460ff161561039d576000915050610636565b6000816002015490506000826003015411156104ef576000600160009054906101000a900473ffffffffffffffffffffffffffffffffffffffff1673ffffffffffffffffffffffffffffffffffffffff1663a20f23057f00000000000000000000000000000000000000000000000000000000000000007f00000000000000000000000000000000000000000000000000000000000000007f00000000000000000000000000000000000000000000000000000000000000007f000000000000000000000000000000000000000000000000000000000000000088600301546040518663ffffffff1660e01b815260040161049c959493929190611a61565b602060405180830381865afa1580156104b9573d6000803e3d6000fd5b505050506040513d601f19601f820116820180604052508101906104dd9190611ac9565b905080826104eb9190611b25565b9150505b60008082111561062057600160009054906101000a900473ffffffffffffffffffffffffffffffffffffffff1673ffffffffffffffffffffffffffffffffffffffff1663a20f23057f00000000000000000000000000000000000000000000000000000000000000007f00000000000000000000000000000000000000000000000000000000000000007f00000000000000000000000000000000000000000000000000000000000000007f0000000000000000000000000000000000000000000000000000000000000000876040518663ffffffff1660e01b81526004016105dc959493929190611a61565b602060405180830381865afa1580156105f9573d6000803e3d6000fd5b505050506040513d601f19601f8201168201806040525081019061061d9190611ac9565b90505b8083600101546106309190611b25565b93505050505b92915050565b7f000000000000000000000000000000000000000000000000000000000000000081565b7f000000000000000000000000000000000000000000000000000000000000000081565b600260003373ffffffffffffffffffffffffffffffffffffffff1673ffffffffffffffffffffffffffffffffffffffff168152602001908152602001600020805490508110610708576040517f08c379a00000000000000000000000000000000000000000000000000000000081526004016106ff90611a12565b60405180910390fd5b6000600260003373ffffffffffffffffffffffffffffffffffffffff1673ffffffffffffffffffffffffffffffffffffffff168152602001908152602001600020828154811061075b5761075a611a32565b5b906000526020600020906007020190508060060160019054906101000a900460ff16156107bd576040517f08c379a00000000000000000000000000000000000000000000000000000000081526004016107b490611ba5565b60405180910390fd5b806005015481600401546107d19190611b25565b421015610813576040517f08c379a000000000000000000000000000000000000000000000000000000000815260040161080a90611c11565b60405180910390fd5b6000816002015490506000826003015411156108ad57600061089b7f00000000000000000000000000000000000000000000000000000000000000007f00000000000000000000000000000000000000000000000000000000000000007f0000000000000000000000000000000000000000000000000000000000000000866003015461120b565b905080826108a99190611b25565b9150505b600080821115610926576109237f00000000000000000000000000000000000000000000000000000000000000007f00000000000000000000000000000000000000000000000000000000000000007f00000000000000000000000000000000000000000000000000000000000000008561120b565b90505b60008184600101546109389190611b25565b905060018460060160016101000a81548160ff0219169083151502179055507f000000000000000000000000000000000000000000000000000000000000000073ffffffffffffffffffffffffffffffffffffffff1663a9059cbb33836040518363ffffffff1660e01b81526004016109b2929190611c31565b6020604051808303816000875af11580156109d1573d6000803e3d6000fd5b505050506040513d601f19601f820116820180604052508101906109f59190611c6f565b503373ffffffffffffffffffffffffffffffffffffffff167f2d37796ca173574817be1543691c0bfc987858e98dc7aed381809472d265752f8683604051610a3e929190611c9c565b60405180910390a25050505050565b60008311610a90576040517f08c379a0000000000000000000000000000000000000000000000000000000008152600401610a8790611d11565b60405180910390fd5b60008211610ad3576040517f08c379a0000000000000000000000000000000000000000000000000000000008152600401610aca90611d7d565b60405180910390fd5b60008060008060009054906101000a900473ffffffffffffffffffffffffffffffffffffffff1673ffffffffffffffffffffffffffffffffffffffff1663b4f35d5587866040518363ffffffff1660e01b8152600401610b34929190611d9d565b606060405180830381865afa158015610b51573d6000803e3d6000fd5b505050506040513d601f19601f82011682018060405250810190610b759190611dc6565b9250925092507f000000000000000000000000000000000000000000000000000000000000000073ffffffffffffffffffffffffffffffffffffffff166323b872dd3330896040518463ffffffff1660e01b8152600401610bd893929190611e19565b6020604051808303816000875af1158015610bf7573d6000803e3d6000fd5b505050506040513d601f19601f82011682018060405250810190610c1b9190611c6f565b5060008060008385610c2d9190611b25565b90506000811115610d4c576000610ca67f00000000000000000000000000000000000000000000000000000000000000007f00000000000000000000000000000000000000000000000000000000000000007f00000000000000000000000000000000000000000000000000000000000000008561120b565b90506000828683610cb79190611e50565b610cc19190611ec1565b90506000811115610d3b57610d387f00000000000000000000000000000000000000000000000000000000000000007f00000000000000000000000000000000000000000000000000000000000000007f00000000000000000000000000000000000000000000000000000000000000008461120b565b93505b8082610d479190611ef2565b945050505b600260003373ffffffffffffffffffffffffffffffffffffffff1673ffffffffffffffffffffffffffffffffffffffff1681526020019081526020016000206040518061010001604052803373ffffffffffffffffffffffffffffffffffffffff168152602001888152602001858152602001848152602001428152602001620151808b610dda9190611e50565b8152602001891515815260200160001515815250908060018154018082558091505060019003906000526020600020906007020160009091909190915060008201518160000160006101000a81548173ffffffffffffffffffffffffffffffffffffffff021916908373ffffffffffffffffffffffffffffffffffffffff1602179055506020820151816001015560408201518160020155606082015181600301556080820151816004015560a0820151816005015560c08201518160060160006101000a81548160ff02191690831515021790555060e08201518160060160016101000a81548160ff02191690831515021790555050503373ffffffffffffffffffffffffffffffffffffffff167fcf85d7470b991149c4cee947b432e9f4f36d5176787b8710334cdc20b6061bd58a8a8a8a8888604051610f2296959493929190611f26565b60405180910390a2505050505050505050565b600160009054906101000a900473ffffffffffffffffffffffffffffffffffffffff1681565b60008054906101000a900473ffffffffffffffffffffffffffffffffffffffff1681565b7f000000000000000000000000000000000000000000000000000000000000000081565b7f000000000000000000000000000000000000000000000000000000000000000081565b6060600260008373ffffffffffffffffffffffffffffffffffffffff1673ffffffffffffffffffffffffffffffffffffffff168152602001908152602001600020805480602002602001604051908101604052809291908181526020016000905b828210156111195783829060005260206000209060070201604051806101000160405290816000820160009054906101000a900473ffffffffffffffffffffffffffffffffffffffff1673ffffffffffffffffffffffffffffffffffffffff1673ffffffffffffffffffffffffffffffffffffffff16815260200160018201548152602001600282015481526020016003820154815260200160048201548152602001600582015481526020016006820160009054906101000a900460ff161515151581526020016006820160019054906101000a900460ff16151515158152505081526020019060010190611028565b505050509050919050565b6002602052816000526040600020818154811061114057600080fd5b9060005260206000209060070201600091509150508060000160009054906101000a900473ffffffffffffffffffffffffffffffffffffffff16908060010154908060020154908060030154908060040154908060050154908060060160009054906101000a900460ff16908060060160019054906101000a900460ff16905088565b7f000000000000000000000000000000000000000000000000000000000000000081565b7f000000000000000000000000000000000000000000000000000000000000000081565b600080600160009054906101000a900473ffffffffffffffffffffffffffffffffffffffff1673ffffffffffffffffffffffffffffffffffffffff1663a20f23057f0000000000000000000000000000000000000000000000000000000000000000888888886040518663ffffffff1660e01b8152600401611291959493929190611a61565b602060405180830381865afa1580156112ae573d6000803e3d6000fd5b505050506040513d601f19601f820116820180604052508101906112d29190611ac9565b905060008111611317576040517f08c379a000000000000000000000000000000000000000000000000000000000815260040161130e90611fd3565b60405180910390fd5b8473ffffffffffffffffffffffffffffffffffffffff1663095ea7b3600160009054906101000a900473ffffffffffffffffffffffffffffffffffffffff16856040518363ffffffff1660e01b8152600401611374929190611c31565b6020604051808303816000875af1158015611393573d6000803e3d6000fd5b505050506040513d601f19601f820116820180604052508101906113b79190611c6f565b50600160009054906101000a900473ffffffffffffffffffffffffffffffffffffffff1673ffffffffffffffffffffffffffffffffffffffff1663ddbbe8507f000000000000000000000000000000000000000000000000000000000000000088888888876040518763ffffffff1660e01b815260040161143d96959493929190611ff3565b6020604051808303816000875af115801561145c573d6000803e3d6000fd5b505050506040513d601f19601f820116820180604052508101906114809190611ac9565b915050949350505050565b600080fd5b600073ffffffffffffffffffffffffffffffffffffffff82169050919050565b60006114bb82611490565b9050919050565b6114cb816114b0565b81146114d657600080fd5b50565b6000813590506114e8816114c2565b92915050565b6000819050919050565b611501816114ee565b811461150c57600080fd5b50565b60008135905061151e816114f8565b92915050565b6000806040838503121561153b5761153a61148b565b5b6000611549858286016114d9565b925050602061155a8582860161150f565b9150509250929050565b61156d816114ee565b82525050565b60006020820190506115886000830184611564565b92915050565b611597816114b0565b82525050565b60006020820190506115b2600083018461158e565b92915050565b6000819050919050565b6115cb816115b8565b82525050565b60006020820190506115e660008301846115c2565b92915050565b6000602082840312156116025761160161148b565b5b60006116108482850161150f565b91505092915050565b60008115159050919050565b61162e81611619565b811461163957600080fd5b50565b60008135905061164b81611625565b92915050565b60008060006060848603121561166a5761166961148b565b5b60006116788682870161150f565b93505060206116898682870161150f565b925050604061169a8682870161163c565b9150509250925092565b6000819050919050565b60006116c96116c46116bf84611490565b6116a4565b611490565b9050919050565b60006116db826116ae565b9050919050565b60006116ed826116d0565b9050919050565b6116fd816116e2565b82525050565b600060208201905061171860008301846116f4565b92915050565b6000611729826116d0565b9050919050565b6117398161171e565b82525050565b60006020820190506117546000830184611730565b92915050565b6000602082840312156117705761176f61148b565b5b600061177e848285016114d9565b91505092915050565b600081519050919050565b600082825260208201905092915050565b6000819050602082019050919050565b6117bc816114b0565b82525050565b6117cb816114ee565b82525050565b6117da81611619565b82525050565b610100820160008201516117f760008501826117b3565b50602082015161180a60208501826117c2565b50604082015161181d60408501826117c2565b50606082015161183060608501826117c2565b50608082015161184360808501826117c2565b5060a082015161185660a08501826117c2565b5060c082015161186960c08501826117d1565b5060e082015161187c60e08501826117d1565b50505050565b600061188e83836117e0565b6101008301905092915050565b6000602082019050919050565b60006118b382611787565b6118bd8185611792565b93506118c8836117a3565b8060005b838110156118f95781516118e08882611882565b97506118eb8361189b565b9250506001810190506118cc565b5085935050505092915050565b6000602082019050818103600083015261192081846118a8565b905092915050565b61193181611619565b82525050565b60006101008201905061194d600083018b61158e565b61195a602083018a611564565b6119676040830189611564565b6119746060830188611564565b6119816080830187611564565b61198e60a0830186611564565b61199b60c0830185611928565b6119a860e0830184611928565b9998505050505050505050565b600082825260208201905092915050565b7f496e76616c696420706967677920696e64657800000000000000000000000000600082015250565b60006119fc6013836119b5565b9150611a07826119c6565b602082019050919050565b60006020820190508181036000830152611a2b816119ef565b9050919050565b7f4e487b7100000000000000000000000000000000000000000000000000000000600052603260045260246000fd5b600060a082019050611a76600083018861158e565b611a8360208301876115c2565b611a90604083018661158e565b611a9d606083018561158e565b611aaa6080830184611564565b9695505050505050565b600081519050611ac3816114f8565b92915050565b600060208284031215611adf57611ade61148b565b5b6000611aed84828501611ab4565b91505092915050565b7f4e487b7100000000000000000000000000000000000000000000000000000000600052601160045260246000fd5b6000611b30826114ee565b9150611b3b836114ee565b9250828201905080821115611b5357611b52611af6565b5b92915050565b7f416c726561647920636c61696d65640000000000000000000000000000000000600082015250565b6000611b8f600f836119b5565b9150611b9a82611b59565b602082019050919050565b60006020820190508181036000830152611bbe81611b82565b9050919050565b7f4c6f636b206e6f7420656e646564000000000000000000000000000000000000600082015250565b6000611bfb600e836119b5565b9150611c0682611bc5565b602082019050919050565b60006020820190508181036000830152611c2a81611bee565b9050919050565b6000604082019050611c46600083018561158e565b611c536020830184611564565b9392505050565b600081519050611c6981611625565b92915050565b600060208284031215611c8557611c8461148b565b5b6000611c9384828501611c5a565b91505092915050565b6000604082019050611cb16000830185611564565b611cbe6020830184611564565b9392505050565b7f416d6f756e74206d75737420626520706f736974697665000000000000000000600082015250565b6000611cfb6017836119b5565b9150611d0682611cc5565b602082019050919050565b60006020820190508181036000830152611d2a81611cee565b9050919050565b7f4475726174696f6e206d75737420626520706f73697469766500000000000000600082015250565b6000611d676019836119b5565b9150611d7282611d31565b602082019050919050565b60006020820190508181036000830152611d9681611d5a565b9050919050565b6000604082019050611db26000830185611564565b611dbf6020830184611928565b9392505050565b600080600060608486031215611ddf57611dde61148b565b5b6000611ded86828701611ab4565b9350506020611dfe86828701611ab4565b9250506040611e0f86828701611ab4565b9150509250925092565b6000606082019050611e2e600083018661158e565b611e3b602083018561158e565b611e486040830184611564565b949350505050565b6000611e5b826114ee565b9150611e66836114ee565b9250828202611e74816114ee565b91508282048414831517611e8b57611e8a611af6565b5b5092915050565b7f4e487b7100000000000000000000000000000000000000000000000000000000600052601260045260246000fd5b6000611ecc826114ee565b9150611ed7836114ee565b925082611ee757611ee6611e92565b5b828204905092915050565b6000611efd826114ee565b9150611f08836114ee565b9250828203905081811115611f2057611f1f611af6565b5b92915050565b600060c082019050611f3b6000830189611564565b611f486020830188611564565b611f556040830187611928565b611f626060830186611564565b611f6f6080830185611564565b611f7c60a0830184611564565b979650505050505050565b7f4d656e746f3a20496e73756666696369656e74206f7574707574000000000000600082015250565b6000611fbd601a836119b5565b9150611fc882611f87565b602082019050919050565b60006020820190508181036000830152611fec81611fb0565b9050919050565b600060c082019050612008600083018961158e565b61201560208301886115c2565b612022604083018761158e565b61202f606083018661158e565b61203c6080830185611564565b61204960a0830184611564565b97965050505050505056fea264697066735822122082fac521355637d43ba19586d0f8e15b40ec0504311aff6972dbb14501bd9a7b64736f6c63430008140033",
  "linkReferences": {},
  "deployedLinkReferences": {}
}