{
  "_format": "hh-sol-artifact-1",
  "contractName": "PiggyBank",
  "sourceName": "contracts/cPiggyBank.sol",
  "abi": [
    {
      "inputs": [
        {
          "internalType": "address",
          "name": "_iMentoBroker",
          "type": "address"
        },
        {
          "internalType": "address",
          "name": "_mentoOracle",
          "type": "address"
        },
        {
          "internalType": "address",
          "name": "_exchangeProvider",
          "type": "address"
        },
        {
          "internalType": "address",
          "name": "_cCOP",
          "type": "address"
        },
        {
          "internalType": "address",
          "name": "_cUSD",
          "type": "address"
        },
        {
          "internalType": "bytes32",
          "name": "_exchangeId_cCOP_cUSD",
          "type": "bytes32"
        }
      ],
      "stateMutability": "nonpayable",
      "type": "constructor"
    },
    {
      "anonymous": false,
      "inputs": [
        {
          "indexed": true,
          "internalType": "address",
          "name": "user",
          "type": "address"
        },
        {
          "indexed": false,
          "internalType": "uint256",
          "name": "index",
          "type": "uint256"
        },
        {
          "indexed": false,
          "internalType": "uint256",
          "name": "finalCCOPReturn",
          "type": "uint256"
        }
      ],
      "name": "PiggyClaimed",
      "type": "event"
    },
    {
      "anonymous": false,
      "inputs": [
        {
          "indexed": true,
          "internalType": "address",
          "name": "user",
          "type": "address"
        },
        {
          "indexed": false,
          "internalType": "uint256",
          "name": "totalAmount",
          "type": "uint256"
        },
        {
          "indexed": false,
          "internalType": "uint256",
          "name": "duration",
          "type": "uint256"
        },
        {
          "indexed": false,
          "internalType": "bool",
          "name": "safeMode",
          "type": "bool"
        },
        {
          "indexed": false,
          "internalType": "uint256",
          "name": "cUSDAmountReceived",
          "type": "uint256"
        }
      ],
      "name": "PiggyCreated",
      "type": "event"
    },
    {
      "inputs": [],
      "name": "cCOP",
      "outputs": [
        {
          "internalType": "address",
          "name": "",
          "type": "address"
        }
      ],
      "stateMutability": "view",
      "type": "function"
    },
    {
      "inputs": [],
      "name": "cUSD",
      "outputs": [
        {
          "internalType": "address",
          "name": "",
          "type": "address"
        }
      ],
      "stateMutability": "view",
      "type": "function"
    },
    {
      "inputs": [
        {
          "internalType": "uint256",
          "name": "_index",
          "type": "uint256"
        }
      ],
      "name": "claim",
      "outputs": [],
      "stateMutability": "nonpayable",
      "type": "function"
    },
    {
      "inputs": [
        {
          "internalType": "uint256",
          "name": "amount",
          "type": "uint256"
        },
        {
          "internalType": "uint256",
          "name": "lockDays",
          "type": "uint256"
        },
        {
          "internalType": "bool",
          "name": "safeMode",
          "type": "bool"
        }
      ],
      "name": "deposit",
      "outputs": [],
      "stateMutability": "nonpayable",
      "type": "function"
    },
    {
      "inputs": [],
      "name": "exchangeId_cCOP_cUSD",
      "outputs": [
        {
          "internalType": "bytes32",
          "name": "",
          "type": "bytes32"
        }
      ],
      "stateMutability": "view",
      "type": "function"
    },
    {
      "inputs": [],
      "name": "exchangeProvider",
      "outputs": [
        {
          "internalType": "address",
          "name": "",
          "type": "address"
        }
      ],
      "stateMutability": "view",
      "type": "function"
    },
    {
      "inputs": [
        {
          "internalType": "address",
          "name": "_user",
          "type": "address"
        },
        {
          "internalType": "uint256",
          "name": "_index",
          "type": "uint256"
        }
      ],
      "name": "getPiggyValue",
      "outputs": [
        {
          "internalType": "uint256",
          "name": "",
          "type": "uint256"
        }
      ],
      "stateMutability": "view",
      "type": "function"
    },
    {
      "inputs": [
        {
          "internalType": "address",
          "name": "_user",
          "type": "address"
        }
      ],
      "name": "getUserPiggies",
      "outputs": [
        {
          "components": [
            {
              "internalType": "address",
              "name": "owner",
              "type": "address"
            },
            {
              "internalType": "uint256",
              "name": "cCOPAmount",
              "type": "uint256"
            },
            {
              "internalType": "uint256",
              "name": "startTime",
              "type": "uint256"
            },
            {
              "internalType": "uint256",
              "name": "duration",
              "type": "uint256"
            },
            {
              "internalType": "bool",
              "name": "safeMode",
              "type": "bool"
            },
            {
              "internalType": "uint256",
              "name": "initialUSDAmount",
              "type": "uint256"
            },
            {
              "internalType": "bool",
              "name": "claimed",
              "type": "bool"
            }
          ],
          "internalType": "struct PiggyBank.Piggy[]",
          "name": "",
          "type": "tuple[]"
        }
      ],
      "stateMutability": "view",
      "type": "function"
    },
    {
      "inputs": [],
      "name": "iMentoBroker",
      "outputs": [
        {
          "internalType": "contract IMentoBroker",
          "name": "",
          "type": "address"
        }
      ],
      "stateMutability": "view",
      "type": "function"
    },
    {
      "inputs": [],
      "name": "mentoOracle",
      "outputs": [
        {
          "internalType": "contract MentoOracleHandler",
          "name": "",
          "type": "address"
        }
      ],
      "stateMutability": "view",
      "type": "function"
    },
    {
      "inputs": [
        {
          "internalType": "address",
          "name": "",
          "type": "address"
        },
        {
          "internalType": "uint256",
          "name": "",
          "type": "uint256"
        }
      ],
      "name": "piggies",
      "outputs": [
        {
          "internalType": "address",
          "name": "owner",
          "type": "address"
        },
        {
          "internalType": "uint256",
          "name": "cCOPAmount",
          "type": "uint256"
        },
        {
          "internalType": "uint256",
          "name": "startTime",
          "type": "uint256"
        },
        {
          "internalType": "uint256",
          "name": "duration",
          "type": "uint256"
        },
        {
          "internalType": "bool",
          "name": "safeMode",
          "type": "bool"
        },
        {
          "internalType": "uint256",
          "name": "initialUSDAmount",
          "type": "uint256"
        },
        {
          "internalType": "bool",
          "name": "claimed",
          "type": "bool"
        }
      ],
      "stateMutability": "view",
      "type": "function"
    }
  ],
  "bytecode": "0x6101006040523480156200001257600080fd5b5060405162001f9d38038062001f9d83398181016040528101906200003891906200020e565b85600160006101000a81548173ffffffffffffffffffffffffffffffffffffffff021916908373ffffffffffffffffffffffffffffffffffffffff160217905550846000806101000a81548173ffffffffffffffffffffffffffffffffffffffff021916908373ffffffffffffffffffffffffffffffffffffffff1602179055508373ffffffffffffffffffffffffffffffffffffffff1660c08173ffffffffffffffffffffffffffffffffffffffff16815250508273ffffffffffffffffffffffffffffffffffffffff1660808173ffffffffffffffffffffffffffffffffffffffff16815250508173ffffffffffffffffffffffffffffffffffffffff1660a08173ffffffffffffffffffffffffffffffffffffffff16815250508060e08181525050505050505050620002aa565b600080fd5b600073ffffffffffffffffffffffffffffffffffffffff82169050919050565b60006200019b826200016e565b9050919050565b620001ad816200018e565b8114620001b957600080fd5b50565b600081519050620001cd81620001a2565b92915050565b6000819050919050565b620001e881620001d3565b8114620001f457600080fd5b50565b6000815190506200020881620001dd565b92915050565b60008060008060008060c087890312156200022e576200022d62000169565b5b60006200023e89828a01620001bc565b96505060206200025189828a01620001bc565b95505060406200026489828a01620001bc565b94505060606200027789828a01620001bc565b93505060806200028a89828a01620001bc565b92505060a06200029d89828a01620001f7565b9150509295509295509295565b60805160a05160c05160e051611c5762000346600039600081816103a9015281816104b401528181610ebe015261108801526000818161038801528181610c2901528181610e9d01526110670152600081816103ca015281816104900152818161067801526109e40152600081816103eb01528181610699015281816106f801528181610915015281816109c30152610e380152611c576000f3fe608060405234801561001057600080fd5b50600436106100a95760003560e01c8063537514a211610071578063537514a214610152578063591b0014146101705780639efe1cd21461018e578063a5c7343c146101ac578063d5238192146101dc578063e733062714610212576100a9565b806308dae84d146100ae5780631fccf672146100de5780632a063b97146100fc578063379607f51461011a57806343a0d06614610136575b600080fd5b6100c860048036038101906100c391906111b2565b610230565b6040516100d59190611201565b60405180910390f35b6100e661048e565b6040516100f3919061122b565b60405180910390f35b6101046104b2565b604051610111919061125f565b60405180910390f35b610134600480360381019061012f919061127a565b6104d6565b005b610150600480360381019061014b91906112df565b6107eb565b005b61015a610bdd565b6040516101679190611391565b60405180910390f35b610178610c03565b60405161018591906113cd565b60405180910390f35b610196610c27565b6040516101a3919061122b565b60405180910390f35b6101c660048036038101906101c191906113e8565b610c4b565b6040516101d3919061157f565b60405180910390f35b6101f660048036038101906101f191906111b2565b610d9d565b60405161020997969594939291906115b0565b60405180910390f35b61021a610e36565b604051610227919061122b565b60405180910390f35b6000600260008473ffffffffffffffffffffffffffffffffffffffff1673ffffffffffffffffffffffffffffffffffffffff1681526020019081526020016000208054905082106102b6576040517f08c379a00000000000000000000000000000000000000000000000000000000081526004016102ad9061167c565b60405180910390fd5b6000600260008573ffffffffffffffffffffffffffffffffffffffff1673ffffffffffffffffffffffffffffffffffffffff16815260200190815260200160002083815481106103095761030861169c565b5b906000526020600020906007020190508060060160009054906101000a900460ff161561033a576000915050610488565b6000808260050154111561047357600160009054906101000a900473ffffffffffffffffffffffffffffffffffffffff1673ffffffffffffffffffffffffffffffffffffffff1663a20f23057f00000000000000000000000000000000000000000000000000000000000000007f00000000000000000000000000000000000000000000000000000000000000007f00000000000000000000000000000000000000000000000000000000000000007f000000000000000000000000000000000000000000000000000000000000000087600501546040518663ffffffff1660e01b815260040161042f9594939291906116cb565b602060405180830381865afa15801561044c573d6000803e3d6000fd5b505050506040513d601f19601f820116820180604052508101906104709190611733565b90505b808260010154610483919061178f565b925050505b92915050565b7f000000000000000000000000000000000000000000000000000000000000000081565b7f000000000000000000000000000000000000000000000000000000000000000081565b600260003373ffffffffffffffffffffffffffffffffffffffff1673ffffffffffffffffffffffffffffffffffffffff16815260200190815260200160002080549050811061055a576040517f08c379a00000000000000000000000000000000000000000000000000000000081526004016105519061167c565b60405180910390fd5b6000600260003373ffffffffffffffffffffffffffffffffffffffff1673ffffffffffffffffffffffffffffffffffffffff16815260200190815260200160002082815481106105ad576105ac61169c565b5b906000526020600020906007020190508060060160009054906101000a900460ff161561060f576040517f08c379a00000000000000000000000000000000000000000000000000000000081526004016106069061180f565b60405180910390fd5b80600301548160020154610623919061178f565b421015610665576040517f08c379a000000000000000000000000000000000000000000000000000000000815260040161065c9061187b565b60405180910390fd5b600080826005015411156106c5576106c27f00000000000000000000000000000000000000000000000000000000000000007f00000000000000000000000000000000000000000000000000000000000000008460050154610e5a565b90505b60008183600101546106d7919061178f565b905060018360060160006101000a81548160ff0219169083151502179055507f000000000000000000000000000000000000000000000000000000000000000073ffffffffffffffffffffffffffffffffffffffff1663a9059cbb33836040518363ffffffff1660e01b815260040161075192919061189b565b6020604051808303816000875af1158015610770573d6000803e3d6000fd5b505050506040513d601f19601f8201168201806040525081019061079491906118d9565b503373ffffffffffffffffffffffffffffffffffffffff167f2d37796ca173574817be1543691c0bfc987858e98dc7aed381809472d265752f85836040516107dd929190611906565b60405180910390a250505050565b6000831161082e576040517f08c379a00000000000000000000000000000000000000000000000000000000081526004016108259061197b565b60405180910390fd5b60008211610871576040517f08c379a0000000000000000000000000000000000000000000000000000000008152600401610868906119e7565b60405180910390fd5b60008060008054906101000a900473ffffffffffffffffffffffffffffffffffffffff1673ffffffffffffffffffffffffffffffffffffffff1663b4f35d5586856040518363ffffffff1660e01b81526004016108cf929190611a07565b6040805180830381865afa1580156108eb573d6000803e3d6000fd5b505050506040513d601f19601f8201168201806040525081019061090f9190611a30565b915091507f000000000000000000000000000000000000000000000000000000000000000073ffffffffffffffffffffffffffffffffffffffff166323b872dd3330886040518463ffffffff1660e01b815260040161097093929190611a70565b6020604051808303816000875af115801561098f573d6000803e3d6000fd5b505050506040513d601f19601f820116820180604052508101906109b391906118d9565b50600080821115610a0c57610a097f00000000000000000000000000000000000000000000000000000000000000007f000000000000000000000000000000000000000000000000000000000000000084610e5a565b90505b600260003373ffffffffffffffffffffffffffffffffffffffff1673ffffffffffffffffffffffffffffffffffffffff1681526020019081526020016000206040518060e001604052803373ffffffffffffffffffffffffffffffffffffffff1681526020018581526020014281526020016201518088610a8d9190611aa7565b8152602001861515815260200183815260200160001515815250908060018154018082558091505060019003906000526020600020906007020160009091909190915060008201518160000160006101000a81548173ffffffffffffffffffffffffffffffffffffffff021916908373ffffffffffffffffffffffffffffffffffffffff16021790555060208201518160010155604082015181600201556060820151816003015560808201518160040160006101000a81548160ff02191690831515021790555060a0820151816005015560c08201518160060160006101000a81548160ff02191690831515021790555050503373ffffffffffffffffffffffffffffffffffffffff167f4eb3cfe2fd75faeaa97c98444506c20e6e1ba4a5f2d7e643f0f9c6a329b89db387878785604051610bcd9493929190611ae9565b60405180910390a2505050505050565b600160009054906101000a900473ffffffffffffffffffffffffffffffffffffffff1681565b60008054906101000a900473ffffffffffffffffffffffffffffffffffffffff1681565b7f000000000000000000000000000000000000000000000000000000000000000081565b6060600260008373ffffffffffffffffffffffffffffffffffffffff1673ffffffffffffffffffffffffffffffffffffffff168152602001908152602001600020805480602002602001604051908101604052809291908181526020016000905b82821015610d9257838290600052602060002090600702016040518060e00160405290816000820160009054906101000a900473ffffffffffffffffffffffffffffffffffffffff1673ffffffffffffffffffffffffffffffffffffffff1673ffffffffffffffffffffffffffffffffffffffff1681526020016001820154815260200160028201548152602001600382015481526020016004820160009054906101000a900460ff16151515158152602001600582015481526020016006820160009054906101000a900460ff16151515158152505081526020019060010190610cac565b505050509050919050565b60026020528160005260406000208181548110610db957600080fd5b9060005260206000209060070201600091509150508060000160009054906101000a900473ffffffffffffffffffffffffffffffffffffffff16908060010154908060020154908060030154908060040160009054906101000a900460ff16908060050154908060060160009054906101000a900460ff16905087565b7f000000000000000000000000000000000000000000000000000000000000000081565b600080600160009054906101000a900473ffffffffffffffffffffffffffffffffffffffff1673ffffffffffffffffffffffffffffffffffffffff1663a20f23057f00000000000000000000000000000000000000000000000000000000000000007f00000000000000000000000000000000000000000000000000000000000000008888886040518663ffffffff1660e01b8152600401610f009594939291906116cb565b602060405180830381865afa158015610f1d573d6000803e3d6000fd5b505050506040513d601f19601f82011682018060405250810190610f419190611733565b905060008111610f86576040517f08c379a0000000000000000000000000000000000000000000000000000000008152600401610f7d90611ba0565b60405180910390fd5b8473ffffffffffffffffffffffffffffffffffffffff1663095ea7b3600160009054906101000a900473ffffffffffffffffffffffffffffffffffffffff16856040518363ffffffff1660e01b8152600401610fe392919061189b565b6020604051808303816000875af1158015611002573d6000803e3d6000fd5b505050506040513d601f19601f8201168201806040525081019061102691906118d9565b50600160009054906101000a900473ffffffffffffffffffffffffffffffffffffffff1673ffffffffffffffffffffffffffffffffffffffff1663ddbbe8507f00000000000000000000000000000000000000000000000000000000000000007f0000000000000000000000000000000000000000000000000000000000000000888888876040518763ffffffff1660e01b81526004016110cc96959493929190611bc0565b6020604051808303816000875af11580156110eb573d6000803e3d6000fd5b505050506040513d601f19601f8201168201806040525081019061110f9190611733565b9150509392505050565b600080fd5b600073ffffffffffffffffffffffffffffffffffffffff82169050919050565b60006111498261111e565b9050919050565b6111598161113e565b811461116457600080fd5b50565b60008135905061117681611150565b92915050565b6000819050919050565b61118f8161117c565b811461119a57600080fd5b50565b6000813590506111ac81611186565b92915050565b600080604083850312156111c9576111c8611119565b5b60006111d785828601611167565b92505060206111e88582860161119d565b9150509250929050565b6111fb8161117c565b82525050565b600060208201905061121660008301846111f2565b92915050565b6112258161113e565b82525050565b6000602082019050611240600083018461121c565b92915050565b6000819050919050565b61125981611246565b82525050565b60006020820190506112746000830184611250565b92915050565b6000602082840312156112905761128f611119565b5b600061129e8482850161119d565b91505092915050565b60008115159050919050565b6112bc816112a7565b81146112c757600080fd5b50565b6000813590506112d9816112b3565b92915050565b6000806000606084860312156112f8576112f7611119565b5b60006113068682870161119d565b93505060206113178682870161119d565b9250506040611328868287016112ca565b9150509250925092565b6000819050919050565b600061135761135261134d8461111e565b611332565b61111e565b9050919050565b60006113698261133c565b9050919050565b600061137b8261135e565b9050919050565b61138b81611370565b82525050565b60006020820190506113a66000830184611382565b92915050565b60006113b78261135e565b9050919050565b6113c7816113ac565b82525050565b60006020820190506113e260008301846113be565b92915050565b6000602082840312156113fe576113fd611119565b5b600061140c84828501611167565b91505092915050565b600081519050919050565b600082825260208201905092915050565b6000819050602082019050919050565b61144a8161113e565b82525050565b6114598161117c565b82525050565b611468816112a7565b82525050565b60e0820160008201516114846000850182611441565b5060208201516114976020850182611450565b5060408201516114aa6040850182611450565b5060608201516114bd6060850182611450565b5060808201516114d0608085018261145f565b5060a08201516114e360a0850182611450565b5060c08201516114f660c085018261145f565b50505050565b6000611508838361146e565b60e08301905092915050565b6000602082019050919050565b600061152c82611415565b6115368185611420565b935061154183611431565b8060005b8381101561157257815161155988826114fc565b975061156483611514565b925050600181019050611545565b5085935050505092915050565b600060208201905081810360008301526115998184611521565b905092915050565b6115aa816112a7565b82525050565b600060e0820190506115c5600083018a61121c565b6115d260208301896111f2565b6115df60408301886111f2565b6115ec60608301876111f2565b6115f960808301866115a1565b61160660a08301856111f2565b61161360c08301846115a1565b98975050505050505050565b600082825260208201905092915050565b7f496e76616c696420706967677920696e64657800000000000000000000000000600082015250565b600061166660138361161f565b915061167182611630565b602082019050919050565b6000602082019050818103600083015261169581611659565b9050919050565b7f4e487b7100000000000000000000000000000000000000000000000000000000600052603260045260246000fd5b600060a0820190506116e0600083018861121c565b6116ed6020830187611250565b6116fa604083018661121c565b611707606083018561121c565b61171460808301846111f2565b9695505050505050565b60008151905061172d81611186565b92915050565b60006020828403121561174957611748611119565b5b60006117578482850161171e565b91505092915050565b7f4e487b7100000000000000000000000000000000000000000000000000000000600052601160045260246000fd5b600061179a8261117c565b91506117a58361117c565b92508282019050808211156117bd576117bc611760565b5b92915050565b7f416c726561647920636c61696d65640000000000000000000000000000000000600082015250565b60006117f9600f8361161f565b9150611804826117c3565b602082019050919050565b60006020820190508181036000830152611828816117ec565b9050919050565b7f4c6f636b206e6f7420656e646564000000000000000000000000000000000000600082015250565b6000611865600e8361161f565b91506118708261182f565b602082019050919050565b6000602082019050818103600083015261189481611858565b9050919050565b60006040820190506118b0600083018561121c565b6118bd60208301846111f2565b9392505050565b6000815190506118d3816112b3565b92915050565b6000602082840312156118ef576118ee611119565b5b60006118fd848285016118c4565b91505092915050565b600060408201905061191b60008301856111f2565b61192860208301846111f2565b9392505050565b7f416d6f756e74206d75737420626520706f736974697665000000000000000000600082015250565b600061196560178361161f565b91506119708261192f565b602082019050919050565b6000602082019050818103600083015261199481611958565b9050919050565b7f4475726174696f6e206d75737420626520706f73697469766500000000000000600082015250565b60006119d160198361161f565b91506119dc8261199b565b602082019050919050565b60006020820190508181036000830152611a00816119c4565b9050919050565b6000604082019050611a1c60008301856111f2565b611a2960208301846115a1565b9392505050565b60008060408385031215611a4757611a46611119565b5b6000611a558582860161171e565b9250506020611a668582860161171e565b9150509250929050565b6000606082019050611a85600083018661121c565b611a92602083018561121c565b611a9f60408301846111f2565b949350505050565b6000611ab28261117c565b9150611abd8361117c565b9250828202611acb8161117c565b91508282048414831517611ae257611ae1611760565b5b5092915050565b6000608082019050611afe60008301876111f2565b611b0b60208301866111f2565b611b1860408301856115a1565b611b2560608301846111f2565b95945050505050565b7f4d656e746f3a20496e73756666696369656e74206f757470757420616d6f756e60008201527f7400000000000000000000000000000000000000000000000000000000000000602082015250565b6000611b8a60218361161f565b9150611b9582611b2e565b604082019050919050565b60006020820190508181036000830152611bb981611b7d565b9050919050565b600060c082019050611bd5600083018961121c565b611be26020830188611250565b611bef604083018761121c565b611bfc606083018661121c565b611c0960808301856111f2565b611c1660a08301846111f2565b97965050505050505056fea2646970667358221220e4697927b76c128e17712a01b941d115d3113ef03d0b72f065e5e8f16fc3b54664736f6c63430008140033",
  "linkReferences": {},
  "deployedLinkReferences": {}
}