{
  "_format": "hh-sol-artifact-1",
  "contractName": "MentoRouterMock",
  "sourceName": "contracts/test/MentoRouterMock.sol",
  "abi": [
    {
      "inputs": [
        {
          "internalType": "address",
          "name": "_cUSD",
          "type": "address"
        },
        {
          "internalType": "address",
          "name": "_cREAL",
          "type": "address"
        },
        {
          "internalType": "address",
          "name": "_cCOP",
          "type": "address"
        }
      ],
      "stateMutability": "nonpayable",
      "type": "constructor"
    },
    {
      "stateMutability": "nonpayable",
      "type": "fallback"
    },
    {
      "inputs": [],
      "name": "cCOP",
      "outputs": [
        {
          "internalType": "address",
          "name": "",
          "type": "address"
        }
      ],
      "stateMutability": "view",
      "type": "function"
    },
    {
      "inputs": [],
      "name": "cREAL",
      "outputs": [
        {
          "internalType": "address",
          "name": "",
          "type": "address"
        }
      ],
      "stateMutability": "view",
      "type": "function"
    },
    {
      "inputs": [],
      "name": "cUSD",
      "outputs": [
        {
          "internalType": "address",
          "name": "",
          "type": "address"
        }
      ],
      "stateMutability": "view",
      "type": "function"
    },
    {
      "inputs": [
        {
          "internalType": "address",
          "name": "fromToken",
          "type": "address"
        },
        {
          "internalType": "address",
          "name": "toToken",
          "type": "address"
        },
        {
          "internalType": "uint256",
          "name": "amountIn",
          "type": "uint256"
        }
      ],
      "name": "getSwapOutput",
      "outputs": [
        {
          "internalType": "uint256",
          "name": "",
          "type": "uint256"
        }
      ],
      "stateMutability": "view",
      "type": "function"
    },
    {
      "inputs": [
        {
          "internalType": "address",
          "name": "fromToken",
          "type": "address"
        },
        {
          "internalType": "address",
          "name": "toToken",
          "type": "address"
        },
        {
          "internalType": "uint256",
          "name": "amountIn",
          "type": "uint256"
        },
        {
          "internalType": "uint256",
          "name": "",
          "type": "uint256"
        }
      ],
      "name": "swap",
      "outputs": [
        {
          "internalType": "uint256",
          "name": "",
          "type": "uint256"
        }
      ],
      "stateMutability": "nonpayable",
      "type": "function"
    }
  ],
  "bytecode": "0x608060405234801561001057600080fd5b50604051610d37380380610d378339818101604052810190610032919061015f565b826000806101000a81548173ffffffffffffffffffffffffffffffffffffffff021916908373ffffffffffffffffffffffffffffffffffffffff16021790555081600160006101000a81548173ffffffffffffffffffffffffffffffffffffffff021916908373ffffffffffffffffffffffffffffffffffffffff16021790555080600260006101000a81548173ffffffffffffffffffffffffffffffffffffffff021916908373ffffffffffffffffffffffffffffffffffffffff1602179055505050506101b2565b600080fd5b600073ffffffffffffffffffffffffffffffffffffffff82169050919050565b600061012c82610101565b9050919050565b61013c81610121565b811461014757600080fd5b50565b60008151905061015981610133565b92915050565b600080600060608486031215610178576101776100fc565b5b60006101868682870161014a565b93505060206101978682870161014a565b92505060406101a88682870161014a565b9150509250925092565b610b76806101c16000396000f3fe608060405234801561001057600080fd5b506004361061005b5760003560e01c80631fccf6721461005e57806372ea90761461007c578063d47ce0a6146100ac578063e7330627146100ca578063fe029156146100e85761005c565b5b005b610066610118565b60405161007391906106ef565b60405180910390f35b61009660048036038101906100919190610771565b61013c565b6040516100a391906107d3565b60405180910390f35b6100b46102ec565b6040516100c191906106ef565b60405180910390f35b6100d2610312565b6040516100df91906106ef565b60405180910390f35b61010260048036038101906100fd91906107ee565b610338565b60405161010f91906107d3565b60405180910390f35b60008054906101000a900473ffffffffffffffffffffffffffffffffffffffff1681565b600080670de0b6b3a7640000905060008054906101000a900473ffffffffffffffffffffffffffffffffffffffff1673ffffffffffffffffffffffffffffffffffffffff168573ffffffffffffffffffffffffffffffffffffffff161480156101f25750600260009054906101000a900473ffffffffffffffffffffffffffffffffffffffff1673ffffffffffffffffffffffffffffffffffffffff168473ffffffffffffffffffffffffffffffffffffffff16145b1561020757670e92596fd629000090506102c3565b600160009054906101000a900473ffffffffffffffffffffffffffffffffffffffff1673ffffffffffffffffffffffffffffffffffffffff168573ffffffffffffffffffffffffffffffffffffffff161480156102b15750600260009054906101000a900473ffffffffffffffffffffffffffffffffffffffff1673ffffffffffffffffffffffffffffffffffffffff168473ffffffffffffffffffffffffffffffffffffffff16145b156102c257670f43fc2c04ee000090505b5b670de0b6b3a764000081846102d89190610884565b6102e291906108f5565b9150509392505050565b600160009054906101000a900473ffffffffffffffffffffffffffffffffffffffff1681565b600260009054906101000a900473ffffffffffffffffffffffffffffffffffffffff1681565b600080831161037c576040517f08c379a000000000000000000000000000000000000000000000000000000000815260040161037390610983565b60405180910390fd5b6000670de0b6b3a7640000905060008054906101000a900473ffffffffffffffffffffffffffffffffffffffff1673ffffffffffffffffffffffffffffffffffffffff168673ffffffffffffffffffffffffffffffffffffffff161480156104315750600260009054906101000a900473ffffffffffffffffffffffffffffffffffffffff1673ffffffffffffffffffffffffffffffffffffffff168573ffffffffffffffffffffffffffffffffffffffff16145b1561044657670e92596fd62900009050610502565b600160009054906101000a900473ffffffffffffffffffffffffffffffffffffffff1673ffffffffffffffffffffffffffffffffffffffff168673ffffffffffffffffffffffffffffffffffffffff161480156104f05750600260009054906101000a900473ffffffffffffffffffffffffffffffffffffffff1673ffffffffffffffffffffffffffffffffffffffff168573ffffffffffffffffffffffffffffffffffffffff16145b1561050157670f43fc2c04ee000090505b5b6000670de0b6b3a764000082866105199190610884565b61052391906108f5565b90508673ffffffffffffffffffffffffffffffffffffffff166323b872dd3330886040518463ffffffff1660e01b8152600401610562939291906109a3565b6020604051808303816000875af1158015610581573d6000803e3d6000fd5b505050506040513d601f19601f820116820180604052508101906105a59190610a12565b6105e4576040517f08c379a00000000000000000000000000000000000000000000000000000000081526004016105db90610a8b565b60405180910390fd5b8573ffffffffffffffffffffffffffffffffffffffff1663a9059cbb33836040518363ffffffff1660e01b815260040161061f929190610aab565b6020604051808303816000875af115801561063e573d6000803e3d6000fd5b505050506040513d601f19601f820116820180604052508101906106629190610a12565b6106a1576040517f08c379a000000000000000000000000000000000000000000000000000000000815260040161069890610b20565b60405180910390fd5b8092505050949350505050565b600073ffffffffffffffffffffffffffffffffffffffff82169050919050565b60006106d9826106ae565b9050919050565b6106e9816106ce565b82525050565b600060208201905061070460008301846106e0565b92915050565b600080fd5b610718816106ce565b811461072357600080fd5b50565b6000813590506107358161070f565b92915050565b6000819050919050565b61074e8161073b565b811461075957600080fd5b50565b60008135905061076b81610745565b92915050565b60008060006060848603121561078a5761078961070a565b5b600061079886828701610726565b93505060206107a986828701610726565b92505060406107ba8682870161075c565b9150509250925092565b6107cd8161073b565b82525050565b60006020820190506107e860008301846107c4565b92915050565b600080600080608085870312156108085761080761070a565b5b600061081687828801610726565b945050602061082787828801610726565b93505060406108388782880161075c565b92505060606108498782880161075c565b91505092959194509250565b7f4e487b7100000000000000000000000000000000000000000000000000000000600052601160045260246000fd5b600061088f8261073b565b915061089a8361073b565b92508282026108a88161073b565b915082820484148315176108bf576108be610855565b5b5092915050565b7f4e487b7100000000000000000000000000000000000000000000000000000000600052601260045260246000fd5b60006109008261073b565b915061090b8361073b565b92508261091b5761091a6108c6565b5b828204905092915050565b600082825260208201905092915050565b7f416d6f756e74206d757374206265203e20300000000000000000000000000000600082015250565b600061096d601283610926565b915061097882610937565b602082019050919050565b6000602082019050818103600083015261099c81610960565b9050919050565b60006060820190506109b860008301866106e0565b6109c560208301856106e0565b6109d260408301846107c4565b949350505050565b60008115159050919050565b6109ef816109da565b81146109fa57600080fd5b50565b600081519050610a0c816109e6565b92915050565b600060208284031215610a2857610a2761070a565b5b6000610a36848285016109fd565b91505092915050565b7f5472616e7366657220696e206661696c65640000000000000000000000000000600082015250565b6000610a75601283610926565b9150610a8082610a3f565b602082019050919050565b60006020820190508181036000830152610aa481610a68565b9050919050565b6000604082019050610ac060008301856106e0565b610acd60208301846107c4565b9392505050565b7f5472616e73666572206f7574206661696c656400000000000000000000000000600082015250565b6000610b0a601383610926565b9150610b1582610ad4565b602082019050919050565b60006020820190508181036000830152610b3981610afd565b905091905056fea264697066735822122092a489c9d584754b02bf8ebbd7a2e22da2a887b8b6128dd3b667a2fd9c3f478b64736f6c63430008140033",
  "linkReferences": {},
  "deployedLinkReferences": {}
}